{
  "contractName": "Character",
  "abi": [
    {
      "anonymous": false,
      "inputs": [
        {
          "indexed": true,
          "internalType": "address",
          "name": "previousOwner",
          "type": "address"
        },
        {
          "indexed": true,
          "internalType": "address",
          "name": "newOwner",
          "type": "address"
        }
      ],
      "name": "OwnershipTransferred",
      "type": "event"
    },
    {
      "anonymous": false,
      "inputs": [
        {
          "indexed": true,
          "internalType": "address",
          "name": "account",
          "type": "address"
        },
        {
          "indexed": false,
          "internalType": "uint32",
          "name": "level",
          "type": "uint32"
        }
      ],
      "name": "Upgrade",
      "type": "event"
    },
    {
      "inputs": [],
      "name": "owner",
      "outputs": [
        {
          "internalType": "address",
          "name": "",
          "type": "address"
        }
      ],
      "stateMutability": "view",
      "type": "function",
      "constant": true
    },
    {
      "inputs": [],
      "name": "renounceOwnership",
      "outputs": [],
      "stateMutability": "nonpayable",
      "type": "function"
    },
    {
      "inputs": [
        {
          "internalType": "address",
          "name": "newOwner",
          "type": "address"
        }
      ],
      "name": "transferOwnership",
      "outputs": [],
      "stateMutability": "nonpayable",
      "type": "function"
    },
    {
      "inputs": [
        {
          "internalType": "address",
          "name": "tokenContract",
          "type": "address"
        },
        {
          "internalType": "address",
          "name": "owner",
          "type": "address"
        }
      ],
      "name": "initialize",
      "outputs": [],
      "stateMutability": "nonpayable",
      "type": "function"
    },
    {
      "inputs": [],
      "name": "upgrade",
      "outputs": [],
      "stateMutability": "nonpayable",
      "type": "function"
    },
    {
      "inputs": [
        {
          "internalType": "address",
          "name": "account",
          "type": "address"
        }
      ],
      "name": "getAccountPower",
      "outputs": [
        {
          "internalType": "uint256",
          "name": "",
          "type": "uint256"
        }
      ],
      "stateMutability": "view",
      "type": "function",
      "constant": true
    },
    {
      "inputs": [
        {
          "internalType": "address",
          "name": "account",
          "type": "address"
        }
      ],
      "name": "getAccountLevel",
      "outputs": [
        {
          "internalType": "uint32",
          "name": "",
          "type": "uint32"
        }
      ],
      "stateMutability": "view",
      "type": "function",
      "constant": true
    },
    {
      "inputs": [
        {
          "internalType": "uint256",
          "name": "level",
          "type": "uint256"
        }
      ],
      "name": "getLevelCost",
      "outputs": [
        {
          "internalType": "uint256",
          "name": "",
          "type": "uint256"
        }
      ],
      "stateMutability": "view",
      "type": "function",
      "constant": true
    },
    {
      "inputs": [],
      "name": "_buildLevels",
      "outputs": [],
      "stateMutability": "nonpayable",
      "type": "function"
    }
  ],
  "bytecode": "0x608060405234801561001057600080fd5b506108fc806100206000396000f3fe608060405234801561001057600080fd5b50600436106100935760003560e01c8063715018a611610066578063715018a61461012a57806382edd8cd146101325780638da5cb5b1461013a578063d55ec69714610155578063f2fde38b1461015d57600080fd5b8063189048fc146100985780632b6e4da0146100e15780633036fcde14610102578063485cc95514610115575b600080fd5b6100c76100a6366004610773565b6001600160a01b031660009081526098602052604090205463ffffffff1690565b60405163ffffffff90911681526020015b60405180910390f35b6100f46100ef366004610795565b610170565b6040519081526020016100d8565b6100f4610110366004610773565b610197565b6101286101233660046107ae565b6101cb565b005b6101286102bf565b6101286102f5565b6065546040516001600160a01b0390911681526020016100d8565b61012861031f565b61012861016b366004610773565b6105af565b6000609a8281548110610185576101856107e1565b90600052602060002001549050919050565b6001600160a01b03811660009081526098602052604081205460998054909163ffffffff16908110610185576101856107e1565b600054610100900460ff166101e65760005460ff16156101ea565b303b155b6102525760405162461bcd60e51b815260206004820152602e60248201527f496e697469616c697a61626c653a20636f6e747261637420697320616c72656160448201526d191e481a5b9a5d1a585b1a5e995960921b60648201526084015b60405180910390fd5b600054610100900460ff16158015610274576000805461ffff19166101011790555b61027c61064a565b609780546001600160a01b0319166001600160a01b03851617905561029f610679565b6102a8826105af565b80156102ba576000805461ff00191690555b505050565b6065546001600160a01b031633146102e95760405162461bcd60e51b8152600401610249906107f7565b6102f360006106a8565b565b6065546001600160a01b031633146102f35760405162461bcd60e51b8152600401610249906107f7565b600260015414156103725760405162461bcd60e51b815260206004820152601f60248201527f5265656e7472616e637947756172643a207265656e7472616e742063616c6c006044820152606401610249565b6002600190815533600090815260986020526040812054909161039b9163ffffffff169061082c565b90506000609a8263ffffffff16815481106103b8576103b86107e1565b90600052602060002001549050600081116104095760405162461bcd60e51b81526020600482015260116024820152701b585e081b195d995b081c995858da1959607a1b6044820152606401610249565b6097546001600160a01b03166370a08231336040516001600160e01b031960e084901b1681526001600160a01b039091166004820152602401602060405180830381865afa15801561045f573d6000803e3d6000fd5b505050506040513d601f19601f820116820180604052508101906104839190610862565b8111156104c65760405162461bcd60e51b81526020600482015260116024820152706e6f7420656e6f75676820746f6b656e7360781b6044820152606401610249565b6097546001600160a01b0316639dc29fac336040516001600160e01b031960e084901b1681526001600160a01b03909116600482015260248101849052604401600060405180830381600087803b15801561052057600080fd5b505af1158015610534573d6000803e3d6000fd5b5050505081609860006105443390565b6001600160a01b031681526020808201929092526040908101600020805463ffffffff191663ffffffff948516179055805192851683525133927f3a1184da940ed880f9af8a17917f3117984db63feb784b762db950084e26e47292908290030190a2505060018055565b6065546001600160a01b031633146105d95760405162461bcd60e51b8152600401610249906107f7565b6001600160a01b03811661063e5760405162461bcd60e51b815260206004820152602660248201527f4f776e61626c653a206e6577206f776e657220697320746865207a65726f206160448201526564647265737360d01b6064820152608401610249565b610647816106a8565b50565b600054610100900460ff166106715760405162461bcd60e51b81526004016102499061087b565b6102f36106fa565b600054610100900460ff166106a05760405162461bcd60e51b81526004016102499061087b565b6102f3610727565b606580546001600160a01b038381166001600160a01b0319831681179093556040519116919082907f8be0079c531659141344cd1fd0a4f28419497f9722a3daafe3b4186f6b6457e090600090a35050565b600054610100900460ff166107215760405162461bcd60e51b81526004016102499061087b565b60018055565b600054610100900460ff1661074e5760405162461bcd60e51b81526004016102499061087b565b6102f3336106a8565b80356001600160a01b038116811461076e57600080fd5b919050565b60006020828403121561078557600080fd5b61078e82610757565b9392505050565b6000602082840312156107a757600080fd5b5035919050565b600080604083850312156107c157600080fd5b6107ca83610757565b91506107d860208401610757565b90509250929050565b634e487b7160e01b600052603260045260246000fd5b6020808252818101527f4f776e61626c653a2063616c6c6572206973206e6f7420746865206f776e6572604082015260600190565b600063ffffffff80831681851680830382111561085957634e487b7160e01b600052601160045260246000fd5b01949350505050565b60006020828403121561087457600080fd5b5051919050565b6020808252602b908201527f496e697469616c697a61626c653a20636f6e7472616374206973206e6f74206960408201526a6e697469616c697a696e6760a81b60608201526080019056fea2646970667358221220dca0a0bdb2da12689ab434d40a7ce227b36ea2c131dd30b1b4a65c1a70f8053564736f6c634300080a0033",
  "immutableReferences": {},
  "source": "// SPDX-License-Identifier: MIT\r\npragma solidity 0.8.10;\r\n\r\nimport \"@openzeppelin/contracts-upgradeable/proxy/utils/Initializable.sol\";\r\nimport \"@openzeppelin/contracts-upgradeable/security/ReentrancyGuardUpgradeable.sol\";\r\nimport \"@openzeppelin/contracts-upgradeable/utils/ContextUpgradeable.sol\";\r\nimport \"@openzeppelin/contracts-upgradeable/access/OwnableUpgradeable.sol\";\r\n\r\nimport \"./interfaces/IToken.sol\";\r\n\r\ncontract Character is Initializable, ReentrancyGuardUpgradeable, ContextUpgradeable, OwnableUpgradeable {\r\n    IToken private  _tokenContract;\r\n\r\n\r\n    //account =>level\r\n    mapping(address => uint32) private _characterLevel;\r\n    uint[] private _levelPower;\r\n    uint[] private _levelCost;\r\n\r\n    event Upgrade(address indexed account, uint32 level);\r\n\r\n    function initialize(address tokenContract, address owner) public initializer {\r\n        __ReentrancyGuard_init();\r\n        _tokenContract = IToken(tokenContract);\r\n        __Ownable_init();\r\n        transferOwnership(owner);\r\n\r\n    }\r\n\r\n    function upgrade() external nonReentrant {\r\n        uint32 nextLevel = _characterLevel[_msgSender()] + 1;\r\n        uint cost = _levelCost[nextLevel];\r\n        require(cost > 0, \"max level reached\");\r\n        require(cost <= _tokenContract.balanceOf(_msgSender()), \"not enough tokens\");\r\n        _tokenContract.burn(_msgSender(), cost);\r\n        _characterLevel[_msgSender()] = nextLevel;\r\n        emit Upgrade(_msgSender(), nextLevel);\r\n    }\r\n\r\n    function getAccountPower(address account) external view returns (uint){\r\n        return _levelPower[_characterLevel[account]];\r\n    }\r\n\r\n    function getAccountLevel(address account) external view returns (uint32) {\r\n        return _characterLevel[account];\r\n    }\r\n\r\n    function getLevelCost(uint level) public view returns (uint) {\r\n        return _levelCost[level];\r\n    }\r\n\r\n    function _buildLevels() public onlyOwner {\r\n\r\n    }\r\n}\r\n",
  "sourcePath": "C:\\Users\\amit\\PhpstormProjects\\myminiminers-contracts-upgradable\\contracts\\Character.sol",
  "compiler": {
    "name": "solc",
    "version": "0.8.10+commit.fc410830.Emscripten.clang"
  },
  "schemaVersion": "3.4.3",
  "updatedAt": "2022-04-04T12:25:07.125Z",
  "networkType": "ethereum",
  "devdoc": {
    "kind": "dev",
    "methods": {
      "owner()": {
        "details": "Returns the address of the current owner."
      },
      "renounceOwnership()": {
        "details": "Leaves the contract without owner. It will not be possible to call `onlyOwner` functions anymore. Can only be called by the current owner. NOTE: Renouncing ownership will leave the contract without an owner, thereby removing any functionality that is only available to the owner."
      },
      "transferOwnership(address)": {
        "details": "Transfers ownership of the contract to a new account (`newOwner`). Can only be called by the current owner."
      }
    },
    "version": 1
  },
  "userdoc": {
    "kind": "user",
    "methods": {},
    "version": 1
  }
}