{
  "contractName": "GnomeStats",
  "abi": [
    {
      "inputs": [],
      "stateMutability": "nonpayable",
      "type": "constructor"
    },
    {
      "anonymous": false,
      "inputs": [
        {
          "indexed": true,
          "internalType": "address",
          "name": "previousOwner",
          "type": "address"
        },
        {
          "indexed": true,
          "internalType": "address",
          "name": "newOwner",
          "type": "address"
        }
      ],
      "name": "OwnershipTransferred",
      "type": "event"
    },
    {
      "inputs": [],
      "name": "owner",
      "outputs": [
        {
          "internalType": "address",
          "name": "",
          "type": "address"
        }
      ],
      "stateMutability": "view",
      "type": "function",
      "constant": true
    },
    {
      "inputs": [],
      "name": "renounceOwnership",
      "outputs": [],
      "stateMutability": "nonpayable",
      "type": "function"
    },
    {
      "inputs": [
        {
          "internalType": "address",
          "name": "newOwner",
          "type": "address"
        }
      ],
      "name": "transferOwnership",
      "outputs": [],
      "stateMutability": "nonpayable",
      "type": "function"
    },
    {
      "inputs": [],
      "name": "getAllGnomes",
      "outputs": [
        {
          "components": [
            {
              "internalType": "uint8",
              "name": "id",
              "type": "uint8"
            },
            {
              "internalType": "uint8",
              "name": "rarity",
              "type": "uint8"
            },
            {
              "internalType": "uint8",
              "name": "collectionId",
              "type": "uint8"
            },
            {
              "internalType": "uint32",
              "name": "basePower",
              "type": "uint32"
            },
            {
              "internalType": "bool",
              "name": "exists",
              "type": "bool"
            }
          ],
          "internalType": "struct IGnome.structGnome[]",
          "name": "",
          "type": "tuple[]"
        }
      ],
      "stateMutability": "view",
      "type": "function",
      "constant": true
    },
    {
      "inputs": [
        {
          "internalType": "uint8",
          "name": "id",
          "type": "uint8"
        }
      ],
      "name": "getGnomeTemplateById",
      "outputs": [
        {
          "components": [
            {
              "internalType": "uint8",
              "name": "id",
              "type": "uint8"
            },
            {
              "internalType": "uint8",
              "name": "rarity",
              "type": "uint8"
            },
            {
              "internalType": "uint8",
              "name": "collectionId",
              "type": "uint8"
            },
            {
              "internalType": "uint32",
              "name": "basePower",
              "type": "uint32"
            },
            {
              "internalType": "bool",
              "name": "exists",
              "type": "bool"
            }
          ],
          "internalType": "struct IGnome.structGnome",
          "name": "",
          "type": "tuple"
        }
      ],
      "stateMutability": "view",
      "type": "function",
      "constant": true
    },
    {
      "inputs": [
        {
          "internalType": "uint256",
          "name": "id",
          "type": "uint256"
        }
      ],
      "name": "getCollectionById",
      "outputs": [
        {
          "internalType": "uint256[]",
          "name": "",
          "type": "uint256[]"
        }
      ],
      "stateMutability": "view",
      "type": "function",
      "constant": true
    }
  ],
  "bytecode": "0x61010060405260056080908152600a60a052602360c052603260e0526200002b90600190600462000942565b506040805160a0810182526001815260056020820181905260079282019290925260086060820152600c6080820152620000699160029190620009dc565b506040805161014081018252600281526003602082018190526004928201929092526006606082018190526080820152600960a0820152600a60c08201819052600d60e0830152600e6101008301819052610120830152620000cd929190620009dc565b50604080516104608101825260018152600260208201819052918101829052606081019190915260036080820181905260a0820181905260c0820181905260e082015260046101008201819052610120820181905261014082018190526101608201819052600561018083015260066101a083018190526101c083018190526101e08301526007610200830152600961022083018190526102408301819052610260830152600a61028083018190526102a083018190526102c083018190526102e0830152600b61030083018190526103208301819052610340830152600c610360830152600d61038083018190526103a083018190526103c083018190526103e0830152600e61040083018190526104208301819052610440830152620001f7916023620009dc565b506040805161064081018252600180825260208201819052918101919091526002606082015260036080820181905260a0820181905260c0820181905260e08201819052610100820152600461012082018190526101408201819052610160820181905261018082018190526101a082015260056101c082018190526101e082018190526102008201819052600661022083018190526102408301819052610260830181905261028083018190526102a083015260076102c083018190526102e08301819052610300830152600861032083018190526103408301819052610360830181905261038083015260096103a0830152600a6103c083018190526103e0830181905261040083018190526104208301819052610440830152600b6104608301819052610480830152600c6104a083018190526104c083018190526104e0830152600d6105008301819052610520830181905261054083018190526105608301819052610580830152600e6105a083018190526105c083018190526105e08301819052610600830181905261062083015262000398916032620009dc565b50604080516002805460a0602082028401810190945260808301818152929384939291908401828280156200040b57602002820191906000526020600020906000905b825461010083900a900460ff16815260206001928301818104948501949093039092029101808411620003db5790505b5050505050815260200160038054806020026020016040519081016040528092919081815260200182805480156200048157602002820191906000526020600020906000905b825461010083900a900460ff16815260206001928301818104948501949093039092029101808411620004515790505b505050505081526020016004805480602002602001604051908101604052809291908181526020018280548015620004f757602002820191906000526020600020906000905b825461010083900a900460ff16815260206001928301818104948501949093039092029101808411620004c75790505b5050505050815260200160058054806020026020016040519081016040528092919081815260200182805480156200056d57602002820191906000526020600020906000905b825461010083900a900460ff168152602060019283018181049485019490930390920291018084116200053d5790505b5050509190925250620005869160069150600462000a45565b50604080516080810182526000815260056020820152600f9181019190915260326060820152620005bc906008906004620009dc565b506040805160808101825260508152601e602082015260079181019190915260036060820152620005f290600990600462000aa5565b503480156200060057600080fd5b506200060c336200061c565b620006166200066c565b62000c28565b600080546001600160a01b038381166001600160a01b0319831681178455604051919092169283917f8be0079c531659141344cd1fd0a4f28419497f9722a3daafe3b4186f6b6457e09190a35050565b6040805160808101918290526000916001906004908285855b825461010083900a900460ff168152602060019283018181049485019490930390920291018084116200068557905050505050509050600080600080600190505b60648160ff16116200093b57848460ff1660048110620006ea57620006ea62000b93565b602002015160ff16620007075783620007038162000bbf565b9450505b848460ff16600481106200071f576200071f62000b93565b60200201805190620007318262000be2565b60ff1660ff1681525050600060068460ff168154811062000756576200075662000b93565b906000526020600020018360ff168154811062000777576200077762000b93565b90600052602060002090602091828204019190069054906101000a900460ff1690506040518060a001604052808360ff1681526020018660ff1681526020018260ff16815260200160098760ff1660048110620007d857620007d862000b93565b60088104919091015460079091166004026101000a900463ffffffff16815260016020909101819052600a9062000810908562000c02565b60ff166064811062000826576200082662000b93565b825191018054602080850151604080870151606088015160809098015115156701000000000000000260ff60381b1963ffffffff90991663010000000266ffffffff0000001960ff93841662010000021666ffffffffff0000199584166101000261ffff1990981699841699909917969096179390931696909617939093179590951694909417909155838216600090815260078452908120805460018101825590825292902090841691015582620008df8162000bbf565b9350508260ff1660068560ff1681548110620008ff57620008ff62000b93565b600091825260209091200154116200092557836200091d8162000bbf565b945050600092505b5080620009328162000bbf565b915050620006c6565b5050505050565b600183019183908215620009ca5791602002820160005b838211156200099957835183826101000a81548160ff021916908360ff160217905550926020019260010160208160000104928301926001030262000959565b8015620009c85782816101000a81549060ff021916905560010160208160000104928301926001030262000999565b505b50620009d892915062000b31565b5090565b82805482825590600052602060002090601f01602090048101928215620009ca579160200282016000838211156200099957835183826101000a81548160ff021916908360ff160217905550926020019260010160208160000104928301926001030262000959565b82805482825590600052602060002090810192821562000a97579160200282015b8281111562000a97578251805162000a86918491602090910190620009dc565b509160200191906001019062000a66565b50620009d892915062000b48565b600183019183908215620009ca5791602002820160005b8382111562000aff57835183826101000a81548163ffffffff021916908360ff160217905550926020019260040160208160030104928301926001030262000abc565b8015620009c85782816101000a81549063ffffffff021916905560040160208160030104928301926001030262000aff565b5b80821115620009d8576000815560010162000b32565b80821115620009d857600062000b5f828262000b69565b5060010162000b48565b50805460008255601f01602090049060005260206000209081019062000b90919062000b31565b50565b634e487b7160e01b600052603260045260246000fd5b634e487b7160e01b600052601160045260246000fd5b600060ff821660ff81141562000bd95762000bd962000ba9565b60010192915050565b600060ff82168062000bf85762000bf862000ba9565b6000190192915050565b600060ff821660ff84168082101562000c1f5762000c1f62000ba9565b90039392505050565b6106d78062000c386000396000f3fe608060405234801561001057600080fd5b50600436106100625760003560e01c8063715018a6146100675780637890ec57146100715780638d48258b1461009a5780638da5cb5b146100af578063e547cb85146100ca578063f2fde38b146100ea575b600080fd5b61006f6100fd565b005b61008461007f3660046104e4565b610168565b604051610091919061050e565b60405180910390f35b6100a2610212565b604051610091919061055e565b6000546040516001600160a01b039091168152602001610091565b6100dd6100d83660046105e8565b61031e565b6040516100919190610601565b61006f6100f8366004610639565b6103c9565b6000546001600160a01b0316331461015c5760405162461bcd60e51b815260206004820181905260248201527f4f776e61626c653a2063616c6c6572206973206e6f7420746865206f776e657260448201526064015b60405180910390fd5b6101666000610494565b565b6040805160a08101825260008082526020820181905291810182905260608101829052608081019190915260648260ff1611156101a457600080fd5b600a8260ff16606481106101ba576101ba610662565b6040805160a081018252929091015460ff808216845261010082048116602085015262010000820481169284019290925263ffffffff63010000008204166060840152600160381b9004161515608082015292915050565b604080516064808252610ca0820190925260609160009190816020015b6040805160a08101825260008082526020808301829052928201819052606082018190526080820152825260001990920191018161022f57905050905060005b6064811015610318576000600a826064811061028d5761028d610662565b6040805160a08101825292909101805460ff808216855261010082048116602086015262010000820481169385019390935263ffffffff63010000008204166060850152600160381b90049091161515608083015284519092508490849081106102f9576102f9610662565b602002602001018190525050808061031090610678565b91505061026f565b50919050565b6000818152600760205260409020546060906103695760405162461bcd60e51b815260206004820152600a6024820152691a5b9d985b1a59081a5960b21b6044820152606401610153565b600082815260076020908152604091829020805483518184028101840190945280845290918301828280156103bd57602002820191906000526020600020905b8154815260200190600101908083116103a9575b50505050509050919050565b6000546001600160a01b031633146104235760405162461bcd60e51b815260206004820181905260248201527f4f776e61626c653a2063616c6c6572206973206e6f7420746865206f776e65726044820152606401610153565b6001600160a01b0381166104885760405162461bcd60e51b815260206004820152602660248201527f4f776e61626c653a206e6577206f776e657220697320746865207a65726f206160448201526564647265737360d01b6064820152608401610153565b61049181610494565b50565b600080546001600160a01b038381166001600160a01b0319831681178455604051919092169283917f8be0079c531659141344cd1fd0a4f28419497f9722a3daafe3b4186f6b6457e09190a35050565b6000602082840312156104f657600080fd5b813560ff8116811461050757600080fd5b9392505050565b60a08101610558828460ff815116825260ff602082015116602083015260ff604082015116604083015263ffffffff60608201511660608301526080810151151560808301525050565b92915050565b6020808252825182820181905260009190848201906040850190845b818110156105dc576105c983855160ff815116825260ff602082015116602083015260ff604082015116604083015263ffffffff60608201511660608301526080810151151560808301525050565b9284019260a0929092019160010161057a565b50909695505050505050565b6000602082840312156105fa57600080fd5b5035919050565b6020808252825182820181905260009190848201906040850190845b818110156105dc5783518352928401929184019160010161061d565b60006020828403121561064b57600080fd5b81356001600160a01b038116811461050757600080fd5b634e487b7160e01b600052603260045260246000fd5b600060001982141561069a57634e487b7160e01b600052601160045260246000fd5b506001019056fea2646970667358221220b97e1d65f91aebd114835074626c8f9a3f2ef9ec0175e1b9085e49ce95e6fef364736f6c634300080a0033",
  "immutableReferences": {},
  "source": "pragma solidity 0.8.10;\r\n\r\nimport \"@openzeppelin/contracts/security/ReentrancyGuard.sol\";\r\nimport \"@openzeppelin/contracts/access/Ownable.sol\";\r\nimport \"./interfaces/IPlayerGnomeBase.sol\";\r\nimport \"./interfaces/IGnome.sol\";\r\n\r\n\r\ncontract GnomeStats is Ownable, IGnome {\r\n    /*\r\n     [0] =  legendary\r\n     [1] =  Epic\r\n     [2] =  rare\r\n     [3] =  Common\r\n    */\r\n    uint8[4] private  _distribution = [5, 10, 35, 50];\r\n\r\n    //    uint8 private constant aliens = 1;\r\n    //    uint8 private constant angels = 2;\r\n    //    uint8 private constant undead = 3;\r\n    //    uint8 private constant wildlife = 4;\r\n    //    uint8 private constant cyberpunks = 5;\r\n    //    uint8 private constant fashion = 6;\r\n    //    uint8 private constant devils = 7;\r\n    //    uint8 private constant ninja = 8;\r\n    //    uint8 private constant pirates = 9;\r\n    //    uint8 private constant poolParty = 10;\r\n    //    uint8 private constant nobles = 10;\r\n    //    uint8 private constant gladiators = 12;\r\n    //    uint8 private constant princess = 13;\r\n    //    uint8 private constant wildWest = 14;\r\n\r\n    uint8[] private _legendaryCollections = [1, 5, 7, 8, 12];\r\n    uint8[] private _epicCollections = [2, 3, 4, 6, 6, 9, 10, 13, 14, 14];\r\n    uint8[] private _rareCollections = [1, 2, 2, 2, 3, 3, 3, 3, 4, 4, 4, 4, 5, 6, 6, 6, 7, 9, 9, 9, 10, 10, 10, 10, 11, 11, 11, 12, 13, 13, 13, 13, 14, 14, 14];\r\n    uint8[] private _commonCollections = [1, 1, 1, 2, 3, 3, 3, 3, 3, 4, 4, 4, 4, 4, 5, 5, 5, 6, 6, 6, 6, 6, 7, 7, 7, 8, 8, 8, 8, 9, 10, 10, 10, 10, 10, 11, 11, 12, 12, 12, 13, 13, 13, 13, 13, 14, 14, 14, 14, 14];\r\n    uint8[][] private _raritiesCollections = [_legendaryCollections, _epicCollections, _rareCollections, _commonCollections];\r\n\r\n    // collection id->gnome id\r\n    mapping(uint => uint[]) private _collections;\r\n\r\n    uint8[] private _raritiesIndexes = [0, 5, 15, 50];\r\n    uint32[4] private  _rarityPower = [80, 30, 7, 3];\r\n\r\n\r\n    structGnome[100] private  _gnomes;\r\n    constructor(){\r\n        _createGnomeStats();\r\n    }\r\n\r\n    function _createGnomeStats() private {\r\n        uint8[4] memory distribution = _distribution;\r\n        uint8 j;\r\n        uint8 raritiesIndexOut;\r\n        uint8 raritiesIndexIn;\r\n\r\n        for (uint8 i = 1; i <= 100; i++) {\r\n            if (distribution[j] == 0) {\r\n                j++;\r\n            }\r\n            distribution[j]--;\r\n            uint8 collectionId = _raritiesCollections[raritiesIndexOut][raritiesIndexIn];\r\n            _gnomes[i - 1] = structGnome({\r\n            id : i,\r\n            rarity : j,\r\n            collectionId : collectionId,\r\n            basePower : _rarityPower[j],\r\n            exists : true\r\n            });\r\n            _collections[collectionId].push(i);\r\n            raritiesIndexIn++;\r\n            if (_raritiesCollections[raritiesIndexOut].length <= raritiesIndexIn) {\r\n                raritiesIndexOut++;\r\n                raritiesIndexIn = 0;\r\n            }}\r\n    }\r\n\r\n\r\n    function getAllGnomes() external view returns (structGnome[] memory){\r\n        structGnome[]    memory gnomes = new structGnome[](_gnomes.length);\r\n        for (uint i = 0; i < _gnomes.length; i++) {\r\n            structGnome storage member = _gnomes[i];\r\n            gnomes[i] = member;\r\n        }\r\n        return gnomes;\r\n    }\r\n\r\n    function getGnomeTemplateById(uint8 id) external view returns (structGnome memory){\r\n        require(id <= 100);\r\n        return _gnomes[id];\r\n    }\r\n\r\n    function getCollectionById(uint id) public view returns (uint[] memory){\r\n        require(_collections[id].length > 0, \"invalid id\");\r\n        return _collections[id];\r\n    }\r\n\r\n}\r\n",
  "sourcePath": "C:\\Users\\amit\\PhpstormProjects\\myminiminers-contracts-upgradable\\contracts\\GnomeStats.sol",
  "compiler": {
    "name": "solc",
    "version": "0.8.10+commit.fc410830.Emscripten.clang"
  },
  "schemaVersion": "3.4.3",
  "updatedAt": "2022-04-04T12:25:07.167Z",
  "networkType": "ethereum",
  "devdoc": {
    "kind": "dev",
    "methods": {
      "owner()": {
        "details": "Returns the address of the current owner."
      },
      "renounceOwnership()": {
        "details": "Leaves the contract without owner. It will not be possible to call `onlyOwner` functions anymore. Can only be called by the current owner. NOTE: Renouncing ownership will leave the contract without an owner, thereby removing any functionality that is only available to the owner."
      },
      "transferOwnership(address)": {
        "details": "Transfers ownership of the contract to a new account (`newOwner`). Can only be called by the current owner."
      }
    },
    "version": 1
  },
  "userdoc": {
    "kind": "user",
    "methods": {},
    "version": 1
  }
}