{
  "contractName": "Gnomes",
  "abi": [
    {
      "anonymous": false,
      "inputs": [
        {
          "indexed": true,
          "internalType": "address",
          "name": "owner",
          "type": "address"
        },
        {
          "indexed": true,
          "internalType": "address",
          "name": "approved",
          "type": "address"
        },
        {
          "indexed": true,
          "internalType": "uint256",
          "name": "tokenId",
          "type": "uint256"
        }
      ],
      "name": "Approval",
      "type": "event"
    },
    {
      "anonymous": false,
      "inputs": [
        {
          "indexed": true,
          "internalType": "address",
          "name": "owner",
          "type": "address"
        },
        {
          "indexed": true,
          "internalType": "address",
          "name": "operator",
          "type": "address"
        },
        {
          "indexed": false,
          "internalType": "bool",
          "name": "approved",
          "type": "bool"
        }
      ],
      "name": "ApprovalForAll",
      "type": "event"
    },
    {
      "anonymous": false,
      "inputs": [
        {
          "indexed": true,
          "internalType": "address",
          "name": "account",
          "type": "address"
        },
        {
          "indexed": true,
          "internalType": "uint256",
          "name": "tokenId",
          "type": "uint256"
        },
        {
          "indexed": false,
          "internalType": "uint8",
          "name": "gnomeId",
          "type": "uint8"
        },
        {
          "indexed": false,
          "internalType": "uint8",
          "name": "level",
          "type": "uint8"
        },
        {
          "indexed": false,
          "internalType": "bool",
          "name": "inCollection",
          "type": "bool"
        }
      ],
      "name": "Mint",
      "type": "event"
    },
    {
      "anonymous": false,
      "inputs": [
        {
          "indexed": true,
          "internalType": "address",
          "name": "previousOwner",
          "type": "address"
        },
        {
          "indexed": true,
          "internalType": "address",
          "name": "newOwner",
          "type": "address"
        }
      ],
      "name": "OwnershipTransferred",
      "type": "event"
    },
    {
      "anonymous": false,
      "inputs": [
        {
          "indexed": true,
          "internalType": "address",
          "name": "from",
          "type": "address"
        },
        {
          "indexed": true,
          "internalType": "address",
          "name": "to",
          "type": "address"
        },
        {
          "indexed": true,
          "internalType": "uint256",
          "name": "tokenId",
          "type": "uint256"
        }
      ],
      "name": "Transfer",
      "type": "event"
    },
    {
      "inputs": [
        {
          "internalType": "address",
          "name": "to",
          "type": "address"
        },
        {
          "internalType": "uint256",
          "name": "tokenId",
          "type": "uint256"
        }
      ],
      "name": "approve",
      "outputs": [],
      "stateMutability": "nonpayable",
      "type": "function"
    },
    {
      "inputs": [
        {
          "internalType": "address",
          "name": "owner",
          "type": "address"
        }
      ],
      "name": "balanceOf",
      "outputs": [
        {
          "internalType": "uint256",
          "name": "",
          "type": "uint256"
        }
      ],
      "stateMutability": "view",
      "type": "function",
      "constant": true
    },
    {
      "inputs": [
        {
          "internalType": "uint256",
          "name": "tokenId",
          "type": "uint256"
        }
      ],
      "name": "getApproved",
      "outputs": [
        {
          "internalType": "address",
          "name": "",
          "type": "address"
        }
      ],
      "stateMutability": "view",
      "type": "function",
      "constant": true
    },
    {
      "inputs": [
        {
          "internalType": "address",
          "name": "owner",
          "type": "address"
        },
        {
          "internalType": "address",
          "name": "operator",
          "type": "address"
        }
      ],
      "name": "isApprovedForAll",
      "outputs": [
        {
          "internalType": "bool",
          "name": "",
          "type": "bool"
        }
      ],
      "stateMutability": "view",
      "type": "function",
      "constant": true
    },
    {
      "inputs": [],
      "name": "name",
      "outputs": [
        {
          "internalType": "string",
          "name": "",
          "type": "string"
        }
      ],
      "stateMutability": "view",
      "type": "function",
      "constant": true
    },
    {
      "inputs": [],
      "name": "owner",
      "outputs": [
        {
          "internalType": "address",
          "name": "",
          "type": "address"
        }
      ],
      "stateMutability": "view",
      "type": "function",
      "constant": true
    },
    {
      "inputs": [
        {
          "internalType": "uint256",
          "name": "tokenId",
          "type": "uint256"
        }
      ],
      "name": "ownerOf",
      "outputs": [
        {
          "internalType": "address",
          "name": "",
          "type": "address"
        }
      ],
      "stateMutability": "view",
      "type": "function",
      "constant": true
    },
    {
      "inputs": [],
      "name": "renounceOwnership",
      "outputs": [],
      "stateMutability": "nonpayable",
      "type": "function"
    },
    {
      "inputs": [
        {
          "internalType": "address",
          "name": "from",
          "type": "address"
        },
        {
          "internalType": "address",
          "name": "to",
          "type": "address"
        },
        {
          "internalType": "uint256",
          "name": "tokenId",
          "type": "uint256"
        }
      ],
      "name": "safeTransferFrom",
      "outputs": [],
      "stateMutability": "nonpayable",
      "type": "function"
    },
    {
      "inputs": [
        {
          "internalType": "address",
          "name": "from",
          "type": "address"
        },
        {
          "internalType": "address",
          "name": "to",
          "type": "address"
        },
        {
          "internalType": "uint256",
          "name": "tokenId",
          "type": "uint256"
        },
        {
          "internalType": "bytes",
          "name": "_data",
          "type": "bytes"
        }
      ],
      "name": "safeTransferFrom",
      "outputs": [],
      "stateMutability": "nonpayable",
      "type": "function"
    },
    {
      "inputs": [
        {
          "internalType": "address",
          "name": "operator",
          "type": "address"
        },
        {
          "internalType": "bool",
          "name": "approved",
          "type": "bool"
        }
      ],
      "name": "setApprovalForAll",
      "outputs": [],
      "stateMutability": "nonpayable",
      "type": "function"
    },
    {
      "inputs": [],
      "name": "symbol",
      "outputs": [
        {
          "internalType": "string",
          "name": "",
          "type": "string"
        }
      ],
      "stateMutability": "view",
      "type": "function",
      "constant": true
    },
    {
      "inputs": [
        {
          "internalType": "uint256",
          "name": "index",
          "type": "uint256"
        }
      ],
      "name": "tokenByIndex",
      "outputs": [
        {
          "internalType": "uint256",
          "name": "",
          "type": "uint256"
        }
      ],
      "stateMutability": "view",
      "type": "function",
      "constant": true
    },
    {
      "inputs": [
        {
          "internalType": "address",
          "name": "owner",
          "type": "address"
        },
        {
          "internalType": "uint256",
          "name": "index",
          "type": "uint256"
        }
      ],
      "name": "tokenOfOwnerByIndex",
      "outputs": [
        {
          "internalType": "uint256",
          "name": "",
          "type": "uint256"
        }
      ],
      "stateMutability": "view",
      "type": "function",
      "constant": true
    },
    {
      "inputs": [
        {
          "internalType": "uint256",
          "name": "tokenId",
          "type": "uint256"
        }
      ],
      "name": "tokenURI",
      "outputs": [
        {
          "internalType": "string",
          "name": "",
          "type": "string"
        }
      ],
      "stateMutability": "view",
      "type": "function",
      "constant": true
    },
    {
      "inputs": [],
      "name": "totalSupply",
      "outputs": [
        {
          "internalType": "uint256",
          "name": "",
          "type": "uint256"
        }
      ],
      "stateMutability": "view",
      "type": "function",
      "constant": true
    },
    {
      "inputs": [
        {
          "internalType": "address",
          "name": "from",
          "type": "address"
        },
        {
          "internalType": "address",
          "name": "to",
          "type": "address"
        },
        {
          "internalType": "uint256",
          "name": "tokenId",
          "type": "uint256"
        }
      ],
      "name": "transferFrom",
      "outputs": [],
      "stateMutability": "nonpayable",
      "type": "function"
    },
    {
      "inputs": [
        {
          "internalType": "address",
          "name": "newOwner",
          "type": "address"
        }
      ],
      "name": "transferOwnership",
      "outputs": [],
      "stateMutability": "nonpayable",
      "type": "function"
    },
    {
      "inputs": [
        {
          "internalType": "address",
          "name": "gnomeStatsContract",
          "type": "address"
        },
        {
          "internalType": "address",
          "name": "tokenContract",
          "type": "address"
        },
        {
          "internalType": "address",
          "name": "randomContract",
          "type": "address"
        },
        {
          "internalType": "address",
          "name": "minesContract",
          "type": "address"
        },
        {
          "internalType": "address",
          "name": "feesAccount",
          "type": "address"
        },
        {
          "internalType": "address",
          "name": "owner",
          "type": "address"
        },
        {
          "internalType": "string",
          "name": "baseUri",
          "type": "string"
        }
      ],
      "name": "initialize",
      "outputs": [],
      "stateMutability": "nonpayable",
      "type": "function"
    },
    {
      "inputs": [
        {
          "internalType": "address",
          "name": "player",
          "type": "address"
        },
        {
          "internalType": "uint8",
          "name": "collectionId",
          "type": "uint8"
        }
      ],
      "name": "getPlayerCollectionsPower",
      "outputs": [
        {
          "internalType": "uint256",
          "name": "",
          "type": "uint256"
        }
      ],
      "stateMutability": "view",
      "type": "function",
      "constant": true
    },
    {
      "inputs": [
        {
          "internalType": "address",
          "name": "account",
          "type": "address"
        },
        {
          "internalType": "uint8",
          "name": "collectionId",
          "type": "uint8"
        },
        {
          "internalType": "uint8",
          "name": "gnomeId",
          "type": "uint8"
        }
      ],
      "name": "getTokenIdByCollectionGnome",
      "outputs": [
        {
          "internalType": "uint256",
          "name": "",
          "type": "uint256"
        }
      ],
      "stateMutability": "view",
      "type": "function",
      "constant": true
    },
    {
      "inputs": [
        {
          "internalType": "uint256",
          "name": "tokenId",
          "type": "uint256"
        }
      ],
      "name": "getGnomeByTokenId",
      "outputs": [
        {
          "components": [
            {
              "internalType": "uint8",
              "name": "gnomeId",
              "type": "uint8"
            },
            {
              "internalType": "uint8",
              "name": "level",
              "type": "uint8"
            },
            {
              "internalType": "uint256",
              "name": "tokenId",
              "type": "uint256"
            },
            {
              "internalType": "bool",
              "name": "canBeTraded",
              "type": "bool"
            },
            {
              "internalType": "bool",
              "name": "exists",
              "type": "bool"
            }
          ],
          "internalType": "struct IPlayerGnome.structPlayerGnome",
          "name": "",
          "type": "tuple"
        }
      ],
      "stateMutability": "view",
      "type": "function",
      "constant": true
    },
    {
      "inputs": [
        {
          "internalType": "uint8",
          "name": "level",
          "type": "uint8"
        }
      ],
      "name": "mint",
      "outputs": [],
      "stateMutability": "payable",
      "type": "function",
      "payable": true
    },
    {
      "inputs": [],
      "name": "mintFree",
      "outputs": [],
      "stateMutability": "nonpayable",
      "type": "function"
    },
    {
      "inputs": [
        {
          "internalType": "uint256",
          "name": "tokenId1",
          "type": "uint256"
        },
        {
          "internalType": "uint256",
          "name": "tokenId2",
          "type": "uint256"
        },
        {
          "internalType": "uint256",
          "name": "amount",
          "type": "uint256"
        }
      ],
      "name": "mergeGnomes",
      "outputs": [],
      "stateMutability": "nonpayable",
      "type": "function"
    },
    {
      "inputs": [
        {
          "internalType": "uint8",
          "name": "gnomeId",
          "type": "uint8"
        },
        {
          "internalType": "uint8",
          "name": "level",
          "type": "uint8"
        }
      ],
      "name": "calcPower",
      "outputs": [
        {
          "internalType": "uint256",
          "name": "",
          "type": "uint256"
        }
      ],
      "stateMutability": "view",
      "type": "function",
      "constant": true
    },
    {
      "inputs": [
        {
          "internalType": "uint8",
          "name": "level",
          "type": "uint8"
        }
      ],
      "name": "getGnomeMintPrice",
      "outputs": [
        {
          "internalType": "uint256",
          "name": "",
          "type": "uint256"
        }
      ],
      "stateMutability": "view",
      "type": "function",
      "constant": true
    },
    {
      "inputs": [
        {
          "internalType": "bytes4",
          "name": "interfaceId",
          "type": "bytes4"
        }
      ],
      "name": "supportsInterface",
      "outputs": [
        {
          "internalType": "bool",
          "name": "",
          "type": "bool"
        }
      ],
      "stateMutability": "view",
      "type": "function",
      "constant": true
    },
    {
      "inputs": [
        {
          "internalType": "string",
          "name": "uri",
          "type": "string"
        }
      ],
      "name": "setBaseUri",
      "outputs": [],
      "stateMutability": "nonpayable",
      "type": "function"
    },
    {
      "inputs": [
        {
          "internalType": "address",
          "name": "gnomeStatsContract",
          "type": "address"
        }
      ],
      "name": "setGnomeStatsContractAddress",
      "outputs": [],
      "stateMutability": "nonpayable",
      "type": "function"
    },
    {
      "inputs": [
        {
          "internalType": "address",
          "name": "tokenContract",
          "type": "address"
        }
      ],
      "name": "setTokenContractAddress",
      "outputs": [],
      "stateMutability": "nonpayable",
      "type": "function"
    },
    {
      "inputs": [
        {
          "internalType": "address",
          "name": "randomContract",
          "type": "address"
        }
      ],
      "name": "setRandomContractAddress",
      "outputs": [],
      "stateMutability": "nonpayable",
      "type": "function"
    },
    {
      "inputs": [
        {
          "internalType": "address",
          "name": "minesContract",
          "type": "address"
        }
      ],
      "name": "setMinesContractAddress",
      "outputs": [],
      "stateMutability": "nonpayable",
      "type": "function"
    },
    {
      "inputs": [
        {
          "internalType": "address",
          "name": "feesAccount",
          "type": "address"
        }
      ],
      "name": "setFeesAccount",
      "outputs": [],
      "stateMutability": "nonpayable",
      "type": "function"
    },
    {
      "inputs": [
        {
          "internalType": "uint256[]",
          "name": "mergeCost",
          "type": "uint256[]"
        }
      ],
      "name": "setMergeCost",
      "outputs": [],
      "stateMutability": "nonpayable",
      "type": "function"
    },
    {
      "inputs": [
        {
          "internalType": "uint256",
          "name": "mintCost",
          "type": "uint256"
        }
      ],
      "name": "setMintCost",
      "outputs": [],
      "stateMutability": "nonpayable",
      "type": "function"
    }
  ],
  "bytecode": "0x608060405234801561001057600080fd5b50613dab806100206000396000f3fe60806040526004361061020f5760003560e01c80638ab16ab011610118578063c1ea7728116100a0578063ddb00dfc1161006f578063ddb00dfc14610674578063e985e9c514610694578063f2fde38b146106dd578063fcebff25146106fd578063fd051b4a1461074657600080fd5b8063c1ea7728146105c0578063c60952a114610614578063c87b56dd14610634578063d7050b051461065457600080fd5b8063a0bcfc7f116100e7578063a0bcfc7f14610520578063a22cb46514610540578063a3740cc014610560578063b23d485414610580578063b88d4fde146105a057600080fd5b80638ab16ab0146104b85780638ab53447146104d85780638da5cb5b146104ed57806395d89b411461050b57600080fd5b80634eb3a1f41161019b5780636ca67d2a1161016a5780636ca67d2a146104305780636ecd23061461045057806370a0823114610463578063715018a6146104835780638545f4ea1461049857600080fd5b80634eb3a1f4146103645780634f6ccce714610384578063633e644c146103a45780636352211e1461041057600080fd5b806318160ddd116101e257806318160ddd146102c557806323b872dd146102e45780632f745c591461030457806338436e9c1461032457806342842e0e1461034457600080fd5b806301ffc9a71461021457806306fdde0314610249578063081812fc1461026b578063095ea7b3146102a3575b600080fd5b34801561022057600080fd5b5061023461022f3660046132ab565b610766565b60405190151581526020015b60405180910390f35b34801561025557600080fd5b5061025e610777565b6040516102409190613320565b34801561027757600080fd5b5061028b610286366004613333565b610809565b6040516001600160a01b039091168152602001610240565b3480156102af57600080fd5b506102c36102be366004613368565b6108a3565b005b3480156102d157600080fd5b506099545b604051908152602001610240565b3480156102f057600080fd5b506102c36102ff366004613392565b6109b9565b34801561031057600080fd5b506102d661031f366004613368565b6109ea565b34801561033057600080fd5b506102d661033f3660046133dd565b610a80565b34801561035057600080fd5b506102c361035f366004613392565b610ad9565b34801561037057600080fd5b506102c361037f366004613416565b610af4565b34801561039057600080fd5b506102d661039f366004613333565b610f6f565b3480156103b057600080fd5b506103c46103bf366004613333565b611002565b6040516102409190600060a08201905060ff835116825260ff60208401511660208301526040830151604083015260608301511515606083015260808301511515608083015292915050565b34801561041c57600080fd5b5061028b61042b366004613333565b6110a2565b34801561043c57600080fd5b506102c361044b366004613442565b611119565b6102c361045e36600461345d565b611166565b34801561046f57600080fd5b506102d661047e366004613442565b6113c6565b34801561048f57600080fd5b506102c361144d565b3480156104a457600080fd5b506102c36104b3366004613333565b611483565b3480156104c457600080fd5b506102c36104d3366004613442565b6114b3565b3480156104e457600080fd5b506102c3611500565b3480156104f957600080fd5b5060fb546001600160a01b031661028b565b34801561051757600080fd5b5061025e61165d565b34801561052c57600080fd5b506102c361053b366004613562565b61166c565b34801561054c57600080fd5b506102c361055b3660046135a5565b6116ae565b34801561056c57600080fd5b506102d661057b36600461345d565b6116b9565b34801561058c57600080fd5b506102c361059b366004613442565b6116fb565b3480156105ac57600080fd5b506102c36105bb3660046135d1565b611748565b3480156105cc57600080fd5b506102d66105db36600461364d565b6001600160a01b0392909216600090815261012d6020908152604080832060ff9485168452825280832093909416825291909152205490565b34801561062057600080fd5b506102c361062f366004613696565b611780565b34801561064057600080fd5b5061025e61064f366004613333565b6117fd565b34801561066057600080fd5b506102c361066f366004613442565b6118d7565b34801561068057600080fd5b506102c361068f366004613442565b611924565b3480156106a057600080fd5b506102346106af36600461370b565b6001600160a01b039182166000908152606a6020908152604080832093909416825291909152205460ff1690565b3480156106e957600080fd5b506102c36106f8366004613442565b611971565b34801561070957600080fd5b506102d661071836600461373e565b6001600160a01b038216600090815261012e6020908152604080832060ff8516845290915290205492915050565b34801561075257600080fd5b506102c361076136600461375a565b611a0c565b600061077182611cdd565b92915050565b606060658054610786906137fb565b80601f01602080910402602001604051908101604052809291908181526020018280546107b2906137fb565b80156107ff5780601f106107d4576101008083540402835291602001916107ff565b820191906000526020600020905b8154815290600101906020018083116107e257829003601f168201915b5050505050905090565b6000818152606760205260408120546001600160a01b03166108875760405162461bcd60e51b815260206004820152602c60248201527f4552433732313a20617070726f76656420717565727920666f72206e6f6e657860448201526b34b9ba32b73a103a37b5b2b760a11b60648201526084015b60405180910390fd5b506000908152606960205260409020546001600160a01b031690565b60006108ae826110a2565b9050806001600160a01b0316836001600160a01b0316141561091c5760405162461bcd60e51b815260206004820152602160248201527f4552433732313a20617070726f76616c20746f2063757272656e74206f776e656044820152603960f91b606482015260840161087e565b336001600160a01b0382161480610938575061093881336106af565b6109aa5760405162461bcd60e51b815260206004820152603860248201527f4552433732313a20617070726f76652063616c6c6572206973206e6f74206f7760448201527f6e6572206e6f7220617070726f76656420666f7220616c6c0000000000000000606482015260840161087e565b6109b48383611d02565b505050565b6109c33382611d70565b6109df5760405162461bcd60e51b815260040161087e90613836565b6109b4838383611e67565b60006109f5836113c6565b8210610a575760405162461bcd60e51b815260206004820152602b60248201527f455243373231456e756d657261626c653a206f776e657220696e646578206f7560448201526a74206f6620626f756e647360a81b606482015260840161087e565b506001600160a01b03919091166000908152609760209081526040808320938352929052205490565b6000610a8d60018361389d565b610a989060026139a4565b6101318460ff1681548110610aaf57610aaf6139b3565b600091825260209091200154610ad291906301000000900463ffffffff166139c9565b9392505050565b6109b483838360405180602001604052806000815250611748565b600260c9541415610b175760405162461bcd60e51b815260040161087e906139e8565b600260c955610b25836110a2565b6001600160a01b0316336001600160a01b0316148015610b5e5750610b49826110a2565b6001600160a01b0316336001600160a01b0316145b610b975760405162461bcd60e51b815260206004820152600a6024820152694f776e6572206f6e6c7960b01b604482015260640161087e565b6101308381548110610bab57610bab6139b3565b906000526020600020906003020160020160019054906101000a900460ff168015610c0557506101308281548110610be557610be56139b3565b906000526020600020906003020160020160019054906101000a900460ff165b610c495760405162461bcd60e51b8152602060048201526015602482015274476e6f6d6520646f6573206e6f742065786973747360581b604482015260640161087e565b60006101308481548110610c5f57610c5f6139b3565b6000918252602090912060039091020154610130805460ff90921692509084908110610c8d57610c8d6139b3565b600091825260209091206003909102015460ff828116911614610ce45760405162461bcd60e51b815260206004820152600f60248201526e446966666572656e7420676e6f6d6560881b604482015260640161087e565b60006101308581548110610cfa57610cfa6139b3565b906000526020600020906003020160000160019054906101000a900460ff1690506101308481548110610d2f57610d2f6139b3565b600091825260209091206003909102015460ff8281166101009092041614610d8b5760405162461bcd60e51b815260206004820152600f60248201526e111a5999995c995b9d081b195d995b608a1b604482015260640161087e565b600a8160ff1610610dca5760405162461bcd60e51b815260206004820152600960248201526813585e081b195d995b60ba1b604482015260640161087e565b6000610138610dda60018461389d565b60ff1681548110610ded57610ded6139b3565b9060005260206000200154905083610138600184610e0b919061389d565b60ff1681548110610e1e57610e1e6139b3565b906000526020600020015414610e675760405162461bcd60e51b815260206004820152600e60248201526d1a5b9d985b1a5908185b5bdd5b9d60921b604482015260640161087e565b60006101308781548110610e7d57610e7d6139b3565b6000918252602090912060039091020154610ea190610100900460ff166001613a1f565b610133549091506001600160a01b0316639dc29fac336040516001600160e01b031960e084901b1681526001600160a01b03909116600482015260248101859052604401600060405180830381600087803b158015610eff57600080fd5b505af1158015610f13573d6000803e3d6000fd5b50505050610f208761200c565b610f298661200c565b610f6184826101318760ff1681548110610f4557610f456139b3565b60009182526020909120015462010000900460ff166001612063565b5050600160c9555050505050565b6000610f7a60995490565b8210610fdd5760405162461bcd60e51b815260206004820152602c60248201527f455243373231456e756d657261626c653a20676c6f62616c20696e646578206f60448201526b7574206f6620626f756e647360a01b606482015260840161087e565b60998281548110610ff057610ff06139b3565b90600052602060002001549050919050565b6040805160a0810182526000808252602082018190529181018290526060810182905260808101919091526101308281548110611041576110416139b3565b60009182526020918290206040805160a0810182526003909302909101805460ff8082168552610100918290048116958501959095526001820154928401929092526002015480841615156060840152049091161515608082015292915050565b6000818152606760205260408120546001600160a01b0316806107715760405162461bcd60e51b815260206004820152602960248201527f4552433732313a206f776e657220717565727920666f72206e6f6e657869737460448201526832b73a103a37b5b2b760b91b606482015260840161087e565b60fb546001600160a01b031633146111435760405162461bcd60e51b815260040161087e90613a44565b61013280546001600160a01b0319166001600160a01b0392909216919091179055565b600260c95414156111895760405162461bcd60e51b815260040161087e906139e8565b600260c95560ff8116158015906111a3575060068160ff16105b6111e75760405162461bcd60e51b81526020600482015260156024820152746c6576656c206973206e6f7420696e2072616e676560581b604482015260640161087e565b60006111f2826116b9565b90508034146112395760405162461bcd60e51b8152602060048201526013602482015272125b9cdd59999a58da595b9d08185b5bdd5b9d606a1b604482015260640161087e565b61013a5467ffffffffffffffff1661125260018461389d565b61125d9060026139a4565b6112719067ffffffffffffffff8316613a79565b61013a805467ffffffffffffffff191667ffffffffffffffff929092169182179055620f424010156112d15760405162461bcd60e51b81526020600482015260096024820152686d6178206d696e747360b81b604482015260640161087e565b610136546040516001600160a01b03909116903480156108fc02916000818181858888f1935050505015801561130b573d6000803e3d6000fd5b50610134546040805163dbdff2c160e01b815290516000926001600160a01b03169163dbdff2c1916004808301926020929190829003018187875af1158015611358573d6000803e3d6000fd5b505050506040513d601f19601f8201168201806040525081019061137c9190613a91565b610131549091506000906113909083613ac0565b61139b906001613a79565b90506113ba8160016101318460ff1681548110610f4557610f456139b3565b5050600160c955505050565b60006001600160a01b0382166114315760405162461bcd60e51b815260206004820152602a60248201527f4552433732313a2062616c616e636520717565727920666f7220746865207a65604482015269726f206164647265737360b01b606482015260840161087e565b506001600160a01b031660009081526068602052604090205490565b60fb546001600160a01b031633146114775760405162461bcd60e51b815260040161087e90613a44565b61148160006121e8565b565b60fb546001600160a01b031633146114ad5760405162461bcd60e51b815260040161087e90613a44565b61013955565b60fb546001600160a01b031633146114dd5760405162461bcd60e51b815260040161087e90613a44565b61013580546001600160a01b0319166001600160a01b0392909216919091179055565b600260c95414156115235760405162461bcd60e51b815260040161087e906139e8565b600260c95533600090815261012f602052604090205460ff16156115795760405162461bcd60e51b815260206004820152600d60248201526c1b5a5b9d081dd85cc81d5cd959609a1b604482015260640161087e565b33600090815261012f60209081526040808320805460ff1916600117905561013454815163dbdff2c160e01b815291516001600160a01b03919091169263dbdff2c19260048082019391829003018187875af11580156115dd573d6000803e3d6000fd5b505050506040513d601f19601f820116820180604052508101906116019190613a91565b90506000611610603283613ac0565b61161b906001613a79565b90506116548160016101318460ff168154811061163a5761163a6139b3565b600091825260208220015462010000900460ff1690612063565b5050600160c955565b606060668054610786906137fb565b60fb546001600160a01b031633146116965760405162461bcd60e51b815260040161087e90613a44565b80516116aa906101379060208401906131c1565b5050565b6116aa33838361223a565b600080610139546001846116cd919061389d565b6116d89060026139a4565b6116e291906139c9565b905060018360ff16111561077157610ad28160026139c9565b60fb546001600160a01b031633146117255760405162461bcd60e51b815260040161087e90613a44565b61013380546001600160a01b0319166001600160a01b0392909216919091179055565b6117523383611d70565b61176e5760405162461bcd60e51b815260040161087e90613836565b61177a84848484612309565b50505050565b60fb546001600160a01b031633146117aa5760405162461bcd60e51b815260040161087e90613a44565b600981146117f05760405162461bcd60e51b81526020600482015260136024820152726d65726765206e6565642039206c6576656c7360681b604482015260640161087e565b6109b46101388383613245565b6000818152606760205260409020546060906001600160a01b031661187c5760405162461bcd60e51b815260206004820152602f60248201527f4552433732314d657461646174613a2055524920717565727920666f72206e6f60448201526e3732bc34b9ba32b73a103a37b5b2b760891b606482015260840161087e565b600061188661233c565b905060008151116118a65760405180602001604052806000815250610ad2565b806118b08461234c565b6040516020016118c1929190613ad4565b6040516020818303038152906040529392505050565b60fb546001600160a01b031633146119015760405162461bcd60e51b815260040161087e90613a44565b61013480546001600160a01b0319166001600160a01b0392909216919091179055565b60fb546001600160a01b0316331461194e5760405162461bcd60e51b815260040161087e90613a44565b61013680546001600160a01b0319166001600160a01b0392909216919091179055565b60fb546001600160a01b0316331461199b5760405162461bcd60e51b815260040161087e90613a44565b6001600160a01b038116611a005760405162461bcd60e51b815260206004820152602660248201527f4f776e61626c653a206e6577206f776e657220697320746865207a65726f206160448201526564647265737360d01b606482015260840161087e565b611a09816121e8565b50565b600054610100900460ff16611a275760005460ff1615611a2b565b303b155b611a8e5760405162461bcd60e51b815260206004820152602e60248201527f496e697469616c697a61626c653a20636f6e747261637420697320616c72656160448201526d191e481a5b9a5d1a585b1a5e995960921b606482015260840161087e565b600054610100900460ff16158015611ab0576000805461ffff19166101011790555b611aff6040518060400160405280600b81526020016a4d594d4d20476e6f6d657360a81b8152506040518060400160405280600a8152602001694d594d4d474e4f4d455360b01b81525061244a565b611b0761247b565b611b0f6124a2565b611b176124d1565b611b20876116fb565b611b29866118d7565b611b3288611119565b611b3b856114b3565b611b4484611924565b611b55674563918244f40000611483565b611b5e8261166c565b6101308054600101815560009081526101325460408051638d48258b60e01b815290516001600160a01b0390921691638d48258b9160048082019286929091908290030181865afa158015611bb7573d6000803e3d6000fd5b505050506040513d6000823e601f3d908101601f19168201604052611bdf9190810190613b03565b905060005b8151811015611cb657610131828281518110611c0257611c026139b3565b6020908102919091018101518254600181018455600093845292829020815193018054928201516040830151606084015160809094015115156701000000000000000267ff000000000000001963ffffffff90951663010000000266ffffffff0000001960ff93841662010000021666ffffffffff0000199484166101000261ffff199098169390981692909217959095179190911694909417939093171617905580611cae81613c22565b915050611be4565b50611cc084611971565b508015611cd3576000805461ff00191690555b5050505050505050565b60006001600160e01b0319821663780e9d6360e01b1480610771575061077182612500565b600081815260696020526040902080546001600160a01b0319166001600160a01b0384169081179091558190611d37826110a2565b6001600160a01b03167f8c5be1e5ebec7d5bd14f71427d1e84f3dd0314c0f7b2291e5b200ac8c7c3b92560405160405180910390a45050565b6000818152606760205260408120546001600160a01b0316611de95760405162461bcd60e51b815260206004820152602c60248201527f4552433732313a206f70657261746f7220717565727920666f72206e6f6e657860448201526b34b9ba32b73a103a37b5b2b760a11b606482015260840161087e565b6000611df4836110a2565b9050806001600160a01b0316846001600160a01b03161480611e2f5750836001600160a01b0316611e2484610809565b6001600160a01b0316145b80611e5f57506001600160a01b038082166000908152606a602090815260408083209388168352929052205460ff165b949350505050565b6101308181548110611e7b57611e7b6139b3565b600091825260209091206002600390920201015460ff16151560011480611ea957506001600160a01b038216155b80611ebb57506001600160a01b038316155b611eff5760405162461bcd60e51b8152602060048201526015602482015274676e6f6d65206973206e6f74207472616461626c6560581b604482015260640161087e565b611f098382612550565b611f148383836127a9565b6001600160a01b038216611f2757505050565b60006101308281548110611f3d57611f3d6139b3565b600091825260208083206040805160a0810182526003909402909101805460ff80821680875261010092839004821695870195909552600183015493860193909352600290910154808316151560608601520416151560808301526101318054929450918110611faf57611faf6139b3565b9060005260206000200160000160029054906101000a900460ff1690506000611fe2858460000151856020015185612950565b90506001811515141561200457612004858585600001518660200151866129e1565b505050505050565b60006101308281548110612022576120226139b3565b906000526020600020906003020160020160016101000a81548160ff02191690831515021790555061205a6120543390565b82612550565b611a0981612b85565b610130546120713382612c2c565b6040805160a08101825260ff80881682528681166020830190815292820184815285151560608401908152600160808501818152610130805492830181556000908152865160039093027f2f605e086faac1d93117bbfbc18835d434e9405fadc1ca66faf4b864746daf34810180549951881661010090810261ffff199b8c1696909916959095179790971790965593517f2f605e086faac1d93117bbfbc18835d434e9405fadc1ca66faf4b864746daf3586015591517f2f605e086faac1d93117bbfbc18835d434e9405fadc1ca66faf4b864746daf3690940180549251151590910293151561ff0019169190951617919091179092559061217c6121743390565b888888612950565b9050600181151514156121965761219633848989896129e1565b6040805160ff898116825288166020820152821515818301529051849133917fbad2aadd9f7e21ea44d0cdc4c5c59f567a106c4c5af73bd75a88004e47ecd7a29181900360600190a350505050505050565b60fb80546001600160a01b038381166001600160a01b0319831681179093556040519116919082907f8be0079c531659141344cd1fd0a4f28419497f9722a3daafe3b4186f6b6457e090600090a35050565b816001600160a01b0316836001600160a01b0316141561229c5760405162461bcd60e51b815260206004820152601960248201527f4552433732313a20617070726f766520746f2063616c6c657200000000000000604482015260640161087e565b6001600160a01b038381166000818152606a6020908152604080832094871680845294825291829020805460ff191686151590811790915591519182527f17307eab39ab6107e8899845ad3d59bd9653f200f220920489ca2b5937696c31910160405180910390a3505050565b612314848484611e67565b61232084848484612c46565b61177a5760405162461bcd60e51b815260040161087e90613c3d565b60606101378054610786906137fb565b6060816123705750506040805180820190915260018152600360fc1b602082015290565b8160005b811561239a578061238481613c22565b91506123939050600a83613c8f565b9150612374565b60008167ffffffffffffffff8111156123b5576123b561347a565b6040519080825280601f01601f1916602001820160405280156123df576020820181803683370190505b5090505b8415611e5f576123f4600183613ca3565b9150612401600a86613ac0565b61240c906030613a79565b60f81b818381518110612421576124216139b3565b60200101906001600160f81b031916908160001a905350612443600a86613c8f565b94506123e3565b600054610100900460ff166124715760405162461bcd60e51b815260040161087e90613cba565b6116aa8282612d41565b600054610100900460ff166114815760405162461bcd60e51b815260040161087e90613cba565b600054610100900460ff166124c95760405162461bcd60e51b815260040161087e90613cba565b611481612d8f565b600054610100900460ff166124f85760405162461bcd60e51b815260040161087e90613cba565b611481612dbd565b60006001600160e01b031982166380ac58cd60e01b148061253157506001600160e01b03198216635b5e139f60e01b145b8061077157506301ffc9a760e01b6001600160e01b0319831614610771565b6101308181548110612564576125646139b3565b6000918252602090912060039091020160020154610100900460ff16612588575050565b6000610130828154811061259e5761259e6139b3565b60009182526020822060039091020154610131805460ff909216935090839081106125cb576125cb6139b3565b60009182526020808320909101546001600160a01b038716835261012d8252604080842060ff620100009093048316808652908452818520928716855291909252912054909150831461261e5750505050565b6101355460405163182c9dd960e21b81526001600160a01b03868116600483015260ff84166024830152909116906360b2776490604401600060405180830381600087803b15801561266f57600080fd5b505af1158015612683573d6000803e3d6000fd5b505050506001600160a01b038416600090815261012e6020908152604080832060ff8516845290915290205461013080546126e8918591879081106126ca576126ca6139b3565b6000918252602090912060039091020154610100900460ff16610a80565b6126f29082613ca3565b6001600160a01b03868116600081815261012e6020908152604080832060ff8981168086529184528285209790975584845261012d83528184208185528352818420968a168452959091529081902088905561013554905163182c9dd960e21b8152600481019290925260248201939093529116906360b2776490604401600060405180830381600087803b15801561278a57600080fd5b505af115801561279e573d6000803e3d6000fd5b505050505050505050565b826001600160a01b03166127bc826110a2565b6001600160a01b0316146128205760405162461bcd60e51b815260206004820152602560248201527f4552433732313a207472616e736665722066726f6d20696e636f72726563742060448201526437bbb732b960d91b606482015260840161087e565b6001600160a01b0382166128825760405162461bcd60e51b8152602060048201526024808201527f4552433732313a207472616e7366657220746f20746865207a65726f206164646044820152637265737360e01b606482015260840161087e565b61288d838383612ded565b612898600082611d02565b6001600160a01b03831660009081526068602052604081208054600192906128c1908490613ca3565b90915550506001600160a01b03821660009081526068602052604081208054600192906128ef908490613a79565b909155505060008181526067602052604080822080546001600160a01b0319166001600160a01b0386811691821790925591518493918716917fddf252ad1be2c89b69c2b068fc378daa952ba7f163c4a11628f55a4df523b3ef91a4505050565b6001600160a01b038416600090815261012d6020908152604080832060ff8086168552908352818420908716845290915281205480612993576001915050611e5f565b61013081815481106129a7576129a76139b3565b600091825260209091206003909102015460ff610100909104811690851611156129d5576001915050611e5f565b50600095945050505050565b61013084815481106129f5576129f56139b3565b906000526020600020906003020160020160019054906101000a900460ff16612a585760405162461bcd60e51b8152602060048201526015602482015274746f6b656e20646f6573206e6f742065786973747360581b604482015260640161087e565b6001600160a01b038516600081815261012d6020908152604080832060ff808716808652918452828520908916855283528184208054908a905594845261012e8352818420908452909152902054612ab08585610a80565b612aba9082613a79565b9050600082118015612afb57506101308281548110612adb57612adb6139b3565b906000526020600020906003020160020160019054906101000a900460ff165b15612b5057612b436101308381548110612b1757612b176139b3565b6000918252602090912060039091020154610130805460ff90921691859081106126ca576126ca6139b3565b612b4d9082613ca3565b90505b6001600160a01b03909616600090815261012e6020908152604080832060ff9095168352939052919091209490945550505050565b6000612b90826110a2565b9050612b9e81600084612ded565b612ba9600083611d02565b6001600160a01b0381166000908152606860205260408120805460019290612bd2908490613ca3565b909155505060008281526067602052604080822080546001600160a01b0319169055518391906001600160a01b038416907fddf252ad1be2c89b69c2b068fc378daa952ba7f163c4a11628f55a4df523b3ef908390a45050565b6116aa828260405180602001604052806000815250612df8565b60006001600160a01b0384163b15612d3957604051630a85bd0160e11b81526001600160a01b0385169063150b7a0290612c8a903390899088908890600401613d05565b6020604051808303816000875af1925050508015612cc5575060408051601f3d908101601f19168201909252612cc291810190613d42565b60015b612d1f573d808015612cf3576040519150601f19603f3d011682016040523d82523d6000602084013e612cf8565b606091505b508051612d175760405162461bcd60e51b815260040161087e90613c3d565b805181602001fd5b6001600160e01b031916630a85bd0160e11b149050611e5f565b506001611e5f565b600054610100900460ff16612d685760405162461bcd60e51b815260040161087e90613cba565b8151612d7b9060659060208501906131c1565b5080516109b49060669060208401906131c1565b600054610100900460ff16612db65760405162461bcd60e51b815260040161087e90613cba565b600160c955565b600054610100900460ff16612de45760405162461bcd60e51b815260040161087e90613cba565b611481336121e8565b6109b4838383612e2b565b612e028383612ee3565b612e0f6000848484612c46565b6109b45760405162461bcd60e51b815260040161087e90613c3d565b6001600160a01b038316612e8657612e8181609980546000838152609a60205260408120829055600182018355919091527f72a152ddfb8e864297c917af52ea6c1c68aead0fee1a62673fcc7e0c94979d000155565b612ea9565b816001600160a01b0316836001600160a01b031614612ea957612ea98382613031565b6001600160a01b038216612ec0576109b4816130ce565b826001600160a01b0316826001600160a01b0316146109b4576109b4828261317d565b6001600160a01b038216612f395760405162461bcd60e51b815260206004820181905260248201527f4552433732313a206d696e7420746f20746865207a65726f2061646472657373604482015260640161087e565b6000818152606760205260409020546001600160a01b031615612f9e5760405162461bcd60e51b815260206004820152601c60248201527f4552433732313a20746f6b656e20616c7265616479206d696e74656400000000604482015260640161087e565b612faa60008383612ded565b6001600160a01b0382166000908152606860205260408120805460019290612fd3908490613a79565b909155505060008181526067602052604080822080546001600160a01b0319166001600160a01b03861690811790915590518392907fddf252ad1be2c89b69c2b068fc378daa952ba7f163c4a11628f55a4df523b3ef908290a45050565b6000600161303e846113c6565b6130489190613ca3565b60008381526098602052604090205490915080821461309b576001600160a01b03841660009081526097602090815260408083208584528252808320548484528184208190558352609890915290208190555b5060009182526098602090815260408084208490556001600160a01b039094168352609781528383209183525290812055565b6099546000906130e090600190613ca3565b6000838152609a602052604081205460998054939450909284908110613108576131086139b3565b906000526020600020015490508060998381548110613129576131296139b3565b6000918252602080832090910192909255828152609a9091526040808220849055858252812055609980548061316157613161613d5f565b6001900381819060005260206000200160009055905550505050565b6000613188836113c6565b6001600160a01b039093166000908152609760209081526040808320868452825280832085905593825260989052919091209190915550565b8280546131cd906137fb565b90600052602060002090601f0160209004810192826131ef5760008555613235565b82601f1061320857805160ff1916838001178555613235565b82800160010185558215613235579182015b8281111561323557825182559160200191906001019061321a565b50613241929150613280565b5090565b828054828255906000526020600020908101928215613235579160200282015b82811115613235578235825591602001919060010190613265565b5b808211156132415760008155600101613281565b6001600160e01b031981168114611a0957600080fd5b6000602082840312156132bd57600080fd5b8135610ad281613295565b60005b838110156132e35781810151838201526020016132cb565b8381111561177a5750506000910152565b6000815180845261330c8160208601602086016132c8565b601f01601f19169290920160200192915050565b602081526000610ad260208301846132f4565b60006020828403121561334557600080fd5b5035919050565b80356001600160a01b038116811461336357600080fd5b919050565b6000806040838503121561337b57600080fd5b6133848361334c565b946020939093013593505050565b6000806000606084860312156133a757600080fd5b6133b08461334c565b92506133be6020850161334c565b9150604084013590509250925092565b60ff81168114611a0957600080fd5b600080604083850312156133f057600080fd5b82356133fb816133ce565b9150602083013561340b816133ce565b809150509250929050565b60008060006060848603121561342b57600080fd5b505081359360208301359350604090920135919050565b60006020828403121561345457600080fd5b610ad28261334c565b60006020828403121561346f57600080fd5b8135610ad2816133ce565b634e487b7160e01b600052604160045260246000fd5b60405160a0810167ffffffffffffffff811182821017156134b3576134b361347a565b60405290565b604051601f8201601f1916810167ffffffffffffffff811182821017156134e2576134e261347a565b604052919050565b600067ffffffffffffffff8311156135045761350461347a565b613517601f8401601f19166020016134b9565b905082815283838301111561352b57600080fd5b828260208301376000602084830101529392505050565b600082601f83011261355357600080fd5b610ad2838335602085016134ea565b60006020828403121561357457600080fd5b813567ffffffffffffffff81111561358b57600080fd5b611e5f84828501613542565b8015158114611a0957600080fd5b600080604083850312156135b857600080fd5b6135c18361334c565b9150602083013561340b81613597565b600080600080608085870312156135e757600080fd5b6135f08561334c565b93506135fe6020860161334c565b925060408501359150606085013567ffffffffffffffff81111561362157600080fd5b8501601f8101871361363257600080fd5b613641878235602084016134ea565b91505092959194509250565b60008060006060848603121561366257600080fd5b61366b8461334c565b9250602084013561367b816133ce565b9150604084013561368b816133ce565b809150509250925092565b600080602083850312156136a957600080fd5b823567ffffffffffffffff808211156136c157600080fd5b818501915085601f8301126136d557600080fd5b8135818111156136e457600080fd5b8660208260051b85010111156136f957600080fd5b60209290920196919550909350505050565b6000806040838503121561371e57600080fd5b6137278361334c565b91506137356020840161334c565b90509250929050565b6000806040838503121561375157600080fd5b6133fb8361334c565b600080600080600080600060e0888a03121561377557600080fd5b61377e8861334c565b965061378c6020890161334c565b955061379a6040890161334c565b94506137a86060890161334c565b93506137b66080890161334c565b92506137c460a0890161334c565b915060c088013567ffffffffffffffff8111156137e057600080fd5b6137ec8a828b01613542565b91505092959891949750929550565b600181811c9082168061380f57607f821691505b6020821081141561383057634e487b7160e01b600052602260045260246000fd5b50919050565b60208082526031908201527f4552433732313a207472616e736665722063616c6c6572206973206e6f74206f6040820152701ddb995c881b9bdc88185c1c1c9bdd9959607a1b606082015260800190565b634e487b7160e01b600052601160045260246000fd5b600060ff821660ff8416808210156138b7576138b7613887565b90039392505050565b600181815b808511156138fb5781600019048211156138e1576138e1613887565b808516156138ee57918102915b93841c93908002906138c5565b509250929050565b60008261391257506001610771565b8161391f57506000610771565b8160018114613935576002811461393f5761395b565b6001915050610771565b60ff84111561395057613950613887565b50506001821b610771565b5060208310610133831016604e8410600b841016171561397e575081810a610771565b61398883836138c0565b806000190482111561399c5761399c613887565b029392505050565b6000610ad260ff841683613903565b634e487b7160e01b600052603260045260246000fd5b60008160001904831182151516156139e3576139e3613887565b500290565b6020808252601f908201527f5265656e7472616e637947756172643a207265656e7472616e742063616c6c00604082015260600190565b600060ff821660ff84168060ff03821115613a3c57613a3c613887565b019392505050565b6020808252818101527f4f776e61626c653a2063616c6c6572206973206e6f7420746865206f776e6572604082015260600190565b60008219821115613a8c57613a8c613887565b500190565b600060208284031215613aa357600080fd5b5051919050565b634e487b7160e01b600052601260045260246000fd5b600082613acf57613acf613aaa565b500690565b60008351613ae68184602088016132c8565b835190830190613afa8183602088016132c8565b01949350505050565b60006020808385031215613b1657600080fd5b825167ffffffffffffffff80821115613b2e57600080fd5b818501915085601f830112613b4257600080fd5b815181811115613b5457613b5461347a565b613b62848260051b016134b9565b818152848101925060a0918202840185019188831115613b8157600080fd5b938501935b82851015613c165780858a031215613b9e5760008081fd5b613ba6613490565b8551613bb1816133ce565b815285870151613bc0816133ce565b81880152604086810151613bd3816133ce565b9082015260608681015163ffffffff81168114613bf05760008081fd5b90820152608086810151613c0381613597565b9082015284529384019392850192613b86565b50979650505050505050565b6000600019821415613c3657613c36613887565b5060010190565b60208082526032908201527f4552433732313a207472616e7366657220746f206e6f6e20455243373231526560408201527131b2b4bb32b91034b6b83632b6b2b73a32b960711b606082015260800190565b600082613c9e57613c9e613aaa565b500490565b600082821015613cb557613cb5613887565b500390565b6020808252602b908201527f496e697469616c697a61626c653a20636f6e7472616374206973206e6f74206960408201526a6e697469616c697a696e6760a81b606082015260800190565b6001600160a01b0385811682528416602082015260408101839052608060608201819052600090613d38908301846132f4565b9695505050505050565b600060208284031215613d5457600080fd5b8151610ad281613295565b634e487b7160e01b600052603160045260246000fdfea2646970667358221220460d683586b3be38109d0424964d05f2c13f8fff7b9e80bf575e0b57f9b8509564736f6c634300080a0033",
  "immutableReferences": {},
  "source": "pragma solidity 0.8.10;\r\n\r\nimport \"@openzeppelin/contracts-upgradeable/proxy/utils/Initializable.sol\";\r\nimport \"@openzeppelin/contracts-upgradeable/token/ERC721/ERC721Upgradeable.sol\";\r\nimport \"@openzeppelin/contracts-upgradeable/token/ERC721/extensions/ERC721EnumerableUpgradeable.sol\";\r\nimport \"@openzeppelin/contracts-upgradeable/access/OwnableUpgradeable.sol\";\r\nimport \"@openzeppelin/contracts-upgradeable/security/ReentrancyGuardUpgradeable.sol\";\r\nimport \"./interfaces/IRandom.sol\";\r\nimport \"./interfaces/IGnomeStats.sol\";\r\nimport \"./interfaces/IPlayerGnome.sol\";\r\nimport \"./interfaces/IGnome.sol\";\r\nimport \"./interfaces/IGnomes.sol\";\r\nimport \"./interfaces/IToken.sol\";\r\nimport \"./interfaces/IMines.sol\";\r\n\r\n\r\ncontract Gnomes is Initializable, ERC721Upgradeable, ERC721EnumerableUpgradeable, ReentrancyGuardUpgradeable, OwnableUpgradeable, IGnome, IPlayerGnome {\r\n\r\n    /*\r\n         player => collection id => gnome id => token id\r\n     */\r\n    mapping(address => mapping(uint8 => mapping(uint8 => uint))) private _playerCollections;\r\n    /*\r\n        player => collection id => collection power\r\n    */\r\n    mapping(address => mapping(uint8 => uint)) private _playerCollectionsPower;\r\n\r\n    mapping(address => bool) private _usedFreeMint;\r\n\r\n    structPlayerGnome[] private _playersGnomes;\r\n    structGnome[] private  _gnomes;\r\n    IGnomeStats private _gnomeStatsContract;\r\n    IToken private  _tokenContract;\r\n    IRandom private _randomContract;\r\n    IMines private _minesContract;\r\n    address private _feesAccount;\r\n    string private _baseURIStr;\r\n    uint[] private _mergeCost;\r\n    uint private _mintCost;\r\n    uint64 private _totalBaseGnomesMints;\r\n\r\n    event Mint(address indexed account, uint  indexed tokenId, uint8 gnomeId, uint8 level, bool inCollection);\r\n\r\n    function initialize(address gnomeStatsContract, address tokenContract, address randomContract, address minesContract, address feesAccount, address owner, string memory baseUri) initializer public {\r\n        __ERC721_init(\"MYMM Gnomes\", \"MYMMGNOMES\");\r\n        __ERC721Enumerable_init();\r\n        __ReentrancyGuard_init();\r\n        __Ownable_init();\r\n        setTokenContractAddress(tokenContract);\r\n        setRandomContractAddress(randomContract);\r\n        setGnomeStatsContractAddress(gnomeStatsContract);\r\n        setMinesContractAddress(minesContract);\r\n        setFeesAccount(feesAccount);\r\n        setMintCost(5 * 1 ether);\r\n        setBaseUri(baseUri);\r\n        // start from 1\r\n        _playersGnomes.push();\r\n        structGnome[] memory gnomes = _gnomeStatsContract.getAllGnomes();\r\n        for (uint i; i < gnomes.length; i++) {\r\n            _gnomes.push(gnomes[i]);\r\n        }\r\n        transferOwnership(owner);\r\n\r\n    }\r\n\r\n    function getPlayerCollectionsPower(address player, uint8 collectionId) external view returns (uint){\r\n        return _playerCollectionsPower[player][collectionId];\r\n    }\r\n\r\n    function getTokenIdByCollectionGnome(address account, uint8 collectionId, uint8 gnomeId) external view returns (uint){\r\n        return _playerCollections[account][collectionId][gnomeId];\r\n\r\n    }\r\n\r\n    function getGnomeByTokenId(uint tokenId) external view returns (structPlayerGnome memory){\r\n        return _playersGnomes[tokenId];\r\n    }\r\n\r\n    function mint(uint8 level) payable public nonReentrant {\r\n        require(level > 0 && level < 6, \"level is not in range\");\r\n        uint mintPrice = getGnomeMintPrice(level);\r\n        require(msg.value == mintPrice, \"Insufficient amount\");\r\n        uint64 totalMints = _totalBaseGnomesMints;\r\n        _totalBaseGnomesMints = uint64(totalMints + (2 ** (level - 1)));\r\n        require(_totalBaseGnomesMints <= 10 ** 6, 'max mints');\r\n        payable(_feesAccount).transfer(msg.value);\r\n\r\n        uint randomNumber = _randomContract.getRandomNumber();\r\n        uint8 gnomeId = uint8((randomNumber % _gnomes.length) + 1);\r\n        _createGnome(\r\n            gnomeId,\r\n            1,\r\n            _gnomes[gnomeId].collectionId,\r\n            true\r\n        );\r\n\r\n    }\r\n\r\n    function mintFree() public nonReentrant {\r\n        require(_usedFreeMint[_msgSender()] == false, 'mint was used');\r\n        _usedFreeMint[_msgSender()] = true;\r\n        uint randomNumber = _randomContract.getRandomNumber();\r\n        uint8 gnomeId = uint8((randomNumber % 50) + 1);\r\n        _createGnome(\r\n            gnomeId,\r\n            1,\r\n            _gnomes[gnomeId].collectionId,\r\n            false\r\n        );\r\n\r\n    }\r\n\r\n\r\n    function mergeGnomes(uint tokenId1, uint tokenId2, uint amount) external nonReentrant {\r\n\r\n        require(_msgSender() == ownerOf(tokenId1) && _msgSender() == ownerOf(tokenId2), \"Owner only\");\r\n        require(_playersGnomes[tokenId1].exists && _playersGnomes[tokenId2].exists, \"Gnome does not exists\");\r\n        uint8 gnomeId = _playersGnomes[tokenId1].gnomeId;\r\n        require(gnomeId == _playersGnomes[tokenId2].gnomeId, \"Different gnome\");\r\n        uint8 level = _playersGnomes[tokenId1].level;\r\n        require(level == _playersGnomes[tokenId2].level, \"Different level\");\r\n        require(level < 10, \"Max level\");\r\n        uint cost = _mergeCost[level - 1];\r\n        require(_mergeCost[level - 1] == amount, \"invalid amount\");\r\n        uint8 newLevel = _playersGnomes[tokenId1].level + 1;\r\n        _tokenContract.burn(_msgSender(), cost);\r\n\r\n        _burn(tokenId1);\r\n        _burn(tokenId2);\r\n\r\n        _createGnome(\r\n            gnomeId,\r\n            newLevel,\r\n            _gnomes[gnomeId].collectionId,\r\n            true\r\n        );\r\n\r\n    }\r\n\r\n    function _createGnome(uint8 gnomeId, uint8 level, uint8 collectionId, bool canBeTraded) private {\r\n        uint newTokenId = _playersGnomes.length;\r\n        _safeMint(_msgSender(), newTokenId);\r\n        structPlayerGnome memory playerGnome = structPlayerGnome({\r\n        gnomeId : gnomeId,\r\n        tokenId : newTokenId,\r\n        level : level,\r\n        canBeTraded : canBeTraded,\r\n        exists : true\r\n        });\r\n        _playersGnomes.push(playerGnome);\r\n        bool inCollection = _isGnomeIsHigherLevelThenCurrentCollectionGnome(_msgSender(), gnomeId, level, collectionId);\r\n        if (inCollection == true) {\r\n            _addGnomeToCollection(_msgSender(), newTokenId, gnomeId, level, collectionId);\r\n        }\r\n        emit Mint(_msgSender(), newTokenId, gnomeId, level, inCollection);\r\n    }\r\n\r\n    function _burn(uint256 tokenId) internal override {\r\n        _playersGnomes[tokenId].exists = false;\r\n        _removeGnomeFromCollection(_msgSender(), tokenId);\r\n        super._burn(tokenId);\r\n    }\r\n\r\n\r\n    function _addGnomeToCollection(address account, uint tokenId, uint8 gnomeId, uint8 level, uint8 collectionId) private {\r\n        require(_playersGnomes[tokenId].exists, \"token does not exists\");\r\n        uint oldTokenId = _playerCollections[account][collectionId][gnomeId];\r\n        _playerCollections[account][collectionId][gnomeId] = tokenId;\r\n        uint newPower = _playerCollectionsPower[account][collectionId];\r\n        newPower = newPower + calcPower(gnomeId, level);\r\n        if (oldTokenId > 0 && _playersGnomes[oldTokenId].exists) {\r\n            newPower = newPower - calcPower(_playersGnomes[oldTokenId].gnomeId, _playersGnomes[oldTokenId].level);\r\n        }\r\n        _playerCollectionsPower[account][collectionId] = newPower;\r\n    }\r\n\r\n    function _removeGnomeFromCollection(address account, uint tokenId) private {\r\n        if (_playersGnomes[tokenId].exists == false) {\r\n            return;\r\n        }\r\n        uint8 gnomeId = _playersGnomes[tokenId].gnomeId;\r\n        uint8 collectionId = _gnomes[gnomeId].collectionId;\r\n\r\n        if (_playerCollections[account][collectionId][gnomeId] != tokenId) {\r\n            return;\r\n        }\r\n        _minesContract.claimByAccount(account, collectionId);\r\n        uint collectionPower = _playerCollectionsPower[account][collectionId];\r\n\r\n        _playerCollectionsPower[account][collectionId] = collectionPower - calcPower(gnomeId, _playersGnomes[tokenId].level);\r\n        _playerCollections[account][collectionId][gnomeId] = tokenId;\r\n        _minesContract.claimByAccount(account, collectionId);\r\n\r\n    }\r\n\r\n    function calcPower(uint8 gnomeId, uint8 level) public view returns (uint) {\r\n        return _gnomes[gnomeId].basePower * (2 ** (level - 1));\r\n    }\r\n\r\n    function _isGnomeIsHigherLevelThenCurrentCollectionGnome(address account, uint8 gnomeId, uint8 level, uint8 collectionId) private view returns (bool) {\r\n        uint currentTokenId = _playerCollections[account][collectionId][gnomeId];\r\n        if (currentTokenId == 0) {\r\n            return true;\r\n        }\r\n        if (level > _playersGnomes[currentTokenId].level) {\r\n            return true;\r\n        }\r\n        return false;\r\n    }\r\n\r\n    function getGnomeMintPrice(uint8 level) public view returns (uint){\r\n        uint price = (2 ** (level - 1)) * _mintCost;\r\n        if (level > 1) {\r\n            price = price * 2;\r\n        }\r\n        return price;\r\n    }\r\n\r\n    function _transfer(address from, address to, uint256 tokenId) internal override {\r\n\r\n        require(_playersGnomes[tokenId].canBeTraded == true || to == address(0) || from == address(0), 'gnome is not tradable');\r\n        _removeGnomeFromCollection(from, tokenId);\r\n        super._transfer(from, to, tokenId);\r\n        if (to == address(0)) {\r\n            return;\r\n        }\r\n        structPlayerGnome  memory gnome = _playersGnomes[tokenId];\r\n        uint8 collectionId = _gnomes[gnome.gnomeId].collectionId;\r\n        bool inCollection = _isGnomeIsHigherLevelThenCurrentCollectionGnome(to, gnome.gnomeId, gnome.level, collectionId);\r\n        if (inCollection == true) {\r\n            _addGnomeToCollection(to, tokenId, gnome.gnomeId, gnome.level, collectionId);\r\n        }\r\n    }\r\n\r\n    function _beforeTokenTransfer(address from, address to, uint256 tokenId) internal override(ERC721Upgradeable, ERC721EnumerableUpgradeable) {\r\n        super._beforeTokenTransfer(from, to, tokenId);\r\n    }\r\n\r\n    function supportsInterface(bytes4 interfaceId) public view override(ERC721Upgradeable, ERC721EnumerableUpgradeable) returns (bool) {\r\n        return super.supportsInterface(interfaceId);\r\n    }\r\n\r\n    function _baseURI() internal view override returns (string memory) {\r\n        return _baseURIStr;\r\n    }\r\n\r\n    //********************************* management functions *************************************//\r\n\r\n    function setBaseUri(string memory uri) public onlyOwner {\r\n        _baseURIStr = uri;\r\n    }\r\n\r\n    function setGnomeStatsContractAddress(address gnomeStatsContract) public onlyOwner {\r\n        _gnomeStatsContract = IGnomeStats(gnomeStatsContract);\r\n    }\r\n\r\n    function setTokenContractAddress(address tokenContract) public onlyOwner {\r\n        _tokenContract = IToken(tokenContract);\r\n    }\r\n\r\n    function setRandomContractAddress(address randomContract) public onlyOwner {\r\n        _randomContract = IRandom(randomContract);\r\n    }\r\n\r\n    function setMinesContractAddress(address minesContract) public onlyOwner {\r\n        _minesContract = IMines(minesContract);\r\n    }\r\n\r\n    function setFeesAccount(address feesAccount) public onlyOwner {\r\n        _feesAccount = feesAccount;\r\n    }\r\n\r\n    function setMergeCost(uint[] calldata mergeCost) public onlyOwner {\r\n        require(mergeCost.length == 9, 'merge need 9 levels');\r\n        _mergeCost = mergeCost;\r\n    }\r\n\r\n    function setMintCost(uint mintCost) public onlyOwner {\r\n        _mintCost = mintCost;\r\n    }\r\n}\r\n",
  "sourcePath": "C:\\Users\\amit\\PhpstormProjects\\myminiminers-contracts-upgradable\\contracts\\Gnomes.sol",
  "compiler": {
    "name": "solc",
    "version": "0.8.10+commit.fc410830.Emscripten.clang"
  },
  "schemaVersion": "3.4.3",
  "updatedAt": "2022-04-04T12:25:07.142Z",
  "networkType": "ethereum",
  "devdoc": {
    "kind": "dev",
    "methods": {
      "approve(address,uint256)": {
        "details": "See {IERC721-approve}."
      },
      "balanceOf(address)": {
        "details": "See {IERC721-balanceOf}."
      },
      "getApproved(uint256)": {
        "details": "See {IERC721-getApproved}."
      },
      "isApprovedForAll(address,address)": {
        "details": "See {IERC721-isApprovedForAll}."
      },
      "name()": {
        "details": "See {IERC721Metadata-name}."
      },
      "owner()": {
        "details": "Returns the address of the current owner."
      },
      "ownerOf(uint256)": {
        "details": "See {IERC721-ownerOf}."
      },
      "renounceOwnership()": {
        "details": "Leaves the contract without owner. It will not be possible to call `onlyOwner` functions anymore. Can only be called by the current owner. NOTE: Renouncing ownership will leave the contract without an owner, thereby removing any functionality that is only available to the owner."
      },
      "safeTransferFrom(address,address,uint256)": {
        "details": "See {IERC721-safeTransferFrom}."
      },
      "safeTransferFrom(address,address,uint256,bytes)": {
        "details": "See {IERC721-safeTransferFrom}."
      },
      "setApprovalForAll(address,bool)": {
        "details": "See {IERC721-setApprovalForAll}."
      },
      "symbol()": {
        "details": "See {IERC721Metadata-symbol}."
      },
      "tokenByIndex(uint256)": {
        "details": "See {IERC721Enumerable-tokenByIndex}."
      },
      "tokenOfOwnerByIndex(address,uint256)": {
        "details": "See {IERC721Enumerable-tokenOfOwnerByIndex}."
      },
      "tokenURI(uint256)": {
        "details": "See {IERC721Metadata-tokenURI}."
      },
      "totalSupply()": {
        "details": "See {IERC721Enumerable-totalSupply}."
      },
      "transferFrom(address,address,uint256)": {
        "details": "See {IERC721-transferFrom}."
      },
      "transferOwnership(address)": {
        "details": "Transfers ownership of the contract to a new account (`newOwner`). Can only be called by the current owner."
      }
    },
    "version": 1
  },
  "userdoc": {
    "kind": "user",
    "methods": {},
    "version": 1
  }
}