{
  "contractName": "Gnomes",
  "abi": [
    {
      "anonymous": false,
      "inputs": [
        {
          "indexed": true,
          "internalType": "address",
          "name": "owner",
          "type": "address"
        },
        {
          "indexed": true,
          "internalType": "address",
          "name": "approved",
          "type": "address"
        },
        {
          "indexed": true,
          "internalType": "uint256",
          "name": "tokenId",
          "type": "uint256"
        }
      ],
      "name": "Approval",
      "type": "event"
    },
    {
      "anonymous": false,
      "inputs": [
        {
          "indexed": true,
          "internalType": "address",
          "name": "owner",
          "type": "address"
        },
        {
          "indexed": true,
          "internalType": "address",
          "name": "operator",
          "type": "address"
        },
        {
          "indexed": false,
          "internalType": "bool",
          "name": "approved",
          "type": "bool"
        }
      ],
      "name": "ApprovalForAll",
      "type": "event"
    },
    {
      "anonymous": false,
      "inputs": [
        {
          "indexed": true,
          "internalType": "address",
          "name": "account",
          "type": "address"
        },
        {
          "indexed": true,
          "internalType": "uint256",
          "name": "tokenId",
          "type": "uint256"
        },
        {
          "indexed": false,
          "internalType": "uint8",
          "name": "gnomeId",
          "type": "uint8"
        },
        {
          "indexed": false,
          "internalType": "uint8",
          "name": "level",
          "type": "uint8"
        },
        {
          "indexed": false,
          "internalType": "uint64",
          "name": "totalMints",
          "type": "uint64"
        }
      ],
      "name": "Mint",
      "type": "event"
    },
    {
      "anonymous": false,
      "inputs": [
        {
          "indexed": true,
          "internalType": "address",
          "name": "previousOwner",
          "type": "address"
        },
        {
          "indexed": true,
          "internalType": "address",
          "name": "newOwner",
          "type": "address"
        }
      ],
      "name": "OwnershipTransferred",
      "type": "event"
    },
    {
      "anonymous": false,
      "inputs": [
        {
          "indexed": true,
          "internalType": "address",
          "name": "from",
          "type": "address"
        },
        {
          "indexed": true,
          "internalType": "address",
          "name": "to",
          "type": "address"
        },
        {
          "indexed": true,
          "internalType": "uint256",
          "name": "tokenId",
          "type": "uint256"
        }
      ],
      "name": "Transfer",
      "type": "event"
    },
    {
      "inputs": [
        {
          "internalType": "address",
          "name": "to",
          "type": "address"
        },
        {
          "internalType": "uint256",
          "name": "tokenId",
          "type": "uint256"
        }
      ],
      "name": "approve",
      "outputs": [],
      "stateMutability": "nonpayable",
      "type": "function"
    },
    {
      "inputs": [
        {
          "internalType": "address",
          "name": "owner",
          "type": "address"
        }
      ],
      "name": "balanceOf",
      "outputs": [
        {
          "internalType": "uint256",
          "name": "",
          "type": "uint256"
        }
      ],
      "stateMutability": "view",
      "type": "function",
      "constant": true
    },
    {
      "inputs": [
        {
          "internalType": "uint256",
          "name": "tokenId",
          "type": "uint256"
        }
      ],
      "name": "getApproved",
      "outputs": [
        {
          "internalType": "address",
          "name": "",
          "type": "address"
        }
      ],
      "stateMutability": "view",
      "type": "function",
      "constant": true
    },
    {
      "inputs": [
        {
          "internalType": "address",
          "name": "owner",
          "type": "address"
        },
        {
          "internalType": "address",
          "name": "operator",
          "type": "address"
        }
      ],
      "name": "isApprovedForAll",
      "outputs": [
        {
          "internalType": "bool",
          "name": "",
          "type": "bool"
        }
      ],
      "stateMutability": "view",
      "type": "function",
      "constant": true
    },
    {
      "inputs": [],
      "name": "name",
      "outputs": [
        {
          "internalType": "string",
          "name": "",
          "type": "string"
        }
      ],
      "stateMutability": "view",
      "type": "function",
      "constant": true
    },
    {
      "inputs": [],
      "name": "owner",
      "outputs": [
        {
          "internalType": "address",
          "name": "",
          "type": "address"
        }
      ],
      "stateMutability": "view",
      "type": "function",
      "constant": true
    },
    {
      "inputs": [
        {
          "internalType": "uint256",
          "name": "tokenId",
          "type": "uint256"
        }
      ],
      "name": "ownerOf",
      "outputs": [
        {
          "internalType": "address",
          "name": "",
          "type": "address"
        }
      ],
      "stateMutability": "view",
      "type": "function",
      "constant": true
    },
    {
      "inputs": [],
      "name": "renounceOwnership",
      "outputs": [],
      "stateMutability": "nonpayable",
      "type": "function"
    },
    {
      "inputs": [
        {
          "internalType": "address",
          "name": "from",
          "type": "address"
        },
        {
          "internalType": "address",
          "name": "to",
          "type": "address"
        },
        {
          "internalType": "uint256",
          "name": "tokenId",
          "type": "uint256"
        }
      ],
      "name": "safeTransferFrom",
      "outputs": [],
      "stateMutability": "nonpayable",
      "type": "function"
    },
    {
      "inputs": [
        {
          "internalType": "address",
          "name": "from",
          "type": "address"
        },
        {
          "internalType": "address",
          "name": "to",
          "type": "address"
        },
        {
          "internalType": "uint256",
          "name": "tokenId",
          "type": "uint256"
        },
        {
          "internalType": "bytes",
          "name": "_data",
          "type": "bytes"
        }
      ],
      "name": "safeTransferFrom",
      "outputs": [],
      "stateMutability": "nonpayable",
      "type": "function"
    },
    {
      "inputs": [
        {
          "internalType": "address",
          "name": "operator",
          "type": "address"
        },
        {
          "internalType": "bool",
          "name": "approved",
          "type": "bool"
        }
      ],
      "name": "setApprovalForAll",
      "outputs": [],
      "stateMutability": "nonpayable",
      "type": "function"
    },
    {
      "inputs": [],
      "name": "symbol",
      "outputs": [
        {
          "internalType": "string",
          "name": "",
          "type": "string"
        }
      ],
      "stateMutability": "view",
      "type": "function",
      "constant": true
    },
    {
      "inputs": [
        {
          "internalType": "uint256",
          "name": "index",
          "type": "uint256"
        }
      ],
      "name": "tokenByIndex",
      "outputs": [
        {
          "internalType": "uint256",
          "name": "",
          "type": "uint256"
        }
      ],
      "stateMutability": "view",
      "type": "function",
      "constant": true
    },
    {
      "inputs": [
        {
          "internalType": "address",
          "name": "owner",
          "type": "address"
        },
        {
          "internalType": "uint256",
          "name": "index",
          "type": "uint256"
        }
      ],
      "name": "tokenOfOwnerByIndex",
      "outputs": [
        {
          "internalType": "uint256",
          "name": "",
          "type": "uint256"
        }
      ],
      "stateMutability": "view",
      "type": "function",
      "constant": true
    },
    {
      "inputs": [
        {
          "internalType": "uint256",
          "name": "tokenId",
          "type": "uint256"
        }
      ],
      "name": "tokenURI",
      "outputs": [
        {
          "internalType": "string",
          "name": "",
          "type": "string"
        }
      ],
      "stateMutability": "view",
      "type": "function",
      "constant": true
    },
    {
      "inputs": [],
      "name": "totalSupply",
      "outputs": [
        {
          "internalType": "uint256",
          "name": "",
          "type": "uint256"
        }
      ],
      "stateMutability": "view",
      "type": "function",
      "constant": true
    },
    {
      "inputs": [
        {
          "internalType": "address",
          "name": "from",
          "type": "address"
        },
        {
          "internalType": "address",
          "name": "to",
          "type": "address"
        },
        {
          "internalType": "uint256",
          "name": "tokenId",
          "type": "uint256"
        }
      ],
      "name": "transferFrom",
      "outputs": [],
      "stateMutability": "nonpayable",
      "type": "function"
    },
    {
      "inputs": [
        {
          "internalType": "address",
          "name": "newOwner",
          "type": "address"
        }
      ],
      "name": "transferOwnership",
      "outputs": [],
      "stateMutability": "nonpayable",
      "type": "function"
    },
    {
      "inputs": [
        {
          "internalType": "address",
          "name": "gnomeStatsContract",
          "type": "address"
        },
        {
          "internalType": "address",
          "name": "tokenContract",
          "type": "address"
        },
        {
          "internalType": "address",
          "name": "randomContract",
          "type": "address"
        },
        {
          "internalType": "address",
          "name": "minesContract",
          "type": "address"
        },
        {
          "internalType": "address",
          "name": "feesAccount",
          "type": "address"
        },
        {
          "internalType": "address",
          "name": "owner",
          "type": "address"
        },
        {
          "internalType": "string",
          "name": "baseUri",
          "type": "string"
        }
      ],
      "name": "initialize",
      "outputs": [],
      "stateMutability": "nonpayable",
      "type": "function"
    },
    {
      "inputs": [
        {
          "internalType": "address",
          "name": "player",
          "type": "address"
        },
        {
          "internalType": "uint8",
          "name": "collectionId",
          "type": "uint8"
        }
      ],
      "name": "getPlayerCollectionsPower",
      "outputs": [
        {
          "internalType": "uint256",
          "name": "",
          "type": "uint256"
        }
      ],
      "stateMutability": "view",
      "type": "function",
      "constant": true
    },
    {
      "inputs": [
        {
          "internalType": "address",
          "name": "account",
          "type": "address"
        },
        {
          "internalType": "uint8",
          "name": "collectionId",
          "type": "uint8"
        },
        {
          "internalType": "uint8",
          "name": "gnomeId",
          "type": "uint8"
        }
      ],
      "name": "getTokenIdByCollectionGnome",
      "outputs": [
        {
          "internalType": "uint256",
          "name": "",
          "type": "uint256"
        }
      ],
      "stateMutability": "view",
      "type": "function",
      "constant": true
    },
    {
      "inputs": [
        {
          "internalType": "uint256",
          "name": "tokenId",
          "type": "uint256"
        }
      ],
      "name": "getGnomeByTokenId",
      "outputs": [
        {
          "components": [
            {
              "internalType": "uint8",
              "name": "gnomeId",
              "type": "uint8"
            },
            {
              "internalType": "uint8",
              "name": "level",
              "type": "uint8"
            },
            {
              "internalType": "uint256",
              "name": "tokenId",
              "type": "uint256"
            },
            {
              "internalType": "bool",
              "name": "exists",
              "type": "bool"
            }
          ],
          "internalType": "struct IPlayerGnome.structPlayerGnome",
          "name": "",
          "type": "tuple"
        }
      ],
      "stateMutability": "view",
      "type": "function",
      "constant": true
    },
    {
      "inputs": [
        {
          "internalType": "uint8",
          "name": "level",
          "type": "uint8"
        }
      ],
      "name": "mint",
      "outputs": [],
      "stateMutability": "payable",
      "type": "function",
      "payable": true
    },
    {
      "inputs": [
        {
          "internalType": "uint256",
          "name": "tokenId1",
          "type": "uint256"
        },
        {
          "internalType": "uint256",
          "name": "tokenId2",
          "type": "uint256"
        },
        {
          "internalType": "uint256",
          "name": "amount",
          "type": "uint256"
        }
      ],
      "name": "mergeGnomes",
      "outputs": [],
      "stateMutability": "nonpayable",
      "type": "function"
    },
    {
      "inputs": [
        {
          "internalType": "uint8",
          "name": "level",
          "type": "uint8"
        }
      ],
      "name": "getGnomeMintPrice",
      "outputs": [
        {
          "internalType": "uint256",
          "name": "",
          "type": "uint256"
        }
      ],
      "stateMutability": "view",
      "type": "function",
      "constant": true
    },
    {
      "inputs": [
        {
          "internalType": "bytes4",
          "name": "interfaceId",
          "type": "bytes4"
        }
      ],
      "name": "supportsInterface",
      "outputs": [
        {
          "internalType": "bool",
          "name": "",
          "type": "bool"
        }
      ],
      "stateMutability": "view",
      "type": "function",
      "constant": true
    },
    {
      "inputs": [
        {
          "internalType": "string",
          "name": "uri",
          "type": "string"
        }
      ],
      "name": "setBaseUri",
      "outputs": [],
      "stateMutability": "nonpayable",
      "type": "function"
    },
    {
      "inputs": [
        {
          "internalType": "address",
          "name": "gnomeStatsContract",
          "type": "address"
        }
      ],
      "name": "setGnomeStatsContractAddress",
      "outputs": [],
      "stateMutability": "nonpayable",
      "type": "function"
    },
    {
      "inputs": [
        {
          "internalType": "address",
          "name": "tokenContract",
          "type": "address"
        }
      ],
      "name": "setTokenContractAddress",
      "outputs": [],
      "stateMutability": "nonpayable",
      "type": "function"
    },
    {
      "inputs": [
        {
          "internalType": "address",
          "name": "randomContract",
          "type": "address"
        }
      ],
      "name": "setRandomContractAddress",
      "outputs": [],
      "stateMutability": "nonpayable",
      "type": "function"
    },
    {
      "inputs": [
        {
          "internalType": "address",
          "name": "minesContract",
          "type": "address"
        }
      ],
      "name": "setMinesContractAddress",
      "outputs": [],
      "stateMutability": "nonpayable",
      "type": "function"
    },
    {
      "inputs": [
        {
          "internalType": "address",
          "name": "feesAccount",
          "type": "address"
        }
      ],
      "name": "setFeesAccount",
      "outputs": [],
      "stateMutability": "nonpayable",
      "type": "function"
    },
    {
      "inputs": [
        {
          "internalType": "uint256[]",
          "name": "mergeCost",
          "type": "uint256[]"
        }
      ],
      "name": "setMergeCost",
      "outputs": [],
      "stateMutability": "nonpayable",
      "type": "function"
    },
    {
      "inputs": [
        {
          "internalType": "uint256",
          "name": "mintCost",
          "type": "uint256"
        }
      ],
      "name": "setMintCost",
      "outputs": [],
      "stateMutability": "nonpayable",
      "type": "function"
    }
  ],
  "bytecode": "0x608060405234801561001057600080fd5b506139f3806100206000396000f3fe6080604052600436106101f95760003560e01c80638ab16ab01161010d578063c1ea7728116100a0578063ddb00dfc1161006f578063ddb00dfc1461061d578063e985e9c51461063d578063f2fde38b14610686578063fcebff25146106a6578063fd051b4a146106ef57600080fd5b8063c1ea772814610569578063c60952a1146105bd578063c87b56dd146105dd578063d7050b05146105fd57600080fd5b8063a22cb465116100dc578063a22cb465146104e9578063a3740cc014610509578063b23d485414610529578063b88d4fde1461054957600080fd5b80638ab16ab0146104765780638da5cb5b1461049657806395d89b41146104b4578063a0bcfc7f146104c957600080fd5b80634eb3a1f4116101905780636ca67d2a1161015f5780636ca67d2a146103ee5780636ecd23061461040e57806370a0823114610421578063715018a6146104415780638545f4ea1461045657600080fd5b80634eb3a1f41461032e5780634f6ccce71461034e578063633e644c1461036e5780636352211e146103ce57600080fd5b806318160ddd116101cc57806318160ddd146102af57806323b872dd146102ce5780632f745c59146102ee57806342842e0e1461030e57600080fd5b806301ffc9a7146101fe57806306fdde0314610233578063081812fc14610255578063095ea7b31461028d575b600080fd5b34801561020a57600080fd5b5061021e610219366004612f50565b61070f565b60405190151581526020015b60405180910390f35b34801561023f57600080fd5b50610248610720565b60405161022a9190612fc5565b34801561026157600080fd5b50610275610270366004612fd8565b6107b2565b6040516001600160a01b03909116815260200161022a565b34801561029957600080fd5b506102ad6102a836600461300d565b61084c565b005b3480156102bb57600080fd5b506099545b60405190815260200161022a565b3480156102da57600080fd5b506102ad6102e9366004613037565b610962565b3480156102fa57600080fd5b506102c061030936600461300d565b610993565b34801561031a57600080fd5b506102ad610329366004613037565b610a29565b34801561033a57600080fd5b506102ad610349366004613073565b610a44565b34801561035a57600080fd5b506102c0610369366004612fd8565b610edd565b34801561037a57600080fd5b5061038e610389366004612fd8565b610f70565b60405161022a9190600060808201905060ff835116825260ff60208401511660208301526040830151604083015260608301511515606083015292915050565b3480156103da57600080fd5b506102756103e9366004612fd8565b610ffd565b3480156103fa57600080fd5b506102ad61040936600461309f565b611074565b6102ad61041c3660046130c9565b6110c1565b34801561042d57600080fd5b506102c061043c36600461309f565b611350565b34801561044d57600080fd5b506102ad6113d7565b34801561046257600080fd5b506102ad610471366004612fd8565b61140d565b34801561048257600080fd5b506102ad61049136600461309f565b61143d565b3480156104a257600080fd5b5060fb546001600160a01b0316610275565b3480156104c057600080fd5b5061024861148a565b3480156104d557600080fd5b506102ad6104e43660046131cb565b611499565b3480156104f557600080fd5b506102ad61050436600461320d565b6114db565b34801561051557600080fd5b506102c06105243660046130c9565b6114e6565b34801561053557600080fd5b506102ad61054436600461309f565b61152f565b34801561055557600080fd5b506102ad610564366004613244565b61157c565b34801561057557600080fd5b506102c06105843660046132bf565b6001600160a01b0392909216600090815261012d6020908152604080832060ff9485168452825280832093909416825291909152205490565b3480156105c957600080fd5b506102ad6105d8366004613308565b6115b4565b3480156105e957600080fd5b506102486105f8366004612fd8565b611631565b34801561060957600080fd5b506102ad61061836600461309f565b61170b565b34801561062957600080fd5b506102ad61063836600461309f565b611758565b34801561064957600080fd5b5061021e61065836600461337c565b6001600160a01b039182166000908152606a6020908152604080832093909416825291909152205460ff1690565b34801561069257600080fd5b506102ad6106a136600461309f565b6117a5565b3480156106b257600080fd5b506102c06106c13660046133af565b6001600160a01b038216600090815261012e6020908152604080832060ff8516845290915290205492915050565b3480156106fb57600080fd5b506102ad61070a3660046133db565b611840565b600061071a82611b11565b92915050565b60606065805461072f9061347b565b80601f016020809104026020016040519081016040528092919081815260200182805461075b9061347b565b80156107a85780601f1061077d576101008083540402835291602001916107a8565b820191906000526020600020905b81548152906001019060200180831161078b57829003601f168201915b5050505050905090565b6000818152606760205260408120546001600160a01b03166108305760405162461bcd60e51b815260206004820152602c60248201527f4552433732313a20617070726f76656420717565727920666f72206e6f6e657860448201526b34b9ba32b73a103a37b5b2b760a11b60648201526084015b60405180910390fd5b506000908152606960205260409020546001600160a01b031690565b600061085782610ffd565b9050806001600160a01b0316836001600160a01b031614156108c55760405162461bcd60e51b815260206004820152602160248201527f4552433732313a20617070726f76616c20746f2063757272656e74206f776e656044820152603960f91b6064820152608401610827565b336001600160a01b03821614806108e157506108e18133610658565b6109535760405162461bcd60e51b815260206004820152603860248201527f4552433732313a20617070726f76652063616c6c6572206973206e6f74206f7760448201527f6e6572206e6f7220617070726f76656420666f7220616c6c00000000000000006064820152608401610827565b61095d8383611b36565b505050565b61096c3382611ba4565b6109885760405162461bcd60e51b8152600401610827906134b6565b61095d838383611c9b565b600061099e83611350565b8210610a005760405162461bcd60e51b815260206004820152602b60248201527f455243373231456e756d657261626c653a206f776e657220696e646578206f7560448201526a74206f6620626f756e647360a81b6064820152608401610827565b506001600160a01b03919091166000908152609760209081526040808320938352929052205490565b61095d8383836040518060200160405280600081525061157c565b600260c9541415610a975760405162461bcd60e51b815260206004820152601f60248201527f5265656e7472616e637947756172643a207265656e7472616e742063616c6c006044820152606401610827565b600260c955610aa583610ffd565b6001600160a01b0316336001600160a01b0316148015610ade5750610ac982610ffd565b6001600160a01b0316336001600160a01b0316145b610b175760405162461bcd60e51b815260206004820152600a6024820152694f776e6572206f6e6c7960b01b6044820152606401610827565b61012f8381548110610b2b57610b2b613507565b600091825260209091206002600390920201015460ff168015610b75575061012f8281548110610b5d57610b5d613507565b600091825260209091206002600390920201015460ff165b610bb95760405162461bcd60e51b8152602060048201526015602482015274476e6f6d6520646f6573206e6f742065786973747360581b6044820152606401610827565b600061012f8481548110610bcf57610bcf613507565b600091825260209091206003909102015461012f805460ff90921692509084908110610bfd57610bfd613507565b600091825260209091206003909102015460ff828116911614610c545760405162461bcd60e51b815260206004820152600f60248201526e446966666572656e7420676e6f6d6560881b6044820152606401610827565b600061012f8581548110610c6a57610c6a613507565b906000526020600020906003020160000160019054906101000a900460ff16905061012f8481548110610c9f57610c9f613507565b600091825260209091206003909102015460ff8281166101009092041614610cfb5760405162461bcd60e51b815260206004820152600f60248201526e111a5999995c995b9d081b195d995b608a1b6044820152606401610827565b600a8160ff1610610d3a5760405162461bcd60e51b815260206004820152600960248201526813585e081b195d995b60ba1b6044820152606401610827565b6000610137610d4a600184613533565b60ff1681548110610d5d57610d5d613507565b9060005260206000200154905083610137600184610d7b9190613533565b60ff1681548110610d8e57610d8e613507565b906000526020600020015414610dd75760405162461bcd60e51b815260206004820152600e60248201526d1a5b9d985b1a5908185b5bdd5b9d60921b6044820152606401610827565b600061012f8781548110610ded57610ded613507565b6000918252602090912060039091020154610e1190610100900460ff166001613556565b610132549091506001600160a01b0316639dc29fac336040516001600160e01b031960e084901b1681526001600160a01b03909116600482015260248101859052604401600060405180830381600087803b158015610e6f57600080fd5b505af1158015610e83573d6000803e3d6000fd5b50505050610e9087611cb0565b610e9986611cb0565b610ecf84826101308760ff1681548110610eb557610eb5613507565b60009182526020909120015462010000900460ff16611cfb565b5050600160c9555050505050565b6000610ee860995490565b8210610f4b5760405162461bcd60e51b815260206004820152602c60248201527f455243373231456e756d657261626c653a20676c6f62616c20696e646578206f60448201526b7574206f6620626f756e647360a01b6064820152608401610827565b60998281548110610f5e57610f5e613507565b90600052602060002001549050919050565b60408051608081018252600080825260208201819052918101829052606081019190915261012f8281548110610fa857610fa8613507565b6000918252602091829020604080516080810182526003909302909101805460ff8082168552610100909104811694840194909452600181015491830191909152600201549091161515606082015292915050565b6000818152606760205260408120546001600160a01b03168061071a5760405162461bcd60e51b815260206004820152602960248201527f4552433732313a206f776e657220717565727920666f72206e6f6e657869737460448201526832b73a103a37b5b2b760b91b6064820152608401610827565b60fb546001600160a01b0316331461109e5760405162461bcd60e51b81526004016108279061357b565b61013180546001600160a01b0319166001600160a01b0392909216919091179055565b600260c95414156111145760405162461bcd60e51b815260206004820152601f60248201527f5265656e7472616e637947756172643a207265656e7472616e742063616c6c006044820152606401610827565b600260c95560ff81161580159061112e575060068160ff16105b6111725760405162461bcd60e51b81526020600482015260156024820152746c6576656c206973206e6f7420696e2072616e676560581b6044820152606401610827565b600061117d826114e6565b90508034146111c45760405162461bcd60e51b8152602060048201526013602482015272125b9cdd59999a58da595b9d08185b5bdd5b9d606a1b6044820152606401610827565b610139546001600160401b0316620f42408111156112105760405162461bcd60e51b81526020600482015260096024820152686d6178206d696e747360b81b6044820152606401610827565b610135546040516001600160a01b03909116903480156108fc02916000818181858888f1935050505015801561124a573d6000803e3d6000fd5b50611256600184613533565b611261906002613694565b611274906001600160401b0383166136a3565b610139805467ffffffffffffffff19166001600160401b0392909216919091179055610133546040805163dbdff2c160e01b815290516000926001600160a01b03169163dbdff2c1916004808301926020929190829003018187875af11580156112e2573d6000803e3d6000fd5b505050506040513d601f19601f8201168201806040525081019061130691906136bb565b6101305490915060009061131a90836136ea565b6113259060016136a3565b90506113448160016101308460ff1681548110610eb557610eb5613507565b5050600160c955505050565b60006001600160a01b0382166113bb5760405162461bcd60e51b815260206004820152602a60248201527f4552433732313a2062616c616e636520717565727920666f7220746865207a65604482015269726f206164647265737360b01b6064820152608401610827565b506001600160a01b031660009081526068602052604090205490565b60fb546001600160a01b031633146114015760405162461bcd60e51b81526004016108279061357b565b61140b6000611e63565b565b60fb546001600160a01b031633146114375760405162461bcd60e51b81526004016108279061357b565b61013855565b60fb546001600160a01b031633146114675760405162461bcd60e51b81526004016108279061357b565b61013480546001600160a01b0319166001600160a01b0392909216919091179055565b60606066805461072f9061347b565b60fb546001600160a01b031633146114c35760405162461bcd60e51b81526004016108279061357b565b80516114d790610136906020840190612e66565b5050565b6114d7338383611eb5565b600080610138546001846114fa9190613533565b611505906002613694565b61150f91906136fe565b905060018360ff16111561071a576115288160026136fe565b9392505050565b60fb546001600160a01b031633146115595760405162461bcd60e51b81526004016108279061357b565b61013280546001600160a01b0319166001600160a01b0392909216919091179055565b6115863383611ba4565b6115a25760405162461bcd60e51b8152600401610827906134b6565b6115ae84848484611f84565b50505050565b60fb546001600160a01b031633146115de5760405162461bcd60e51b81526004016108279061357b565b600981146116245760405162461bcd60e51b81526020600482015260136024820152726d65726765206e6565642039206c6576656c7360681b6044820152606401610827565b61095d6101378383612eea565b6000818152606760205260409020546060906001600160a01b03166116b05760405162461bcd60e51b815260206004820152602f60248201527f4552433732314d657461646174613a2055524920717565727920666f72206e6f60448201526e3732bc34b9ba32b73a103a37b5b2b760891b6064820152608401610827565b60006116ba611fb7565b905060008151116116da5760405180602001604052806000815250611528565b806116e484611fc7565b6040516020016116f592919061371d565b6040516020818303038152906040529392505050565b60fb546001600160a01b031633146117355760405162461bcd60e51b81526004016108279061357b565b61013380546001600160a01b0319166001600160a01b0392909216919091179055565b60fb546001600160a01b031633146117825760405162461bcd60e51b81526004016108279061357b565b61013580546001600160a01b0319166001600160a01b0392909216919091179055565b60fb546001600160a01b031633146117cf5760405162461bcd60e51b81526004016108279061357b565b6001600160a01b0381166118345760405162461bcd60e51b815260206004820152602660248201527f4f776e61626c653a206e6577206f776e657220697320746865207a65726f206160448201526564647265737360d01b6064820152608401610827565b61183d81611e63565b50565b600054610100900460ff1661185b5760005460ff161561185f565b303b155b6118c25760405162461bcd60e51b815260206004820152602e60248201527f496e697469616c697a61626c653a20636f6e747261637420697320616c72656160448201526d191e481a5b9a5d1a585b1a5e995960921b6064820152608401610827565b600054610100900460ff161580156118e4576000805461ffff19166101011790555b6119336040518060400160405280600b81526020016a4d594d4d20476e6f6d657360a81b8152506040518060400160405280600a8152602001694d594d4d474e4f4d455360b01b8152506120c4565b61193b6120f5565b61194361211c565b61194b61214b565b6119548761152f565b61195d8661170b565b61196688611074565b61196f8561143d565b61197884611758565b611989674563918244f4000061140d565b61199282611499565b61012f8054600101815560009081526101315460408051638d48258b60e01b815290516001600160a01b0390921691638d48258b9160048082019286929091908290030181865afa1580156119eb573d6000803e3d6000fd5b505050506040513d6000823e601f3d908101601f19168201604052611a13919081019061374c565b905060005b8151811015611aea57610130828281518110611a3657611a36613507565b6020908102919091018101518254600181018455600093845292829020815193018054928201516040830151606084015160809094015115156701000000000000000267ff000000000000001963ffffffff90951663010000000266ffffffff0000001960ff93841662010000021666ffffffffff0000199484166101000261ffff199098169390981692909217959095179190911694909417939093171617905580611ae28161386a565b915050611a18565b50611af4846117a5565b508015611b07576000805461ff00191690555b5050505050505050565b60006001600160e01b0319821663780e9d6360e01b148061071a575061071a8261217a565b600081815260696020526040902080546001600160a01b0319166001600160a01b0384169081179091558190611b6b82610ffd565b6001600160a01b03167f8c5be1e5ebec7d5bd14f71427d1e84f3dd0314c0f7b2291e5b200ac8c7c3b92560405160405180910390a45050565b6000818152606760205260408120546001600160a01b0316611c1d5760405162461bcd60e51b815260206004820152602c60248201527f4552433732313a206f70657261746f7220717565727920666f72206e6f6e657860448201526b34b9ba32b73a103a37b5b2b760a11b6064820152608401610827565b6000611c2883610ffd565b9050806001600160a01b0316846001600160a01b03161480611c635750836001600160a01b0316611c58846107b2565b6001600160a01b0316145b80611c9357506001600160a01b038082166000908152606a602090815260408083209388168352929052205460ff165b949350505050565b611ca583826121ca565b61095d83838361241e565b600061012f8281548110611cc657611cc6613507565b60009182526020909120600390910201600201805460ff1916911515919091179055611cf233826121ca565b61183d816125c5565b61012f54611d09338261266c565b6040805160808101825260ff86811682528581166020830190815292820184815260016060840181815261012f8054928301815560005284517f232da9e50dad2971456a78fb5cd6ff6b75019984d6e918139ce990999420f97960039093029283018054975191861661ffff1990981697909717610100919095160293909317909455517f232da9e50dad2971456a78fb5cd6ff6b75019984d6e918139ce990999420f97a840155517f232da9e50dad2971456a78fb5cd6ff6b75019984d6e918139ce990999420f97b909201805460ff191692151592909217909155611df1858585612686565b151560011415611e0857611e08338387878761270d565b610139546040805160ff8881168252871660208201526001600160401b039092168282015251839133917f12b8b702f2743a7595c25ee96e0946b4944cd1f0b921dac15ecf60f5a0416b199181900360600190a35050505050565b60fb80546001600160a01b038381166001600160a01b0319831681179093556040519116919082907f8be0079c531659141344cd1fd0a4f28419497f9722a3daafe3b4186f6b6457e090600090a35050565b816001600160a01b0316836001600160a01b03161415611f175760405162461bcd60e51b815260206004820152601960248201527f4552433732313a20617070726f766520746f2063616c6c6572000000000000006044820152606401610827565b6001600160a01b038381166000818152606a6020908152604080832094871680845294825291829020805460ff191686151590811790915591519182527f17307eab39ab6107e8899845ad3d59bd9653f200f220920489ca2b5937696c31910160405180910390a3505050565b611f8f848484611c9b565b611f9b848484846128a1565b6115ae5760405162461bcd60e51b815260040161082790613885565b6060610136805461072f9061347b565b606081611feb5750506040805180820190915260018152600360fc1b602082015290565b8160005b81156120155780611fff8161386a565b915061200e9050600a836138d7565b9150611fef565b6000816001600160401b0381111561202f5761202f6130e6565b6040519080825280601f01601f191660200182016040528015612059576020820181803683370190505b5090505b8415611c935761206e6001836138eb565b915061207b600a866136ea565b6120869060306136a3565b60f81b81838151811061209b5761209b613507565b60200101906001600160f81b031916908160001a9053506120bd600a866138d7565b945061205d565b600054610100900460ff166120eb5760405162461bcd60e51b815260040161082790613902565b6114d7828261299f565b600054610100900460ff1661140b5760405162461bcd60e51b815260040161082790613902565b600054610100900460ff166121435760405162461bcd60e51b815260040161082790613902565b61140b6129ed565b600054610100900460ff166121725760405162461bcd60e51b815260040161082790613902565b61140b612a1b565b60006001600160e01b031982166380ac58cd60e01b14806121ab57506001600160e01b03198216635b5e139f60e01b145b8061071a57506301ffc9a760e01b6001600160e01b031983161461071a565b61012f81815481106121de576121de613507565b600091825260209091206002600390920201015460ff166121fd575050565b600061012f828154811061221357612213613507565b60009182526020822060039091020154610130805460ff9092169350908390811061224057612240613507565b60009182526020808320909101546001600160a01b038716835261012d8252604080842060ff62010000909304831680865290845281852092871685529190925291205490915083146122935750505050565b6101345460405163182c9dd960e21b81526001600160a01b03868116600483015260ff84166024830152909116906360b2776490604401600060405180830381600087803b1580156122e457600080fd5b505af11580156122f8573d6000803e3d6000fd5b505050506001600160a01b038416600090815261012e6020908152604080832060ff8516845290915290205461012f805461235d9185918790811061233f5761233f613507565b6000918252602090912060039091020154610100900460ff16612a4b565b61236790826138eb565b6001600160a01b03868116600081815261012e6020908152604080832060ff8981168086529184528285209790975584845261012d83528184208185528352818420968a168452959091529081902088905561013454905163182c9dd960e21b8152600481019290925260248201939093529116906360b2776490604401600060405180830381600087803b1580156123ff57600080fd5b505af1158015612413573d6000803e3d6000fd5b505050505050505050565b826001600160a01b031661243182610ffd565b6001600160a01b0316146124955760405162461bcd60e51b815260206004820152602560248201527f4552433732313a207472616e736665722066726f6d20696e636f72726563742060448201526437bbb732b960d91b6064820152608401610827565b6001600160a01b0382166124f75760405162461bcd60e51b8152602060048201526024808201527f4552433732313a207472616e7366657220746f20746865207a65726f206164646044820152637265737360e01b6064820152608401610827565b612502838383612a92565b61250d600082611b36565b6001600160a01b03831660009081526068602052604081208054600192906125369084906138eb565b90915550506001600160a01b03821660009081526068602052604081208054600192906125649084906136a3565b909155505060008181526067602052604080822080546001600160a01b0319166001600160a01b0386811691821790925591518493918716917fddf252ad1be2c89b69c2b068fc378daa952ba7f163c4a11628f55a4df523b3ef91a4505050565b60006125d082610ffd565b90506125de81600084612a92565b6125e9600083611b36565b6001600160a01b03811660009081526068602052604081208054600192906126129084906138eb565b909155505060008281526067602052604080822080546001600160a01b0319169055518391906001600160a01b038416907fddf252ad1be2c89b69c2b068fc378daa952ba7f163c4a11628f55a4df523b3ef908390a45050565b6114d7828260405180602001604052806000815250612a9d565b33600090815261012d6020908152604080832060ff85811685529083528184209087168452909152812054806126c0576001915050611528565b61012f81815481106126d4576126d4613507565b600091825260209091206003909102015460ff61010090910481169085161115612702576001915050611528565b506000949350505050565b61012f848154811061272157612721613507565b600091825260209091206002600390920201015460ff1661277c5760405162461bcd60e51b8152602060048201526015602482015274746f6b656e20646f6573206e6f742065786973747360581b6044820152606401610827565b6001600160a01b038516600081815261012d6020908152604080832060ff808716808652918452828520908916855283528184208054908a905594845261012e83528184209084529091529020546127d48585612a4b565b6127de90826136a3565b9050600082118015612817575061012f82815481106127ff576127ff613507565b600091825260209091206002600390920201015460ff165b1561286c5761285f61012f838154811061283357612833613507565b600091825260209091206003909102015461012f805460ff909216918590811061233f5761233f613507565b61286990826138eb565b90505b6001600160a01b03909616600090815261012e6020908152604080832060ff9095168352939052919091209490945550505050565b60006001600160a01b0384163b1561299457604051630a85bd0160e11b81526001600160a01b0385169063150b7a02906128e590339089908890889060040161394d565b6020604051808303816000875af1925050508015612920575060408051601f3d908101601f1916820190925261291d9181019061398a565b60015b61297a573d80801561294e576040519150601f19603f3d011682016040523d82523d6000602084013e612953565b606091505b5080516129725760405162461bcd60e51b815260040161082790613885565b805181602001fd5b6001600160e01b031916630a85bd0160e11b149050611c93565b506001949350505050565b600054610100900460ff166129c65760405162461bcd60e51b815260040161082790613902565b81516129d9906065906020850190612e66565b50805161095d906066906020840190612e66565b600054610100900460ff16612a145760405162461bcd60e51b815260040161082790613902565b600160c955565b600054610100900460ff16612a425760405162461bcd60e51b815260040161082790613902565b61140b33611e63565b6000612a58826002613694565b6101308460ff1681548110612a6f57612a6f613507565b60009182526020909120015461152891906301000000900463ffffffff166136fe565b61095d838383612ad0565b612aa78383612b88565b612ab460008484846128a1565b61095d5760405162461bcd60e51b815260040161082790613885565b6001600160a01b038316612b2b57612b2681609980546000838152609a60205260408120829055600182018355919091527f72a152ddfb8e864297c917af52ea6c1c68aead0fee1a62673fcc7e0c94979d000155565b612b4e565b816001600160a01b0316836001600160a01b031614612b4e57612b4e8382612cd6565b6001600160a01b038216612b655761095d81612d73565b826001600160a01b0316826001600160a01b03161461095d5761095d8282612e22565b6001600160a01b038216612bde5760405162461bcd60e51b815260206004820181905260248201527f4552433732313a206d696e7420746f20746865207a65726f20616464726573736044820152606401610827565b6000818152606760205260409020546001600160a01b031615612c435760405162461bcd60e51b815260206004820152601c60248201527f4552433732313a20746f6b656e20616c7265616479206d696e746564000000006044820152606401610827565b612c4f60008383612a92565b6001600160a01b0382166000908152606860205260408120805460019290612c789084906136a3565b909155505060008181526067602052604080822080546001600160a01b0319166001600160a01b03861690811790915590518392907fddf252ad1be2c89b69c2b068fc378daa952ba7f163c4a11628f55a4df523b3ef908290a45050565b60006001612ce384611350565b612ced91906138eb565b600083815260986020526040902054909150808214612d40576001600160a01b03841660009081526097602090815260408083208584528252808320548484528184208190558352609890915290208190555b5060009182526098602090815260408084208490556001600160a01b039094168352609781528383209183525290812055565b609954600090612d85906001906138eb565b6000838152609a602052604081205460998054939450909284908110612dad57612dad613507565b906000526020600020015490508060998381548110612dce57612dce613507565b6000918252602080832090910192909255828152609a90915260408082208490558582528120556099805480612e0657612e066139a7565b6001900381819060005260206000200160009055905550505050565b6000612e2d83611350565b6001600160a01b039093166000908152609760209081526040808320868452825280832085905593825260989052919091209190915550565b828054612e729061347b565b90600052602060002090601f016020900481019282612e945760008555612eda565b82601f10612ead57805160ff1916838001178555612eda565b82800160010185558215612eda579182015b82811115612eda578251825591602001919060010190612ebf565b50612ee6929150612f25565b5090565b828054828255906000526020600020908101928215612eda579160200282015b82811115612eda578235825591602001919060010190612f0a565b5b80821115612ee65760008155600101612f26565b6001600160e01b03198116811461183d57600080fd5b600060208284031215612f6257600080fd5b813561152881612f3a565b60005b83811015612f88578181015183820152602001612f70565b838111156115ae5750506000910152565b60008151808452612fb1816020860160208601612f6d565b601f01601f19169290920160200192915050565b6020815260006115286020830184612f99565b600060208284031215612fea57600080fd5b5035919050565b80356001600160a01b038116811461300857600080fd5b919050565b6000806040838503121561302057600080fd5b61302983612ff1565b946020939093013593505050565b60008060006060848603121561304c57600080fd5b61305584612ff1565b925061306360208501612ff1565b9150604084013590509250925092565b60008060006060848603121561308857600080fd5b505081359360208301359350604090920135919050565b6000602082840312156130b157600080fd5b61152882612ff1565b60ff8116811461183d57600080fd5b6000602082840312156130db57600080fd5b8135611528816130ba565b634e487b7160e01b600052604160045260246000fd5b60405160a081016001600160401b038111828210171561311e5761311e6130e6565b60405290565b604051601f8201601f191681016001600160401b038111828210171561314c5761314c6130e6565b604052919050565b60006001600160401b0383111561316d5761316d6130e6565b613180601f8401601f1916602001613124565b905082815283838301111561319457600080fd5b828260208301376000602084830101529392505050565b600082601f8301126131bc57600080fd5b61152883833560208501613154565b6000602082840312156131dd57600080fd5b81356001600160401b038111156131f357600080fd5b611c93848285016131ab565b801515811461183d57600080fd5b6000806040838503121561322057600080fd5b61322983612ff1565b91506020830135613239816131ff565b809150509250929050565b6000806000806080858703121561325a57600080fd5b61326385612ff1565b935061327160208601612ff1565b92506040850135915060608501356001600160401b0381111561329357600080fd5b8501601f810187136132a457600080fd5b6132b387823560208401613154565b91505092959194509250565b6000806000606084860312156132d457600080fd5b6132dd84612ff1565b925060208401356132ed816130ba565b915060408401356132fd816130ba565b809150509250925092565b6000806020838503121561331b57600080fd5b82356001600160401b038082111561333257600080fd5b818501915085601f83011261334657600080fd5b81358181111561335557600080fd5b8660208260051b850101111561336a57600080fd5b60209290920196919550909350505050565b6000806040838503121561338f57600080fd5b61339883612ff1565b91506133a660208401612ff1565b90509250929050565b600080604083850312156133c257600080fd5b6133cb83612ff1565b91506020830135613239816130ba565b600080600080600080600060e0888a0312156133f657600080fd5b6133ff88612ff1565b965061340d60208901612ff1565b955061341b60408901612ff1565b945061342960608901612ff1565b935061343760808901612ff1565b925061344560a08901612ff1565b915060c08801356001600160401b0381111561346057600080fd5b61346c8a828b016131ab565b91505092959891949750929550565b600181811c9082168061348f57607f821691505b602082108114156134b057634e487b7160e01b600052602260045260246000fd5b50919050565b60208082526031908201527f4552433732313a207472616e736665722063616c6c6572206973206e6f74206f6040820152701ddb995c881b9bdc88185c1c1c9bdd9959607a1b606082015260800190565b634e487b7160e01b600052603260045260246000fd5b634e487b7160e01b600052601160045260246000fd5b600060ff821660ff84168082101561354d5761354d61351d565b90039392505050565b600060ff821660ff84168060ff038211156135735761357361351d565b019392505050565b6020808252818101527f4f776e61626c653a2063616c6c6572206973206e6f7420746865206f776e6572604082015260600190565b600181815b808511156135eb5781600019048211156135d1576135d161351d565b808516156135de57918102915b93841c93908002906135b5565b509250929050565b6000826136025750600161071a565b8161360f5750600061071a565b8160018114613625576002811461362f5761364b565b600191505061071a565b60ff8411156136405761364061351d565b50506001821b61071a565b5060208310610133831016604e8410600b841016171561366e575081810a61071a565b61367883836135b0565b806000190482111561368c5761368c61351d565b029392505050565b600061152860ff8416836135f3565b600082198211156136b6576136b661351d565b500190565b6000602082840312156136cd57600080fd5b5051919050565b634e487b7160e01b600052601260045260246000fd5b6000826136f9576136f96136d4565b500690565b60008160001904831182151516156137185761371861351d565b500290565b6000835161372f818460208801612f6d565b835190830190613743818360208801612f6d565b01949350505050565b6000602080838503121561375f57600080fd5b82516001600160401b038082111561377657600080fd5b818501915085601f83011261378a57600080fd5b81518181111561379c5761379c6130e6565b6137aa848260051b01613124565b818152848101925060a09182028401850191888311156137c957600080fd5b938501935b8285101561385e5780858a0312156137e65760008081fd5b6137ee6130fc565b85516137f9816130ba565b815285870151613808816130ba565b8188015260408681015161381b816130ba565b9082015260608681015163ffffffff811681146138385760008081fd5b9082015260808681015161384b816131ff565b90820152845293840193928501926137ce565b50979650505050505050565b600060001982141561387e5761387e61351d565b5060010190565b60208082526032908201527f4552433732313a207472616e7366657220746f206e6f6e20455243373231526560408201527131b2b4bb32b91034b6b83632b6b2b73a32b960711b606082015260800190565b6000826138e6576138e66136d4565b500490565b6000828210156138fd576138fd61351d565b500390565b6020808252602b908201527f496e697469616c697a61626c653a20636f6e7472616374206973206e6f74206960408201526a6e697469616c697a696e6760a81b606082015260800190565b6001600160a01b038581168252841660208201526040810183905260806060820181905260009061398090830184612f99565b9695505050505050565b60006020828403121561399c57600080fd5b815161152881612f3a565b634e487b7160e01b600052603160045260246000fdfea264697066735822122006df5ff015dec6dbe74e2b93c5035e43f81ad5dfe2a9bfa6be168ab81bb76bdf64736f6c634300080a0033",
  "immutableReferences": {},
  "source": "pragma solidity 0.8.10;\r\n\r\nimport \"@openzeppelin/contracts-upgradeable/proxy/utils/Initializable.sol\";\r\nimport \"@openzeppelin/contracts-upgradeable/token/ERC721/ERC721Upgradeable.sol\";\r\nimport \"@openzeppelin/contracts-upgradeable/token/ERC721/extensions/ERC721EnumerableUpgradeable.sol\";\r\nimport \"@openzeppelin/contracts-upgradeable/access/OwnableUpgradeable.sol\";\r\nimport \"@openzeppelin/contracts-upgradeable/security/ReentrancyGuardUpgradeable.sol\";\r\nimport \"./interfaces/IRandom.sol\";\r\nimport \"./interfaces/IGnomeStats.sol\";\r\nimport \"./interfaces/IPlayerGnome.sol\";\r\nimport \"./interfaces/IGnome.sol\";\r\nimport \"./interfaces/IGnomes.sol\";\r\nimport \"./interfaces/IToken.sol\";\r\nimport \"./interfaces/IMines.sol\";\r\n\r\n\r\ncontract Gnomes is Initializable, ERC721Upgradeable, ERC721EnumerableUpgradeable, ReentrancyGuardUpgradeable, OwnableUpgradeable, IGnome, IPlayerGnome {\r\n\r\n    /*\r\n         player => collection id => gnome id => token id\r\n     */\r\n    mapping(address => mapping(uint8 => mapping(uint8 => uint))) private _playerCollections;\r\n    /*\r\n        player => collection id => collection power\r\n    */\r\n    mapping(address => mapping(uint8 => uint)) private _playerCollectionsPower;\r\n\r\n    structPlayerGnome[] private _playersGnomes;\r\n    structGnome[] private  _gnomes;\r\n    IGnomeStats private _gnomeStatsContract;\r\n    IToken private  _tokenContract;\r\n    IRandom private _randomContract;\r\n    IMines private _minesContract;\r\n    address private _feesAccount;\r\n    string private _baseURIStr;\r\n    uint[] private _mergeCost;\r\n    uint private _mintCost;\r\n    uint64 private _totalBaseGnomesMints;\r\n\r\n    event Mint(address indexed account, uint  indexed tokenId, uint8 gnomeId, uint8 level, uint64 totalMints);\r\n\r\n\r\n    function initialize(address gnomeStatsContract, address tokenContract, address randomContract, address minesContract, address feesAccount, address owner, string memory baseUri) initializer public {\r\n        __ERC721_init(\"MYMM Gnomes\", \"MYMMGNOMES\");\r\n        __ERC721Enumerable_init();\r\n        __ReentrancyGuard_init();\r\n        __Ownable_init();\r\n        setTokenContractAddress(tokenContract);\r\n        setRandomContractAddress(randomContract);\r\n        setGnomeStatsContractAddress(gnomeStatsContract);\r\n        setMinesContractAddress(minesContract);\r\n        setFeesAccount(feesAccount);\r\n        setMintCost(5 * 1 ether);\r\n        setBaseUri(baseUri);\r\n        // start from 1\r\n        _playersGnomes.push();\r\n        structGnome[] memory gnomes = _gnomeStatsContract.getAllGnomes();\r\n        for (uint i; i < gnomes.length; i++) {\r\n            _gnomes.push(gnomes[i]);\r\n        }\r\n        transferOwnership(owner);\r\n\r\n    }\r\n\r\n    function getPlayerCollectionsPower(address player, uint8 collectionId) external view returns (uint){\r\n        return _playerCollectionsPower[player][collectionId];\r\n    }\r\n\r\n    function getTokenIdByCollectionGnome(address account, uint8 collectionId, uint8 gnomeId) external view returns (uint){\r\n        return _playerCollections[account][collectionId][gnomeId];\r\n\r\n    }\r\n\r\n    function getGnomeByTokenId(uint tokenId) external view returns (structPlayerGnome memory){\r\n        return _playersGnomes[tokenId];\r\n    }\r\n\r\n    function mint(uint8 level) payable public nonReentrant {\r\n        require(level > 0 && level < 6, \"level is not in range\");\r\n        uint mintPrice = getGnomeMintPrice(level);\r\n        require(msg.value == mintPrice, \"Insufficient amount\");\r\n        uint64 totalMints = _totalBaseGnomesMints;\r\n        require(totalMints <= 10 ** 6, 'max mints');\r\n        payable(_feesAccount).transfer(msg.value);\r\n\r\n        _totalBaseGnomesMints = uint64(totalMints + (2 ** (level - 1)));\r\n        uint randomNumber = _randomContract.getRandomNumber();\r\n        uint8 gnomeId = uint8((randomNumber % _gnomes.length) + 1);\r\n        _createGnome(\r\n            gnomeId,\r\n            1,\r\n            _gnomes[gnomeId].collectionId\r\n        );\r\n\r\n    }\r\n\r\n    function mergeGnomes(uint tokenId1, uint tokenId2, uint amount) external nonReentrant {\r\n\r\n        require(_msgSender() == ownerOf(tokenId1) && _msgSender() == ownerOf(tokenId2), \"Owner only\");\r\n        require(_playersGnomes[tokenId1].exists && _playersGnomes[tokenId2].exists, \"Gnome does not exists\");\r\n        uint8 gnomeId = _playersGnomes[tokenId1].gnomeId;\r\n        require(gnomeId == _playersGnomes[tokenId2].gnomeId, \"Different gnome\");\r\n        uint8 level = _playersGnomes[tokenId1].level;\r\n        require(level == _playersGnomes[tokenId2].level, \"Different level\");\r\n        require(level < 10, \"Max level\");\r\n        uint cost = _mergeCost[level - 1];\r\n        require(_mergeCost[level - 1] == amount, \"invalid amount\");\r\n        uint8 newLevel = _playersGnomes[tokenId1].level + 1;\r\n        _tokenContract.burn(_msgSender(), cost);\r\n\r\n        _burn(tokenId1);\r\n        _burn(tokenId2);\r\n\r\n        _createGnome(\r\n            gnomeId,\r\n            newLevel,\r\n            _gnomes[gnomeId].collectionId\r\n        );\r\n\r\n    }\r\n\r\n    function _createGnome(uint8 gnomeId, uint8 level, uint8 collectionId) private {\r\n        uint newTokenId = _playersGnomes.length;\r\n        _safeMint(_msgSender(), newTokenId);\r\n        structPlayerGnome memory playerGnome = structPlayerGnome({\r\n        gnomeId : gnomeId,\r\n        tokenId : newTokenId,\r\n        level : level,\r\n        exists : true\r\n        });\r\n        _playersGnomes.push(playerGnome);\r\n        if (_isGnomeIsHigherLevelThenCurrentCollectionGnome(gnomeId, level, collectionId) == true) {\r\n            _addGnomeToCollection(_msgSender(), newTokenId, gnomeId, level, collectionId);\r\n        }\r\n        emit Mint(_msgSender(), newTokenId, gnomeId, level, _totalBaseGnomesMints);\r\n\r\n    }\r\n\r\n    function _burn(uint256 tokenId) internal override {\r\n        _playersGnomes[tokenId].exists = false;\r\n        _removeGnomeFromCollection(_msgSender(), tokenId);\r\n        super._burn(tokenId);\r\n    }\r\n\r\n\r\n    function _addGnomeToCollection(address account, uint tokenId, uint8 gnomeId, uint8 level, uint8 collectionId) private {\r\n        require(_playersGnomes[tokenId].exists, \"token does not exists\");\r\n        uint oldTokenId = _playerCollections[account][collectionId][gnomeId];\r\n        _playerCollections[account][collectionId][gnomeId] = tokenId;\r\n        uint newPower = _playerCollectionsPower[account][collectionId];\r\n        newPower = newPower + _calcPower(gnomeId, level);\r\n        if (oldTokenId > 0 && _playersGnomes[oldTokenId].exists) {\r\n            newPower = newPower - _calcPower(_playersGnomes[oldTokenId].gnomeId, _playersGnomes[oldTokenId].level);\r\n        }\r\n        _playerCollectionsPower[account][collectionId] = newPower;\r\n    }\r\n\r\n    function _removeGnomeFromCollection(address account, uint tokenId) private {\r\n        if (_playersGnomes[tokenId].exists == false) {\r\n            return;\r\n        }\r\n        uint8 gnomeId = _playersGnomes[tokenId].gnomeId;\r\n        uint8 collectionId = _gnomes[gnomeId].collectionId;\r\n\r\n        if (_playerCollections[account][collectionId][gnomeId] != tokenId) {\r\n            return;\r\n        }\r\n        _minesContract.claimByAccount(account, collectionId);\r\n        uint collectionPower = _playerCollectionsPower[account][collectionId];\r\n\r\n        _playerCollectionsPower[account][collectionId] = collectionPower - _calcPower(gnomeId, _playersGnomes[tokenId].level);\r\n        _playerCollections[account][collectionId][gnomeId] = tokenId;\r\n        _minesContract.claimByAccount(account, collectionId);\r\n\r\n    }\r\n\r\n    function _calcPower(uint8 gnomeId, uint8 level) private view returns (uint) {\r\n        return _gnomes[gnomeId].basePower * (2 ** level);\r\n    }\r\n\r\n    function _isGnomeIsHigherLevelThenCurrentCollectionGnome(uint8 gnomeId, uint8 level, uint8 collectionId) private view returns (bool) {\r\n        uint currentTokenId = _playerCollections[_msgSender()][collectionId][gnomeId];\r\n        if (currentTokenId == 0) {\r\n            return true;\r\n        }\r\n        if (level > _playersGnomes[currentTokenId].level) {\r\n            return true;\r\n        }\r\n        return false;\r\n    }\r\n\r\n    function getGnomeMintPrice(uint8 level) public view returns (uint){\r\n        uint price = (2 ** (level - 1)) * _mintCost;\r\n        if (level > 1) {\r\n            price = price * 2;\r\n        }\r\n        return price;\r\n    }\r\n\r\n    function _transfer(address from, address to, uint256 tokenId) internal override {\r\n        _removeGnomeFromCollection(from, tokenId);\r\n        super._transfer(from, to, tokenId);\r\n    }\r\n\r\n    function _beforeTokenTransfer(address from, address to, uint256 tokenId) internal override(ERC721Upgradeable, ERC721EnumerableUpgradeable) {\r\n        super._beforeTokenTransfer(from, to, tokenId);\r\n    }\r\n\r\n    function supportsInterface(bytes4 interfaceId) public view override(ERC721Upgradeable, ERC721EnumerableUpgradeable) returns (bool) {\r\n        return super.supportsInterface(interfaceId);\r\n    }\r\n\r\n    function _baseURI() internal view override returns (string memory) {\r\n        return _baseURIStr;\r\n    }\r\n\r\n    //********************************* management functions *************************************//\r\n\r\n    function setBaseUri(string memory uri) public onlyOwner {\r\n        _baseURIStr = uri;\r\n    }\r\n\r\n    function setGnomeStatsContractAddress(address gnomeStatsContract) public onlyOwner {\r\n        _gnomeStatsContract = IGnomeStats(gnomeStatsContract);\r\n    }\r\n\r\n    function setTokenContractAddress(address tokenContract) public onlyOwner {\r\n        _tokenContract = IToken(tokenContract);\r\n    }\r\n\r\n    function setRandomContractAddress(address randomContract) public onlyOwner {\r\n        _randomContract = IRandom(randomContract);\r\n    }\r\n\r\n    function setMinesContractAddress(address minesContract) public onlyOwner {\r\n        _minesContract = IMines(minesContract);\r\n    }\r\n\r\n    function setFeesAccount(address feesAccount) public onlyOwner {\r\n        _feesAccount = feesAccount;\r\n    }\r\n\r\n    function setMergeCost(uint[] calldata mergeCost) public onlyOwner {\r\n        require(mergeCost.length == 9, 'merge need 9 levels');\r\n        _mergeCost = mergeCost;\r\n    }\r\n\r\n    function setMintCost(uint mintCost) public onlyOwner {\r\n        _mintCost = mintCost;\r\n    }\r\n}\r\n",
  "sourcePath": "C:\\Users\\amit\\PhpstormProjects\\myminiminers-contracts-upgradable\\contracts\\Gnomes.sol",
  "compiler": {
    "name": "solc",
    "version": "0.8.10+commit.fc410830.Emscripten.clang"
  },
  "schemaVersion": "3.4.3",
  "updatedAt": "2022-03-29T11:31:23.270Z",
  "networkType": "ethereum",
  "devdoc": {
    "kind": "dev",
    "methods": {
      "approve(address,uint256)": {
        "details": "See {IERC721-approve}."
      },
      "balanceOf(address)": {
        "details": "See {IERC721-balanceOf}."
      },
      "getApproved(uint256)": {
        "details": "See {IERC721-getApproved}."
      },
      "isApprovedForAll(address,address)": {
        "details": "See {IERC721-isApprovedForAll}."
      },
      "name()": {
        "details": "See {IERC721Metadata-name}."
      },
      "owner()": {
        "details": "Returns the address of the current owner."
      },
      "ownerOf(uint256)": {
        "details": "See {IERC721-ownerOf}."
      },
      "renounceOwnership()": {
        "details": "Leaves the contract without owner. It will not be possible to call `onlyOwner` functions anymore. Can only be called by the current owner. NOTE: Renouncing ownership will leave the contract without an owner, thereby removing any functionality that is only available to the owner."
      },
      "safeTransferFrom(address,address,uint256)": {
        "details": "See {IERC721-safeTransferFrom}."
      },
      "safeTransferFrom(address,address,uint256,bytes)": {
        "details": "See {IERC721-safeTransferFrom}."
      },
      "setApprovalForAll(address,bool)": {
        "details": "See {IERC721-setApprovalForAll}."
      },
      "symbol()": {
        "details": "See {IERC721Metadata-symbol}."
      },
      "tokenByIndex(uint256)": {
        "details": "See {IERC721Enumerable-tokenByIndex}."
      },
      "tokenOfOwnerByIndex(address,uint256)": {
        "details": "See {IERC721Enumerable-tokenOfOwnerByIndex}."
      },
      "tokenURI(uint256)": {
        "details": "See {IERC721Metadata-tokenURI}."
      },
      "totalSupply()": {
        "details": "See {IERC721Enumerable-totalSupply}."
      },
      "transferFrom(address,address,uint256)": {
        "details": "See {IERC721-transferFrom}."
      },
      "transferOwnership(address)": {
        "details": "Transfers ownership of the contract to a new account (`newOwner`). Can only be called by the current owner."
      }
    },
    "version": 1
  },
  "userdoc": {
    "kind": "user",
    "methods": {},
    "version": 1
  }
}