{
  "contractName": "Mines",
  "abi": [
    {
      "anonymous": false,
      "inputs": [
        {
          "indexed": true,
          "internalType": "address",
          "name": "account",
          "type": "address"
        },
        {
          "indexed": false,
          "internalType": "uint8",
          "name": "collectionId",
          "type": "uint8"
        },
        {
          "indexed": false,
          "internalType": "uint32",
          "name": "mineId",
          "type": "uint32"
        }
      ],
      "name": "Claim",
      "type": "event"
    },
    {
      "anonymous": false,
      "inputs": [
        {
          "indexed": true,
          "internalType": "address",
          "name": "account",
          "type": "address"
        },
        {
          "indexed": false,
          "internalType": "uint8",
          "name": "collectionId",
          "type": "uint8"
        },
        {
          "indexed": false,
          "internalType": "uint32",
          "name": "mineId",
          "type": "uint32"
        },
        {
          "indexed": false,
          "internalType": "uint256",
          "name": "timstamp",
          "type": "uint256"
        }
      ],
      "name": "Mine",
      "type": "event"
    },
    {
      "anonymous": false,
      "inputs": [
        {
          "indexed": false,
          "internalType": "uint256",
          "name": "mineId",
          "type": "uint256"
        }
      ],
      "name": "MineCreated",
      "type": "event"
    },
    {
      "anonymous": false,
      "inputs": [
        {
          "indexed": true,
          "internalType": "bytes32",
          "name": "role",
          "type": "bytes32"
        },
        {
          "indexed": true,
          "internalType": "bytes32",
          "name": "previousAdminRole",
          "type": "bytes32"
        },
        {
          "indexed": true,
          "internalType": "bytes32",
          "name": "newAdminRole",
          "type": "bytes32"
        }
      ],
      "name": "RoleAdminChanged",
      "type": "event"
    },
    {
      "anonymous": false,
      "inputs": [
        {
          "indexed": true,
          "internalType": "bytes32",
          "name": "role",
          "type": "bytes32"
        },
        {
          "indexed": true,
          "internalType": "address",
          "name": "account",
          "type": "address"
        },
        {
          "indexed": true,
          "internalType": "address",
          "name": "sender",
          "type": "address"
        }
      ],
      "name": "RoleGranted",
      "type": "event"
    },
    {
      "anonymous": false,
      "inputs": [
        {
          "indexed": true,
          "internalType": "bytes32",
          "name": "role",
          "type": "bytes32"
        },
        {
          "indexed": true,
          "internalType": "address",
          "name": "account",
          "type": "address"
        },
        {
          "indexed": true,
          "internalType": "address",
          "name": "sender",
          "type": "address"
        }
      ],
      "name": "RoleRevoked",
      "type": "event"
    },
    {
      "inputs": [],
      "name": "CONTRACT_ROLE",
      "outputs": [
        {
          "internalType": "bytes32",
          "name": "",
          "type": "bytes32"
        }
      ],
      "stateMutability": "view",
      "type": "function",
      "constant": true
    },
    {
      "inputs": [],
      "name": "DEFAULT_ADMIN_ROLE",
      "outputs": [
        {
          "internalType": "bytes32",
          "name": "",
          "type": "bytes32"
        }
      ],
      "stateMutability": "view",
      "type": "function",
      "constant": true
    },
    {
      "inputs": [
        {
          "internalType": "bytes32",
          "name": "role",
          "type": "bytes32"
        }
      ],
      "name": "getRoleAdmin",
      "outputs": [
        {
          "internalType": "bytes32",
          "name": "",
          "type": "bytes32"
        }
      ],
      "stateMutability": "view",
      "type": "function",
      "constant": true
    },
    {
      "inputs": [
        {
          "internalType": "bytes32",
          "name": "role",
          "type": "bytes32"
        },
        {
          "internalType": "address",
          "name": "account",
          "type": "address"
        }
      ],
      "name": "grantRole",
      "outputs": [],
      "stateMutability": "nonpayable",
      "type": "function"
    },
    {
      "inputs": [
        {
          "internalType": "bytes32",
          "name": "role",
          "type": "bytes32"
        },
        {
          "internalType": "address",
          "name": "account",
          "type": "address"
        }
      ],
      "name": "hasRole",
      "outputs": [
        {
          "internalType": "bool",
          "name": "",
          "type": "bool"
        }
      ],
      "stateMutability": "view",
      "type": "function",
      "constant": true
    },
    {
      "inputs": [
        {
          "internalType": "bytes32",
          "name": "role",
          "type": "bytes32"
        },
        {
          "internalType": "address",
          "name": "account",
          "type": "address"
        }
      ],
      "name": "renounceRole",
      "outputs": [],
      "stateMutability": "nonpayable",
      "type": "function"
    },
    {
      "inputs": [
        {
          "internalType": "bytes32",
          "name": "role",
          "type": "bytes32"
        },
        {
          "internalType": "address",
          "name": "account",
          "type": "address"
        }
      ],
      "name": "revokeRole",
      "outputs": [],
      "stateMutability": "nonpayable",
      "type": "function"
    },
    {
      "inputs": [
        {
          "internalType": "bytes4",
          "name": "interfaceId",
          "type": "bytes4"
        }
      ],
      "name": "supportsInterface",
      "outputs": [
        {
          "internalType": "bool",
          "name": "",
          "type": "bool"
        }
      ],
      "stateMutability": "view",
      "type": "function",
      "constant": true
    },
    {
      "inputs": [
        {
          "internalType": "address",
          "name": "tokenContract",
          "type": "address"
        },
        {
          "internalType": "address",
          "name": "randomContract",
          "type": "address"
        },
        {
          "internalType": "address",
          "name": "characterContract",
          "type": "address"
        },
        {
          "internalType": "address",
          "name": "admin",
          "type": "address"
        }
      ],
      "name": "initialize",
      "outputs": [],
      "stateMutability": "nonpayable",
      "type": "function"
    },
    {
      "inputs": [
        {
          "internalType": "uint8",
          "name": "collectionId",
          "type": "uint8"
        },
        {
          "internalType": "uint32",
          "name": "mineId",
          "type": "uint32"
        }
      ],
      "name": "mine",
      "outputs": [],
      "stateMutability": "nonpayable",
      "type": "function"
    },
    {
      "inputs": [
        {
          "internalType": "uint8",
          "name": "collectionId",
          "type": "uint8"
        }
      ],
      "name": "heal",
      "outputs": [],
      "stateMutability": "nonpayable",
      "type": "function"
    },
    {
      "inputs": [
        {
          "internalType": "address",
          "name": "account",
          "type": "address"
        },
        {
          "internalType": "uint8",
          "name": "collectionId",
          "type": "uint8"
        }
      ],
      "name": "getHealingCost",
      "outputs": [
        {
          "internalType": "uint256",
          "name": "",
          "type": "uint256"
        }
      ],
      "stateMutability": "view",
      "type": "function",
      "constant": true
    },
    {
      "inputs": [
        {
          "internalType": "uint32",
          "name": "mineId",
          "type": "uint32"
        }
      ],
      "name": "claim",
      "outputs": [],
      "stateMutability": "nonpayable",
      "type": "function"
    },
    {
      "inputs": [
        {
          "internalType": "address",
          "name": "account",
          "type": "address"
        },
        {
          "internalType": "uint8",
          "name": "collectionId",
          "type": "uint8"
        }
      ],
      "name": "claimByAccount",
      "outputs": [],
      "stateMutability": "nonpayable",
      "type": "function"
    },
    {
      "inputs": [
        {
          "internalType": "uint256",
          "name": "mineId",
          "type": "uint256"
        }
      ],
      "name": "getMine",
      "outputs": [
        {
          "components": [
            {
              "internalType": "uint32",
              "name": "powerMulti",
              "type": "uint32"
            },
            {
              "components": [
                {
                  "internalType": "uint8",
                  "name": "collectionId",
                  "type": "uint8"
                },
                {
                  "internalType": "uint256",
                  "name": "startTime",
                  "type": "uint256"
                },
                {
                  "internalType": "address",
                  "name": "account",
                  "type": "address"
                }
              ],
              "internalType": "struct IMine.structMiner",
              "name": "miner",
              "type": "tuple"
            },
            {
              "internalType": "uint256",
              "name": "minPower",
              "type": "uint256"
            },
            {
              "internalType": "uint256",
              "name": "maxPower",
              "type": "uint256"
            },
            {
              "internalType": "uint256",
              "name": "productionRate",
              "type": "uint256"
            },
            {
              "internalType": "bool",
              "name": "exists",
              "type": "bool"
            }
          ],
          "internalType": "struct IMine.structMine",
          "name": "",
          "type": "tuple"
        }
      ],
      "stateMutability": "view",
      "type": "function",
      "constant": true
    },
    {
      "inputs": [
        {
          "internalType": "address",
          "name": "gnomesContract",
          "type": "address"
        }
      ],
      "name": "setGnomesContractAddress",
      "outputs": [],
      "stateMutability": "nonpayable",
      "type": "function"
    },
    {
      "inputs": [
        {
          "internalType": "address",
          "name": "tokenContract",
          "type": "address"
        }
      ],
      "name": "setTokenContractAddress",
      "outputs": [],
      "stateMutability": "nonpayable",
      "type": "function"
    },
    {
      "inputs": [
        {
          "internalType": "address",
          "name": "randomContract",
          "type": "address"
        }
      ],
      "name": "setRandomContractAddress",
      "outputs": [],
      "stateMutability": "nonpayable",
      "type": "function"
    },
    {
      "inputs": [
        {
          "internalType": "address",
          "name": "characterContract",
          "type": "address"
        }
      ],
      "name": "setCharacterContractAddress",
      "outputs": [],
      "stateMutability": "nonpayable",
      "type": "function"
    },
    {
      "inputs": [
        {
          "components": [
            {
              "internalType": "uint32",
              "name": "powerMulti",
              "type": "uint32"
            },
            {
              "components": [
                {
                  "internalType": "uint8",
                  "name": "collectionId",
                  "type": "uint8"
                },
                {
                  "internalType": "uint256",
                  "name": "startTime",
                  "type": "uint256"
                },
                {
                  "internalType": "address",
                  "name": "account",
                  "type": "address"
                }
              ],
              "internalType": "struct IMine.structMiner",
              "name": "miner",
              "type": "tuple"
            },
            {
              "internalType": "uint256",
              "name": "minPower",
              "type": "uint256"
            },
            {
              "internalType": "uint256",
              "name": "maxPower",
              "type": "uint256"
            },
            {
              "internalType": "uint256",
              "name": "productionRate",
              "type": "uint256"
            },
            {
              "internalType": "bool",
              "name": "exists",
              "type": "bool"
            }
          ],
          "internalType": "struct IMine.structMine[]",
          "name": "mines",
          "type": "tuple[]"
        }
      ],
      "name": "buildMines",
      "outputs": [],
      "stateMutability": "nonpayable",
      "type": "function"
    },
    {
      "inputs": [
        {
          "internalType": "uint32",
          "name": "fee",
          "type": "uint32"
        }
      ],
      "name": "setGameFee",
      "outputs": [],
      "stateMutability": "nonpayable",
      "type": "function"
    }
  ],
  "bytecode": "0x608060405234801561001057600080fd5b506122eb806100206000396000f3fe608060405234801561001057600080fd5b50600436106101375760003560e01c806383499df6116100b8578063c3e43fc21161007c578063c3e43fc214610297578063d547741f146102b7578063d7050b05146102ca578063f2dbad3b146102dd578063f41c9a38146102f0578063f8c8765e1461030357600080fd5b806383499df61461024357806388c459f71461025657806391d1485414610269578063a217fddf1461027c578063b23d48541461028457600080fd5b80632f2ff15d116100ff5780632f2ff15d146101e457806336568abe146101f7578063479bc0121461020a57806360b277641461021d578063683f67331461023057600080fd5b806301ffc9a71461013c57806303fe46ab14610164578063049518911461019957806323103bb4146101ae578063248a9ca3146101c1575b600080fd5b61014f61014a366004611c4e565b610316565b60405190151581526020015b60405180910390f35b61018b7f364d3d7565c7a8300c96fd53e065d19b65848d7b23b3191adcd55621c744223c81565b60405190815260200161015b565b6101ac6101a7366004611c91565b61034d565b005b6101ac6101bc366004611c91565b610390565b61018b6101cf366004611cac565b60009081526097602052604090206001015490565b6101ac6101f2366004611cdc565b6103f2565b6101ac610205366004611cdc565b61041d565b6101ac610218366004611d19565b61049b565b6101ac61022b366004611d43565b610c71565b6101ac61023e366004611d6d565b610d12565b6101ac610251366004611d88565b610eed565b61018b610264366004611d43565b610f1c565b61014f610277366004611cdc565b610fd7565b61018b600081565b6101ac610292366004611d88565b611002565b6102aa6102a5366004611cac565b611031565b60405161015b9190611da3565b6101ac6102c5366004611cdc565b61112d565b6101ac6102d8366004611d88565b611153565b6101ac6102eb366004611d88565b611182565b6101ac6102fe366004611ebd565b6111b1565b6101ac610311366004612008565b61133b565b60006001600160e01b03198216637965db0b60e01b148061034757506301ffc9a760e01b6001600160e01b03198316145b92915050565b600260335414156103795760405162461bcd60e51b81526004016103709061205c565b60405180910390fd5b60026033556103883382611444565b506001603355565b600260335414156103b35760405162461bcd60e51b81526004016103709061205c565b600260335560006103c48133611578565b5060ce805463ffffffff9092166401000000000267ffffffff00000000199092169190911790556001603355565b60008281526097602052604090206001015461040e8133611578565b61041883836115dc565b505050565b6001600160a01b038116331461048d5760405162461bcd60e51b815260206004820152602f60248201527f416363657373436f6e74726f6c3a2063616e206f6e6c792072656e6f756e636560448201526e103937b632b9903337b91039b2b63360891b6064820152608401610370565b6104978282611662565b5050565b600260335414156104be5760405162461bcd60e51b81526004016103709061205c565b600260335560cd805463ffffffff83169081106104dd576104dd612093565b600091825260209091206007600890920201015460ff166105375760405162461bcd60e51b81526020600482015260146024820152736d696e6520646f6573206e6f742065786973747360601b6044820152606401610370565b33600090815260d06020908152604080832060ff86168452909152902060010154610e1011156105a15760405162461bcd60e51b81526020600482015260156024820152741d1a194819db9bdb595cc81a5cc81a5b9a9d5c9959605a1b6044820152606401610370565b33600090815260cf6020908152604080832060ff8616845290915290205463ffffffff161561060a5760405162461bcd60e51b815260206004820152601560248201527474686520676e6f6d657320617265206d696e696e6760581b6044820152606401610370565b600060cd8263ffffffff168154811061062557610625612093565b6000918252602082206005600890920201015460ca549092506001600160a01b031663fcebff256106533390565b6040516001600160e01b031960e084901b1681526001600160a01b03909116600482015260ff871660248201526044016020604051808303816000875af11580156106a2573d6000803e3d6000fd5b505050506040513d601f19601f820116820180604052508101906106c691906120a9565b905060cd8363ffffffff16815481106106e1576106e1612093565b906000526020600020906008020160040154811161072b5760405162461bcd60e51b8152602060048201526007602482015266746f207765616b60c81b6044820152606401610370565b818111156107365750805b60006001600160a01b031660cd8463ffffffff168154811061075a5761075a612093565b60009182526020909120600360089092020101546001600160a01b0316141561079a576107883385856116c9565b610793338585611793565b5050610c68565b600060cd8463ffffffff16815481106107b5576107b5612093565b6000918252602080832060408051606081018252600894909402909101600181015460ff16808552600282015493850193909352600301546001600160a01b0390811684830181905260ca54925163fcebff2560e01b8152600481019190915260248101939093529294509091169063fcebff25906044016020604051808303816000875af115801561084c573d6000803e3d6000fd5b505050506040513d601f19601f8201168201806040525081019061087091906120a9565b90508381111561087d5750825b828111156108db578060cd8663ffffffff168154811061089f5761089f612093565b600091825260209091206008909102015463ffffffff166108c085846120d8565b6108ca91906120ef565b6108d4919061210e565b9050610935565b82811015610935578260cd8663ffffffff16815481106108fd576108fd612093565b600091825260209091206008909102015463ffffffff1661091e83866120d8565b61092891906120ef565b610932919061210e565b92505b60cb546040805163dbdff2c160e01b815290516000926001600160a01b03169163dbdff2c1916004808301926020929190829003018187875af1158015610980573d6000803e3d6000fd5b505050506040513d601f19601f820116820180604052508101906109a491906120a9565b9050600060cb60009054906101000a90046001600160a01b03166001600160a01b031663dbdff2c16040518163ffffffff1660e01b81526004016020604051808303816000875af11580156109fd573d6000803e3d6000fd5b505050506040513d601f19601f82011682018060405250810190610a2191906120a9565b60cc54604086810151905163181b7e6f60e11b81526001600160a01b03918216600482015292935060009286929190911690633036fcde906024016020604051808303816000875af1158015610a7b573d6000803e3d6000fd5b505050506040513d601f19601f82011682018060405250810190610a9f91906120a9565b610aa9919061210e565b60cc5490915060009087906001600160a01b0316633036fcde336040516001600160e01b031960e084901b1681526001600160a01b0390911660048201526024016020604051808303816000875af1158015610b09573d6000803e3d6000fd5b505050506040513d601f19601f82011682018060405250810190610b2d91906120a9565b610b37919061210e565b9050610b43828561213c565b610b4d828561213c565b1115610c5f5760408051808201825283815242602080830191825289840180516001600160a01b03908116600090815260d084528681208d5160ff9081168352908552878220965187559451600190960195909555905116835260cf81528383208a5190921683525220805463ffffffff19169055610bcd338b8b611793565b610c0a8660400151876020015160cd8c63ffffffff1681548110610bf357610bf3612093565b9060005260206000209060080201600601546118e7565b6040808701518751825160ff909116815263ffffffff8c1660208201526001600160a01b03909116917fd765f74dcd70624d9a3269e1ca3e9395959ac1b98fa580f1e05ffbd8be560c54910160405180910390a25b50505050505050505b50506001603355565b60026033541415610c945760405162461bcd60e51b81526004016103709061205c565b60026033557f364d3d7565c7a8300c96fd53e065d19b65848d7b23b3191adcd55621c744223c610cc48133611578565b6001600160a01b038316600090815260cf6020908152604080832060ff8616845290915290205463ffffffff1680610cfc5750610d08565b610d068482611444565b505b5050600160335550565b6000610d1e3383610f1c565b905060008111610d635760405162461bcd60e51b815260206004820152601060248201526f1b9bc81b99595908199bdc881a19585b60821b6044820152606401610370565b60c9546001600160a01b03166370a08231336040516001600160e01b031960e084901b1681526001600160a01b039091166004820152602401602060405180830381865afa158015610db9573d6000803e3d6000fd5b505050506040513d601f19601f82011682018060405250810190610ddd91906120a9565b811115610e205760405162461bcd60e51b81526020600482015260116024820152706e6f7420656e6f75676820746f6b656e7360781b6044820152606401610370565b60c9546001600160a01b0316639dc29fac336040516001600160e01b031960e084901b1681526001600160a01b03909116600482015260248101849052604401600060405180830381600087803b158015610e7a57600080fd5b505af1158015610e8e573d6000803e3d6000fd5b50505050600060d06000610e9f3390565b6001600160a01b031681526020808201929092526040908101600090812060ff969096168082529583528181206001019390935533835260d082528083209483529390529182209190915550565b6000610ef98133611578565b5060cc80546001600160a01b0319166001600160a01b0392909216919091179055565b6001600160a01b038216600090815260d06020908152604080832060ff85168452909152812060010154610e10610f5382426120d8565b10610f62576000915050610347565b612710610e10610f7283426120d8565b610f7e906127106120ef565b610f889190612150565b610f94906127106120d8565b6001600160a01b038616600090815260d06020908152604080832060ff89168452909152902054610fc591906120ef565b610fcf9190612150565b949350505050565b60009182526097602090815260408084206001600160a01b0393909316845291905290205460ff1690565b600061100e8133611578565b5060c980546001600160a01b0319166001600160a01b0392909216919091179055565b6110866040805160c08101825260008082528251606081018452818152602081810183905293810191909152909182019081526020016000815260200160008152602001600081526020016000151581525090565b60cd828154811061109957611099612093565b60009182526020918290206040805160c0810182526008909302909101805463ffffffff168352815160608082018452600183015460ff908116835260028401548388015260038401546001600160a01b031683860152958501919091526004820154928401929092526005810154918301919091526006810154608083015260070154909116151560a082015292915050565b6000828152609760205260409020600101546111498133611578565b6104188383611662565b600061115f8133611578565b5060cb80546001600160a01b0319166001600160a01b0392909216919091179055565b600061118e8133611578565b5060ca80546001600160a01b0319166001600160a01b0392909216919091179055565b600260335414156111d45760405162461bcd60e51b81526004016103709061205c565b600260335560006111e58133611578565b60005b8251811015610d0857600183828151811061120557611205612093565b602002602001015160a001901515908115158152505060cd83828151811061122f5761122f612093565b6020908102919091018101518254600180820185556000948552938390208251600890920201805463ffffffff191663ffffffff909216919091178155818301518051828601805460ff1990811660ff9093169290921790559381015160028301556040908101516003830180546001600160a01b0319166001600160a01b039092169190911790558201516004820155606082015160058201556080820151600682015560a0909101516007909101805490921690151517905560cd547f91d7d366662f6f8474f9fc01bca941c75b9b52b48669f6612510e97ce445c2bb91611318916120d8565b60405190815260200160405180910390a18061133381612164565b9150506111e8565b600054610100900460ff166113565760005460ff161561135a565b303b155b6113bd5760405162461bcd60e51b815260206004820152602e60248201527f496e697469616c697a61626c653a20636f6e747261637420697320616c72656160448201526d191e481a5b9a5d1a585b1a5e995960921b6064820152608401610370565b600054610100900460ff161580156113df576000805461ffff19166101011790555b6113e7611a25565b6113ef611a56565b6113fa6000836115dc565b6114056000336115dc565b61140e85611002565b61141784611153565b61142083610eed565b61142b6107d0610390565b801561143d576000805461ff00191690555b5050505050565b816001600160a01b031660cd8263ffffffff168154811061146757611467612093565b60009182526020909120600360089092020101546001600160a01b03161461148d575050565b600060cd8263ffffffff16815481106114a8576114a8612093565b600091825260209182902060408051606081018252600893909302909101600181015460ff16808452600282015494840194909452600301546001600160a01b03169082018190529092506114fd91846116c9565b6115238160400151826020015160cd8563ffffffff1681548110610bf357610bf3612093565b80516040805160ff909216825263ffffffff841660208301526001600160a01b038516917fd765f74dcd70624d9a3269e1ca3e9395959ac1b98fa580f1e05ffbd8be560c5491015b60405180910390a2505050565b6115828282610fd7565b6104975761159a816001600160a01b03166014611a7d565b6115a5836020611a7d565b6040516020016115b69291906121ab565b60408051601f198184030181529082905262461bcd60e51b825261037091600401612220565b6115e68282610fd7565b6104975760008281526097602090815260408083206001600160a01b03851684529091529020805460ff1916600117905561161e3390565b6001600160a01b0316816001600160a01b0316837f2f8788117e7eff1d82e926ec794901d17c78024a50270940304540a733656f0d60405160405180910390a45050565b61166c8282610fd7565b156104975760008281526097602090815260408083206001600160a01b0385168085529252808320805460ff1916905551339285917ff6391f5c32d9c69d2a47ea670b442974b53935d1edc7fd64eb21e047a839171b9190a45050565b826001600160a01b031660cd8263ffffffff16815481106116ec576116ec612093565b60009182526020909120600360089092020101546001600160a01b0316141561175e5760cd8163ffffffff168154811061172857611728612093565b6000918252602082206001600890920201908101805460ff19169055600281019190915560030180546001600160a01b03191690555b506001600160a01b03909116600090815260cf6020908152604080832060ff909416835292905220805463ffffffff19169055565b8260cd8263ffffffff16815481106117ad576117ad612093565b906000526020600020906008020160010160020160006101000a8154816001600160a01b0302191690836001600160a01b031602179055508160cd8263ffffffff16815481106117ff576117ff612093565b906000526020600020906008020160010160000160006101000a81548160ff021916908360ff1602179055504260cd8263ffffffff168154811061184557611845612093565b60009182526020808320600892909202909101600201929092556001600160a01b038516815260cf8252604080822060ff8616835290925220805463ffffffff191663ffffffff8316179055336040805160ff8516815263ffffffff8416602082015242918101919091526001600160a01b0391909116907f674fa51257fb6cfc7dc7632b5dc4d0a9614457146605d4c25d2aa0ff2538bd289060600161156b565b60ce5460009063ffffffff16826118fe85426120d8565b61190891906120ef565b61191291906120ef565b90508015611a1f5760c9546040516340c10f1960e01b81526001600160a01b03868116600483015260248201849052909116906340c10f1990604401600060405180830381600087803b15801561196857600080fd5b505af115801561197c573d6000803e3d6000fd5b505060c95460ce546001600160a01b0390911692506340c10f1991508690612710906119b690640100000000900463ffffffff16866120ef565b6119c09190612150565b6040516001600160e01b031960e085901b1681526001600160a01b0390921660048301526024820152604401600060405180830381600087803b158015611a0657600080fd5b505af1158015611a1a573d6000803e3d6000fd5b505050505b50505050565b600054610100900460ff16611a4c5760405162461bcd60e51b815260040161037090612253565b611a54611c20565b565b600054610100900460ff16611a545760405162461bcd60e51b815260040161037090612253565b60606000611a8c8360026120ef565b611a9790600261210e565b67ffffffffffffffff811115611aaf57611aaf611e1a565b6040519080825280601f01601f191660200182016040528015611ad9576020820181803683370190505b509050600360fc1b81600081518110611af457611af4612093565b60200101906001600160f81b031916908160001a905350600f60fb1b81600181518110611b2357611b23612093565b60200101906001600160f81b031916908160001a9053506000611b478460026120ef565b611b5290600161210e565b90505b6001811115611bca576f181899199a1a9b1b9c1cb0b131b232b360811b85600f1660108110611b8657611b86612093565b1a60f81b828281518110611b9c57611b9c612093565b60200101906001600160f81b031916908160001a90535060049490941c93611bc38161229e565b9050611b55565b508315611c195760405162461bcd60e51b815260206004820181905260248201527f537472696e67733a20686578206c656e67746820696e73756666696369656e746044820152606401610370565b9392505050565b600054610100900460ff16611c475760405162461bcd60e51b815260040161037090612253565b6001603355565b600060208284031215611c6057600080fd5b81356001600160e01b031981168114611c1957600080fd5b803563ffffffff81168114611c8c57600080fd5b919050565b600060208284031215611ca357600080fd5b611c1982611c78565b600060208284031215611cbe57600080fd5b5035919050565b80356001600160a01b0381168114611c8c57600080fd5b60008060408385031215611cef57600080fd5b82359150611cff60208401611cc5565b90509250929050565b803560ff81168114611c8c57600080fd5b60008060408385031215611d2c57600080fd5b611d3583611d08565b9150611cff60208401611c78565b60008060408385031215611d5657600080fd5b611d5f83611cc5565b9150611cff60208401611d08565b600060208284031215611d7f57600080fd5b611c1982611d08565b600060208284031215611d9a57600080fd5b611c1982611cc5565b60006101008201905063ffffffff8351168252602083015160ff81511660208401526020810151604084015260018060a01b0360408201511660608401525060408301516080830152606083015160a0830152608083015160c083015260a0830151611e1360e084018215159052565b5092915050565b634e487b7160e01b600052604160045260246000fd5b60405160c0810167ffffffffffffffff81118282101715611e5357611e53611e1a565b60405290565b6040516060810167ffffffffffffffff81118282101715611e5357611e53611e1a565b604051601f8201601f1916810167ffffffffffffffff81118282101715611ea557611ea5611e1a565b604052919050565b80358015158114611c8c57600080fd5b60006020808385031215611ed057600080fd5b823567ffffffffffffffff80821115611ee857600080fd5b818501915085601f830112611efc57600080fd5b813581811115611f0e57611f0e611e1a565b611f1c848260051b01611e7c565b818152848101925060089190911b830184019087821115611f3c57600080fd5b928401925b81841015611ffd57838803610100811215611f5c5760008081fd5b611f64611e30565b611f6d86611c78565b8152606080601f1984011215611f835760008081fd5b611f8b611e59565b9250611f98888801611d08565b835260408088013589850152611faf828901611cc5565b8185015283898401526080935083880135818401525060a0808801358284015260c088013584840152611fe460e08901611ead565b9083015250845250610100939093019291840191611f41565b979650505050505050565b6000806000806080858703121561201e57600080fd5b61202785611cc5565b935061203560208601611cc5565b925061204360408601611cc5565b915061205160608601611cc5565b905092959194509250565b6020808252601f908201527f5265656e7472616e637947756172643a207265656e7472616e742063616c6c00604082015260600190565b634e487b7160e01b600052603260045260246000fd5b6000602082840312156120bb57600080fd5b5051919050565b634e487b7160e01b600052601160045260246000fd5b6000828210156120ea576120ea6120c2565b500390565b6000816000190483118215151615612109576121096120c2565b500290565b60008219821115612121576121216120c2565b500190565b634e487b7160e01b600052601260045260246000fd5b60008261214b5761214b612126565b500690565b60008261215f5761215f612126565b500490565b6000600019821415612178576121786120c2565b5060010190565b60005b8381101561219a578181015183820152602001612182565b83811115611a1f5750506000910152565b7f416363657373436f6e74726f6c3a206163636f756e74200000000000000000008152600083516121e381601785016020880161217f565b7001034b99036b4b9b9b4b733903937b6329607d1b601791840191820152835161221481602884016020880161217f565b01602801949350505050565b602081526000825180602084015261223f81604085016020870161217f565b601f01601f19169190910160400192915050565b6020808252602b908201527f496e697469616c697a61626c653a20636f6e7472616374206973206e6f74206960408201526a6e697469616c697a696e6760a81b606082015260800190565b6000816122ad576122ad6120c2565b50600019019056fea2646970667358221220448be5e5af9c596de6c8ed0793d14fd163e583e9c7794036343d6d6a9149ffb464736f6c634300080a0033",
  "immutableReferences": {},
  "source": "// SPDX-License-Identifier: MIT\r\npragma solidity 0.8.10;\r\n\r\nimport \"@openzeppelin/contracts-upgradeable/proxy/utils/Initializable.sol\";\r\nimport \"@openzeppelin/contracts-upgradeable/security/ReentrancyGuardUpgradeable.sol\";\r\nimport \"@openzeppelin/contracts-upgradeable/utils/ContextUpgradeable.sol\";\r\nimport \"@openzeppelin/contracts-upgradeable/access/AccessControlUpgradeable.sol\";\r\n\r\nimport \"./interfaces/IGnomes.sol\";\r\nimport \"./interfaces/IMine.sol\";\r\nimport \"./interfaces/IRandom.sol\";\r\nimport \"./interfaces/ICharacter.sol\";\r\nimport \"./interfaces/IToken.sol\";\r\n\r\n\r\ncontract Mines is Initializable, ContextUpgradeable, ReentrancyGuardUpgradeable, AccessControlUpgradeable, IMine {\r\n\r\n    bytes32 public constant CONTRACT_ROLE = keccak256(\"CONTRACT_ROLE\");\r\n\r\n    IToken private  _tokenContract;\r\n    IGnomes private _gnomesContract;\r\n    IRandom private _randomContract;\r\n    ICharacter private _characterContract;\r\n    structMine[] private _mines;\r\n    uint32 private _productionMulti;\r\n    uint32 private _gameFee;\r\n    // account =>  collectionId => mineId\r\n    mapping(address => mapping(uint8 => uint32)) private _playersInMines;\r\n    // account => collectionId => timestamp\r\n    mapping(address => mapping(uint8 => structInjuredCollection)) private _injuredCollections;\r\n\r\n    event Mine(address indexed account, uint8 collectionId, uint32 mineId, uint timstamp);\r\n    event Claim(address indexed account, uint8 collectionId, uint32 mineId);\r\n    event MineCreated(uint mineId);\r\n\r\n    function initialize(address tokenContract, address randomContract, address characterContract, address admin) public initializer {\r\n        __ReentrancyGuard_init();\r\n        __AccessControl_init();\r\n        _grantRole(DEFAULT_ADMIN_ROLE, admin);\r\n        _grantRole(DEFAULT_ADMIN_ROLE, _msgSender());\r\n        setTokenContractAddress(tokenContract);\r\n        setRandomContractAddress(randomContract);\r\n        setCharacterContractAddress(characterContract);\r\n        setGameFee(2000);\r\n    }\r\n\r\n    function mine(uint8 collectionId, uint32 mineId) external nonReentrant {\r\n        require(_mines[mineId].exists, 'mine does not exists');\r\n        require(_injuredCollections[_msgSender()][collectionId].startTime >= 1 hours, \"the gnomes is injured\");\r\n        require(_playersInMines[_msgSender()][collectionId] == 0, 'the gnomes are mining');\r\n        uint mineMaxPower = _mines[mineId].maxPower;\r\n        uint attackerCollectionPower = _gnomesContract.getPlayerCollectionsPower(_msgSender(), collectionId);\r\n        require(attackerCollectionPower > _mines[mineId].minPower, 'to weak');\r\n        if (attackerCollectionPower > mineMaxPower) {\r\n            attackerCollectionPower = mineMaxPower;\r\n        }\r\n        //if no one in the mine then just give it to the player\r\n        if (_mines[mineId].miner.account == address(0)) {\r\n            _removePlayerFormMine(_msgSender(), collectionId, mineId);\r\n            _addPlayerToMine(_msgSender(), collectionId, mineId);\r\n            return;\r\n        }\r\n\r\n        //fight for the mine\r\n        structMiner memory defender = _mines[mineId].miner;\r\n\r\n        uint defenderCollectionPower = _gnomesContract.getPlayerCollectionsPower(defender.account, defender.collectionId);\r\n        if (defenderCollectionPower > mineMaxPower) {\r\n            defenderCollectionPower = mineMaxPower;\r\n        }\r\n        if (defenderCollectionPower > attackerCollectionPower) {\r\n            defenderCollectionPower = (defenderCollectionPower - attackerCollectionPower) * _mines[mineId].powerMulti + defenderCollectionPower;\r\n        } else if (defenderCollectionPower < attackerCollectionPower) {\r\n            attackerCollectionPower = (attackerCollectionPower - defenderCollectionPower) * _mines[mineId].powerMulti + attackerCollectionPower;\r\n        }\r\n        uint defenderRandomNumber = _randomContract.getRandomNumber();\r\n        uint attackerRandomNumber = _randomContract.getRandomNumber();\r\n\r\n        uint defenderPower = _characterContract.getAccountPower(defender.account) + defenderCollectionPower;\r\n        uint attackerPower = _characterContract.getAccountPower(_msgSender()) + attackerCollectionPower;\r\n\r\n        if ((attackerRandomNumber % attackerPower) > (defenderRandomNumber % defenderPower)) {\r\n            //send the tokens to the previous player\r\n            _injuredCollections[defender.account][defender.collectionId] = structInjuredCollection({\r\n            startTime : block.timestamp,\r\n            power : defenderPower\r\n            });\r\n            _playersInMines[defender.account][defender.collectionId] = 0;\r\n            _addPlayerToMine(_msgSender(), collectionId, mineId);\r\n            _mintTokensFromMine(defender.account, defender.startTime, uint(_mines[mineId].productionRate));\r\n            emit Claim(defender.account, defender.collectionId, mineId);\r\n\r\n        }\r\n    }\r\n\r\n    function heal(uint8 collectionId) external {\r\n        uint cost = getHealingCost(_msgSender(), collectionId);\r\n        require(cost > 0, \"no need for heal\");\r\n        require(cost <= _tokenContract.balanceOf(_msgSender()), 'not enough tokens');\r\n        _tokenContract.burn(_msgSender(), cost);\r\n        _injuredCollections[_msgSender()][collectionId].startTime = 0;\r\n        _injuredCollections[_msgSender()][collectionId].power = 0;\r\n\r\n    }\r\n\r\n    function getHealingCost(address account, uint8 collectionId) public view returns (uint) {\r\n        uint injuredTime = _injuredCollections[account][collectionId].startTime;\r\n        if (block.timestamp - injuredTime >= 1 hours) {\r\n            return 0;\r\n        }\r\n        return _injuredCollections[account][collectionId].power * (10000 - (block.timestamp - injuredTime) * 10000 / 1 hours) / 10000;\r\n\r\n    }\r\n\r\n    function _mintTokensFromMine(address account, uint startTime, uint productionRate) private {\r\n        uint amountToMint = (block.timestamp - startTime) * productionRate * _productionMulti;\r\n        if (amountToMint > 0) {\r\n            _tokenContract.mint(account, amountToMint);\r\n            _tokenContract.mint(account, amountToMint * _gameFee / 10000);\r\n        }\r\n\r\n    }\r\n\r\n    function _addPlayerToMine(address account, uint8 collectionId, uint32 mineId) private {\r\n\r\n        _mines[mineId].miner.account = account;\r\n        _mines[mineId].miner.collectionId = collectionId;\r\n        _mines[mineId].miner.startTime = block.timestamp;\r\n\r\n        _playersInMines[account][collectionId] = mineId;\r\n        emit Mine(_msgSender(), collectionId, mineId, block.timestamp);\r\n    }\r\n\r\n    function _removePlayerFormMine(address account, uint8 collectionId, uint32 mineId) private {\r\n        if (_mines[mineId].miner.account == account) {\r\n            delete _mines[mineId].miner;\r\n        }\r\n        _playersInMines[account][collectionId] = 0;\r\n    }\r\n\r\n    function claim(uint32 mineId) external nonReentrant {\r\n\r\n        _claim(_msgSender(), mineId);\r\n    }\r\n\r\n    function _claim(address account, uint32 mineId) private {\r\n        if (_mines[mineId].miner.account != account) {\r\n            return;\r\n        }\r\n        structMiner memory claimer = _mines[mineId].miner;\r\n        _removePlayerFormMine(claimer.account, claimer.collectionId, mineId);\r\n        _mintTokensFromMine(claimer.account, claimer.startTime, _mines[mineId].productionRate);\r\n        emit Claim(account, claimer.collectionId, mineId);\r\n\r\n    }\r\n\r\n    function claimByAccount(address account, uint8 collectionId) external nonReentrant onlyRole(CONTRACT_ROLE) {\r\n        uint32 mineId = _playersInMines[account][collectionId];\r\n        if (mineId == 0) {\r\n            return;\r\n        }\r\n\r\n        _claim(account, mineId);\r\n    }\r\n\r\n    function getMine(uint mineId) public view returns (structMine memory){\r\n        return _mines[mineId];\r\n    }\r\n\r\n\r\n\r\n    //********************************* management functions *************************************//\r\n\r\n\r\n    function setGnomesContractAddress(address gnomesContract) public onlyRole(DEFAULT_ADMIN_ROLE) {\r\n        _gnomesContract = IGnomes(gnomesContract);\r\n    }\r\n\r\n    function setTokenContractAddress(address tokenContract) public onlyRole(DEFAULT_ADMIN_ROLE) {\r\n        _tokenContract = IToken(tokenContract);\r\n    }\r\n\r\n    function setRandomContractAddress(address randomContract) public onlyRole(DEFAULT_ADMIN_ROLE) {\r\n        _randomContract = IRandom(randomContract);\r\n    }\r\n\r\n    function setCharacterContractAddress(address characterContract) public onlyRole(DEFAULT_ADMIN_ROLE) {\r\n        _characterContract = ICharacter(characterContract);\r\n\r\n    }\r\n\r\n    function buildMines(structMine[] memory mines) external nonReentrant onlyRole(DEFAULT_ADMIN_ROLE) {\r\n        for (uint i; i < mines.length; i++) {\r\n            mines[i].exists = true;\r\n            _mines.push(mines[i]);\r\n            emit MineCreated(_mines.length - 1);\r\n        }\r\n    }\r\n\r\n    function setGameFee(uint32 fee) public nonReentrant onlyRole(DEFAULT_ADMIN_ROLE) {\r\n        _gameFee = fee;\r\n    }\r\n}\r\n",
  "sourcePath": "C:\\Users\\amit\\PhpstormProjects\\myminiminers-contracts-upgradable\\contracts\\Mines.sol",
  "compiler": {
    "name": "solc",
    "version": "0.8.10+commit.fc410830.Emscripten.clang"
  },
  "schemaVersion": "3.4.3",
  "updatedAt": "2022-04-04T12:25:07.183Z",
  "networkType": "ethereum",
  "devdoc": {
    "kind": "dev",
    "methods": {
      "getRoleAdmin(bytes32)": {
        "details": "Returns the admin role that controls `role`. See {grantRole} and {revokeRole}. To change a role's admin, use {_setRoleAdmin}."
      },
      "grantRole(bytes32,address)": {
        "details": "Grants `role` to `account`. If `account` had not been already granted `role`, emits a {RoleGranted} event. Requirements: - the caller must have ``role``'s admin role."
      },
      "hasRole(bytes32,address)": {
        "details": "Returns `true` if `account` has been granted `role`."
      },
      "renounceRole(bytes32,address)": {
        "details": "Revokes `role` from the calling account. Roles are often managed via {grantRole} and {revokeRole}: this function's purpose is to provide a mechanism for accounts to lose their privileges if they are compromised (such as when a trusted device is misplaced). If the calling account had been revoked `role`, emits a {RoleRevoked} event. Requirements: - the caller must be `account`."
      },
      "revokeRole(bytes32,address)": {
        "details": "Revokes `role` from `account`. If `account` had been granted `role`, emits a {RoleRevoked} event. Requirements: - the caller must have ``role``'s admin role."
      },
      "supportsInterface(bytes4)": {
        "details": "See {IERC165-supportsInterface}."
      }
    },
    "version": 1
  },
  "userdoc": {
    "kind": "user",
    "methods": {},
    "version": 1
  }
}