{
  "contractName": "Mines",
  "abi": [
    {
      "anonymous": false,
      "inputs": [
        {
          "indexed": true,
          "internalType": "address",
          "name": "account",
          "type": "address"
        },
        {
          "indexed": false,
          "internalType": "uint8",
          "name": "collectionId",
          "type": "uint8"
        },
        {
          "indexed": false,
          "internalType": "uint256",
          "name": "timstamp",
          "type": "uint256"
        }
      ],
      "name": "Mine",
      "type": "event"
    },
    {
      "anonymous": false,
      "inputs": [
        {
          "indexed": true,
          "internalType": "bytes32",
          "name": "role",
          "type": "bytes32"
        },
        {
          "indexed": true,
          "internalType": "bytes32",
          "name": "previousAdminRole",
          "type": "bytes32"
        },
        {
          "indexed": true,
          "internalType": "bytes32",
          "name": "newAdminRole",
          "type": "bytes32"
        }
      ],
      "name": "RoleAdminChanged",
      "type": "event"
    },
    {
      "anonymous": false,
      "inputs": [
        {
          "indexed": true,
          "internalType": "bytes32",
          "name": "role",
          "type": "bytes32"
        },
        {
          "indexed": true,
          "internalType": "address",
          "name": "account",
          "type": "address"
        },
        {
          "indexed": true,
          "internalType": "address",
          "name": "sender",
          "type": "address"
        }
      ],
      "name": "RoleGranted",
      "type": "event"
    },
    {
      "anonymous": false,
      "inputs": [
        {
          "indexed": true,
          "internalType": "bytes32",
          "name": "role",
          "type": "bytes32"
        },
        {
          "indexed": true,
          "internalType": "address",
          "name": "account",
          "type": "address"
        },
        {
          "indexed": true,
          "internalType": "address",
          "name": "sender",
          "type": "address"
        }
      ],
      "name": "RoleRevoked",
      "type": "event"
    },
    {
      "inputs": [],
      "name": "CONTRACT_ROLE",
      "outputs": [
        {
          "internalType": "bytes32",
          "name": "",
          "type": "bytes32"
        }
      ],
      "stateMutability": "view",
      "type": "function",
      "constant": true
    },
    {
      "inputs": [],
      "name": "DEFAULT_ADMIN_ROLE",
      "outputs": [
        {
          "internalType": "bytes32",
          "name": "",
          "type": "bytes32"
        }
      ],
      "stateMutability": "view",
      "type": "function",
      "constant": true
    },
    {
      "inputs": [
        {
          "internalType": "bytes32",
          "name": "role",
          "type": "bytes32"
        }
      ],
      "name": "getRoleAdmin",
      "outputs": [
        {
          "internalType": "bytes32",
          "name": "",
          "type": "bytes32"
        }
      ],
      "stateMutability": "view",
      "type": "function",
      "constant": true
    },
    {
      "inputs": [
        {
          "internalType": "bytes32",
          "name": "role",
          "type": "bytes32"
        },
        {
          "internalType": "address",
          "name": "account",
          "type": "address"
        }
      ],
      "name": "grantRole",
      "outputs": [],
      "stateMutability": "nonpayable",
      "type": "function"
    },
    {
      "inputs": [
        {
          "internalType": "bytes32",
          "name": "role",
          "type": "bytes32"
        },
        {
          "internalType": "address",
          "name": "account",
          "type": "address"
        }
      ],
      "name": "hasRole",
      "outputs": [
        {
          "internalType": "bool",
          "name": "",
          "type": "bool"
        }
      ],
      "stateMutability": "view",
      "type": "function",
      "constant": true
    },
    {
      "inputs": [
        {
          "internalType": "bytes32",
          "name": "role",
          "type": "bytes32"
        },
        {
          "internalType": "address",
          "name": "account",
          "type": "address"
        }
      ],
      "name": "renounceRole",
      "outputs": [],
      "stateMutability": "nonpayable",
      "type": "function"
    },
    {
      "inputs": [
        {
          "internalType": "bytes32",
          "name": "role",
          "type": "bytes32"
        },
        {
          "internalType": "address",
          "name": "account",
          "type": "address"
        }
      ],
      "name": "revokeRole",
      "outputs": [],
      "stateMutability": "nonpayable",
      "type": "function"
    },
    {
      "inputs": [
        {
          "internalType": "bytes4",
          "name": "interfaceId",
          "type": "bytes4"
        }
      ],
      "name": "supportsInterface",
      "outputs": [
        {
          "internalType": "bool",
          "name": "",
          "type": "bool"
        }
      ],
      "stateMutability": "view",
      "type": "function",
      "constant": true
    },
    {
      "inputs": [
        {
          "internalType": "address",
          "name": "tokenContract",
          "type": "address"
        },
        {
          "internalType": "address",
          "name": "randomContract",
          "type": "address"
        },
        {
          "internalType": "address",
          "name": "characterContract",
          "type": "address"
        },
        {
          "internalType": "address",
          "name": "admin",
          "type": "address"
        }
      ],
      "name": "initialize",
      "outputs": [],
      "stateMutability": "nonpayable",
      "type": "function"
    },
    {
      "inputs": [
        {
          "internalType": "uint8",
          "name": "collectionId",
          "type": "uint8"
        },
        {
          "internalType": "uint32",
          "name": "mineId",
          "type": "uint32"
        },
        {
          "internalType": "uint32",
          "name": "slot",
          "type": "uint32"
        }
      ],
      "name": "mine",
      "outputs": [],
      "stateMutability": "nonpayable",
      "type": "function"
    },
    {
      "inputs": [
        {
          "internalType": "uint8",
          "name": "collectionId",
          "type": "uint8"
        }
      ],
      "name": "heal",
      "outputs": [],
      "stateMutability": "nonpayable",
      "type": "function"
    },
    {
      "inputs": [
        {
          "internalType": "address",
          "name": "account",
          "type": "address"
        },
        {
          "internalType": "uint8",
          "name": "collectionId",
          "type": "uint8"
        }
      ],
      "name": "getHealingCost",
      "outputs": [
        {
          "internalType": "uint256",
          "name": "",
          "type": "uint256"
        }
      ],
      "stateMutability": "view",
      "type": "function",
      "constant": true
    },
    {
      "inputs": [
        {
          "internalType": "uint32",
          "name": "mineId",
          "type": "uint32"
        },
        {
          "internalType": "uint32",
          "name": "slot",
          "type": "uint32"
        }
      ],
      "name": "claim",
      "outputs": [],
      "stateMutability": "nonpayable",
      "type": "function"
    },
    {
      "inputs": [
        {
          "internalType": "address",
          "name": "account",
          "type": "address"
        },
        {
          "internalType": "uint8",
          "name": "collectionId",
          "type": "uint8"
        }
      ],
      "name": "claimByAccount",
      "outputs": [],
      "stateMutability": "nonpayable",
      "type": "function"
    },
    {
      "inputs": [
        {
          "internalType": "address",
          "name": "gnomesContract",
          "type": "address"
        }
      ],
      "name": "setGnomesContractAddress",
      "outputs": [],
      "stateMutability": "nonpayable",
      "type": "function"
    },
    {
      "inputs": [
        {
          "internalType": "address",
          "name": "tokenContract",
          "type": "address"
        }
      ],
      "name": "setTokenContractAddress",
      "outputs": [],
      "stateMutability": "nonpayable",
      "type": "function"
    },
    {
      "inputs": [
        {
          "internalType": "address",
          "name": "randomContract",
          "type": "address"
        }
      ],
      "name": "setRandomContractAddress",
      "outputs": [],
      "stateMutability": "nonpayable",
      "type": "function"
    },
    {
      "inputs": [
        {
          "internalType": "address",
          "name": "characterContract",
          "type": "address"
        }
      ],
      "name": "setCharacterContractAddress",
      "outputs": [],
      "stateMutability": "nonpayable",
      "type": "function"
    },
    {
      "inputs": [],
      "name": "_buildMines",
      "outputs": [],
      "stateMutability": "nonpayable",
      "type": "function"
    }
  ],
  "bytecode": "0x608060405234801561001057600080fd5b50611eec806100206000396000f3fe608060405234801561001057600080fd5b50600436106101215760003560e01c806383499df6116100ad578063d349de5511610071578063d349de5514610263578063d547741f14610276578063d7050b0514610289578063f2dbad3b1461029c578063f8c8765e146102af57600080fd5b806383499df61461020f57806388c459f71461022257806391d1485414610235578063a217fddf14610248578063b23d48541461025057600080fd5b806336568abe116100f457806336568abe146101bb5780634b83b65b146101ce57806360b27764146101d6578063683f6733146101e9578063786c034e146101fc57600080fd5b806301ffc9a71461012657806303fe46ab1461014e578063248a9ca3146101835780632f2ff15d146101a6575b600080fd5b610139610134366004611a52565b6102c2565b60405190151581526020015b60405180910390f35b6101757f364d3d7565c7a8300c96fd53e065d19b65848d7b23b3191adcd55621c744223c81565b604051908152602001610145565b610175610191366004611a7c565b60009081526097602052604090206001015490565b6101b96101b4366004611ab1565b6102f9565b005b6101b96101c9366004611ab1565b610324565b6101b96103a7565b6101b96101e4366004611aee565b610564565b6101b96101f7366004611b18565b6106c0565b6101b961020a366004611b47565b61089b565b6101b961021d366004611b8a565b61109c565b610175610230366004611aee565b6110cb565b610139610243366004611ab1565b611186565b610175600081565b6101b961025e366004611b8a565b6111b1565b6101b9610271366004611ba5565b6111e0565b6101b9610284366004611ab1565b61121c565b6101b9610297366004611b8a565b611242565b6101b96102aa366004611b8a565b611271565b6101b96102bd366004611bcf565b6112a0565b60006001600160e01b03198216637965db0b60e01b14806102f357506301ffc9a760e01b6001600160e01b03198316145b92915050565b600082815260976020526040902060010154610315813361139e565b61031f8383611402565b505050565b6001600160a01b03811633146103995760405162461bcd60e51b815260206004820152602f60248201527f416363657373436f6e74726f6c3a2063616e206f6e6c792072656e6f756e636560448201526e103937b632b9903337b91039b2b63360891b60648201526084015b60405180910390fd5b6103a38282611488565b5050565b600260335414156103ca5760405162461bcd60e51b815260040161039090611c23565b600260335560006103db813361139e565b60cf80549060006103eb83611c70565b90915550506040805160e08101825260cf5463ffffffff908116825260006020830181815260149484019485526001606085018181526080860182815260a0870183815260c0880184815260cd805480870182559752975160059096027f83978b4c69c48dd978ab43fe30f077615294f938fb7f936d9eb340e51ea7db2e8101805496519a518916600160401b026bffffffff0000000000000000199b8a166401000000000267ffffffffffffffff19909816989099169790971795909517989098169590951790935591517f83978b4c69c48dd978ab43fe30f077615294f938fb7f936d9eb340e51ea7db2f82015591517f83978b4c69c48dd978ab43fe30f077615294f938fb7f936d9eb340e51ea7db3083015592517f83978b4c69c48dd978ab43fe30f077615294f938fb7f936d9eb340e51ea7db3182015590517f83978b4c69c48dd978ab43fe30f077615294f938fb7f936d9eb340e51ea7db32909101805491151560ff1990921691909117905560335550565b600260335414156105875760405162461bcd60e51b815260040161039090611c23565b60026033557f364d3d7565c7a8300c96fd53e065d19b65848d7b23b3191adcd55621c744223c6105b7813361139e565b6001600160a01b038316600090815260d16020908152604080832060ff8616845290915290205463ffffffff16806105ef57506106b6565b600060cd8263ffffffff168154811061060a5761060a611c8b565b6000918252602082206005909102015463ffffffff600160401b90910416915060015b8263ffffffff168163ffffffff16116106905763ffffffff848116600090815260d060209081526040808320938516835292905220546001600160a01b038881169116141561067e57809150610690565b8061068881611ca1565b91505061062d565b5063ffffffff81166106a4575050506106b6565b6106b2868660ff16836114ef565b5050505b5050600160335550565b60006106cc33836110cb565b9050600081116107115760405162461bcd60e51b815260206004820152601060248201526f1b9bc81b99595908199bdc881a19585b60821b6044820152606401610390565b60c9546001600160a01b03166370a08231336040516001600160e01b031960e084901b1681526001600160a01b039091166004820152602401602060405180830381865afa158015610767573d6000803e3d6000fd5b505050506040513d601f19601f8201168201806040525081019061078b9190611cc5565b8111156107ce5760405162461bcd60e51b81526020600482015260116024820152706e6f7420656e6f75676820746f6b656e7360781b6044820152606401610390565b60c9546001600160a01b0316639dc29fac336040516001600160e01b031960e084901b1681526001600160a01b03909116600482015260248101849052604401600060405180830381600087803b15801561082857600080fd5b505af115801561083c573d6000803e3d6000fd5b50505050600060d2600061084d3390565b6001600160a01b031681526020808201929092526040908101600090812060ff969096168082529583528181206001019390935533835260d282528083209483529390529182209190915550565b600260335414156108be5760405162461bcd60e51b815260040161039090611c23565b600260335560cd805463ffffffff84169081106108dd576108dd611c8b565b600091825260209091206004600590920201015460ff166109375760405162461bcd60e51b81526020600482015260146024820152736d696e6520646f6573206e6f742065786973747360601b6044820152606401610390565b60cd8263ffffffff168154811061095057610950611c8b565b600091825260209091206005909102015463ffffffff600160401b909104811690821611801590610987575060008163ffffffff16115b6109ca5760405162461bcd60e51b8152602060048201526014602482015273736c6f7420646f6573206e6f742065786973747360601b6044820152606401610390565b33600090815260d26020908152604080832060ff87168452909152902060010154610e101115610a3c5760405162461bcd60e51b815260206004820152601960248201527f74686520636f6c6c656374696f6e20697320696e6a75726564000000000000006044820152606401610390565b60ca546000906001600160a01b031663fcebff25336040516001600160e01b031960e084901b1681526001600160a01b03909116600482015260ff871660248201526044016020604051808303816000875af1158015610aa0573d6000803e3d6000fd5b505050506040513d601f19601f82011682018060405250810190610ac49190611cc5565b905060cd8363ffffffff1681548110610adf57610adf611c8b565b9060005260206000209060050201600101548111610b295760405162461bcd60e51b8152602060048201526007602482015266746f207765616b60c81b6044820152606401610390565b60cd8363ffffffff1681548110610b4257610b42611c8b565b90600052602060002090600502016002015481111580610b8c575060cd8363ffffffff1681548110610b7657610b76611c8b565b9060005260206000209060050201600201546000145b610bc45760405162461bcd60e51b8152602060048201526009602482015268746f207374726f6e6760b81b6044820152606401610390565b63ffffffff808416600090815260d060209081526040808320938616835292905220546001600160a01b0316610c1257610c00338585856115ba565b610c0c33858585611697565b506106b6565b63ffffffff838116600090815260d0602090815260408083209386168352928152828220835160608101855281546001600160a01b03808216808452600160a01b90920460ff169483018590526001909301548287015260ca54955163fcebff2560e01b81526004810191909152602481019390935293169063fcebff25906044016020604051808303816000875af1158015610cb3573d6000803e3d6000fd5b505050506040513d601f19601f82011682018060405250810190610cd79190611cc5565b905082811115610d3f578060cd8663ffffffff1681548110610cfb57610cfb611c8b565b6000918252602090912060059091020154640100000000900463ffffffff16610d248584611cde565b610d2e9190611cf5565b610d389190611d14565b9050610da1565b82811015610da1578260cd8663ffffffff1681548110610d6157610d61611c8b565b6000918252602090912060059091020154640100000000900463ffffffff16610d8a8386611cde565b610d949190611cf5565b610d9e9190611d14565b92505b60cb546040805163dbdff2c160e01b815290516000926001600160a01b03169163dbdff2c1916004808301926020929190829003018187875af1158015610dec573d6000803e3d6000fd5b505050506040513d601f19601f82011682018060405250810190610e109190611cc5565b9050600060cb60009054906101000a90046001600160a01b03166001600160a01b031663dbdff2c16040518163ffffffff1660e01b81526004016020604051808303816000875af1158015610e69573d6000803e3d6000fd5b505050506040513d601f19601f82011682018060405250810190610e8d9190611cc5565b60cc54855160405163181b7e6f60e11b81526001600160a01b03918216600482015292935060009286929190911690633036fcde906024016020604051808303816000875af1158015610ee4573d6000803e3d6000fd5b505050506040513d601f19601f82011682018060405250810190610f089190611cc5565b610f129190611d14565b60cc5490915060009087906001600160a01b0316633036fcde336040516001600160e01b031960e084901b1681526001600160a01b0390911660048201526024016020604051808303816000875af1158015610f72573d6000803e3d6000fd5b505050506040513d601f19601f82011682018060405250810190610f969190611cc5565b610fa09190611d14565b9050610fac8285611d42565b610fb68285611d42565b111561108b5760408051808201825283815242602080830191825289516001600160a01b03908116600090815260d283528581208c84015160ff908116835290845286822095518655935160019095019490945563ffffffff8e8116855260d08352858520908e16855282528484205416835260d18152838320918e1683525220805463ffffffff1916905561104e338b8b8b611697565b61108b8660000151876040015160cd8c63ffffffff168154811061107457611074611c8b565b90600052602060002090600502016003015461178a565b505050505050505050600160335550565b60006110a8813361139e565b5060cc80546001600160a01b0319166001600160a01b0392909216919091179055565b6001600160a01b038216600090815260d26020908152604080832060ff85168452909152812060010154610e106111028242611cde565b106111115760009150506102f3565b612710610e106111218342611cde565b61112d90612710611cf5565b6111379190611d56565b61114390612710611cde565b6001600160a01b038616600090815260d26020908152604080832060ff891684529091529020546111749190611cf5565b61117e9190611d56565b949350505050565b60009182526097602090815260408084206001600160a01b0393909316845291905290205460ff1690565b60006111bd813361139e565b5060c980546001600160a01b0319166001600160a01b0392909216919091179055565b600260335414156112035760405162461bcd60e51b815260040161039090611c23565b60026033556112133383836114ef565b50506001603355565b600082815260976020526040902060010154611238813361139e565b61031f8383611488565b600061124e813361139e565b5060cb80546001600160a01b0319166001600160a01b0392909216919091179055565b600061127d813361139e565b5060ca80546001600160a01b0319166001600160a01b0392909216919091179055565b600054610100900460ff166112bb5760005460ff16156112bf565b303b155b6113225760405162461bcd60e51b815260206004820152602e60248201527f496e697469616c697a61626c653a20636f6e747261637420697320616c72656160448201526d191e481a5b9a5d1a585b1a5e995960921b6064820152608401610390565b600054610100900460ff16158015611344576000805461ffff19166101011790555b61134c611829565b61135461185a565b61135f600083611402565b61136a600033611402565b611373856111b1565b61137c84611242565b6113858361109c565b8015611397576000805461ff00191690555b5050505050565b6113a88282611186565b6103a3576113c0816001600160a01b03166014611881565b6113cb836020611881565b6040516020016113dc929190611d96565b60408051601f198184030181529082905262461bcd60e51b825261039091600401611e0b565b61140c8282611186565b6103a35760008281526097602090815260408083206001600160a01b03851684529091529020805460ff191660011790556114443390565b6001600160a01b0316816001600160a01b0316837f2f8788117e7eff1d82e926ec794901d17c78024a50270940304540a733656f0d60405160405180910390a45050565b6114928282611186565b156103a35760008281526097602090815260408083206001600160a01b0385168085529252808320805460ff1916905551339285917ff6391f5c32d9c69d2a47ea670b442974b53935d1edc7fd64eb21e047a839171b9190a45050565b63ffffffff828116600090815260d060209081526040808320938516835292905220546001600160a01b0384811691161461152957505050565b63ffffffff828116600090815260d060209081526040808320938516835292815290829020825160608101845281546001600160a01b038116808352600160a01b90910460ff169382018490526001909201549381019390935261158e9185856115ba565b6115b48160000151826040015160cd8663ffffffff168154811061107457611074611c8b565b50505050565b63ffffffff828116600090815260d060209081526040808320938516835292905220546001600160a01b038581169116141561166157604080516060810182526000808252602080830182815283850183815263ffffffff808916855260d0845286852090881685529092529390912091518254935160ff16600160a01b026001600160a81b03199094166001600160a01b03919091161792909217815590516001909101555b50506001600160a01b03909116600090815260d16020908152604080832060ff909416835292905220805463ffffffff19169055565b604080516060810182526001600160a01b0380871680835260ff80881660208086018281524287890190815263ffffffff808c16600081815260d086528b8120928d1681529185528a822099518a549451909716600160a01b026001600160a81b031990941696909816959095179190911787555160019096019590955591815260d184528481209181529252919020805463ffffffff1916909117905561173c3390565b6040805160ff861681524260208201526001600160a01b0392909216917f77b7bed010efb06168d9529d26beb23aa0066216f640994877cf0f6f11210f0e910160405180910390a250505050565b60ce5460009063ffffffff16826117a18542611cde565b6117ab9190611cf5565b6117b59190611cf5565b905080156115b45760c9546040516340c10f1960e01b81526001600160a01b03868116600483015260248201849052909116906340c10f1990604401600060405180830381600087803b15801561180b57600080fd5b505af115801561181f573d6000803e3d6000fd5b5050505050505050565b600054610100900460ff166118505760405162461bcd60e51b815260040161039090611e3e565b611858611a24565b565b600054610100900460ff166118585760405162461bcd60e51b815260040161039090611e3e565b60606000611890836002611cf5565b61189b906002611d14565b67ffffffffffffffff8111156118b3576118b3611e89565b6040519080825280601f01601f1916602001820160405280156118dd576020820181803683370190505b509050600360fc1b816000815181106118f8576118f8611c8b565b60200101906001600160f81b031916908160001a905350600f60fb1b8160018151811061192757611927611c8b565b60200101906001600160f81b031916908160001a905350600061194b846002611cf5565b611956906001611d14565b90505b60018111156119ce576f181899199a1a9b1b9c1cb0b131b232b360811b85600f166010811061198a5761198a611c8b565b1a60f81b8282815181106119a0576119a0611c8b565b60200101906001600160f81b031916908160001a90535060049490941c936119c781611e9f565b9050611959565b508315611a1d5760405162461bcd60e51b815260206004820181905260248201527f537472696e67733a20686578206c656e67746820696e73756666696369656e746044820152606401610390565b9392505050565b600054610100900460ff16611a4b5760405162461bcd60e51b815260040161039090611e3e565b6001603355565b600060208284031215611a6457600080fd5b81356001600160e01b031981168114611a1d57600080fd5b600060208284031215611a8e57600080fd5b5035919050565b80356001600160a01b0381168114611aac57600080fd5b919050565b60008060408385031215611ac457600080fd5b82359150611ad460208401611a95565b90509250929050565b803560ff81168114611aac57600080fd5b60008060408385031215611b0157600080fd5b611b0a83611a95565b9150611ad460208401611add565b600060208284031215611b2a57600080fd5b611a1d82611add565b803563ffffffff81168114611aac57600080fd5b600080600060608486031215611b5c57600080fd5b611b6584611add565b9250611b7360208501611b33565b9150611b8160408501611b33565b90509250925092565b600060208284031215611b9c57600080fd5b611a1d82611a95565b60008060408385031215611bb857600080fd5b611bc183611b33565b9150611ad460208401611b33565b60008060008060808587031215611be557600080fd5b611bee85611a95565b9350611bfc60208601611a95565b9250611c0a60408601611a95565b9150611c1860608601611a95565b905092959194509250565b6020808252601f908201527f5265656e7472616e637947756172643a207265656e7472616e742063616c6c00604082015260600190565b634e487b7160e01b600052601160045260246000fd5b6000600019821415611c8457611c84611c5a565b5060010190565b634e487b7160e01b600052603260045260246000fd5b600063ffffffff80831681811415611cbb57611cbb611c5a565b6001019392505050565b600060208284031215611cd757600080fd5b5051919050565b600082821015611cf057611cf0611c5a565b500390565b6000816000190483118215151615611d0f57611d0f611c5a565b500290565b60008219821115611d2757611d27611c5a565b500190565b634e487b7160e01b600052601260045260246000fd5b600082611d5157611d51611d2c565b500690565b600082611d6557611d65611d2c565b500490565b60005b83811015611d85578181015183820152602001611d6d565b838111156115b45750506000910152565b7f416363657373436f6e74726f6c3a206163636f756e7420000000000000000000815260008351611dce816017850160208801611d6a565b7001034b99036b4b9b9b4b733903937b6329607d1b6017918401918201528351611dff816028840160208801611d6a565b01602801949350505050565b6020815260008251806020840152611e2a816040850160208701611d6a565b601f01601f19169190910160400192915050565b6020808252602b908201527f496e697469616c697a61626c653a20636f6e7472616374206973206e6f74206960408201526a6e697469616c697a696e6760a81b606082015260800190565b634e487b7160e01b600052604160045260246000fd5b600081611eae57611eae611c5a565b50600019019056fea2646970667358221220ac9d9e54469902ef6cec4d74dba977cca9456df3db56097760ce8bc473408f5b64736f6c634300080a0033",
  "immutableReferences": {},
  "source": "// SPDX-License-Identifier: MIT\r\npragma solidity 0.8.10;\r\n\r\nimport \"@openzeppelin/contracts-upgradeable/proxy/utils/Initializable.sol\";\r\nimport \"@openzeppelin/contracts-upgradeable/security/ReentrancyGuardUpgradeable.sol\";\r\nimport \"@openzeppelin/contracts-upgradeable/utils/ContextUpgradeable.sol\";\r\nimport \"@openzeppelin/contracts-upgradeable/access/AccessControlUpgradeable.sol\";\r\n\r\nimport \"./interfaces/IGnomes.sol\";\r\nimport \"./interfaces/IMine.sol\";\r\nimport \"./interfaces/IRandom.sol\";\r\nimport \"./interfaces/ICharacter.sol\";\r\nimport \"./interfaces/IToken.sol\";\r\n\r\n\r\ncontract Mines is Initializable, ContextUpgradeable, ReentrancyGuardUpgradeable, AccessControlUpgradeable, IMine {\r\n\r\n    bytes32 public constant CONTRACT_ROLE = keccak256(\"CONTRACT_ROLE\");\r\n\r\n    IToken private  _tokenContract;\r\n    IGnomes private _gnomesContract;\r\n    IRandom private _randomContract;\r\n    ICharacter private _characterContract;\r\n    structMine[] private _mines;\r\n    uint32 private _productionMulti;\r\n    uint private _lastMineId;\r\n    // mineId => slot\r\n    mapping(uint32 => mapping(uint32 => structSlot))  private _mineSlots;\r\n    // account =>  collectionId => mineId\r\n    mapping(address => mapping(uint8 => uint32)) private _playersInMines;\r\n    // account => collectionId => timestamp\r\n    mapping(address => mapping(uint8 => structInjuredCollection)) private _injuredCollections;\r\n\r\n    event Mine(address indexed account, uint8 collectionId, uint timstamp);\r\n\r\n    function initialize(address tokenContract, address randomContract, address characterContract, address admin) public initializer {\r\n        __ReentrancyGuard_init();\r\n        __AccessControl_init();\r\n        _grantRole(DEFAULT_ADMIN_ROLE, admin);\r\n        _grantRole(DEFAULT_ADMIN_ROLE, _msgSender());\r\n\r\n        setTokenContractAddress(tokenContract);\r\n        setRandomContractAddress(randomContract);\r\n        setCharacterContractAddress(characterContract);\r\n\r\n\r\n    }\r\n\r\n    function mine(uint8 collectionId, uint32 mineId, uint32 slot) external nonReentrant {\r\n        require(_mines[mineId].exists, 'mine does not exists');\r\n        require(slot <= _mines[mineId].maxSlots && slot > 0, 'slot does not exists');\r\n        require(_injuredCollections[_msgSender()][collectionId].startTime >= 1 hours, \"the collection is injured\");\r\n        uint attackerCollectionPower = _gnomesContract.getPlayerCollectionsPower(_msgSender(), collectionId);\r\n        require(attackerCollectionPower > _mines[mineId].minPower, 'to weak');\r\n        require(attackerCollectionPower <= _mines[mineId].maxPower || _mines[mineId].maxPower == 0, 'to strong');\r\n\r\n        //if no one in the slot then just give it to the player\r\n        if (_mineSlots[mineId][slot].account == address(0)) {\r\n            _removePlayerFormMine(_msgSender(), collectionId, mineId, slot);\r\n            _addPlayerToMine(_msgSender(), collectionId, mineId, slot);\r\n            return;\r\n        }\r\n\r\n        //fight for the slot\r\n        structSlot memory defenderSlot = _mineSlots[mineId][slot];\r\n\r\n        uint defenderCollectionPower = _gnomesContract.getPlayerCollectionsPower(defenderSlot.account, defenderSlot.collectionId);\r\n        if (defenderCollectionPower > attackerCollectionPower) {\r\n            defenderCollectionPower = (defenderCollectionPower - attackerCollectionPower) * _mines[mineId].powerMulti + defenderCollectionPower;\r\n        } else if (defenderCollectionPower < attackerCollectionPower) {\r\n            attackerCollectionPower = (attackerCollectionPower - defenderCollectionPower) * _mines[mineId].powerMulti + attackerCollectionPower;\r\n        }\r\n        uint defenderRandomNumber = _randomContract.getRandomNumber();\r\n        uint attackerRandomNumber = _randomContract.getRandomNumber();\r\n\r\n        uint defenderPower = _characterContract.getAccountPower(defenderSlot.account) + defenderCollectionPower;\r\n        uint attackerPower = _characterContract.getAccountPower(_msgSender()) + attackerCollectionPower;\r\n\r\n        if ((attackerRandomNumber % attackerPower) > (defenderRandomNumber % defenderPower)) {\r\n            //send the tokens to the previous player\r\n            _injuredCollections[defenderSlot.account][defenderSlot.collectionId] = structInjuredCollection({\r\n            startTime : block.timestamp,\r\n            power : defenderPower\r\n            });\r\n            _playersInMines[_mineSlots[mineId][slot].account][collectionId] = 0;\r\n            _addPlayerToMine(_msgSender(), collectionId, mineId, slot);\r\n            _mintTokensFromMine(defenderSlot.account, defenderSlot.startTime, uint(_mines[mineId].productionRate));\r\n\r\n        }\r\n    }\r\n\r\n    function heal(uint8 collectionId) external {\r\n        uint cost = getHealingCost(_msgSender(), collectionId);\r\n        require(cost > 0, \"no need for heal\");\r\n        require(cost <= _tokenContract.balanceOf(_msgSender()), 'not enough tokens');\r\n        _tokenContract.burn(_msgSender(), cost);\r\n        _injuredCollections[_msgSender()][collectionId].startTime = 0;\r\n        _injuredCollections[_msgSender()][collectionId].power = 0;\r\n\r\n    }\r\n\r\n    function getHealingCost(address account, uint8 collectionId) public view returns (uint) {\r\n        uint injuredTime = _injuredCollections[account][collectionId].startTime;\r\n        if (block.timestamp - injuredTime >= 1 hours) {\r\n            return 0;\r\n        }\r\n        return _injuredCollections[account][collectionId].power * (10000 - (block.timestamp - injuredTime) * 10000 / 1 hours) / 10000;\r\n\r\n    }\r\n\r\n    function _mintTokensFromMine(address account, uint startTime, uint productionRate) private {\r\n        uint amountToMint = (block.timestamp - startTime) * productionRate * _productionMulti;\r\n        if (amountToMint > 0) {\r\n            _tokenContract.mint(account, amountToMint);\r\n        }\r\n    }\r\n\r\n    function _addPlayerToMine(address account, uint8 collectionId, uint32 mineId, uint32 slot) private {\r\n        _mineSlots[mineId][slot] = structSlot({\r\n        account : account,\r\n        collectionId : collectionId,\r\n        startTime : block.timestamp\r\n        });\r\n        _playersInMines[account][collectionId] = mineId;\r\n        emit Mine(_msgSender(), collectionId, block.timestamp);\r\n    }\r\n\r\n    function _removePlayerFormMine(address account, uint8 collectionId, uint32 mineId, uint32 slot) private {\r\n        if (_mineSlots[mineId][slot].account == account) {\r\n            _mineSlots[mineId][slot] = structSlot({\r\n            account : address(0),\r\n            collectionId : 0,\r\n            startTime : 0\r\n            });\r\n        }\r\n        _playersInMines[account][collectionId] = 0;\r\n    }\r\n\r\n    function claim(uint32 mineId, uint32 slot) external nonReentrant {\r\n\r\n        _claim(_msgSender(), mineId, slot);\r\n    }\r\n\r\n    function _claim(address account, uint32 mineId, uint32 slot) private {\r\n        if (_mineSlots[mineId][slot].account != account) {\r\n            return;\r\n        }\r\n        structSlot memory claimerSlot = _mineSlots[mineId][slot];\r\n        _removePlayerFormMine(claimerSlot.account, claimerSlot.collectionId, mineId, slot);\r\n        _mintTokensFromMine(claimerSlot.account, claimerSlot.startTime, _mines[mineId].productionRate);\r\n\r\n    }\r\n    //todo add permissions\r\n\r\n    function claimByAccount(address account, uint8 collectionId) external nonReentrant onlyRole(CONTRACT_ROLE) {\r\n        uint32 mineId = _playersInMines[account][collectionId];\r\n        if (mineId == 0) {\r\n            return;\r\n        }\r\n        uint32 maxSlots = _mines[mineId].maxSlots;\r\n        uint32 slot;\r\n        for (uint32 i = 1; i <= maxSlots; i++) {\r\n            if (_mineSlots[mineId][i].account == account) {\r\n                slot = i;\r\n                break;\r\n            }\r\n        }\r\n        if (slot == 0) {\r\n            return;\r\n        }\r\n        _claim(account, collectionId, slot);\r\n    }\r\n\r\n\r\n\r\n    //********************************* management functions *************************************//\r\n\r\n\r\n    function setGnomesContractAddress(address gnomesContract) public onlyRole(DEFAULT_ADMIN_ROLE) {\r\n        _gnomesContract = IGnomes(gnomesContract);\r\n    }\r\n\r\n    function setTokenContractAddress(address tokenContract) public onlyRole(DEFAULT_ADMIN_ROLE) {\r\n        _tokenContract = IToken(tokenContract);\r\n    }\r\n\r\n    function setRandomContractAddress(address randomContract) public onlyRole(DEFAULT_ADMIN_ROLE) {\r\n        _randomContract = IRandom(randomContract);\r\n    }\r\n\r\n    function setCharacterContractAddress(address characterContract) public onlyRole(DEFAULT_ADMIN_ROLE) {\r\n        _characterContract = ICharacter(characterContract);\r\n\r\n    }\r\n\r\n    //todo build all mines\r\n    function _buildMines() public nonReentrant onlyRole(DEFAULT_ADMIN_ROLE) {\r\n        _lastMineId++;\r\n        _mines.push(structMine({\r\n        id : uint32(_lastMineId),\r\n        powerMulti : 0,\r\n        minPower : 1,\r\n        maxPower : 1,\r\n        productionRate : 1,\r\n        maxSlots : 20,\r\n        exists : true\r\n        }));\r\n    }\r\n\r\n\r\n}\r\n",
  "sourcePath": "C:\\Users\\amit\\PhpstormProjects\\myminiminers-contracts-upgradable\\contracts\\Mines.sol",
  "compiler": {
    "name": "solc",
    "version": "0.8.10+commit.fc410830.Emscripten.clang"
  },
  "schemaVersion": "3.4.3",
  "updatedAt": "2022-03-29T12:43:41.766Z",
  "networkType": "ethereum",
  "devdoc": {
    "kind": "dev",
    "methods": {
      "getRoleAdmin(bytes32)": {
        "details": "Returns the admin role that controls `role`. See {grantRole} and {revokeRole}. To change a role's admin, use {_setRoleAdmin}."
      },
      "grantRole(bytes32,address)": {
        "details": "Grants `role` to `account`. If `account` had not been already granted `role`, emits a {RoleGranted} event. Requirements: - the caller must have ``role``'s admin role."
      },
      "hasRole(bytes32,address)": {
        "details": "Returns `true` if `account` has been granted `role`."
      },
      "renounceRole(bytes32,address)": {
        "details": "Revokes `role` from the calling account. Roles are often managed via {grantRole} and {revokeRole}: this function's purpose is to provide a mechanism for accounts to lose their privileges if they are compromised (such as when a trusted device is misplaced). If the calling account had been revoked `role`, emits a {RoleRevoked} event. Requirements: - the caller must be `account`."
      },
      "revokeRole(bytes32,address)": {
        "details": "Revokes `role` from `account`. If `account` had been granted `role`, emits a {RoleRevoked} event. Requirements: - the caller must have ``role``'s admin role."
      },
      "supportsInterface(bytes4)": {
        "details": "See {IERC165-supportsInterface}."
      }
    },
    "version": 1
  },
  "userdoc": {
    "kind": "user",
    "methods": {},
    "version": 1
  }
}