{
  "contractName": "MyMiniMiners",
  "abi": [
    {
      "inputs": [
        {
          "internalType": "address",
          "name": "feesAccount",
          "type": "address"
        },
        {
          "internalType": "address",
          "name": "adminAccount",
          "type": "address"
        },
        {
          "internalType": "address",
          "name": "randomContract",
          "type": "address"
        },
        {
          "internalType": "address",
          "name": "gnomesTemplatesContract",
          "type": "address"
        }
      ],
      "stateMutability": "payable",
      "type": "constructor",
      "payable": true
    },
    {
      "anonymous": false,
      "inputs": [
        {
          "indexed": true,
          "internalType": "address",
          "name": "owner",
          "type": "address"
        },
        {
          "indexed": true,
          "internalType": "address",
          "name": "approved",
          "type": "address"
        },
        {
          "indexed": true,
          "internalType": "uint256",
          "name": "tokenId",
          "type": "uint256"
        }
      ],
      "name": "Approval",
      "type": "event"
    },
    {
      "anonymous": false,
      "inputs": [
        {
          "indexed": true,
          "internalType": "address",
          "name": "owner",
          "type": "address"
        },
        {
          "indexed": true,
          "internalType": "address",
          "name": "operator",
          "type": "address"
        },
        {
          "indexed": false,
          "internalType": "bool",
          "name": "approved",
          "type": "bool"
        }
      ],
      "name": "ApprovalForAll",
      "type": "event"
    },
    {
      "anonymous": false,
      "inputs": [
        {
          "indexed": true,
          "internalType": "address",
          "name": "player",
          "type": "address"
        },
        {
          "indexed": false,
          "internalType": "uint256",
          "name": "collection",
          "type": "uint256"
        },
        {
          "indexed": true,
          "internalType": "uint256",
          "name": "oldTokenId",
          "type": "uint256"
        },
        {
          "indexed": true,
          "internalType": "uint256",
          "name": "newTokenId",
          "type": "uint256"
        }
      ],
      "name": "CollectionChange",
      "type": "event"
    },
    {
      "anonymous": false,
      "inputs": [
        {
          "indexed": true,
          "internalType": "address",
          "name": "oldAccount",
          "type": "address"
        },
        {
          "indexed": true,
          "internalType": "address",
          "name": "newAccount",
          "type": "address"
        }
      ],
      "name": "FeesAccountChanged",
      "type": "event"
    },
    {
      "anonymous": false,
      "inputs": [
        {
          "indexed": true,
          "internalType": "address",
          "name": "player",
          "type": "address"
        },
        {
          "indexed": true,
          "internalType": "uint256",
          "name": "tokenId",
          "type": "uint256"
        },
        {
          "indexed": false,
          "internalType": "uint256",
          "name": "collection",
          "type": "uint256"
        },
        {
          "indexed": false,
          "internalType": "uint8",
          "name": "gnomeId",
          "type": "uint8"
        },
        {
          "indexed": false,
          "internalType": "uint8",
          "name": "level",
          "type": "uint8"
        },
        {
          "indexed": false,
          "internalType": "uint8",
          "name": "rarity",
          "type": "uint8"
        },
        {
          "indexed": false,
          "internalType": "uint256",
          "name": "power",
          "type": "uint256"
        }
      ],
      "name": "Mint",
      "type": "event"
    },
    {
      "anonymous": false,
      "inputs": [
        {
          "indexed": true,
          "internalType": "address",
          "name": "previousOwner",
          "type": "address"
        },
        {
          "indexed": true,
          "internalType": "address",
          "name": "newOwner",
          "type": "address"
        }
      ],
      "name": "OwnershipTransferred",
      "type": "event"
    },
    {
      "anonymous": false,
      "inputs": [
        {
          "indexed": true,
          "internalType": "address",
          "name": "account",
          "type": "address"
        },
        {
          "indexed": false,
          "internalType": "uint256",
          "name": "collection",
          "type": "uint256"
        },
        {
          "indexed": false,
          "internalType": "uint256",
          "name": "collectionPower",
          "type": "uint256"
        },
        {
          "indexed": false,
          "internalType": "uint256",
          "name": "playerPower",
          "type": "uint256"
        }
      ],
      "name": "PowerChange",
      "type": "event"
    },
    {
      "anonymous": false,
      "inputs": [
        {
          "indexed": true,
          "internalType": "address",
          "name": "from",
          "type": "address"
        },
        {
          "indexed": true,
          "internalType": "address",
          "name": "to",
          "type": "address"
        },
        {
          "indexed": true,
          "internalType": "uint256",
          "name": "tokenId",
          "type": "uint256"
        }
      ],
      "name": "Transfer",
      "type": "event"
    },
    {
      "anonymous": false,
      "inputs": [
        {
          "indexed": true,
          "internalType": "address",
          "name": "oldAccount",
          "type": "address"
        },
        {
          "indexed": true,
          "internalType": "address",
          "name": "newAccount",
          "type": "address"
        }
      ],
      "name": "adminAccountChanged",
      "type": "event"
    },
    {
      "inputs": [],
      "name": "adminAccount",
      "outputs": [
        {
          "internalType": "address",
          "name": "",
          "type": "address"
        }
      ],
      "stateMutability": "view",
      "type": "function",
      "constant": true
    },
    {
      "inputs": [
        {
          "internalType": "address",
          "name": "to",
          "type": "address"
        },
        {
          "internalType": "uint256",
          "name": "tokenId",
          "type": "uint256"
        }
      ],
      "name": "approve",
      "outputs": [],
      "stateMutability": "nonpayable",
      "type": "function"
    },
    {
      "inputs": [
        {
          "internalType": "address",
          "name": "owner",
          "type": "address"
        }
      ],
      "name": "balanceOf",
      "outputs": [
        {
          "internalType": "uint256",
          "name": "",
          "type": "uint256"
        }
      ],
      "stateMutability": "view",
      "type": "function",
      "constant": true
    },
    {
      "inputs": [],
      "name": "feesAccount",
      "outputs": [
        {
          "internalType": "address",
          "name": "",
          "type": "address"
        }
      ],
      "stateMutability": "view",
      "type": "function",
      "constant": true
    },
    {
      "inputs": [
        {
          "internalType": "uint256",
          "name": "tokenId",
          "type": "uint256"
        }
      ],
      "name": "getApproved",
      "outputs": [
        {
          "internalType": "address",
          "name": "",
          "type": "address"
        }
      ],
      "stateMutability": "view",
      "type": "function",
      "constant": true
    },
    {
      "inputs": [
        {
          "internalType": "address",
          "name": "owner",
          "type": "address"
        },
        {
          "internalType": "address",
          "name": "operator",
          "type": "address"
        }
      ],
      "name": "isApprovedForAll",
      "outputs": [
        {
          "internalType": "bool",
          "name": "",
          "type": "bool"
        }
      ],
      "stateMutability": "view",
      "type": "function",
      "constant": true
    },
    {
      "inputs": [],
      "name": "name",
      "outputs": [
        {
          "internalType": "string",
          "name": "",
          "type": "string"
        }
      ],
      "stateMutability": "view",
      "type": "function",
      "constant": true
    },
    {
      "inputs": [],
      "name": "owner",
      "outputs": [
        {
          "internalType": "address",
          "name": "",
          "type": "address"
        }
      ],
      "stateMutability": "view",
      "type": "function",
      "constant": true
    },
    {
      "inputs": [
        {
          "internalType": "uint256",
          "name": "tokenId",
          "type": "uint256"
        }
      ],
      "name": "ownerOf",
      "outputs": [
        {
          "internalType": "address",
          "name": "",
          "type": "address"
        }
      ],
      "stateMutability": "view",
      "type": "function",
      "constant": true
    },
    {
      "inputs": [],
      "name": "renounceOwnership",
      "outputs": [],
      "stateMutability": "nonpayable",
      "type": "function"
    },
    {
      "inputs": [
        {
          "internalType": "address",
          "name": "from",
          "type": "address"
        },
        {
          "internalType": "address",
          "name": "to",
          "type": "address"
        },
        {
          "internalType": "uint256",
          "name": "tokenId",
          "type": "uint256"
        }
      ],
      "name": "safeTransferFrom",
      "outputs": [],
      "stateMutability": "nonpayable",
      "type": "function"
    },
    {
      "inputs": [
        {
          "internalType": "address",
          "name": "from",
          "type": "address"
        },
        {
          "internalType": "address",
          "name": "to",
          "type": "address"
        },
        {
          "internalType": "uint256",
          "name": "tokenId",
          "type": "uint256"
        },
        {
          "internalType": "bytes",
          "name": "_data",
          "type": "bytes"
        }
      ],
      "name": "safeTransferFrom",
      "outputs": [],
      "stateMutability": "nonpayable",
      "type": "function"
    },
    {
      "inputs": [
        {
          "internalType": "address",
          "name": "newAccount",
          "type": "address"
        }
      ],
      "name": "setAdminAccount",
      "outputs": [],
      "stateMutability": "nonpayable",
      "type": "function"
    },
    {
      "inputs": [
        {
          "internalType": "address",
          "name": "operator",
          "type": "address"
        },
        {
          "internalType": "bool",
          "name": "approved",
          "type": "bool"
        }
      ],
      "name": "setApprovalForAll",
      "outputs": [],
      "stateMutability": "nonpayable",
      "type": "function"
    },
    {
      "inputs": [
        {
          "internalType": "address",
          "name": "newAccount",
          "type": "address"
        }
      ],
      "name": "setFeesAccount",
      "outputs": [],
      "stateMutability": "nonpayable",
      "type": "function"
    },
    {
      "inputs": [
        {
          "internalType": "bytes4",
          "name": "interfaceId",
          "type": "bytes4"
        }
      ],
      "name": "supportsInterface",
      "outputs": [
        {
          "internalType": "bool",
          "name": "",
          "type": "bool"
        }
      ],
      "stateMutability": "view",
      "type": "function",
      "constant": true
    },
    {
      "inputs": [],
      "name": "symbol",
      "outputs": [
        {
          "internalType": "string",
          "name": "",
          "type": "string"
        }
      ],
      "stateMutability": "view",
      "type": "function",
      "constant": true
    },
    {
      "inputs": [
        {
          "internalType": "uint256",
          "name": "tokenId",
          "type": "uint256"
        }
      ],
      "name": "tokenURI",
      "outputs": [
        {
          "internalType": "string",
          "name": "",
          "type": "string"
        }
      ],
      "stateMutability": "view",
      "type": "function",
      "constant": true
    },
    {
      "inputs": [
        {
          "internalType": "address",
          "name": "from",
          "type": "address"
        },
        {
          "internalType": "address",
          "name": "to",
          "type": "address"
        },
        {
          "internalType": "uint256",
          "name": "tokenId",
          "type": "uint256"
        }
      ],
      "name": "transferFrom",
      "outputs": [],
      "stateMutability": "nonpayable",
      "type": "function"
    },
    {
      "inputs": [
        {
          "internalType": "address",
          "name": "newOwner",
          "type": "address"
        }
      ],
      "name": "transferOwnership",
      "outputs": [],
      "stateMutability": "nonpayable",
      "type": "function"
    },
    {
      "stateMutability": "payable",
      "type": "receive",
      "payable": true
    },
    {
      "inputs": [
        {
          "internalType": "uint8",
          "name": "amountToBuy",
          "type": "uint8"
        }
      ],
      "name": "buyGnome",
      "outputs": [],
      "stateMutability": "payable",
      "type": "function",
      "payable": true
    },
    {
      "inputs": [
        {
          "internalType": "uint256",
          "name": "tokenId1",
          "type": "uint256"
        },
        {
          "internalType": "uint256",
          "name": "tokenId2",
          "type": "uint256"
        }
      ],
      "name": "mergeGnomes",
      "outputs": [],
      "stateMutability": "nonpayable",
      "type": "function"
    },
    {
      "inputs": [
        {
          "internalType": "uint256",
          "name": "tokenId",
          "type": "uint256"
        }
      ],
      "name": "addGnomeToCollection",
      "outputs": [],
      "stateMutability": "nonpayable",
      "type": "function"
    },
    {
      "inputs": [
        {
          "internalType": "address",
          "name": "player",
          "type": "address"
        }
      ],
      "name": "getPlayerPower",
      "outputs": [
        {
          "internalType": "uint256",
          "name": "",
          "type": "uint256"
        }
      ],
      "stateMutability": "view",
      "type": "function",
      "constant": true
    },
    {
      "inputs": [
        {
          "internalType": "uint256",
          "name": "tokenId",
          "type": "uint256"
        }
      ],
      "name": "getGnome",
      "outputs": [
        {
          "internalType": "uint8",
          "name": "",
          "type": "uint8"
        },
        {
          "internalType": "uint8",
          "name": "",
          "type": "uint8"
        },
        {
          "internalType": "uint8",
          "name": "",
          "type": "uint8"
        },
        {
          "internalType": "uint256",
          "name": "",
          "type": "uint256"
        },
        {
          "internalType": "uint256",
          "name": "",
          "type": "uint256"
        },
        {
          "internalType": "uint256",
          "name": "",
          "type": "uint256"
        },
        {
          "internalType": "bool",
          "name": "",
          "type": "bool"
        }
      ],
      "stateMutability": "view",
      "type": "function",
      "constant": true
    },
    {
      "inputs": [],
      "name": "getTotalPower",
      "outputs": [
        {
          "internalType": "uint256",
          "name": "",
          "type": "uint256"
        }
      ],
      "stateMutability": "view",
      "type": "function",
      "constant": true
    },
    {
      "inputs": [],
      "name": "totalSupply",
      "outputs": [
        {
          "internalType": "uint256",
          "name": "supply",
          "type": "uint256"
        }
      ],
      "stateMutability": "view",
      "type": "function",
      "constant": true
    },
    {
      "inputs": [
        {
          "internalType": "uint256",
          "name": "price",
          "type": "uint256"
        }
      ],
      "name": "setGnomePrice",
      "outputs": [],
      "stateMutability": "nonpayable",
      "type": "function"
    },
    {
      "inputs": [
        {
          "internalType": "uint256",
          "name": "blocks",
          "type": "uint256"
        }
      ],
      "name": "setNumberOfBlocksToWaitBetweenTransfer",
      "outputs": [],
      "stateMutability": "nonpayable",
      "type": "function"
    },
    {
      "inputs": [
        {
          "internalType": "string",
          "name": "uri",
          "type": "string"
        }
      ],
      "name": "setBaseUri",
      "outputs": [],
      "stateMutability": "nonpayable",
      "type": "function"
    },
    {
      "inputs": [
        {
          "internalType": "address",
          "name": "randomContract",
          "type": "address"
        }
      ],
      "name": "setRandomContractAddress",
      "outputs": [],
      "stateMutability": "nonpayable",
      "type": "function"
    },
    {
      "inputs": [
        {
          "internalType": "address",
          "name": "rewardsContract",
          "type": "address"
        }
      ],
      "name": "setRewardsContractAddress",
      "outputs": [],
      "stateMutability": "nonpayable",
      "type": "function"
    },
    {
      "inputs": [
        {
          "internalType": "address",
          "name": "gnomesTemplatesContract",
          "type": "address"
        }
      ],
      "name": "setGnomesTemplateContractAddress",
      "outputs": [],
      "stateMutability": "nonpayable",
      "type": "function"
    }
  ],
  "bytecode": "0x6080604052670de0b6b3a7640000600a55611388600b5560405180608001604052806201900062ffffff1681526020016201900062ffffff1681526020016201900562ffffff1681526020016201900062ffffff16815250600c90600462000069929190620007d3565b5061afc8601155604051620068aa380380620068aa833981810160405281019062000095919062000943565b6040518060400160405280600e81526020017f4d79204d696e69204d696e6572730000000000000000000000000000000000008152506040518060400160405280600481526020017f4d594d4d000000000000000000000000000000000000000000000000000000008152508160009080519060200190620001199291906200087c565b508060019080519060200190620001329291906200087c565b5050506200015562000149620001c960201b60201c565b620001d160201b60201c565b60016009819055506200016e846200029760201b60201c565b6200017f836200045160201b60201c565b6200019081620005a360201b60201c565b620001a182620006a660201b60201c565b6014600181600181540180825580915050039060005260206000209050505050505062000a6d565b600033905090565b6000600660009054906101000a900473ffffffffffffffffffffffffffffffffffffffff16905081600660006101000a81548173ffffffffffffffffffffffffffffffffffffffff021916908373ffffffffffffffffffffffffffffffffffffffff1602179055508173ffffffffffffffffffffffffffffffffffffffff168173ffffffffffffffffffffffffffffffffffffffff167f8be0079c531659141344cd1fd0a4f28419497f9722a3daafe3b4186f6b6457e060405160405180910390a35050565b620002a7620001c960201b60201c565b73ffffffffffffffffffffffffffffffffffffffff16600860009054906101000a900473ffffffffffffffffffffffffffffffffffffffff1673ffffffffffffffffffffffffffffffffffffffff1614806200034c57506200030e620007a960201b60201c565b73ffffffffffffffffffffffffffffffffffffffff1662000334620001c960201b60201c565b73ffffffffffffffffffffffffffffffffffffffff16145b6200035657600080fd5b600073ffffffffffffffffffffffffffffffffffffffff168173ffffffffffffffffffffffffffffffffffffffff1614156200039157600080fd5b8073ffffffffffffffffffffffffffffffffffffffff16600760009054906101000a900473ffffffffffffffffffffffffffffffffffffffff1673ffffffffffffffffffffffffffffffffffffffff167f686292a774da47913df940e499f775044c8f0306ee4e4ca2462d73570abac92b60405160405180910390a380600760006101000a81548173ffffffffffffffffffffffffffffffffffffffff021916908373ffffffffffffffffffffffffffffffffffffffff16021790555050565b62000461620001c960201b60201c565b73ffffffffffffffffffffffffffffffffffffffff1662000487620007a960201b60201c565b73ffffffffffffffffffffffffffffffffffffffff1614620004a857600080fd5b600073ffffffffffffffffffffffffffffffffffffffff168173ffffffffffffffffffffffffffffffffffffffff161415620004e357600080fd5b8073ffffffffffffffffffffffffffffffffffffffff16600760009054906101000a900473ffffffffffffffffffffffffffffffffffffffff1673ffffffffffffffffffffffffffffffffffffffff167f6c653cea66fc767872566a48443cddce6845518f298111992df854d4425f13f060405160405180910390a380600860006101000a81548173ffffffffffffffffffffffffffffffffffffffff021916908373ffffffffffffffffffffffffffffffffffffffff16021790555050565b620005b3620001c960201b60201c565b73ffffffffffffffffffffffffffffffffffffffff16600860009054906101000a900473ffffffffffffffffffffffffffffffffffffffff1673ffffffffffffffffffffffffffffffffffffffff1614806200065857506200061a620007a960201b60201c565b73ffffffffffffffffffffffffffffffffffffffff1662000640620001c960201b60201c565b73ffffffffffffffffffffffffffffffffffffffff16145b6200066257600080fd5b80601660006101000a81548173ffffffffffffffffffffffffffffffffffffffff021916908373ffffffffffffffffffffffffffffffffffffffff16021790555050565b620006b6620001c960201b60201c565b73ffffffffffffffffffffffffffffffffffffffff16600860009054906101000a900473ffffffffffffffffffffffffffffffffffffffff1673ffffffffffffffffffffffffffffffffffffffff1614806200075b57506200071d620007a960201b60201c565b73ffffffffffffffffffffffffffffffffffffffff1662000743620001c960201b60201c565b73ffffffffffffffffffffffffffffffffffffffff16145b6200076557600080fd5b80601560006101000a81548173ffffffffffffffffffffffffffffffffffffffff021916908373ffffffffffffffffffffffffffffffffffffffff16021790555050565b6000600660009054906101000a900473ffffffffffffffffffffffffffffffffffffffff16905090565b826004600701600890048101928215620008695791602002820160005b838211156200083557835183826101000a81548163ffffffff021916908362ffffff1602179055509260200192600401602081600301049283019260010302620007f0565b8015620008675782816101000a81549063ffffffff021916905560040160208160030104928301926001030262000835565b505b5090506200087891906200090d565b5090565b8280546200088a90620009e9565b90600052602060002090601f016020900481019282620008ae5760008555620008fa565b82601f10620008c957805160ff1916838001178555620008fa565b82800160010185558215620008fa579182015b82811115620008f9578251825591602001919060010190620008dc565b5b5090506200090991906200090d565b5090565b5b80821115620009285760008160009055506001016200090e565b5090565b6000815190506200093d8162000a53565b92915050565b6000806000806080858703121562000960576200095f62000a4e565b5b600062000970878288016200092c565b945050602062000983878288016200092c565b935050604062000996878288016200092c565b9250506060620009a9878288016200092c565b91505092959194509250565b6000620009c282620009c9565b9050919050565b600073ffffffffffffffffffffffffffffffffffffffff82169050919050565b6000600282049050600182168062000a0257607f821691505b6020821081141562000a195762000a1862000a1f565b5b50919050565b7f4e487b7100000000000000000000000000000000000000000000000000000000600052602260045260246000fd5b600080fd5b62000a5e81620009b5565b811462000a6a57600080fd5b50565b615e2d8062000a7d6000396000f3fe6080604052600436106101f25760003560e01c80638da5cb5b1161010d578063b88d4fde116100a0578063d7050b051161006f578063d7050b0514610764578063ddb00dfc1461078d578063e8ef9f22146107b6578063e985e9c5146107df578063f2fde38b1461081c57610262565b8063b88d4fde146106aa578063bc7bb2e6146106d3578063c26e9118146106fc578063c87b56dd1461072757610262565b8063a0bcfc7f116100dc578063a0bcfc7f14610613578063a0c657351461063c578063a22cb46514610658578063b6bf43051461068157610262565b80638da5cb5b1461056b57806395d89b411461059657806395fa1d1c146105c157806399c8bfb5146105ea57610262565b806342842e0e1161018557806370a082311161015457806370a08231146104b1578063715018a6146104ee578063783b59b9146105055780637e92c8721461054257610262565b806342842e0e146103f757806353976a2614610420578063625e9b5a1461044b5780636352211e1461047457610262565b806318160ddd116101c157806318160ddd14610335578063235a65441461036057806323b872dd1461038b5780633934d5ec146103b457610262565b806301ffc9a71461026757806306fdde03146102a4578063081812fc146102cf578063095ea7b31461030c57610262565b3661026257601360009054906101000a900473ffffffffffffffffffffffffffffffffffffffff1673ffffffffffffffffffffffffffffffffffffffff166108fc349081150290604051600060405180830381858888f1935050505015801561025f573d6000803e3d6000fd5b50005b600080fd5b34801561027357600080fd5b5061028e600480360381019061028991906147fb565b610845565b60405161029b9190614e2f565b60405180910390f35b3480156102b057600080fd5b506102b9610927565b6040516102c69190614e4a565b60405180910390f35b3480156102db57600080fd5b506102f660048036038101906102f191906148cf565b6109b9565b6040516103039190614dc8565b60405180910390f35b34801561031857600080fd5b50610333600480360381019061032e9190614772565b610a3e565b005b34801561034157600080fd5b5061034a610b56565b604051610357919061512c565b60405180910390f35b34801561036c57600080fd5b50610375610bc3565b6040516103829190614dc8565b60405180910390f35b34801561039757600080fd5b506103b260048036038101906103ad919061465c565b610bed565b005b3480156103c057600080fd5b506103db60048036038101906103d691906148cf565b610c4d565b6040516103ee979695949392919061523e565b60405180910390f35b34801561040357600080fd5b5061041e6004803603810190610419919061465c565b610deb565b005b34801561042c57600080fd5b50610435610e0b565b604051610442919061512c565b60405180910390f35b34801561045757600080fd5b50610472600480360381019061046d9190614929565b610e15565b005b34801561048057600080fd5b5061049b600480360381019061049691906148cf565b611336565b6040516104a89190614dc8565b60405180910390f35b3480156104bd57600080fd5b506104d860048036038101906104d391906145ef565b6113e8565b6040516104e5919061512c565b60405180910390f35b3480156104fa57600080fd5b506105036114a0565b005b34801561051157600080fd5b5061052c600480360381019061052791906145ef565b6114f2565b604051610539919061512c565b60405180910390f35b34801561054e57600080fd5b50610569600480360381019061056491906145ef565b61153b565b005b34801561057757600080fd5b50610580611624565b60405161058d9190614dc8565b60405180910390f35b3480156105a257600080fd5b506105ab61164e565b6040516105b89190614e4a565b60405180910390f35b3480156105cd57600080fd5b506105e860048036038101906105e391906148cf565b6116e0565b005b3480156105f657600080fd5b50610611600480360381019061060c91906148cf565b611a7b565b005b34801561061f57600080fd5b5061063a60048036038101906106359190614855565b611b38565b005b61065660048036038101906106519190614996565b611bf3565b005b34801561066457600080fd5b5061067f600480360381019061067a9190614732565b611fc3565b005b34801561068d57600080fd5b506106a860048036038101906106a391906148cf565b612144565b005b3480156106b657600080fd5b506106d160048036038101906106cc91906146af565b61223d565b005b3480156106df57600080fd5b506106fa60048036038101906106f591906145ef565b61229f565b005b34801561070857600080fd5b50610711612388565b60405161071e9190614dc8565b60405180910390f35b34801561073357600080fd5b5061074e600480360381019061074991906148cf565b6123b2565b60405161075b9190614e4a565b60405180910390f35b34801561077057600080fd5b5061078b600480360381019061078691906145ef565b612459565b005b34801561079957600080fd5b506107b460048036038101906107af91906145ef565b612542565b005b3480156107c257600080fd5b506107dd60048036038101906107d891906145ef565b6126e1565b005b3480156107eb57600080fd5b506108066004803603810190610801919061461c565b612821565b6040516108139190614e2f565b60405180910390f35b34801561082857600080fd5b50610843600480360381019061083e91906145ef565b6128b5565b005b60007f80ac58cd000000000000000000000000000000000000000000000000000000007bffffffffffffffffffffffffffffffffffffffffffffffffffffffff1916827bffffffffffffffffffffffffffffffffffffffffffffffffffffffff1916148061091057507f5b5e139f000000000000000000000000000000000000000000000000000000007bffffffffffffffffffffffffffffffffffffffffffffffffffffffff1916827bffffffffffffffffffffffffffffffffffffffffffffffffffffffff1916145b80610920575061091f82612941565b5b9050919050565b6060600080546109369061561f565b80601f01602080910402602001604051908101604052809291908181526020018280546109629061561f565b80156109af5780601f10610984576101008083540402835291602001916109af565b820191906000526020600020905b81548152906001019060200180831161099257829003601f168201915b5050505050905090565b60006109c4826129ab565b610a03576040517f08c379a00000000000000000000000000000000000000000000000000000000081526004016109fa90614fec565b60405180910390fd5b6004600083815260200190815260200160002060009054906101000a900473ffffffffffffffffffffffffffffffffffffffff169050919050565b6000610a4982611336565b90508073ffffffffffffffffffffffffffffffffffffffff168373ffffffffffffffffffffffffffffffffffffffff161415610aba576040517f08c379a0000000000000000000000000000000000000000000000000000000008152600401610ab19061506c565b60405180910390fd5b8073ffffffffffffffffffffffffffffffffffffffff16610ad9612a17565b73ffffffffffffffffffffffffffffffffffffffff161480610b085750610b0781610b02612a17565b612821565b5b610b47576040517f08c379a0000000000000000000000000000000000000000000000000000000008152600401610b3e90614f6c565b60405180910390fd5b610b518383612a1f565b505050565b6000805b60048160ff161015610bbf57600c8160ff1660048110610b7d57610b7c6157b3565b5b600891828204019190066004029054906101000a900463ffffffff1663ffffffff1682610baa9190615372565b91508080610bb7906156cb565b915050610b5a565b5090565b6000600760009054906101000a900473ffffffffffffffffffffffffffffffffffffffff16905090565b610bfe610bf8612a17565b82612ad8565b610c3d576040517f08c379a0000000000000000000000000000000000000000000000000000000008152600401610c349061508c565b60405180910390fd5b610c48838383612bb6565b505050565b600080600080600080600060148881548110610c6c57610c6b6157b3565b5b906000526020600020906008020160070160009054906101000a900460ff16610c9457600080fd5b60148881548110610ca857610ca76157b3565b5b906000526020600020906008020160000160009054906101000a900460ff1660148981548110610cdb57610cda6157b3565b5b906000526020600020906008020160020160009054906101000a900460ff1660148a81548110610d0e57610d0d6157b3565b5b906000526020600020906008020160040160009054906101000a900460ff1660148b81548110610d4157610d406157b3565b5b90600052602060002090600802016005015460148c81548110610d6757610d666157b3565b5b90600052602060002090600802016006015460148d81548110610d8d57610d8c6157b3565b5b90600052602060002090600802016003015460148e81548110610db357610db26157b3565b5b906000526020600020906008020160070160009054906101000a900460ff169650965096509650965096509650919395979092949650565b610e068383836040518060200160405280600081525061223d565b505050565b6000601054905090565b60026009541415610e2557600080fd5b6002600981905550610e3682611336565b73ffffffffffffffffffffffffffffffffffffffff16610e54612a17565b73ffffffffffffffffffffffffffffffffffffffff16148015610eb15750610e7b81611336565b73ffffffffffffffffffffffffffffffffffffffff16610e99612a17565b73ffffffffffffffffffffffffffffffffffffffff16145b610ef0576040517f08c379a0000000000000000000000000000000000000000000000000000000008152600401610ee79061510c565b60405180910390fd5b60148281548110610f0457610f036157b3565b5b906000526020600020906008020160070160009054906101000a900460ff168015610f5e575060148181548110610f3e57610f3d6157b3565b5b906000526020600020906008020160070160009054906101000a900460ff165b610f9d576040517f08c379a0000000000000000000000000000000000000000000000000000000008152600401610f94906150ec565b60405180910390fd5b60148181548110610fb157610fb06157b3565b5b906000526020600020906008020160000160009054906101000a900460ff1660ff1660148381548110610fe757610fe66157b3565b5b906000526020600020906008020160000160009054906101000a900460ff1660ff1614611049576040517f08c379a000000000000000000000000000000000000000000000000000000000815260040161104090614ecc565b60405180910390fd5b6014818154811061105d5761105c6157b3565b5b906000526020600020906008020160020160009054906101000a900460ff1660ff1660148381548110611093576110926157b3565b5b906000526020600020906008020160020160009054906101000a900460ff1660ff16146110f5576040517f08c379a00000000000000000000000000000000000000000000000000000000081526004016110ec90614e6c565b60405180910390fd5b600a6014838154811061110b5761110a6157b3565b5b906000526020600020906008020160020160009054906101000a900460ff1660ff161061116d576040517f08c379a0000000000000000000000000000000000000000000000000000000008152600401611164906150cc565b60405180910390fd5b6000600160148481548110611185576111846157b3565b5b906000526020600020906008020160020160009054906101000a900460ff166111ae9190615402565b90506111b983612c0d565b6111c282612c0d565b611329601484815481106111d9576111d86157b3565b5b906000526020600020906008020160000160009054906101000a900460ff16826014868154811061120d5761120c6157b3565b5b906000526020600020906008020160040160009054906101000a900460ff16601487815481106112405761123f6157b3565b5b906000526020600020906008020160050154601660009054906101000a900473ffffffffffffffffffffffffffffffffffffffff1673ffffffffffffffffffffffffffffffffffffffff1663c5da00d060148a815481106112a4576112a36157b3565b5b906000526020600020906008020160060154886040518363ffffffff1660e01b81526004016112d49291906151a7565b60206040518083038186803b1580156112ec57600080fd5b505afa158015611300573d6000803e3d6000fd5b505050506040513d601f19601f8201168201806040525081019061132491906148fc565b612c57565b5060016009819055505050565b6000806002600084815260200190815260200160002060009054906101000a900473ffffffffffffffffffffffffffffffffffffffff169050600073ffffffffffffffffffffffffffffffffffffffff168173ffffffffffffffffffffffffffffffffffffffff1614156113df576040517f08c379a00000000000000000000000000000000000000000000000000000000081526004016113d690614fac565b60405180910390fd5b80915050919050565b60008073ffffffffffffffffffffffffffffffffffffffff168273ffffffffffffffffffffffffffffffffffffffff161415611459576040517f08c379a000000000000000000000000000000000000000000000000000000000815260040161145090614f8c565b60405180910390fd5b600360008373ffffffffffffffffffffffffffffffffffffffff1673ffffffffffffffffffffffffffffffffffffffff168152602001908152602001600020549050919050565b6114a8612a17565b73ffffffffffffffffffffffffffffffffffffffff166114c6611624565b73ffffffffffffffffffffffffffffffffffffffff16146114e657600080fd5b6114f06000612ec6565b565b6000600f60008373ffffffffffffffffffffffffffffffffffffffff1673ffffffffffffffffffffffffffffffffffffffff168152602001908152602001600020549050919050565b611543612a17565b73ffffffffffffffffffffffffffffffffffffffff16600860009054906101000a900473ffffffffffffffffffffffffffffffffffffffff1673ffffffffffffffffffffffffffffffffffffffff1614806115d757506115a1611624565b73ffffffffffffffffffffffffffffffffffffffff166115bf612a17565b73ffffffffffffffffffffffffffffffffffffffff16145b6115e057600080fd5b80601360006101000a81548173ffffffffffffffffffffffffffffffffffffffff021916908373ffffffffffffffffffffffffffffffffffffffff16021790555050565b6000600660009054906101000a900473ffffffffffffffffffffffffffffffffffffffff16905090565b60606001805461165d9061561f565b80601f01602080910402602001604051908101604052809291908181526020018280546116899061561f565b80156116d65780601f106116ab576101008083540402835291602001916116d6565b820191906000526020600020905b8154815290600101906020018083116116b957829003601f168201915b5050505050905090565b6116e8612a17565b73ffffffffffffffffffffffffffffffffffffffff1661170782611336565b73ffffffffffffffffffffffffffffffffffffffff161461175d576040517f08c379a00000000000000000000000000000000000000000000000000000000081526004016117549061510c565b60405180910390fd5b60148181548110611771576117706157b3565b5b906000526020600020906008020160070160009054906101000a900460ff166117cf576040517f08c379a00000000000000000000000000000000000000000000000000000000081526004016117c6906150ec565b60405180910390fd5b43601482815481106117e4576117e36157b3565b5b9060005260206000209060080201600301541115611837576040517f08c379a000000000000000000000000000000000000000000000000000000000815260040161182e90614f2c565b60405180910390fd5b6000600d6000611845612a17565b73ffffffffffffffffffffffffffffffffffffffff1673ffffffffffffffffffffffffffffffffffffffff168152602001908152602001600020600060148481548110611895576118946157b3565b5b90600052602060002090600802016005015481526020019081526020016000206000601484815481106118cb576118ca6157b3565b5b906000526020600020906008020160000160009054906101000a900460ff1660ff16815260200190815260200160002054905081600d600061190b612a17565b73ffffffffffffffffffffffffffffffffffffffff1673ffffffffffffffffffffffffffffffffffffffff16815260200190815260200160002060006014858154811061195b5761195a6157b3565b5b9060005260206000209060080201600501548152602001908152602001600020600060148581548110611991576119906157b3565b5b906000526020600020906008020160000160009054906101000a900460ff1660ff168152602001908152602001600020819055506119fb601483815481106119dc576119db6157b3565b5b9060005260206000209060080201600501546119f6612a17565b612f8c565b8181611a05612a17565b73ffffffffffffffffffffffffffffffffffffffff167f3927bc05ceffc80c149d391bc00bc00297128b93758e7b604f353c35b436964460148681548110611a5057611a4f6157b3565b5b906000526020600020906008020160050154604051611a6f919061512c565b60405180910390a45050565b611a83612a17565b73ffffffffffffffffffffffffffffffffffffffff16600860009054906101000a900473ffffffffffffffffffffffffffffffffffffffff1673ffffffffffffffffffffffffffffffffffffffff161480611b175750611ae1611624565b73ffffffffffffffffffffffffffffffffffffffff16611aff612a17565b73ffffffffffffffffffffffffffffffffffffffff16145b611b2057600080fd5b6107088111611b2e57600080fd5b8060118190555050565b611b40612a17565b73ffffffffffffffffffffffffffffffffffffffff16600860009054906101000a900473ffffffffffffffffffffffffffffffffffffffff1673ffffffffffffffffffffffffffffffffffffffff161480611bd45750611b9e611624565b73ffffffffffffffffffffffffffffffffffffffff16611bbc612a17565b73ffffffffffffffffffffffffffffffffffffffff16145b611bdd57600080fd5b818160129190611bee92919061428a565b505050565b60026009541415611c0357600080fd5b60026009819055508060ff16600a54611c1c919061546a565b341015611c5e576040517f08c379a0000000000000000000000000000000000000000000000000000000008152600401611c55906150ac565b60405180910390fd5b6000611c68610b56565b90508160ff16811015611cb0576040517f08c379a0000000000000000000000000000000000000000000000000000000008152600401611ca79061504c565b60405180910390fd5b6000612710600b5434611cc3919061546a565b611ccd9190615439565b9050611cd7610bc3565b73ffffffffffffffffffffffffffffffffffffffff166108fc829081150290604051600060405180830381858888f19350505050158015611d1c573d6000803e3d6000fd5b50601360009054906101000a900473ffffffffffffffffffffffffffffffffffffffff1673ffffffffffffffffffffffffffffffffffffffff166108fc8234611d6591906154c4565b9081150290604051600060405180830381858888f19350505050158015611d90573d6000803e3d6000fd5b5060005b8360ff168160ff161015611fb5576000601560009054906101000a900473ffffffffffffffffffffffffffffffffffffffff1673ffffffffffffffffffffffffffffffffffffffff1663dbdff2c16040518163ffffffff1660e01b8152600401602060405180830381600087803b158015611e0e57600080fd5b505af1158015611e22573d6000803e3d6000fd5b505050506040513d601f19601f82011682018060405250810190611e4691906148fc565b905060008482611e5691906156f5565b90506000611e63826134a8565b60ff169050600c8160048110611e7c57611e7b6157b3565b5b6008918282040191900660040281819054906101000a900463ffffffff1680929190611ea7906155cb565b91906101000a81548163ffffffff021916908363ffffffff16021790555050611ecf81613568565b6000601660009054906101000a900473ffffffffffffffffffffffffffffffffffffffff1673ffffffffffffffffffffffffffffffffffffffff1663d457027b83866040518363ffffffff1660e01b8152600401611f2e929190615147565b60a06040518083038186803b158015611f4657600080fd5b505afa158015611f5a573d6000803e3d6000fd5b505050506040513d601f19601f82011682018060405250810190611f7e91906148a2565b9050611f9e81600001516001836020015184604001518560600151612c57565b505050508080611fad906156cb565b915050611d94565b505050600160098190555050565b611fcb612a17565b73ffffffffffffffffffffffffffffffffffffffff168273ffffffffffffffffffffffffffffffffffffffff161415612039576040517f08c379a000000000000000000000000000000000000000000000000000000000815260040161203090614f0c565b60405180910390fd5b8060056000612046612a17565b73ffffffffffffffffffffffffffffffffffffffff1673ffffffffffffffffffffffffffffffffffffffff16815260200190815260200160002060008473ffffffffffffffffffffffffffffffffffffffff1673ffffffffffffffffffffffffffffffffffffffff16815260200190815260200160002060006101000a81548160ff0219169083151502179055508173ffffffffffffffffffffffffffffffffffffffff166120f3612a17565b73ffffffffffffffffffffffffffffffffffffffff167f17307eab39ab6107e8899845ad3d59bd9653f200f220920489ca2b5937696c31836040516121389190614e2f565b60405180910390a35050565b61214c612a17565b73ffffffffffffffffffffffffffffffffffffffff16600860009054906101000a900473ffffffffffffffffffffffffffffffffffffffff1673ffffffffffffffffffffffffffffffffffffffff1614806121e057506121aa611624565b73ffffffffffffffffffffffffffffffffffffffff166121c8612a17565b73ffffffffffffffffffffffffffffffffffffffff16145b6121e957600080fd5b6706f05b59d3b200008111612233576040517f08c379a000000000000000000000000000000000000000000000000000000000815260040161222a906150ac565b60405180910390fd5b80600a8190555050565b61224e612248612a17565b83612ad8565b61228d576040517f08c379a00000000000000000000000000000000000000000000000000000000081526004016122849061508c565b60405180910390fd5b612299848484846136a3565b50505050565b6122a7612a17565b73ffffffffffffffffffffffffffffffffffffffff16600860009054906101000a900473ffffffffffffffffffffffffffffffffffffffff1673ffffffffffffffffffffffffffffffffffffffff16148061233b5750612305611624565b73ffffffffffffffffffffffffffffffffffffffff16612323612a17565b73ffffffffffffffffffffffffffffffffffffffff16145b61234457600080fd5b80601660006101000a81548173ffffffffffffffffffffffffffffffffffffffff021916908373ffffffffffffffffffffffffffffffffffffffff16021790555050565b6000600860009054906101000a900473ffffffffffffffffffffffffffffffffffffffff16905090565b60606123bd826129ab565b6123fc576040517f08c379a00000000000000000000000000000000000000000000000000000000081526004016123f39061502c565b60405180910390fd5b60006124066136ff565b905060008151116124265760405180602001604052806000815250612451565b8061243084613791565b604051602001612441929190614da4565b6040516020818303038152906040525b915050919050565b612461612a17565b73ffffffffffffffffffffffffffffffffffffffff16600860009054906101000a900473ffffffffffffffffffffffffffffffffffffffff1673ffffffffffffffffffffffffffffffffffffffff1614806124f557506124bf611624565b73ffffffffffffffffffffffffffffffffffffffff166124dd612a17565b73ffffffffffffffffffffffffffffffffffffffff16145b6124fe57600080fd5b80601560006101000a81548173ffffffffffffffffffffffffffffffffffffffff021916908373ffffffffffffffffffffffffffffffffffffffff16021790555050565b61254a612a17565b73ffffffffffffffffffffffffffffffffffffffff16600860009054906101000a900473ffffffffffffffffffffffffffffffffffffffff1673ffffffffffffffffffffffffffffffffffffffff1614806125de57506125a8611624565b73ffffffffffffffffffffffffffffffffffffffff166125c6612a17565b73ffffffffffffffffffffffffffffffffffffffff16145b6125e757600080fd5b600073ffffffffffffffffffffffffffffffffffffffff168173ffffffffffffffffffffffffffffffffffffffff16141561262157600080fd5b8073ffffffffffffffffffffffffffffffffffffffff16600760009054906101000a900473ffffffffffffffffffffffffffffffffffffffff1673ffffffffffffffffffffffffffffffffffffffff167f686292a774da47913df940e499f775044c8f0306ee4e4ca2462d73570abac92b60405160405180910390a380600760006101000a81548173ffffffffffffffffffffffffffffffffffffffff021916908373ffffffffffffffffffffffffffffffffffffffff16021790555050565b6126e9612a17565b73ffffffffffffffffffffffffffffffffffffffff16612707611624565b73ffffffffffffffffffffffffffffffffffffffff161461272757600080fd5b600073ffffffffffffffffffffffffffffffffffffffff168173ffffffffffffffffffffffffffffffffffffffff16141561276157600080fd5b8073ffffffffffffffffffffffffffffffffffffffff16600760009054906101000a900473ffffffffffffffffffffffffffffffffffffffff1673ffffffffffffffffffffffffffffffffffffffff167f6c653cea66fc767872566a48443cddce6845518f298111992df854d4425f13f060405160405180910390a380600860006101000a81548173ffffffffffffffffffffffffffffffffffffffff021916908373ffffffffffffffffffffffffffffffffffffffff16021790555050565b6000600560008473ffffffffffffffffffffffffffffffffffffffff1673ffffffffffffffffffffffffffffffffffffffff16815260200190815260200160002060008373ffffffffffffffffffffffffffffffffffffffff1673ffffffffffffffffffffffffffffffffffffffff16815260200190815260200160002060009054906101000a900460ff16905092915050565b6128bd612a17565b73ffffffffffffffffffffffffffffffffffffffff166128db611624565b73ffffffffffffffffffffffffffffffffffffffff16146128fb57600080fd5b600073ffffffffffffffffffffffffffffffffffffffff168173ffffffffffffffffffffffffffffffffffffffff16141561293557600080fd5b61293e81612ec6565b50565b60007f01ffc9a7000000000000000000000000000000000000000000000000000000007bffffffffffffffffffffffffffffffffffffffffffffffffffffffff1916827bffffffffffffffffffffffffffffffffffffffffffffffffffffffff1916149050919050565b60008073ffffffffffffffffffffffffffffffffffffffff166002600084815260200190815260200160002060009054906101000a900473ffffffffffffffffffffffffffffffffffffffff1673ffffffffffffffffffffffffffffffffffffffff1614159050919050565b600033905090565b816004600083815260200190815260200160002060006101000a81548173ffffffffffffffffffffffffffffffffffffffff021916908373ffffffffffffffffffffffffffffffffffffffff160217905550808273ffffffffffffffffffffffffffffffffffffffff16612a9283611336565b73ffffffffffffffffffffffffffffffffffffffff167f8c5be1e5ebec7d5bd14f71427d1e84f3dd0314c0f7b2291e5b200ac8c7c3b92560405160405180910390a45050565b6000612ae3826129ab565b612b22576040517f08c379a0000000000000000000000000000000000000000000000000000000008152600401612b1990614f4c565b60405180910390fd5b6000612b2d83611336565b90508073ffffffffffffffffffffffffffffffffffffffff168473ffffffffffffffffffffffffffffffffffffffff161480612b9c57508373ffffffffffffffffffffffffffffffffffffffff16612b84846109b9565b73ffffffffffffffffffffffffffffffffffffffff16145b80612bad5750612bac8185612821565b5b91505092915050565b612bc081846138f2565b612bcb838383613b27565b600060148281548110612be157612be06157b3565b5b9060005260206000209060080201905060115443612bff9190615372565b816003018190555050505050565b612c1681613d83565b600060148281548110612c2c57612c2b6157b3565b5b906000526020600020906008020160070160006101000a81548160ff02191690831515021790555050565b60006014805490509050612c72612c6c612a17565b82613e94565b60006040518061010001604052808860ff1681526020018381526020018760ff168152602001600081526020018660ff168152602001858152602001848152602001600115158152509050601481908060018154018082558091505060019003906000526020600020906008020160009091909190915060008201518160000160006101000a81548160ff021916908360ff1602179055506020820151816001015560408201518160020160006101000a81548160ff021916908360ff1602179055506060820151816003015560808201518160040160006101000a81548160ff021916908360ff16021790555060a0820151816005015560c0820151816006015560e08201518160070160006101000a81548160ff02191690831515021790555050508560ff166014600d6000612da8612a17565b73ffffffffffffffffffffffffffffffffffffffff1673ffffffffffffffffffffffffffffffffffffffff168152602001908152602001600020600087815260200190815260200160002060008a60ff1681526020019081526020016000205481548110612e1957612e186157b3565b5b906000526020600020906008020160020160009054906101000a900460ff1660ff161015612e4b57612e4a826116e0565b5b81612e54612a17565b73ffffffffffffffffffffffffffffffffffffffff167fdab5404dc57e13ee9bfdd66bbae089e371a7fede6fcbd0350bf5ece4f3b8ad798360a001518460000151856040015186608001518760c00151604051612eb59594939291906151d0565b60405180910390a350505050505050565b6000600660009054906101000a900473ffffffffffffffffffffffffffffffffffffffff16905081600660006101000a81548173ffffffffffffffffffffffffffffffffffffffff021916908373ffffffffffffffffffffffffffffffffffffffff1602179055508173ffffffffffffffffffffffffffffffffffffffff168173ffffffffffffffffffffffffffffffffffffffff167f8be0079c531659141344cd1fd0a4f28419497f9722a3daafe3b4186f6b6457e060405160405180910390a35050565b6000601660009054906101000a900473ffffffffffffffffffffffffffffffffffffffff1673ffffffffffffffffffffffffffffffffffffffff1663e547cb85846040518263ffffffff1660e01b8152600401612fe9919061512c565b60006040518083038186803b15801561300157600080fd5b505afa158015613015573d6000803e3d6000fd5b505050506040513d6000823e3d601f19601f8201168201806040525081019061303e91906147b2565b90506000815190506000806000805b848160ff1610156131e0576000600d60008973ffffffffffffffffffffffffffffffffffffffff1673ffffffffffffffffffffffffffffffffffffffff16815260200190815260200160002060008a81526020019081526020016000206000888460ff16815181106130c2576130c16157b3565b5b60200260200101518152602001908152602001600020549050601481815481106130ef576130ee6157b3565b5b906000526020600020906008020160070160009054906101000a900460ff16156131cc5760148181548110613127576131266157b3565b5b906000526020600020906008020160060154846131449190615372565b93506001836131539190615402565b925060148181548110613169576131686157b3565b5b906000526020600020906008020160020160009054906101000a900460ff1660ff168560ff1610156131cb57601481815481106131a9576131a86157b3565b5b906000526020600020906008020160020160009054906101000a900460ff1694505b5b5080806131d8906156cb565b91505061304d565b508060ff168414156132ab57601660009054906101000a900473ffffffffffffffffffffffffffffffffffffffff1673ffffffffffffffffffffffffffffffffffffffff16631efb0a75846040518263ffffffff1660e01b81526004016132479190615223565b60206040518083038186803b15801561325f57600080fd5b505afa158015613273573d6000803e3d6000fd5b505050506040513d601f19601f820116820180604052508101906132979190614969565b63ffffffff16826132a8919061546a565b91505b6000600e60008873ffffffffffffffffffffffffffffffffffffffff1673ffffffffffffffffffffffffffffffffffffffff168152602001908152602001600020600089815260200190815260200160002054905082600e60008973ffffffffffffffffffffffffffffffffffffffff1673ffffffffffffffffffffffffffffffffffffffff16815260200190815260200160002060008a8152602001908152602001600020819055508281600f60008a73ffffffffffffffffffffffffffffffffffffffff1673ffffffffffffffffffffffffffffffffffffffff168152602001908152602001600020546133a191906154c4565b6133ab9190615372565b600f60008973ffffffffffffffffffffffffffffffffffffffff1673ffffffffffffffffffffffffffffffffffffffff1681526020019081526020016000208190555082816010546133fd91906154c4565b6134079190615372565b6010819055508673ffffffffffffffffffffffffffffffffffffffff167f607cde3b1bf58b4b03bb55bc168666d2ba1e13b8d02869fede74efb08d66af418985600f60008c73ffffffffffffffffffffffffffffffffffffffff1673ffffffffffffffffffffffffffffffffffffffff1681526020019081526020016000205460405161349693929190615170565b60405180910390a25050505050505050565b6000806000600390505b60008160ff161061352757600c8160ff16600481106134d4576134d36157b3565b5b600891828204019190066004029054906101000a900463ffffffff1663ffffffff16826135019190615372565b9150838210613514578092505050613563565b808061351f906155f5565b9150506134b2565b506040517f08c379a000000000000000000000000000000000000000000000000000000000815260040161355a9061504c565b60405180910390fd5b919050565b60008114156135d0576004600c600160048110613588576135876157b3565b5b600891828204019190066004028282829054906101000a900463ffffffff166135b191906153c8565b92506101000a81548163ffffffff021916908363ffffffff1602179055505b6001811415613638576006600c6002600481106135f0576135ef6157b3565b5b600891828204019190066004028282829054906101000a900463ffffffff1661361991906153c8565b92506101000a81548163ffffffff021916908363ffffffff1602179055505b60028114156136a0576002600c600360048110613658576136576157b3565b5b600891828204019190066004028282829054906101000a900463ffffffff1661368191906153c8565b92506101000a81548163ffffffff021916908363ffffffff1602179055505b50565b6136ae848484612bb6565b6136ba84848484613eb2565b6136f9576040517f08c379a00000000000000000000000000000000000000000000000000000000081526004016136f090614e8c565b60405180910390fd5b50505050565b60606012805461370e9061561f565b80601f016020809104026020016040519081016040528092919081815260200182805461373a9061561f565b80156137875780601f1061375c57610100808354040283529160200191613787565b820191906000526020600020905b81548152906001019060200180831161376a57829003601f168201915b5050505050905090565b606060008214156137d9576040518060400160405280600181526020017f300000000000000000000000000000000000000000000000000000000000000081525090506138ed565b600082905060005b6000821461380b5780806137f490615682565b915050600a826138049190615439565b91506137e1565b60008167ffffffffffffffff811115613827576138266157e2565b5b6040519080825280601f01601f1916602001820160405280156138595781602001600182028036833780820191505090505b5090505b600085146138e65760018261387291906154c4565b9150600a8561388191906156f5565b603061388d9190615372565b60f81b8183815181106138a3576138a26157b3565b5b60200101907effffffffffffffffffffffffffffffffffffffffffffffffffffffffffffff1916908160001a905350600a856138df9190615439565b945061385d565b8093505050505b919050565b81600d60008373ffffffffffffffffffffffffffffffffffffffff1673ffffffffffffffffffffffffffffffffffffffff168152602001908152602001600020600060148581548110613948576139476157b3565b5b906000526020600020906008020160050154815260200190815260200160002060006014858154811061397e5761397d6157b3565b5b906000526020600020906008020160000160009054906101000a900460ff1660ff168152602001908152602001600020541415613b23576000600d60008373ffffffffffffffffffffffffffffffffffffffff1673ffffffffffffffffffffffffffffffffffffffff168152602001908152602001600020600060148581548110613a0c57613a0b6157b3565b5b9060005260206000209060080201600501548152602001908152602001600020600060148581548110613a4257613a416157b3565b5b906000526020600020906008020160000160009054906101000a900460ff1660ff16815260200190815260200160002081905550613aa560148381548110613a8d57613a8c6157b3565b5b90600052602060002090600802016005015482612f8c565b600082613ab0612a17565b73ffffffffffffffffffffffffffffffffffffffff167f3927bc05ceffc80c149d391bc00bc00297128b93758e7b604f353c35b436964460148681548110613afb57613afa6157b3565b5b906000526020600020906008020160050154604051613b1a919061512c565b60405180910390a45b5050565b8273ffffffffffffffffffffffffffffffffffffffff16613b4782611336565b73ffffffffffffffffffffffffffffffffffffffff1614613b9d576040517f08c379a0000000000000000000000000000000000000000000000000000000008152600401613b949061500c565b60405180910390fd5b600073ffffffffffffffffffffffffffffffffffffffff168273ffffffffffffffffffffffffffffffffffffffff161415613c0d576040517f08c379a0000000000000000000000000000000000000000000000000000000008152600401613c0490614eec565b60405180910390fd5b613c18838383614049565b613c23600082612a1f565b6001600360008573ffffffffffffffffffffffffffffffffffffffff1673ffffffffffffffffffffffffffffffffffffffff1681526020019081526020016000206000828254613c7391906154c4565b925050819055506001600360008473ffffffffffffffffffffffffffffffffffffffff1673ffffffffffffffffffffffffffffffffffffffff1681526020019081526020016000206000828254613cca9190615372565b92505081905550816002600083815260200190815260200160002060006101000a81548173ffffffffffffffffffffffffffffffffffffffff021916908373ffffffffffffffffffffffffffffffffffffffff160217905550808273ffffffffffffffffffffffffffffffffffffffff168473ffffffffffffffffffffffffffffffffffffffff167fddf252ad1be2c89b69c2b068fc378daa952ba7f163c4a11628f55a4df523b3ef60405160405180910390a4505050565b6000613d8e82611336565b9050613d9c81600084614049565b613da7600083612a1f565b6001600360008373ffffffffffffffffffffffffffffffffffffffff1673ffffffffffffffffffffffffffffffffffffffff1681526020019081526020016000206000828254613df791906154c4565b925050819055506002600083815260200190815260200160002060006101000a81549073ffffffffffffffffffffffffffffffffffffffff021916905581600073ffffffffffffffffffffffffffffffffffffffff168273ffffffffffffffffffffffffffffffffffffffff167fddf252ad1be2c89b69c2b068fc378daa952ba7f163c4a11628f55a4df523b3ef60405160405180910390a45050565b613eae82826040518060200160405280600081525061404e565b5050565b6000613ed38473ffffffffffffffffffffffffffffffffffffffff166140a9565b1561403c578373ffffffffffffffffffffffffffffffffffffffff1663150b7a02613efc612a17565b8786866040518563ffffffff1660e01b8152600401613f1e9493929190614de3565b602060405180830381600087803b158015613f3857600080fd5b505af1925050508015613f6957506040513d601f19601f82011682018060405250810190613f669190614828565b60015b613fec573d8060008114613f99576040519150601f19603f3d011682016040523d82523d6000602084013e613f9e565b606091505b50600081511415613fe4576040517f08c379a0000000000000000000000000000000000000000000000000000000008152600401613fdb90614e8c565b60405180910390fd5b805181602001fd5b63150b7a0260e01b7bffffffffffffffffffffffffffffffffffffffffffffffffffffffff1916817bffffffffffffffffffffffffffffffffffffffffffffffffffffffff191614915050614041565b600190505b949350505050565b505050565b61405883836140bc565b6140656000848484613eb2565b6140a4576040517f08c379a000000000000000000000000000000000000000000000000000000000815260040161409b90614e8c565b60405180910390fd5b505050565b600080823b905060008111915050919050565b600073ffffffffffffffffffffffffffffffffffffffff168273ffffffffffffffffffffffffffffffffffffffff16141561412c576040517f08c379a000000000000000000000000000000000000000000000000000000000815260040161412390614fcc565b60405180910390fd5b614135816129ab565b15614175576040517f08c379a000000000000000000000000000000000000000000000000000000000815260040161416c90614eac565b60405180910390fd5b61418160008383614049565b6001600360008473ffffffffffffffffffffffffffffffffffffffff1673ffffffffffffffffffffffffffffffffffffffff16815260200190815260200160002060008282546141d19190615372565b92505081905550816002600083815260200190815260200160002060006101000a81548173ffffffffffffffffffffffffffffffffffffffff021916908373ffffffffffffffffffffffffffffffffffffffff160217905550808273ffffffffffffffffffffffffffffffffffffffff16600073ffffffffffffffffffffffffffffffffffffffff167fddf252ad1be2c89b69c2b068fc378daa952ba7f163c4a11628f55a4df523b3ef60405160405180910390a45050565b8280546142969061561f565b90600052602060002090601f0160209004810192826142b857600085556142ff565b82601f106142d157803560ff19168380011785556142ff565b828001600101855582156142ff579182015b828111156142fe5782358255916020019190600101906142e3565b5b50905061430c9190614310565b5090565b5b80821115614329576000816000905550600101614311565b5090565b600061434061433b846152d2565b6152ad565b9050808382526020820190508285602086028201111561436357614362615820565b5b60005b858110156143935781614379888261459b565b845260208401935060208301925050600181019050614366565b5050509392505050565b60006143b06143ab846152fe565b6152ad565b9050828152602081018484840111156143cc576143cb615825565b5b6143d7848285615589565b509392505050565b6000813590506143ee81615d6d565b92915050565b600082601f83011261440957614408615816565b5b815161441984826020860161432d565b91505092915050565b60008135905061443181615d84565b92915050565b60008151905061444681615d84565b92915050565b60008135905061445b81615d9b565b92915050565b60008151905061447081615d9b565b92915050565b600082601f83011261448b5761448a615816565b5b813561449b84826020860161439d565b91505092915050565b60008083601f8401126144ba576144b9615816565b5b8235905067ffffffffffffffff8111156144d7576144d6615811565b5b6020830191508360018202830111156144f3576144f2615820565b5b9250929050565b600060a082840312156145105761450f61581b565b5b61451a60a06152ad565b9050600061452a848285016145da565b600083015250602061453e848285016145da565b60208301525060406145528482850161459b565b60408301525060606145668482850161459b565b606083015250608061457a84828501614437565b60808301525092915050565b60008135905061459581615db2565b92915050565b6000815190506145aa81615db2565b92915050565b6000815190506145bf81615dc9565b92915050565b6000813590506145d481615de0565b92915050565b6000815190506145e981615de0565b92915050565b6000602082840312156146055761460461582f565b5b6000614613848285016143df565b91505092915050565b600080604083850312156146335761463261582f565b5b6000614641858286016143df565b9250506020614652858286016143df565b9150509250929050565b6000806000606084860312156146755761467461582f565b5b6000614683868287016143df565b9350506020614694868287016143df565b92505060406146a586828701614586565b9150509250925092565b600080600080608085870312156146c9576146c861582f565b5b60006146d7878288016143df565b94505060206146e8878288016143df565b93505060406146f987828801614586565b925050606085013567ffffffffffffffff81111561471a5761471961582a565b5b61472687828801614476565b91505092959194509250565b600080604083850312156147495761474861582f565b5b6000614757858286016143df565b925050602061476885828601614422565b9150509250929050565b600080604083850312156147895761478861582f565b5b6000614797858286016143df565b92505060206147a885828601614586565b9150509250929050565b6000602082840312156147c8576147c761582f565b5b600082015167ffffffffffffffff8111156147e6576147e561582a565b5b6147f2848285016143f4565b91505092915050565b6000602082840312156148115761481061582f565b5b600061481f8482850161444c565b91505092915050565b60006020828403121561483e5761483d61582f565b5b600061484c84828501614461565b91505092915050565b6000806020838503121561486c5761486b61582f565b5b600083013567ffffffffffffffff81111561488a5761488961582a565b5b614896858286016144a4565b92509250509250929050565b600060a082840312156148b8576148b761582f565b5b60006148c6848285016144fa565b91505092915050565b6000602082840312156148e5576148e461582f565b5b60006148f384828501614586565b91505092915050565b6000602082840312156149125761491161582f565b5b60006149208482850161459b565b91505092915050565b600080604083850312156149405761493f61582f565b5b600061494e85828601614586565b925050602061495f85828601614586565b9150509250929050565b60006020828403121561497f5761497e61582f565b5b600061498d848285016145b0565b91505092915050565b6000602082840312156149ac576149ab61582f565b5b60006149ba848285016145c5565b91505092915050565b6149cc816154f8565b82525050565b6149db8161550a565b82525050565b60006149ec8261532f565b6149f68185615345565b9350614a06818560208601615598565b614a0f81615834565b840191505092915050565b6000614a258261533a565b614a2f8185615356565b9350614a3f818560208601615598565b614a4881615834565b840191505092915050565b6000614a5e8261533a565b614a688185615367565b9350614a78818560208601615598565b80840191505092915050565b6000614a91600183615356565b9150614a9c82615845565b602082019050919050565b6000614ab4603283615356565b9150614abf8261586e565b604082019050919050565b6000614ad7601c83615356565b9150614ae2826158bd565b602082019050919050565b6000614afa600183615356565b9150614b05826158e6565b602082019050919050565b6000614b1d602483615356565b9150614b288261590f565b604082019050919050565b6000614b40601983615356565b9150614b4b8261595e565b602082019050919050565b6000614b63600183615356565b9150614b6e82615987565b602082019050919050565b6000614b86602c83615356565b9150614b91826159b0565b604082019050919050565b6000614ba9603883615356565b9150614bb4826159ff565b604082019050919050565b6000614bcc602a83615356565b9150614bd782615a4e565b604082019050919050565b6000614bef602983615356565b9150614bfa82615a9d565b604082019050919050565b6000614c12602083615356565b9150614c1d82615aec565b602082019050919050565b6000614c35602c83615356565b9150614c4082615b15565b604082019050919050565b6000614c58602983615356565b9150614c6382615b64565b604082019050919050565b6000614c7b602f83615356565b9150614c8682615bb3565b604082019050919050565b6000614c9e600183615356565b9150614ca982615c02565b602082019050919050565b6000614cc1602183615356565b9150614ccc82615c2b565b604082019050919050565b6000614ce4603183615356565b9150614cef82615c7a565b604082019050919050565b6000614d07600183615356565b9150614d1282615cc9565b602082019050919050565b6000614d2a600183615356565b9150614d3582615cf2565b602082019050919050565b6000614d4d600183615356565b9150614d5882615d1b565b602082019050919050565b6000614d70600183615356565b9150614d7b82615d44565b602082019050919050565b614d8f81615562565b82525050565b614d9e8161557c565b82525050565b6000614db08285614a53565b9150614dbc8284614a53565b91508190509392505050565b6000602082019050614ddd60008301846149c3565b92915050565b6000608082019050614df860008301876149c3565b614e0560208301866149c3565b614e126040830185614d86565b8181036060830152614e2481846149e1565b905095945050505050565b6000602082019050614e4460008301846149d2565b92915050565b60006020820190508181036000830152614e648184614a1a565b905092915050565b60006020820190508181036000830152614e8581614a84565b9050919050565b60006020820190508181036000830152614ea581614aa7565b9050919050565b60006020820190508181036000830152614ec581614aca565b9050919050565b60006020820190508181036000830152614ee581614aed565b9050919050565b60006020820190508181036000830152614f0581614b10565b9050919050565b60006020820190508181036000830152614f2581614b33565b9050919050565b60006020820190508181036000830152614f4581614b56565b9050919050565b60006020820190508181036000830152614f6581614b79565b9050919050565b60006020820190508181036000830152614f8581614b9c565b9050919050565b60006020820190508181036000830152614fa581614bbf565b9050919050565b60006020820190508181036000830152614fc581614be2565b9050919050565b60006020820190508181036000830152614fe581614c05565b9050919050565b6000602082019050818103600083015261500581614c28565b9050919050565b6000602082019050818103600083015261502581614c4b565b9050919050565b6000602082019050818103600083015261504581614c6e565b9050919050565b6000602082019050818103600083015261506581614c91565b9050919050565b6000602082019050818103600083015261508581614cb4565b9050919050565b600060208201905081810360008301526150a581614cd7565b9050919050565b600060208201905081810360008301526150c581614cfa565b9050919050565b600060208201905081810360008301526150e581614d1d565b9050919050565b6000602082019050818103600083015261510581614d40565b9050919050565b6000602082019050818103600083015261512581614d63565b9050919050565b60006020820190506151416000830184614d86565b92915050565b600060408201905061515c6000830185614d86565b6151696020830184614d86565b9392505050565b60006060820190506151856000830186614d86565b6151926020830185614d86565b61519f6040830184614d86565b949350505050565b60006040820190506151bc6000830185614d86565b6151c96020830184614d95565b9392505050565b600060a0820190506151e56000830188614d86565b6151f26020830187614d95565b6151ff6040830186614d95565b61520c6060830185614d95565b6152196080830184614d86565b9695505050505050565b60006020820190506152386000830184614d95565b92915050565b600060e082019050615253600083018a614d95565b6152606020830189614d95565b61526d6040830188614d95565b61527a6060830187614d86565b6152876080830186614d86565b61529460a0830185614d86565b6152a160c08301846149d2565b98975050505050505050565b60006152b76152c8565b90506152c38282615651565b919050565b6000604051905090565b600067ffffffffffffffff8211156152ed576152ec6157e2565b5b602082029050602081019050919050565b600067ffffffffffffffff821115615319576153186157e2565b5b61532282615834565b9050602081019050919050565b600081519050919050565b600081519050919050565b600082825260208201905092915050565b600082825260208201905092915050565b600081905092915050565b600061537d82615562565b915061538883615562565b9250827fffffffffffffffffffffffffffffffffffffffffffffffffffffffffffffffff038211156153bd576153bc615726565b5b828201905092915050565b60006153d38261556c565b91506153de8361556c565b92508263ffffffff038211156153f7576153f6615726565b5b828201905092915050565b600061540d8261557c565b91506154188361557c565b92508260ff0382111561542e5761542d615726565b5b828201905092915050565b600061544482615562565b915061544f83615562565b92508261545f5761545e615755565b5b828204905092915050565b600061547582615562565b915061548083615562565b9250817fffffffffffffffffffffffffffffffffffffffffffffffffffffffffffffffff04831182151516156154b9576154b8615726565b5b828202905092915050565b60006154cf82615562565b91506154da83615562565b9250828210156154ed576154ec615726565b5b828203905092915050565b600061550382615542565b9050919050565b60008115159050919050565b60007fffffffff0000000000000000000000000000000000000000000000000000000082169050919050565b600073ffffffffffffffffffffffffffffffffffffffff82169050919050565b6000819050919050565b600063ffffffff82169050919050565b600060ff82169050919050565b82818337600083830152505050565b60005b838110156155b657808201518184015260208101905061559b565b838111156155c5576000848401525b50505050565b60006155d68261556c565b915060008214156155ea576155e9615726565b5b600182039050919050565b60006156008261557c565b9150600082141561561457615613615726565b5b600182039050919050565b6000600282049050600182168061563757607f821691505b6020821081141561564b5761564a615784565b5b50919050565b61565a82615834565b810181811067ffffffffffffffff82111715615679576156786157e2565b5b80604052505050565b600061568d82615562565b91507fffffffffffffffffffffffffffffffffffffffffffffffffffffffffffffffff8214156156c0576156bf615726565b5b600182019050919050565b60006156d68261557c565b915060ff8214156156ea576156e9615726565b5b600182019050919050565b600061570082615562565b915061570b83615562565b92508261571b5761571a615755565b5b828206905092915050565b7f4e487b7100000000000000000000000000000000000000000000000000000000600052601160045260246000fd5b7f4e487b7100000000000000000000000000000000000000000000000000000000600052601260045260246000fd5b7f4e487b7100000000000000000000000000000000000000000000000000000000600052602260045260246000fd5b7f4e487b7100000000000000000000000000000000000000000000000000000000600052603260045260246000fd5b7f4e487b7100000000000000000000000000000000000000000000000000000000600052604160045260246000fd5b600080fd5b600080fd5b600080fd5b600080fd5b600080fd5b600080fd5b600080fd5b6000601f19601f8301169050919050565b7f3400000000000000000000000000000000000000000000000000000000000000600082015250565b7f4552433732313a207472616e7366657220746f206e6f6e20455243373231526560008201527f63656976657220696d706c656d656e7465720000000000000000000000000000602082015250565b7f4552433732313a20746f6b656e20616c7265616479206d696e74656400000000600082015250565b7f3300000000000000000000000000000000000000000000000000000000000000600082015250565b7f4552433732313a207472616e7366657220746f20746865207a65726f2061646460008201527f7265737300000000000000000000000000000000000000000000000000000000602082015250565b7f4552433732313a20617070726f766520746f2063616c6c657200000000000000600082015250565b7f3700000000000000000000000000000000000000000000000000000000000000600082015250565b7f4552433732313a206f70657261746f7220717565727920666f72206e6f6e657860008201527f697374656e7420746f6b656e0000000000000000000000000000000000000000602082015250565b7f4552433732313a20617070726f76652063616c6c6572206973206e6f74206f7760008201527f6e6572206e6f7220617070726f76656420666f7220616c6c0000000000000000602082015250565b7f4552433732313a2062616c616e636520717565727920666f7220746865207a6560008201527f726f206164647265737300000000000000000000000000000000000000000000602082015250565b7f4552433732313a206f776e657220717565727920666f72206e6f6e657869737460008201527f656e7420746f6b656e0000000000000000000000000000000000000000000000602082015250565b7f4552433732313a206d696e7420746f20746865207a65726f2061646472657373600082015250565b7f4552433732313a20617070726f76656420717565727920666f72206e6f6e657860008201527f697374656e7420746f6b656e0000000000000000000000000000000000000000602082015250565b7f4552433732313a207472616e73666572206f6620746f6b656e2074686174206960008201527f73206e6f74206f776e0000000000000000000000000000000000000000000000602082015250565b7f4552433732314d657461646174613a2055524920717565727920666f72206e6f60008201527f6e6578697374656e7420746f6b656e0000000000000000000000000000000000602082015250565b7f3200000000000000000000000000000000000000000000000000000000000000600082015250565b7f4552433732313a20617070726f76616c20746f2063757272656e74206f776e6560008201527f7200000000000000000000000000000000000000000000000000000000000000602082015250565b7f4552433732313a207472616e736665722063616c6c6572206973206e6f74206f60008201527f776e6572206e6f7220617070726f766564000000000000000000000000000000602082015250565b7f3100000000000000000000000000000000000000000000000000000000000000600082015250565b7f3500000000000000000000000000000000000000000000000000000000000000600082015250565b7f3600000000000000000000000000000000000000000000000000000000000000600082015250565b7f3800000000000000000000000000000000000000000000000000000000000000600082015250565b615d76816154f8565b8114615d8157600080fd5b50565b615d8d8161550a565b8114615d9857600080fd5b50565b615da481615516565b8114615daf57600080fd5b50565b615dbb81615562565b8114615dc657600080fd5b50565b615dd28161556c565b8114615ddd57600080fd5b50565b615de98161557c565b8114615df457600080fd5b5056fea26469706673582212204ae178a3c7f4624b3fbd887a22048c961ae29b271fcf67b3773575e417c7ce6964736f6c63430008060033",
  "immutableReferences": {},
  "source": "// SPDX-License-Identifier: MIT\r\npragma solidity ^0.8.0;\r\n\r\nimport \"@openzeppelin/contracts/token/ERC721/ERC721.sol\";\r\nimport \"@openzeppelin/contracts/security/ReentrancyGuard.sol\";\r\nimport \"./Security.sol\";\r\nimport \"./SharedStructs.sol\";\r\n\r\n\r\n/*\r\n    Error codes\r\n    1: insufficient amount\r\n    2: insufficient supply\r\n    3: different gnome\r\n    3: different level\r\n    4: max level\r\n    5: amount it to small\r\n    6: gnome does not exists,\r\n    7: gnome cool down\r\n    8: only owner can do this action\r\n */\r\n\r\ninterface IRandom {\r\n    function getRandomNumber() external returns (uint);\r\n}\r\n\r\ninterface IGnomesTemplates is ISharedStructs {\r\n\r\n    function getGnomeTemplateRarityAndRandom(uint rarity, uint randomNumber) external view returns (structGnome memory);\r\n\r\n    function getCollectionPowerMultiple(uint8 level) external pure returns (uint32);\r\n\r\n    function getCollectionById(uint id) external view returns (uint[] memory);\r\n\r\n    function getGnomePowerByLevel(uint power, uint8 level) external view returns (uint);\r\n}\r\n\r\ncontract MyMiniMiners is ERC721, Security, ReentrancyGuard, ISharedStructs {\r\n\r\n\r\n    uint private _gnomePrice = 1 ether;\r\n    uint private _feesAccountCat = 5000; //100=1%;\r\n\r\n\r\n    /*\r\n     [0] =  legendarySupplyLeft\r\n     [1] =  EpicSupplyLeft\r\n     [2] =  rareSupplyLeft\r\n     [3] =  CommonSupplyLeft\r\n    */\r\n\r\n    uint32[4] private _supplyLeft = [102400, 102400, 102405, 102400];\r\n\r\n    /*\r\n        player => collection id => gnome id => token id\r\n    */\r\n    mapping(address => mapping(uint => mapping(uint => uint))) private _playerCollections;\r\n    /*\r\n        player => collection id => collection power\r\n    */\r\n    mapping(address => mapping(uint => uint)) private _playerCollectionsPower;\r\n    /*\r\n        player => power\r\n    */\r\n    mapping(address => uint) private _playerTotalPower;\r\n\r\n    uint private _allPlayersPower;\r\n\r\n    /* avg block time is 2 sec so on avg its will take 25 cool down 1 hour more then the daily claim*/\r\n    uint private _numberOfBlocksToWaitBetweenTransfer = 30 * 60 * 25;\r\n\r\n    string private _baseURIStr;\r\n\r\n    address private _rewardsContract;\r\n    structPlayerGnome[] private _playersGnomes;\r\n    IRandom private _randomContract;\r\n    IGnomesTemplates private _gnomesTemplatesContract;\r\n\r\n    event PowerChange(address indexed account, uint collection, uint collectionPower, uint playerPower);\r\n    event CollectionChange(address indexed player, uint collection, uint indexed oldTokenId, uint indexed newTokenId);\r\n    event Mint(address indexed player, uint  indexed tokenId, uint collection, uint8 gnomeId, uint8 level, uint8 rarity, uint power);\r\n\r\n    constructor(address feesAccount, address adminAccount, address randomContract, address gnomesTemplatesContract)   ERC721(\"My Mini Miners\", \"MYMM\") ReentrancyGuard() payable {\r\n        setFeesAccount(feesAccount);\r\n        setAdminAccount(adminAccount);\r\n        setGnomesTemplateContractAddress(gnomesTemplatesContract);\r\n        setRandomContractAddress(randomContract);\r\n        //solidity default value for uint is 0 so we start the tokenIds from 1\r\n        _playersGnomes.push();\r\n    }\r\n    //********************************* game functions *************************************//\r\n\r\n    function buyGnome(uint8 amountToBuy) external payable nonReentrant {\r\n        require(msg.value >= _gnomePrice * amountToBuy, \"1\");\r\n        uint currentTotalSupply = totalSupply();\r\n        require(currentTotalSupply >= amountToBuy, \"2\");\r\n\r\n        uint feesAccountCat = (msg.value * _feesAccountCat / (10 ** 4));\r\n        payable(feesAccount()).transfer(feesAccountCat);\r\n        payable(_rewardsContract).transfer(msg.value - feesAccountCat);\r\n\r\n        for (uint8 i; i < amountToBuy; i++) {\r\n            uint randomNumber = _randomContract.getRandomNumber();\r\n            uint randomPosition = randomNumber % currentTotalSupply;\r\n            uint rarityIndex = _getRarityByPosition(randomPosition);\r\n            _supplyLeft[rarityIndex]--;\r\n            _increaseSupplyByIndex(rarityIndex);\r\n            structGnome memory gnome = _gnomesTemplatesContract.getGnomeTemplateRarityAndRandom(rarityIndex, randomNumber);\r\n            _createGnome(gnome.id, 1, gnome.rarity, gnome.collection, gnome.power);\r\n        }\r\n    }\r\n\r\n    function mergeGnomes(uint tokenId1, uint tokenId2) external nonReentrant {\r\n\r\n        require(_msgSender() == ownerOf(tokenId1) && _msgSender() == ownerOf(tokenId2), \"8\");\r\n        require(_playersGnomes[tokenId1].exists && _playersGnomes[tokenId2].exists, \"6\");\r\n        require(_playersGnomes[tokenId1].gnomeId == _playersGnomes[tokenId2].gnomeId, \"3\");\r\n        require(_playersGnomes[tokenId1].level == _playersGnomes[tokenId2].level, \"4\");\r\n        require(_playersGnomes[tokenId1].level < 10, \"5\");\r\n\r\n        uint8 newLevel = _playersGnomes[tokenId1].level + 1;\r\n\r\n        _burn(tokenId1);\r\n        _burn(tokenId2);\r\n\r\n        _createGnome(\r\n            _playersGnomes[tokenId1].gnomeId,\r\n            newLevel,\r\n            _playersGnomes[tokenId1].rarity,\r\n            _playersGnomes[tokenId1].collection,\r\n            _gnomesTemplatesContract.getGnomePowerByLevel(_playersGnomes[tokenId1].power, newLevel)\r\n        );\r\n\r\n\r\n    }\r\n\r\n    function addGnomeToCollection(uint tokenId) public {\r\n        require(ownerOf(tokenId) == _msgSender(), \"8\");\r\n        require(_playersGnomes[tokenId].exists, \"6\");\r\n        require(_playersGnomes[tokenId].canBeUsedFromBlock <= block.number, \"7\");\r\n\r\n        uint oldTokenId = _playerCollections[_msgSender()][_playersGnomes[tokenId].collection][_playersGnomes[tokenId].gnomeId];\r\n        _playerCollections[_msgSender()][_playersGnomes[tokenId].collection][_playersGnomes[tokenId].gnomeId] = tokenId;\r\n        _changePlayerPowerAfterChangeInCollection(_playersGnomes[tokenId].collection, _msgSender());\r\n        emit CollectionChange(_msgSender(), _playersGnomes[tokenId].collection, oldTokenId, tokenId);\r\n    }\r\n\r\n\r\n    function getPlayerPower(address player) external view returns (uint) {\r\n        return _playerTotalPower[player];\r\n    }\r\n\r\n    function getGnome(uint tokenId) external view returns (uint8, uint8, uint8, uint, uint, uint, bool) {\r\n        require(_playersGnomes[tokenId].exists);\r\n        return (_playersGnomes[tokenId].gnomeId, _playersGnomes[tokenId].level, _playersGnomes[tokenId].rarity, _playersGnomes[tokenId].collection, _playersGnomes[tokenId].power, _playersGnomes[tokenId].canBeUsedFromBlock, _playersGnomes[tokenId].exists);\r\n    }\r\n\r\n    function getTotalPower() external view returns (uint){\r\n        return _allPlayersPower;\r\n\r\n    }\r\n\r\n    function _createGnome(uint8 gnomeId, uint8 level, uint8 rarity, uint collection, uint256 power) private {\r\n        uint newTokenId = _playersGnomes.length;\r\n        _safeMint(_msgSender(), newTokenId);\r\n        structPlayerGnome memory playerGnome = structPlayerGnome({\r\n        gnomeId : gnomeId,\r\n        tokenId : newTokenId,\r\n        canBeUsedFromBlock : 0,\r\n        level : level,\r\n        rarity : rarity,\r\n        collection : collection,\r\n        power : power,\r\n        exists : true\r\n        });\r\n        _playersGnomes.push(playerGnome);\r\n        if (_playersGnomes[_playerCollections[_msgSender()][collection][gnomeId]].level < level) {\r\n            addGnomeToCollection(newTokenId);\r\n        }\r\n        emit Mint(_msgSender(), newTokenId, playerGnome.collection, playerGnome.gnomeId, playerGnome.level, playerGnome.rarity, playerGnome.power);\r\n    }\r\n\r\n    function _increaseSupplyByIndex(uint supplyIndex) private {\r\n        if (supplyIndex == 0) {\r\n            _supplyLeft[1] += 4;\r\n        }\r\n        if (supplyIndex == 1) {\r\n            _supplyLeft[2] += 6;\r\n        }\r\n        if (supplyIndex == 2) {\r\n            _supplyLeft[3] += 2;\r\n        }\r\n    }\r\n\r\n    function _getRarityByPosition(uint position) private view returns (uint8){\r\n\r\n        uint supply;\r\n        //length 3 = _supplyLeft.length -1\r\n        for (uint8 i = 3; i >= 0; i--) {\r\n            supply = supply + _supplyLeft[i];\r\n            if (supply >= position) {\r\n                return i;\r\n            }\r\n        }\r\n        revert(\"2\");\r\n    }\r\n\r\n    function totalSupply() public view returns (uint supply){\r\n        //length 4 = _supplyLeft.length\r\n        for (uint8 i; i < 4; i++) {\r\n            supply = supply + _supplyLeft[i];\r\n        }\r\n        return supply;\r\n    }\r\n\r\n    function _transfer(address from, address to, uint tokenId) internal override {\r\n        _removeGnomeFromCollection(tokenId, from);\r\n        ERC721._transfer(from, to, tokenId);\r\n        structPlayerGnome storage playerGnome = _playersGnomes[tokenId];\r\n        playerGnome.canBeUsedFromBlock = block.number + _numberOfBlocksToWaitBetweenTransfer;\r\n\r\n    }\r\n\r\n    function _burn(uint256 tokenId) internal override {\r\n        ERC721._burn(tokenId);\r\n        _playersGnomes[tokenId].exists = false;\r\n    }\r\n\r\n    function _removeGnomeFromCollection(uint tokenId, address player) private {\r\n\r\n        if (_playerCollections[player][_playersGnomes[tokenId].collection][_playersGnomes[tokenId].gnomeId] == tokenId) {\r\n            _playerCollections[player][_playersGnomes[tokenId].collection][_playersGnomes[tokenId].gnomeId] = 0;\r\n            _changePlayerPowerAfterChangeInCollection(_playersGnomes[tokenId].collection, player);\r\n            emit CollectionChange(_msgSender(), _playersGnomes[tokenId].collection, tokenId, 0);\r\n        }\r\n    }\r\n\r\n    function _changePlayerPowerAfterChangeInCollection(uint gnomeCollection, address player) private {\r\n        uint[] memory collection = _gnomesTemplatesContract.getCollectionById(gnomeCollection);\r\n        uint collectionLength = collection.length;\r\n        uint8 lowestGnomeLevel;\r\n        uint newPower;\r\n        uint8 totalGnomesInCollection;\r\n        for (uint8 i; i < collectionLength; i++) {\r\n            uint collectionGnomeTokenId = _playerCollections[player][gnomeCollection][collection[i]];\r\n            if (_playersGnomes[collectionGnomeTokenId].exists) {\r\n                newPower += _playersGnomes[collectionGnomeTokenId].power;\r\n                totalGnomesInCollection += 1;\r\n                if (lowestGnomeLevel < _playersGnomes[collectionGnomeTokenId].level) {\r\n                    lowestGnomeLevel = _playersGnomes[collectionGnomeTokenId].level;\r\n                }\r\n            }\r\n        }\r\n        if (collectionLength == totalGnomesInCollection) {\r\n            newPower = newPower * _gnomesTemplatesContract.getCollectionPowerMultiple(lowestGnomeLevel);\r\n        }\r\n\r\n        uint oldPower = _playerCollectionsPower[player][gnomeCollection];\r\n        _playerCollectionsPower[player][gnomeCollection] = newPower;\r\n        _playerTotalPower[player] = _playerTotalPower[player] - oldPower + newPower;\r\n        _allPlayersPower = _allPlayersPower - oldPower + newPower;\r\n\r\n        emit PowerChange(player, gnomeCollection, newPower, _playerTotalPower[player]);\r\n    }\r\n\r\n    function _baseURI() internal view override returns (string memory) {\r\n        return _baseURIStr;\r\n    }\r\n\r\n    /*\r\n        getting paid from other contracts\r\n    */\r\n    receive() external payable {\r\n        payable(_rewardsContract).transfer(msg.value);\r\n    }\r\n    //********************************* management functions *************************************//\r\n\r\n    function setGnomePrice(uint price) external onlyAdmin {\r\n        require(price > 1 ether / 2, \"1\");\r\n        _gnomePrice = price;\r\n    }\r\n\r\n    function setNumberOfBlocksToWaitBetweenTransfer(uint blocks) external onlyAdmin {\r\n        require(blocks > 30 * 60);\r\n        _numberOfBlocksToWaitBetweenTransfer = blocks;\r\n    }\r\n\r\n    function setBaseUri(string calldata uri) external onlyAdmin {\r\n        _baseURIStr = uri;\r\n    }\r\n\r\n    function setRandomContractAddress(address randomContract) public onlyAdmin {\r\n        _randomContract = IRandom(randomContract);\r\n    }\r\n\r\n    function setRewardsContractAddress(address rewardsContract) public onlyAdmin {\r\n        _rewardsContract = rewardsContract;\r\n    }\r\n\r\n    function setGnomesTemplateContractAddress(address gnomesTemplatesContract) public onlyAdmin {\r\n        _gnomesTemplatesContract = IGnomesTemplates(gnomesTemplatesContract);\r\n    }\r\n\r\n\r\n}\r\n",
  "sourcePath": "C:\\Users\\amit\\PhpstormProjects\\myminiminers\\myminiminers-contract\\src\\contracts\\MyMiniMiners.sol",
  "compiler": {
    "name": "solc",
    "version": "0.8.6+commit.11564f7e.Emscripten.clang"
  },
  "schemaVersion": "3.4.3",
  "updatedAt": "2021-09-13T10:38:12.297Z",
  "networkType": "ethereum",
  "devdoc": {
    "kind": "dev",
    "methods": {
      "approve(address,uint256)": {
        "details": "See {IERC721-approve}."
      },
      "balanceOf(address)": {
        "details": "See {IERC721-balanceOf}."
      },
      "getApproved(uint256)": {
        "details": "See {IERC721-getApproved}."
      },
      "isApprovedForAll(address,address)": {
        "details": "See {IERC721-isApprovedForAll}."
      },
      "name()": {
        "details": "See {IERC721Metadata-name}."
      },
      "owner()": {
        "details": "Returns the address of the current owner."
      },
      "ownerOf(uint256)": {
        "details": "See {IERC721-ownerOf}."
      },
      "renounceOwnership()": {
        "details": "Leaves the contract without owner. It will not be possible to call `onlyOwner` functions anymore. Can only be called by the current owner. NOTE: Renouncing ownership will leave the contract without an owner, thereby removing any functionality that is only available to the owner."
      },
      "safeTransferFrom(address,address,uint256)": {
        "details": "See {IERC721-safeTransferFrom}."
      },
      "safeTransferFrom(address,address,uint256,bytes)": {
        "details": "See {IERC721-safeTransferFrom}."
      },
      "setApprovalForAll(address,bool)": {
        "details": "See {IERC721-setApprovalForAll}."
      },
      "supportsInterface(bytes4)": {
        "details": "See {IERC165-supportsInterface}."
      },
      "symbol()": {
        "details": "See {IERC721Metadata-symbol}."
      },
      "tokenURI(uint256)": {
        "details": "See {IERC721Metadata-tokenURI}."
      },
      "transferFrom(address,address,uint256)": {
        "details": "See {IERC721-transferFrom}."
      },
      "transferOwnership(address)": {
        "details": "Transfers ownership of the contract to a new account (`newOwner`). Can only be called by the current owner."
      }
    },
    "version": 1
  },
  "userdoc": {
    "kind": "user",
    "methods": {},
    "version": 1
  }
}