{
  "contractName": "MyMiniMiners",
  "abi": [
    {
      "inputs": [
        {
          "internalType": "address",
          "name": "feesAccount",
          "type": "address"
        },
        {
          "internalType": "address",
          "name": "adminAccount",
          "type": "address"
        },
        {
          "internalType": "address",
          "name": "randomContract",
          "type": "address"
        },
        {
          "internalType": "address",
          "name": "gnomesTemplatesContract",
          "type": "address"
        },
        {
          "internalType": "string",
          "name": "baseUri",
          "type": "string"
        }
      ],
      "stateMutability": "payable",
      "type": "constructor",
      "payable": true
    },
    {
      "anonymous": false,
      "inputs": [
        {
          "indexed": true,
          "internalType": "address",
          "name": "owner",
          "type": "address"
        },
        {
          "indexed": true,
          "internalType": "address",
          "name": "approved",
          "type": "address"
        },
        {
          "indexed": true,
          "internalType": "uint256",
          "name": "tokenId",
          "type": "uint256"
        }
      ],
      "name": "Approval",
      "type": "event"
    },
    {
      "anonymous": false,
      "inputs": [
        {
          "indexed": true,
          "internalType": "address",
          "name": "owner",
          "type": "address"
        },
        {
          "indexed": true,
          "internalType": "address",
          "name": "operator",
          "type": "address"
        },
        {
          "indexed": false,
          "internalType": "bool",
          "name": "approved",
          "type": "bool"
        }
      ],
      "name": "ApprovalForAll",
      "type": "event"
    },
    {
      "anonymous": false,
      "inputs": [
        {
          "indexed": true,
          "internalType": "address",
          "name": "oldAccount",
          "type": "address"
        },
        {
          "indexed": true,
          "internalType": "address",
          "name": "newAccount",
          "type": "address"
        }
      ],
      "name": "FeesAccountChanged",
      "type": "event"
    },
    {
      "anonymous": false,
      "inputs": [
        {
          "indexed": true,
          "internalType": "address",
          "name": "player",
          "type": "address"
        },
        {
          "indexed": true,
          "internalType": "uint256",
          "name": "tokenId",
          "type": "uint256"
        },
        {
          "indexed": false,
          "internalType": "uint256",
          "name": "collection",
          "type": "uint256"
        },
        {
          "indexed": false,
          "internalType": "uint8",
          "name": "gnomeId",
          "type": "uint8"
        },
        {
          "indexed": false,
          "internalType": "uint8",
          "name": "level",
          "type": "uint8"
        },
        {
          "indexed": false,
          "internalType": "uint8",
          "name": "rarity",
          "type": "uint8"
        }
      ],
      "name": "Mint",
      "type": "event"
    },
    {
      "anonymous": false,
      "inputs": [
        {
          "indexed": true,
          "internalType": "address",
          "name": "previousOwner",
          "type": "address"
        },
        {
          "indexed": true,
          "internalType": "address",
          "name": "newOwner",
          "type": "address"
        }
      ],
      "name": "OwnershipTransferred",
      "type": "event"
    },
    {
      "anonymous": false,
      "inputs": [
        {
          "indexed": true,
          "internalType": "address",
          "name": "from",
          "type": "address"
        },
        {
          "indexed": true,
          "internalType": "address",
          "name": "to",
          "type": "address"
        },
        {
          "indexed": true,
          "internalType": "uint256",
          "name": "tokenId",
          "type": "uint256"
        }
      ],
      "name": "Transfer",
      "type": "event"
    },
    {
      "anonymous": false,
      "inputs": [
        {
          "indexed": true,
          "internalType": "address",
          "name": "oldAccount",
          "type": "address"
        },
        {
          "indexed": true,
          "internalType": "address",
          "name": "newAccount",
          "type": "address"
        }
      ],
      "name": "adminAccountChanged",
      "type": "event"
    },
    {
      "inputs": [],
      "name": "adminAccount",
      "outputs": [
        {
          "internalType": "address",
          "name": "",
          "type": "address"
        }
      ],
      "stateMutability": "view",
      "type": "function",
      "constant": true
    },
    {
      "inputs": [
        {
          "internalType": "address",
          "name": "to",
          "type": "address"
        },
        {
          "internalType": "uint256",
          "name": "tokenId",
          "type": "uint256"
        }
      ],
      "name": "approve",
      "outputs": [],
      "stateMutability": "nonpayable",
      "type": "function"
    },
    {
      "inputs": [
        {
          "internalType": "address",
          "name": "owner",
          "type": "address"
        }
      ],
      "name": "balanceOf",
      "outputs": [
        {
          "internalType": "uint256",
          "name": "",
          "type": "uint256"
        }
      ],
      "stateMutability": "view",
      "type": "function",
      "constant": true
    },
    {
      "inputs": [],
      "name": "feesAccount",
      "outputs": [
        {
          "internalType": "address",
          "name": "",
          "type": "address"
        }
      ],
      "stateMutability": "view",
      "type": "function",
      "constant": true
    },
    {
      "inputs": [
        {
          "internalType": "uint256",
          "name": "tokenId",
          "type": "uint256"
        }
      ],
      "name": "getApproved",
      "outputs": [
        {
          "internalType": "address",
          "name": "",
          "type": "address"
        }
      ],
      "stateMutability": "view",
      "type": "function",
      "constant": true
    },
    {
      "inputs": [
        {
          "internalType": "address",
          "name": "owner",
          "type": "address"
        },
        {
          "internalType": "address",
          "name": "operator",
          "type": "address"
        }
      ],
      "name": "isApprovedForAll",
      "outputs": [
        {
          "internalType": "bool",
          "name": "",
          "type": "bool"
        }
      ],
      "stateMutability": "view",
      "type": "function",
      "constant": true
    },
    {
      "inputs": [],
      "name": "name",
      "outputs": [
        {
          "internalType": "string",
          "name": "",
          "type": "string"
        }
      ],
      "stateMutability": "view",
      "type": "function",
      "constant": true
    },
    {
      "inputs": [],
      "name": "owner",
      "outputs": [
        {
          "internalType": "address",
          "name": "",
          "type": "address"
        }
      ],
      "stateMutability": "view",
      "type": "function",
      "constant": true
    },
    {
      "inputs": [
        {
          "internalType": "uint256",
          "name": "tokenId",
          "type": "uint256"
        }
      ],
      "name": "ownerOf",
      "outputs": [
        {
          "internalType": "address",
          "name": "",
          "type": "address"
        }
      ],
      "stateMutability": "view",
      "type": "function",
      "constant": true
    },
    {
      "inputs": [],
      "name": "renounceOwnership",
      "outputs": [],
      "stateMutability": "nonpayable",
      "type": "function"
    },
    {
      "inputs": [
        {
          "internalType": "address",
          "name": "from",
          "type": "address"
        },
        {
          "internalType": "address",
          "name": "to",
          "type": "address"
        },
        {
          "internalType": "uint256",
          "name": "tokenId",
          "type": "uint256"
        }
      ],
      "name": "safeTransferFrom",
      "outputs": [],
      "stateMutability": "nonpayable",
      "type": "function"
    },
    {
      "inputs": [
        {
          "internalType": "address",
          "name": "from",
          "type": "address"
        },
        {
          "internalType": "address",
          "name": "to",
          "type": "address"
        },
        {
          "internalType": "uint256",
          "name": "tokenId",
          "type": "uint256"
        },
        {
          "internalType": "bytes",
          "name": "_data",
          "type": "bytes"
        }
      ],
      "name": "safeTransferFrom",
      "outputs": [],
      "stateMutability": "nonpayable",
      "type": "function"
    },
    {
      "inputs": [
        {
          "internalType": "address",
          "name": "newAccount",
          "type": "address"
        }
      ],
      "name": "setAdminAccount",
      "outputs": [],
      "stateMutability": "nonpayable",
      "type": "function"
    },
    {
      "inputs": [
        {
          "internalType": "address",
          "name": "operator",
          "type": "address"
        },
        {
          "internalType": "bool",
          "name": "approved",
          "type": "bool"
        }
      ],
      "name": "setApprovalForAll",
      "outputs": [],
      "stateMutability": "nonpayable",
      "type": "function"
    },
    {
      "inputs": [
        {
          "internalType": "address",
          "name": "newAccount",
          "type": "address"
        }
      ],
      "name": "setFeesAccount",
      "outputs": [],
      "stateMutability": "nonpayable",
      "type": "function"
    },
    {
      "inputs": [],
      "name": "symbol",
      "outputs": [
        {
          "internalType": "string",
          "name": "",
          "type": "string"
        }
      ],
      "stateMutability": "view",
      "type": "function",
      "constant": true
    },
    {
      "inputs": [
        {
          "internalType": "uint256",
          "name": "index",
          "type": "uint256"
        }
      ],
      "name": "tokenByIndex",
      "outputs": [
        {
          "internalType": "uint256",
          "name": "",
          "type": "uint256"
        }
      ],
      "stateMutability": "view",
      "type": "function",
      "constant": true
    },
    {
      "inputs": [
        {
          "internalType": "address",
          "name": "owner",
          "type": "address"
        },
        {
          "internalType": "uint256",
          "name": "index",
          "type": "uint256"
        }
      ],
      "name": "tokenOfOwnerByIndex",
      "outputs": [
        {
          "internalType": "uint256",
          "name": "",
          "type": "uint256"
        }
      ],
      "stateMutability": "view",
      "type": "function",
      "constant": true
    },
    {
      "inputs": [
        {
          "internalType": "uint256",
          "name": "tokenId",
          "type": "uint256"
        }
      ],
      "name": "tokenURI",
      "outputs": [
        {
          "internalType": "string",
          "name": "",
          "type": "string"
        }
      ],
      "stateMutability": "view",
      "type": "function",
      "constant": true
    },
    {
      "inputs": [],
      "name": "totalSupply",
      "outputs": [
        {
          "internalType": "uint256",
          "name": "",
          "type": "uint256"
        }
      ],
      "stateMutability": "view",
      "type": "function",
      "constant": true
    },
    {
      "inputs": [
        {
          "internalType": "address",
          "name": "from",
          "type": "address"
        },
        {
          "internalType": "address",
          "name": "to",
          "type": "address"
        },
        {
          "internalType": "uint256",
          "name": "tokenId",
          "type": "uint256"
        }
      ],
      "name": "transferFrom",
      "outputs": [],
      "stateMutability": "nonpayable",
      "type": "function"
    },
    {
      "inputs": [
        {
          "internalType": "address",
          "name": "newOwner",
          "type": "address"
        }
      ],
      "name": "transferOwnership",
      "outputs": [],
      "stateMutability": "nonpayable",
      "type": "function"
    },
    {
      "inputs": [
        {
          "internalType": "uint8",
          "name": "amountToBuy",
          "type": "uint8"
        }
      ],
      "name": "buyGnome",
      "outputs": [],
      "stateMutability": "payable",
      "type": "function",
      "payable": true
    },
    {
      "inputs": [
        {
          "internalType": "uint256",
          "name": "tokenId1",
          "type": "uint256"
        },
        {
          "internalType": "uint256",
          "name": "tokenId2",
          "type": "uint256"
        }
      ],
      "name": "mergeGnomes",
      "outputs": [],
      "stateMutability": "nonpayable",
      "type": "function"
    },
    {
      "inputs": [
        {
          "internalType": "uint8",
          "name": "amountToBuy",
          "type": "uint8"
        }
      ],
      "name": "getGnomePrice",
      "outputs": [
        {
          "internalType": "uint256",
          "name": "",
          "type": "uint256"
        }
      ],
      "stateMutability": "view",
      "type": "function",
      "constant": true
    },
    {
      "inputs": [
        {
          "internalType": "uint256",
          "name": "tokenId",
          "type": "uint256"
        }
      ],
      "name": "getGnome",
      "outputs": [
        {
          "internalType": "uint8",
          "name": "",
          "type": "uint8"
        },
        {
          "internalType": "uint8",
          "name": "",
          "type": "uint8"
        },
        {
          "internalType": "uint8",
          "name": "",
          "type": "uint8"
        },
        {
          "internalType": "uint256",
          "name": "",
          "type": "uint256"
        },
        {
          "internalType": "bool",
          "name": "",
          "type": "bool"
        }
      ],
      "stateMutability": "view",
      "type": "function",
      "constant": true
    },
    {
      "inputs": [
        {
          "internalType": "uint256",
          "name": "index",
          "type": "uint256"
        }
      ],
      "name": "getSupplyByIndex",
      "outputs": [
        {
          "internalType": "uint256",
          "name": "",
          "type": "uint256"
        }
      ],
      "stateMutability": "view",
      "type": "function",
      "constant": true
    },
    {
      "inputs": [],
      "name": "totalSupplyLeft",
      "outputs": [
        {
          "internalType": "uint256",
          "name": "supply",
          "type": "uint256"
        }
      ],
      "stateMutability": "view",
      "type": "function",
      "constant": true
    },
    {
      "inputs": [
        {
          "internalType": "bytes4",
          "name": "interfaceId",
          "type": "bytes4"
        }
      ],
      "name": "supportsInterface",
      "outputs": [
        {
          "internalType": "bool",
          "name": "",
          "type": "bool"
        }
      ],
      "stateMutability": "view",
      "type": "function",
      "constant": true
    },
    {
      "inputs": [
        {
          "internalType": "string",
          "name": "uri",
          "type": "string"
        }
      ],
      "name": "setBaseUri",
      "outputs": [],
      "stateMutability": "nonpayable",
      "type": "function"
    },
    {
      "inputs": [
        {
          "internalType": "address",
          "name": "randomContract",
          "type": "address"
        }
      ],
      "name": "setRandomContractAddress",
      "outputs": [],
      "stateMutability": "nonpayable",
      "type": "function"
    },
    {
      "inputs": [
        {
          "internalType": "address",
          "name": "gnomesTemplatesContract",
          "type": "address"
        }
      ],
      "name": "setGnomesTemplateContractAddress",
      "outputs": [],
      "stateMutability": "nonpayable",
      "type": "function"
    }
  ],
  "bytecode": "0x6080604052604051806080016040528061015e61ffff1681526020016106d661ffff16815260200161222e61ffff1681526020016142fe61ffff16815250600e9060046200004f929190620009b8565b506040516200650238038062006502833981810160405281019062000075919062000b48565b6040518060400160405280600e81526020017f4d79204d696e69204d696e6572730000000000000000000000000000000000008152506040518060400160405280600481526020017f4d594d4d000000000000000000000000000000000000000000000000000000008152508160009080519060200190620000f992919062000a03565b5080600190805190602001906200011292919062000a03565b5050506200013562000129620001bb60201b60201c565b620001c360201b60201c565b6001600d819055506200014e856200028960201b60201c565b6200015f846200047b60201b60201c565b62000170826200060560201b60201c565b62000181836200074060201b60201c565b62000192816200087b60201b60201c565b601360018160018154018082558091505003906000526020600020905050505050505062000eb6565b600033905090565b6000600a60009054906101000a900473ffffffffffffffffffffffffffffffffffffffff16905081600a60006101000a81548173ffffffffffffffffffffffffffffffffffffffff021916908373ffffffffffffffffffffffffffffffffffffffff1602179055508173ffffffffffffffffffffffffffffffffffffffff168173ffffffffffffffffffffffffffffffffffffffff167f8be0079c531659141344cd1fd0a4f28419497f9722a3daafe3b4186f6b6457e060405160405180910390a35050565b62000299620001bb60201b60201c565b73ffffffffffffffffffffffffffffffffffffffff16600c60009054906101000a900473ffffffffffffffffffffffffffffffffffffffff1673ffffffffffffffffffffffffffffffffffffffff1614806200033e5750620003006200098e60201b60201c565b73ffffffffffffffffffffffffffffffffffffffff1662000326620001bb60201b60201c565b73ffffffffffffffffffffffffffffffffffffffff16145b62000380576040517f08c379a0000000000000000000000000000000000000000000000000000000008152600401620003779062000c3d565b60405180910390fd5b600073ffffffffffffffffffffffffffffffffffffffff168173ffffffffffffffffffffffffffffffffffffffff161415620003bb57600080fd5b8073ffffffffffffffffffffffffffffffffffffffff16600b60009054906101000a900473ffffffffffffffffffffffffffffffffffffffff1673ffffffffffffffffffffffffffffffffffffffff167f686292a774da47913df940e499f775044c8f0306ee4e4ca2462d73570abac92b60405160405180910390a380600b60006101000a81548173ffffffffffffffffffffffffffffffffffffffff021916908373ffffffffffffffffffffffffffffffffffffffff16021790555050565b6200048b620001bb60201b60201c565b73ffffffffffffffffffffffffffffffffffffffff16620004b16200098e60201b60201c565b73ffffffffffffffffffffffffffffffffffffffff16146200050a576040517f08c379a0000000000000000000000000000000000000000000000000000000008152600401620005019062000c5f565b60405180910390fd5b600073ffffffffffffffffffffffffffffffffffffffff168173ffffffffffffffffffffffffffffffffffffffff1614156200054557600080fd5b8073ffffffffffffffffffffffffffffffffffffffff16600b60009054906101000a900473ffffffffffffffffffffffffffffffffffffffff1673ffffffffffffffffffffffffffffffffffffffff167f6c653cea66fc767872566a48443cddce6845518f298111992df854d4425f13f060405160405180910390a380600c60006101000a81548173ffffffffffffffffffffffffffffffffffffffff021916908373ffffffffffffffffffffffffffffffffffffffff16021790555050565b62000615620001bb60201b60201c565b73ffffffffffffffffffffffffffffffffffffffff16600c60009054906101000a900473ffffffffffffffffffffffffffffffffffffffff1673ffffffffffffffffffffffffffffffffffffffff161480620006ba57506200067c6200098e60201b60201c565b73ffffffffffffffffffffffffffffffffffffffff16620006a2620001bb60201b60201c565b73ffffffffffffffffffffffffffffffffffffffff16145b620006fc576040517f08c379a0000000000000000000000000000000000000000000000000000000008152600401620006f39062000c3d565b60405180910390fd5b80601560006101000a81548173ffffffffffffffffffffffffffffffffffffffff021916908373ffffffffffffffffffffffffffffffffffffffff16021790555050565b62000750620001bb60201b60201c565b73ffffffffffffffffffffffffffffffffffffffff16600c60009054906101000a900473ffffffffffffffffffffffffffffffffffffffff1673ffffffffffffffffffffffffffffffffffffffff161480620007f55750620007b76200098e60201b60201c565b73ffffffffffffffffffffffffffffffffffffffff16620007dd620001bb60201b60201c565b73ffffffffffffffffffffffffffffffffffffffff16145b62000837576040517f08c379a00000000000000000000000000000000000000000000000000000000081526004016200082e9062000c3d565b60405180910390fd5b80601460006101000a81548173ffffffffffffffffffffffffffffffffffffffff021916908373ffffffffffffffffffffffffffffffffffffffff16021790555050565b6200088b620001bb60201b60201c565b73ffffffffffffffffffffffffffffffffffffffff16600c60009054906101000a900473ffffffffffffffffffffffffffffffffffffffff1673ffffffffffffffffffffffffffffffffffffffff161480620009305750620008f26200098e60201b60201c565b73ffffffffffffffffffffffffffffffffffffffff1662000918620001bb60201b60201c565b73ffffffffffffffffffffffffffffffffffffffff16145b62000972576040517f08c379a0000000000000000000000000000000000000000000000000000000008152600401620009699062000c3d565b60405180910390fd5b80601290805190602001906200098a92919062000a03565b5050565b6000600a60009054906101000a900473ffffffffffffffffffffffffffffffffffffffff16905090565b8260048101928215620009f0579160200282015b82811115620009ef578251829061ffff16905591602001919060010190620009cc565b5b509050620009ff919062000a94565b5090565b82805462000a119062000d5b565b90600052602060002090601f01602090048101928262000a35576000855562000a81565b82601f1062000a5057805160ff191683800117855562000a81565b8280016001018555821562000a81579182015b8281111562000a8057825182559160200191906001019062000a63565b5b50905062000a90919062000a94565b5090565b5b8082111562000aaf57600081600090555060010162000a95565b5090565b600062000aca62000ac48462000caa565b62000c81565b90508281526020810184848401111562000ae95762000ae862000e2a565b5b62000af684828562000d25565b509392505050565b60008151905062000b0f8162000e9c565b92915050565b600082601f83011262000b2d5762000b2c62000e25565b5b815162000b3f84826020860162000ab3565b91505092915050565b600080600080600060a0868803121562000b675762000b6662000e34565b5b600062000b778882890162000afe565b955050602062000b8a8882890162000afe565b945050604062000b9d8882890162000afe565b935050606062000bb08882890162000afe565b925050608086015167ffffffffffffffff81111562000bd45762000bd362000e2f565b5b62000be28882890162000b15565b9150509295509295909350565b600062000bfe600a8362000ce0565b915062000c0b8262000e4a565b602082019050919050565b600062000c2560208362000ce0565b915062000c328262000e73565b602082019050919050565b6000602082019050818103600083015262000c588162000bef565b9050919050565b6000602082019050818103600083015262000c7a8162000c16565b9050919050565b600062000c8d62000ca0565b905062000c9b828262000d91565b919050565b6000604051905090565b600067ffffffffffffffff82111562000cc85762000cc762000df6565b5b62000cd38262000e39565b9050602081019050919050565b600082825260208201905092915050565b600062000cfe8262000d05565b9050919050565b600073ffffffffffffffffffffffffffffffffffffffff82169050919050565b60005b8381101562000d4557808201518184015260208101905062000d28565b8381111562000d55576000848401525b50505050565b6000600282049050600182168062000d7457607f821691505b6020821081141562000d8b5762000d8a62000dc7565b5b50919050565b62000d9c8262000e39565b810181811067ffffffffffffffff8211171562000dbe5762000dbd62000df6565b5b80604052505050565b7f4e487b7100000000000000000000000000000000000000000000000000000000600052602260045260246000fd5b7f4e487b7100000000000000000000000000000000000000000000000000000000600052604160045260246000fd5b600080fd5b600080fd5b600080fd5b600080fd5b6000601f19601f8301169050919050565b7f6f6e6c792061646d696e00000000000000000000000000000000000000000000600082015250565b7f4f776e61626c653a2063616c6c6572206973206e6f7420746865206f776e6572600082015250565b62000ea78162000cf1565b811462000eb357600080fd5b50565b61563c8062000ec66000396000f3fe6080604052600436106101e35760003560e01c806370a0823111610102578063bc7bb2e611610095578063ddb00dfc11610064578063ddb00dfc1461071f578063e8ef9f2214610748578063e985e9c514610771578063f2fde38b146107ae576101e3565b8063bc7bb2e614610665578063c26e91181461068e578063c87b56dd146106b9578063d7050b05146106f6576101e3565b8063a0bcfc7f116100d1578063a0bcfc7f146105ce578063a0c65735146105f7578063a22cb46514610613578063b88d4fde1461063c576101e3565b806370a0823114610524578063715018a6146105615780638da5cb5b1461057857806395d89b41146105a3576101e3565b80632f745c591161017a5780634f6ccce7116101495780634f6ccce714610444578063625e9b5a146104815780636352211e146104aa57806369f16f44146104e7576101e3565b80632f745c59146103725780633934d5ec146103af57806342842e0e146103f0578063491d1b8014610419576101e3565b806318160ddd116101b657806318160ddd146102b6578063235a6544146102e157806323b872dd1461030c57806323bf9d9914610335576101e3565b806301ffc9a7146101e857806306fdde0314610225578063081812fc14610250578063095ea7b31461028d575b600080fd5b3480156101f457600080fd5b5061020f600480360381019061020a9190613d6f565b6107d7565b60405161021c919061448a565b60405180910390f35b34801561023157600080fd5b5061023a6107e9565b60405161024791906144a5565b60405180910390f35b34801561025c57600080fd5b5061027760048036038101906102729190613e3f565b61087b565b6040516102849190614423565b60405180910390f35b34801561029957600080fd5b506102b460048036038101906102af9190613d2f565b610900565b005b3480156102c257600080fd5b506102cb610a18565b6040516102d89190614887565b60405180910390f35b3480156102ed57600080fd5b506102f6610a25565b6040516103039190614423565b60405180910390f35b34801561031857600080fd5b50610333600480360381019061032e9190613c19565b610a4f565b005b34801561034157600080fd5b5061035c60048036038101906103579190613e3f565b610aaf565b6040516103699190614887565b60405180910390f35b34801561037e57600080fd5b5061039960048036038101906103949190613d2f565b610ace565b6040516103a69190614887565b60405180910390f35b3480156103bb57600080fd5b506103d660048036038101906103d19190613e3f565b610b73565b6040516103e7959493929190614910565b60405180910390f35b3480156103fc57600080fd5b5061041760048036038101906104129190613c19565b610cf2565b005b34801561042557600080fd5b5061042e610d12565b60405161043b9190614887565b60405180910390f35b34801561045057600080fd5b5061046b60048036038101906104669190613e3f565b610d5f565b6040516104789190614887565b60405180910390f35b34801561048d57600080fd5b506104a860048036038101906104a39190613e99565b610dd0565b005b3480156104b657600080fd5b506104d160048036038101906104cc9190613e3f565b611255565b6040516104de9190614423565b60405180910390f35b3480156104f357600080fd5b5061050e60048036038101906105099190613ed9565b611307565b60405161051b9190614887565b60405180910390f35b34801561053057600080fd5b5061054b60048036038101906105469190613bac565b6113be565b6040516105589190614887565b60405180910390f35b34801561056d57600080fd5b50610576611476565b005b34801561058457600080fd5b5061058d6114fe565b60405161059a9190614423565b60405180910390f35b3480156105af57600080fd5b506105b8611528565b6040516105c591906144a5565b60405180910390f35b3480156105da57600080fd5b506105f560048036038101906105f09190613dc9565b6115ba565b005b610611600480360381019061060c9190613ed9565b6116af565b005b34801561061f57600080fd5b5061063a60048036038101906106359190613cef565b611a3c565b005b34801561064857600080fd5b50610663600480360381019061065e9190613c6c565b611bbd565b005b34801561067157600080fd5b5061068c60048036038101906106879190613bac565b611c1f565b005b34801561069a57600080fd5b506106a3611d3e565b6040516106b09190614423565b60405180910390f35b3480156106c557600080fd5b506106e060048036038101906106db9190613e3f565b611d68565b6040516106ed91906144a5565b60405180910390f35b34801561070257600080fd5b5061071d60048036038101906107189190613bac565b611e0f565b005b34801561072b57600080fd5b5061074660048036038101906107419190613bac565b611f2e565b005b34801561075457600080fd5b5061076f600480360381019061076a9190613bac565b612103565b005b34801561077d57600080fd5b5061079860048036038101906107939190613bd9565b612279565b6040516107a5919061448a565b60405180910390f35b3480156107ba57600080fd5b506107d560048036038101906107d09190613bac565b61230d565b005b60006107e282612405565b9050919050565b6060600080546107f890614c66565b80601f016020809104026020016040519081016040528092919081815260200182805461082490614c66565b80156108715780601f1061084657610100808354040283529160200191610871565b820191906000526020600020905b81548152906001019060200180831161085457829003601f168201915b5050505050905090565b60006108868261247f565b6108c5576040517f08c379a00000000000000000000000000000000000000000000000000000000081526004016108bc906146a7565b60405180910390fd5b6004600083815260200190815260200160002060009054906101000a900473ffffffffffffffffffffffffffffffffffffffff169050919050565b600061090b82611255565b90508073ffffffffffffffffffffffffffffffffffffffff168373ffffffffffffffffffffffffffffffffffffffff16141561097c576040517f08c379a000000000000000000000000000000000000000000000000000000000815260040161097390614787565b60405180910390fd5b8073ffffffffffffffffffffffffffffffffffffffff1661099b6124eb565b73ffffffffffffffffffffffffffffffffffffffff1614806109ca57506109c9816109c46124eb565b612279565b5b610a09576040517f08c379a0000000000000000000000000000000000000000000000000000000008152600401610a00906145e7565b60405180910390fd5b610a1383836124f3565b505050565b6000600880549050905090565b6000600b60009054906101000a900473ffffffffffffffffffffffffffffffffffffffff16905090565b610a60610a5a6124eb565b826125ac565b610a9f576040517f08c379a0000000000000000000000000000000000000000000000000000000008152600401610a96906147e7565b60405180910390fd5b610aaa83838361268a565b505050565b6000600e8260048110610ac557610ac4614e29565b5b01549050919050565b6000610ad9836113be565b8210610b1a576040517f08c379a0000000000000000000000000000000000000000000000000000000008152600401610b11906144c7565b60405180910390fd5b600660008473ffffffffffffffffffffffffffffffffffffffff1673ffffffffffffffffffffffffffffffffffffffff168152602001908152602001600020600083815260200190815260200160002054905092915050565b600080600080600060138681548110610b8f57610b8e614e29565b5b906000526020600020906005020160040160009054906101000a900460ff16610bed576040517f08c379a0000000000000000000000000000000000000000000000000000000008152600401610be490614647565b60405180910390fd5b60138681548110610c0157610c00614e29565b5b906000526020600020906005020160000160009054906101000a900460ff1660138781548110610c3457610c33614e29565b5b906000526020600020906005020160020160009054906101000a900460ff1660138881548110610c6757610c66614e29565b5b906000526020600020906005020160020160019054906101000a900460ff1660138981548110610c9a57610c99614e29565b5b90600052602060002090600502016003015460138a81548110610cc057610cbf614e29565b5b906000526020600020906005020160040160009054906101000a900460ff169450945094509450945091939590929450565b610d0d83838360405180602001604052806000815250611bbd565b505050565b6000805b60048160ff161015610d5b57600e8160ff1660048110610d3957610d38614e29565b5b015482610d469190614a2d565b91508080610d5390614d12565b915050610d16565b5090565b6000610d69610a18565b8210610daa576040517f08c379a0000000000000000000000000000000000000000000000000000000008152600401610da190614807565b60405180910390fd5b60088281548110610dbe57610dbd614e29565b5b90600052602060002001549050919050565b6002600d541415610e16576040517f08c379a0000000000000000000000000000000000000000000000000000000008152600401610e0d90614867565b60405180910390fd5b6002600d81905550610e2782611255565b73ffffffffffffffffffffffffffffffffffffffff16610e456124eb565b73ffffffffffffffffffffffffffffffffffffffff16148015610ea25750610e6c81611255565b73ffffffffffffffffffffffffffffffffffffffff16610e8a6124eb565b73ffffffffffffffffffffffffffffffffffffffff16145b610ee1576040517f08c379a0000000000000000000000000000000000000000000000000000000008152600401610ed8906146c7565b60405180910390fd5b60138281548110610ef557610ef4614e29565b5b906000526020600020906005020160040160009054906101000a900460ff168015610f4f575060138181548110610f2f57610f2e614e29565b5b906000526020600020906005020160040160009054906101000a900460ff165b610f8e576040517f08c379a0000000000000000000000000000000000000000000000000000000008152600401610f85906147a7565b60405180910390fd5b60138181548110610fa257610fa1614e29565b5b906000526020600020906005020160000160009054906101000a900460ff1660ff1660138381548110610fd857610fd7614e29565b5b906000526020600020906005020160000160009054906101000a900460ff1660ff161461103a576040517f08c379a000000000000000000000000000000000000000000000000000000000815260040161103190614767565b60405180910390fd5b6013818154811061104e5761104d614e29565b5b906000526020600020906005020160020160009054906101000a900460ff1660ff166013838154811061108457611083614e29565b5b906000526020600020906005020160020160009054906101000a900460ff1660ff16146110e6576040517f08c379a00000000000000000000000000000000000000000000000000000000081526004016110dd90614667565b60405180910390fd5b600a601383815481106110fc576110fb614e29565b5b906000526020600020906005020160020160009054906101000a900460ff1660ff161061115e576040517f08c379a000000000000000000000000000000000000000000000000000000000815260040161115590614587565b60405180910390fd5b600060016013848154811061117657611175614e29565b5b906000526020600020906005020160020160009054906101000a900460ff1661119f9190614a83565b90506111aa836128e6565b6111b3826128e6565b611248601384815481106111ca576111c9614e29565b5b906000526020600020906005020160000160009054906101000a900460ff1682601386815481106111fe576111fd614e29565b5b906000526020600020906005020160020160019054906101000a900460ff166013878154811061123157611230614e29565b5b906000526020600020906005020160030154612930565b506001600d819055505050565b6000806002600084815260200190815260200160002060009054906101000a900473ffffffffffffffffffffffffffffffffffffffff169050600073ffffffffffffffffffffffffffffffffffffffff168173ffffffffffffffffffffffffffffffffffffffff1614156112fe576040517f08c379a00000000000000000000000000000000000000000000000000000000081526004016112f590614627565b60405180910390fd5b80915050919050565b60008060138054905090506000806703782dace9d90000905060006706f05b59d3b20000905060005b8660ff168160ff1610156113b15761271085101561135c576001856113559190614a2d565b945061139e565b620186a08561136b9190614aba565b836113769190614aeb565b82856113829190614a2d565b61138c9190614a2d565b935060018561139b9190614a2d565b94505b80806113a990614d12565b915050611330565b5082945050505050919050565b60008073ffffffffffffffffffffffffffffffffffffffff168273ffffffffffffffffffffffffffffffffffffffff16141561142f576040517f08c379a000000000000000000000000000000000000000000000000000000000815260040161142690614607565b60405180910390fd5b600360008373ffffffffffffffffffffffffffffffffffffffff1673ffffffffffffffffffffffffffffffffffffffff168152602001908152602001600020549050919050565b61147e6124eb565b73ffffffffffffffffffffffffffffffffffffffff1661149c6114fe565b73ffffffffffffffffffffffffffffffffffffffff16146114f2576040517f08c379a00000000000000000000000000000000000000000000000000000000081526004016114e990614707565b60405180910390fd5b6114fc6000612ac1565b565b6000600a60009054906101000a900473ffffffffffffffffffffffffffffffffffffffff16905090565b60606001805461153790614c66565b80601f016020809104026020016040519081016040528092919081815260200182805461156390614c66565b80156115b05780601f10611585576101008083540402835291602001916115b0565b820191906000526020600020905b81548152906001019060200180831161159357829003601f168201915b5050505050905090565b6115c26124eb565b73ffffffffffffffffffffffffffffffffffffffff16600c60009054906101000a900473ffffffffffffffffffffffffffffffffffffffff1673ffffffffffffffffffffffffffffffffffffffff16148061165657506116206114fe565b73ffffffffffffffffffffffffffffffffffffffff1661163e6124eb565b73ffffffffffffffffffffffffffffffffffffffff16145b611695576040517f08c379a000000000000000000000000000000000000000000000000000000000815260040161168c906145a7565b60405180910390fd5b80601290805190602001906116ab9291906138f4565b5050565b6002600d5414156116f5576040517f08c379a00000000000000000000000000000000000000000000000000000000081526004016116ec90614867565b60405180910390fd5b6002600d8190555060008160ff1611611743576040517f08c379a000000000000000000000000000000000000000000000000000000000815260040161173a90614827565b60405180910390fd5b61174c81611307565b341461178d576040517f08c379a0000000000000000000000000000000000000000000000000000000008152600401611784906147c7565b60405180910390fd5b6000611797610d12565b90508160ff168110156117df576040517f08c379a00000000000000000000000000000000000000000000000000000000081526004016117d6906146e7565b60405180910390fd5b6117e7610a25565b73ffffffffffffffffffffffffffffffffffffffff166108fc349081150290604051600060405180830381858888f1935050505015801561182c573d6000803e3d6000fd5b5060005b8260ff168160ff161015611a2f576000601460009054906101000a900473ffffffffffffffffffffffffffffffffffffffff1673ffffffffffffffffffffffffffffffffffffffff1663dbdff2c16040518163ffffffff1660e01b8152600401602060405180830381600087803b1580156118aa57600080fd5b505af11580156118be573d6000803e3d6000fd5b505050506040513d601f19601f820116820180604052508101906118e29190613e6c565b9050600083826118f29190614d3c565b905060006118ff82612b87565b60ff1690506001600e826004811061191a57611919614e29565b5b01546119269190614b45565b600e826004811061193a57611939614e29565b5b018190555060018561194c9190614b45565b94506000601560009054906101000a900473ffffffffffffffffffffffffffffffffffffffff1673ffffffffffffffffffffffffffffffffffffffff1663d457027b83866040518363ffffffff1660e01b81526004016119ad9291906148a2565b60806040518083038186803b1580156119c557600080fd5b505afa1580156119d9573d6000803e3d6000fd5b505050506040513d601f19601f820116820180604052508101906119fd9190613e12565b9050611a188160000151600183602001518460400151612930565b505050508080611a2790614d12565b915050611830565b50506001600d8190555050565b611a446124eb565b73ffffffffffffffffffffffffffffffffffffffff168273ffffffffffffffffffffffffffffffffffffffff161415611ab2576040517f08c379a0000000000000000000000000000000000000000000000000000000008152600401611aa990614567565b60405180910390fd5b8060056000611abf6124eb565b73ffffffffffffffffffffffffffffffffffffffff1673ffffffffffffffffffffffffffffffffffffffff16815260200190815260200160002060008473ffffffffffffffffffffffffffffffffffffffff1673ffffffffffffffffffffffffffffffffffffffff16815260200190815260200160002060006101000a81548160ff0219169083151502179055508173ffffffffffffffffffffffffffffffffffffffff16611b6c6124eb565b73ffffffffffffffffffffffffffffffffffffffff167f17307eab39ab6107e8899845ad3d59bd9653f200f220920489ca2b5937696c3183604051611bb1919061448a565b60405180910390a35050565b611bce611bc86124eb565b836125ac565b611c0d576040517f08c379a0000000000000000000000000000000000000000000000000000000008152600401611c04906147e7565b60405180910390fd5b611c1984848484612c28565b50505050565b611c276124eb565b73ffffffffffffffffffffffffffffffffffffffff16600c60009054906101000a900473ffffffffffffffffffffffffffffffffffffffff1673ffffffffffffffffffffffffffffffffffffffff161480611cbb5750611c856114fe565b73ffffffffffffffffffffffffffffffffffffffff16611ca36124eb565b73ffffffffffffffffffffffffffffffffffffffff16145b611cfa576040517f08c379a0000000000000000000000000000000000000000000000000000000008152600401611cf1906145a7565b60405180910390fd5b80601560006101000a81548173ffffffffffffffffffffffffffffffffffffffff021916908373ffffffffffffffffffffffffffffffffffffffff16021790555050565b6000600c60009054906101000a900473ffffffffffffffffffffffffffffffffffffffff16905090565b6060611d738261247f565b611db2576040517f08c379a0000000000000000000000000000000000000000000000000000000008152600401611da990614747565b60405180910390fd5b6000611dbc612c84565b90506000815111611ddc5760405180602001604052806000815250611e07565b80611de684612d16565b604051602001611df79291906143ff565b6040516020818303038152906040525b915050919050565b611e176124eb565b73ffffffffffffffffffffffffffffffffffffffff16600c60009054906101000a900473ffffffffffffffffffffffffffffffffffffffff1673ffffffffffffffffffffffffffffffffffffffff161480611eab5750611e756114fe565b73ffffffffffffffffffffffffffffffffffffffff16611e936124eb565b73ffffffffffffffffffffffffffffffffffffffff16145b611eea576040517f08c379a0000000000000000000000000000000000000000000000000000000008152600401611ee1906145a7565b60405180910390fd5b80601460006101000a81548173ffffffffffffffffffffffffffffffffffffffff021916908373ffffffffffffffffffffffffffffffffffffffff16021790555050565b611f366124eb565b73ffffffffffffffffffffffffffffffffffffffff16600c60009054906101000a900473ffffffffffffffffffffffffffffffffffffffff1673ffffffffffffffffffffffffffffffffffffffff161480611fca5750611f946114fe565b73ffffffffffffffffffffffffffffffffffffffff16611fb26124eb565b73ffffffffffffffffffffffffffffffffffffffff16145b612009576040517f08c379a0000000000000000000000000000000000000000000000000000000008152600401612000906145a7565b60405180910390fd5b600073ffffffffffffffffffffffffffffffffffffffff168173ffffffffffffffffffffffffffffffffffffffff16141561204357600080fd5b8073ffffffffffffffffffffffffffffffffffffffff16600b60009054906101000a900473ffffffffffffffffffffffffffffffffffffffff1673ffffffffffffffffffffffffffffffffffffffff167f686292a774da47913df940e499f775044c8f0306ee4e4ca2462d73570abac92b60405160405180910390a380600b60006101000a81548173ffffffffffffffffffffffffffffffffffffffff021916908373ffffffffffffffffffffffffffffffffffffffff16021790555050565b61210b6124eb565b73ffffffffffffffffffffffffffffffffffffffff166121296114fe565b73ffffffffffffffffffffffffffffffffffffffff161461217f576040517f08c379a000000000000000000000000000000000000000000000000000000000815260040161217690614707565b60405180910390fd5b600073ffffffffffffffffffffffffffffffffffffffff168173ffffffffffffffffffffffffffffffffffffffff1614156121b957600080fd5b8073ffffffffffffffffffffffffffffffffffffffff16600b60009054906101000a900473ffffffffffffffffffffffffffffffffffffffff1673ffffffffffffffffffffffffffffffffffffffff167f6c653cea66fc767872566a48443cddce6845518f298111992df854d4425f13f060405160405180910390a380600c60006101000a81548173ffffffffffffffffffffffffffffffffffffffff021916908373ffffffffffffffffffffffffffffffffffffffff16021790555050565b6000600560008473ffffffffffffffffffffffffffffffffffffffff1673ffffffffffffffffffffffffffffffffffffffff16815260200190815260200160002060008373ffffffffffffffffffffffffffffffffffffffff1673ffffffffffffffffffffffffffffffffffffffff16815260200190815260200160002060009054906101000a900460ff16905092915050565b6123156124eb565b73ffffffffffffffffffffffffffffffffffffffff166123336114fe565b73ffffffffffffffffffffffffffffffffffffffff1614612389576040517f08c379a000000000000000000000000000000000000000000000000000000000815260040161238090614707565b60405180910390fd5b600073ffffffffffffffffffffffffffffffffffffffff168173ffffffffffffffffffffffffffffffffffffffff1614156123f9576040517f08c379a00000000000000000000000000000000000000000000000000000000081526004016123f090614507565b60405180910390fd5b61240281612ac1565b50565b60007f780e9d63000000000000000000000000000000000000000000000000000000007bffffffffffffffffffffffffffffffffffffffffffffffffffffffff1916827bffffffffffffffffffffffffffffffffffffffffffffffffffffffff19161480612478575061247782612e77565b5b9050919050565b60008073ffffffffffffffffffffffffffffffffffffffff166002600084815260200190815260200160002060009054906101000a900473ffffffffffffffffffffffffffffffffffffffff1673ffffffffffffffffffffffffffffffffffffffff1614159050919050565b600033905090565b816004600083815260200190815260200160002060006101000a81548173ffffffffffffffffffffffffffffffffffffffff021916908373ffffffffffffffffffffffffffffffffffffffff160217905550808273ffffffffffffffffffffffffffffffffffffffff1661256683611255565b73ffffffffffffffffffffffffffffffffffffffff167f8c5be1e5ebec7d5bd14f71427d1e84f3dd0314c0f7b2291e5b200ac8c7c3b92560405160405180910390a45050565b60006125b78261247f565b6125f6576040517f08c379a00000000000000000000000000000000000000000000000000000000081526004016125ed906145c7565b60405180910390fd5b600061260183611255565b90508073ffffffffffffffffffffffffffffffffffffffff168473ffffffffffffffffffffffffffffffffffffffff16148061267057508373ffffffffffffffffffffffffffffffffffffffff166126588461087b565b73ffffffffffffffffffffffffffffffffffffffff16145b8061268157506126808185612279565b5b91505092915050565b8273ffffffffffffffffffffffffffffffffffffffff166126aa82611255565b73ffffffffffffffffffffffffffffffffffffffff1614612700576040517f08c379a00000000000000000000000000000000000000000000000000000000081526004016126f790614727565b60405180910390fd5b600073ffffffffffffffffffffffffffffffffffffffff168273ffffffffffffffffffffffffffffffffffffffff161415612770576040517f08c379a000000000000000000000000000000000000000000000000000000000815260040161276790614547565b60405180910390fd5b61277b838383612f59565b6127866000826124f3565b6001600360008573ffffffffffffffffffffffffffffffffffffffff1673ffffffffffffffffffffffffffffffffffffffff16815260200190815260200160002060008282546127d69190614b45565b925050819055506001600360008473ffffffffffffffffffffffffffffffffffffffff1673ffffffffffffffffffffffffffffffffffffffff168152602001908152602001600020600082825461282d9190614a2d565b92505081905550816002600083815260200190815260200160002060006101000a81548173ffffffffffffffffffffffffffffffffffffffff021916908373ffffffffffffffffffffffffffffffffffffffff160217905550808273ffffffffffffffffffffffffffffffffffffffff168473ffffffffffffffffffffffffffffffffffffffff167fddf252ad1be2c89b69c2b068fc378daa952ba7f163c4a11628f55a4df523b3ef60405160405180910390a4505050565b6128ef81612f69565b60006013828154811061290557612904614e29565b5b906000526020600020906005020160040160006101000a81548160ff02191690831515021790555050565b6000601380549050905061294b6129456124eb565b8261307a565b60006040518060c001604052808760ff1681526020018381526020018660ff1681526020018560ff168152602001848152602001600115158152509050601381908060018154018082558091505060019003906000526020600020906005020160009091909190915060008201518160000160006101000a81548160ff021916908360ff1602179055506020820151816001015560408201518160020160006101000a81548160ff021916908360ff16021790555060608201518160020160016101000a81548160ff021916908360ff1602179055506080820151816003015560a08201518160040160006101000a81548160ff021916908315150217905550505081612a566124eb565b73ffffffffffffffffffffffffffffffffffffffff167f5dd0bca5487650b7d578264fd53eff9f1b69b0efb2be7d11bde164e31ee7bad08360800151846000015185604001518660600151604051612ab194939291906148cb565b60405180910390a3505050505050565b6000600a60009054906101000a900473ffffffffffffffffffffffffffffffffffffffff16905081600a60006101000a81548173ffffffffffffffffffffffffffffffffffffffff021916908373ffffffffffffffffffffffffffffffffffffffff1602179055508173ffffffffffffffffffffffffffffffffffffffff168173ffffffffffffffffffffffffffffffffffffffff167f8be0079c531659141344cd1fd0a4f28419497f9722a3daafe3b4186f6b6457e060405160405180910390a35050565b6000806000600390505b60008160ff1610612be757600e8160ff1660048110612bb357612bb2614e29565b5b015482612bc09190614a2d565b915083821115612bd4578092505050612c23565b8080612bdf90614c3c565b915050612b91565b506040517f08c379a0000000000000000000000000000000000000000000000000000000008152600401612c1a90614847565b60405180910390fd5b919050565b612c3384848461268a565b612c3f84848484613098565b612c7e576040517f08c379a0000000000000000000000000000000000000000000000000000000008152600401612c75906144e7565b60405180910390fd5b50505050565b606060128054612c9390614c66565b80601f0160208091040260200160405190810160405280929190818152602001828054612cbf90614c66565b8015612d0c5780601f10612ce157610100808354040283529160200191612d0c565b820191906000526020600020905b815481529060010190602001808311612cef57829003601f168201915b5050505050905090565b60606000821415612d5e576040518060400160405280600181526020017f30000000000000000000000000000000000000000000000000000000000000008152509050612e72565b600082905060005b60008214612d90578080612d7990614cc9565b915050600a82612d899190614aba565b9150612d66565b60008167ffffffffffffffff811115612dac57612dab614e58565b5b6040519080825280601f01601f191660200182016040528015612dde5781602001600182028036833780820191505090505b5090505b60008514612e6b57600182612df79190614b45565b9150600a85612e069190614d3c565b6030612e129190614a2d565b60f81b818381518110612e2857612e27614e29565b5b60200101907effffffffffffffffffffffffffffffffffffffffffffffffffffffffffffff1916908160001a905350600a85612e649190614aba565b9450612de2565b8093505050505b919050565b60007f80ac58cd000000000000000000000000000000000000000000000000000000007bffffffffffffffffffffffffffffffffffffffffffffffffffffffff1916827bffffffffffffffffffffffffffffffffffffffffffffffffffffffff19161480612f4257507f5b5e139f000000000000000000000000000000000000000000000000000000007bffffffffffffffffffffffffffffffffffffffffffffffffffffffff1916827bffffffffffffffffffffffffffffffffffffffffffffffffffffffff1916145b80612f525750612f518261322f565b5b9050919050565b612f64838383613299565b505050565b6000612f7482611255565b9050612f8281600084612f59565b612f8d6000836124f3565b6001600360008373ffffffffffffffffffffffffffffffffffffffff1673ffffffffffffffffffffffffffffffffffffffff1681526020019081526020016000206000828254612fdd9190614b45565b925050819055506002600083815260200190815260200160002060006101000a81549073ffffffffffffffffffffffffffffffffffffffff021916905581600073ffffffffffffffffffffffffffffffffffffffff168273ffffffffffffffffffffffffffffffffffffffff167fddf252ad1be2c89b69c2b068fc378daa952ba7f163c4a11628f55a4df523b3ef60405160405180910390a45050565b6130948282604051806020016040528060008152506133ad565b5050565b60006130b98473ffffffffffffffffffffffffffffffffffffffff16613408565b15613222578373ffffffffffffffffffffffffffffffffffffffff1663150b7a026130e26124eb565b8786866040518563ffffffff1660e01b8152600401613104949392919061443e565b602060405180830381600087803b15801561311e57600080fd5b505af192505050801561314f57506040513d601f19601f8201168201806040525081019061314c9190613d9c565b60015b6131d2573d806000811461317f576040519150601f19603f3d011682016040523d82523d6000602084013e613184565b606091505b506000815114156131ca576040517f08c379a00000000000000000000000000000000000000000000000000000000081526004016131c1906144e7565b60405180910390fd5b805181602001fd5b63150b7a0260e01b7bffffffffffffffffffffffffffffffffffffffffffffffffffffffff1916817bffffffffffffffffffffffffffffffffffffffffffffffffffffffff191614915050613227565b600190505b949350505050565b60007f01ffc9a7000000000000000000000000000000000000000000000000000000007bffffffffffffffffffffffffffffffffffffffffffffffffffffffff1916827bffffffffffffffffffffffffffffffffffffffffffffffffffffffff1916149050919050565b6132a483838361341b565b600073ffffffffffffffffffffffffffffffffffffffff168373ffffffffffffffffffffffffffffffffffffffff1614156132e7576132e281613420565b613326565b8173ffffffffffffffffffffffffffffffffffffffff168373ffffffffffffffffffffffffffffffffffffffff1614613325576133248382613469565b5b5b600073ffffffffffffffffffffffffffffffffffffffff168273ffffffffffffffffffffffffffffffffffffffff16141561336957613364816135d6565b6133a8565b8273ffffffffffffffffffffffffffffffffffffffff168273ffffffffffffffffffffffffffffffffffffffff16146133a7576133a682826136a7565b5b5b505050565b6133b78383613726565b6133c46000848484613098565b613403576040517f08c379a00000000000000000000000000000000000000000000000000000000081526004016133fa906144e7565b60405180910390fd5b505050565b600080823b905060008111915050919050565b505050565b6008805490506009600083815260200190815260200160002081905550600881908060018154018082558091505060019003906000526020600020016000909190919091505550565b60006001613476846113be565b6134809190614b45565b9050600060076000848152602001908152602001600020549050818114613565576000600660008673ffffffffffffffffffffffffffffffffffffffff1673ffffffffffffffffffffffffffffffffffffffff168152602001908152602001600020600084815260200190815260200160002054905080600660008773ffffffffffffffffffffffffffffffffffffffff1673ffffffffffffffffffffffffffffffffffffffff168152602001908152602001600020600084815260200190815260200160002081905550816007600083815260200190815260200160002081905550505b6007600084815260200190815260200160002060009055600660008573ffffffffffffffffffffffffffffffffffffffff1673ffffffffffffffffffffffffffffffffffffffff16815260200190815260200160002060008381526020019081526020016000206000905550505050565b600060016008805490506135ea9190614b45565b905060006009600084815260200190815260200160002054905060006008838154811061361a57613619614e29565b5b90600052602060002001549050806008838154811061363c5761363b614e29565b5b90600052602060002001819055508160096000838152602001908152602001600020819055506009600085815260200190815260200160002060009055600880548061368b5761368a614dfa565b5b6001900381819060005260206000200160009055905550505050565b60006136b2836113be565b905081600660008573ffffffffffffffffffffffffffffffffffffffff1673ffffffffffffffffffffffffffffffffffffffff168152602001908152602001600020600083815260200190815260200160002081905550806007600084815260200190815260200160002081905550505050565b600073ffffffffffffffffffffffffffffffffffffffff168273ffffffffffffffffffffffffffffffffffffffff161415613796576040517f08c379a000000000000000000000000000000000000000000000000000000000815260040161378d90614687565b60405180910390fd5b61379f8161247f565b156137df576040517f08c379a00000000000000000000000000000000000000000000000000000000081526004016137d690614527565b60405180910390fd5b6137eb60008383612f59565b6001600360008473ffffffffffffffffffffffffffffffffffffffff1673ffffffffffffffffffffffffffffffffffffffff168152602001908152602001600020600082825461383b9190614a2d565b92505081905550816002600083815260200190815260200160002060006101000a81548173ffffffffffffffffffffffffffffffffffffffff021916908373ffffffffffffffffffffffffffffffffffffffff160217905550808273ffffffffffffffffffffffffffffffffffffffff16600073ffffffffffffffffffffffffffffffffffffffff167fddf252ad1be2c89b69c2b068fc378daa952ba7f163c4a11628f55a4df523b3ef60405160405180910390a45050565b82805461390090614c66565b90600052602060002090601f0160209004810192826139225760008555613969565b82601f1061393b57805160ff1916838001178555613969565b82800160010185558215613969579182015b8281111561396857825182559160200191906001019061394d565b5b509050613976919061397a565b5090565b5b8082111561399357600081600090555060010161397b565b5090565b60006139aa6139a584614988565b614963565b9050828152602081018484840111156139c6576139c5614e91565b5b6139d1848285614bfa565b509392505050565b60006139ec6139e7846149b9565b614963565b905082815260208101848484011115613a0857613a07614e91565b5b613a13848285614bfa565b509392505050565b600081359050613a2a81615593565b92915050565b600081359050613a3f816155aa565b92915050565b600081519050613a54816155aa565b92915050565b600081359050613a69816155c1565b92915050565b600081519050613a7e816155c1565b92915050565b600082601f830112613a9957613a98614e87565b5b8135613aa9848260208601613997565b91505092915050565b600082601f830112613ac757613ac6614e87565b5b8135613ad78482602086016139d9565b91505092915050565b600060808284031215613af657613af5614e8c565b5b613b006080614963565b90506000613b1084828501613b97565b6000830152506020613b2484828501613b97565b6020830152506040613b3884828501613b6d565b6040830152506060613b4c84828501613a45565b60608301525092915050565b600081359050613b67816155d8565b92915050565b600081519050613b7c816155d8565b92915050565b600081359050613b91816155ef565b92915050565b600081519050613ba6816155ef565b92915050565b600060208284031215613bc257613bc1614e9b565b5b6000613bd084828501613a1b565b91505092915050565b60008060408385031215613bf057613bef614e9b565b5b6000613bfe85828601613a1b565b9250506020613c0f85828601613a1b565b9150509250929050565b600080600060608486031215613c3257613c31614e9b565b5b6000613c4086828701613a1b565b9350506020613c5186828701613a1b565b9250506040613c6286828701613b58565b9150509250925092565b60008060008060808587031215613c8657613c85614e9b565b5b6000613c9487828801613a1b565b9450506020613ca587828801613a1b565b9350506040613cb687828801613b58565b925050606085013567ffffffffffffffff811115613cd757613cd6614e96565b5b613ce387828801613a84565b91505092959194509250565b60008060408385031215613d0657613d05614e9b565b5b6000613d1485828601613a1b565b9250506020613d2585828601613a30565b9150509250929050565b60008060408385031215613d4657613d45614e9b565b5b6000613d5485828601613a1b565b9250506020613d6585828601613b58565b9150509250929050565b600060208284031215613d8557613d84614e9b565b5b6000613d9384828501613a5a565b91505092915050565b600060208284031215613db257613db1614e9b565b5b6000613dc084828501613a6f565b91505092915050565b600060208284031215613ddf57613dde614e9b565b5b600082013567ffffffffffffffff811115613dfd57613dfc614e96565b5b613e0984828501613ab2565b91505092915050565b600060808284031215613e2857613e27614e9b565b5b6000613e3684828501613ae0565b91505092915050565b600060208284031215613e5557613e54614e9b565b5b6000613e6384828501613b58565b91505092915050565b600060208284031215613e8257613e81614e9b565b5b6000613e9084828501613b6d565b91505092915050565b60008060408385031215613eb057613eaf614e9b565b5b6000613ebe85828601613b58565b9250506020613ecf85828601613b58565b9150509250929050565b600060208284031215613eef57613eee614e9b565b5b6000613efd84828501613b82565b91505092915050565b613f0f81614b79565b82525050565b613f1e81614b8b565b82525050565b6000613f2f826149ea565b613f398185614a00565b9350613f49818560208601614c09565b613f5281614ea0565b840191505092915050565b6000613f68826149f5565b613f728185614a11565b9350613f82818560208601614c09565b613f8b81614ea0565b840191505092915050565b6000613fa1826149f5565b613fab8185614a22565b9350613fbb818560208601614c09565b80840191505092915050565b6000613fd4602b83614a11565b9150613fdf82614eb1565b604082019050919050565b6000613ff7603283614a11565b915061400282614f00565b604082019050919050565b600061401a602683614a11565b915061402582614f4f565b604082019050919050565b600061403d601c83614a11565b915061404882614f9e565b602082019050919050565b6000614060602483614a11565b915061406b82614fc7565b604082019050919050565b6000614083601983614a11565b915061408e82615016565b602082019050919050565b60006140a6600983614a11565b91506140b18261503f565b602082019050919050565b60006140c9600a83614a11565b91506140d482615068565b602082019050919050565b60006140ec602c83614a11565b91506140f782615091565b604082019050919050565b600061410f603883614a11565b915061411a826150e0565b604082019050919050565b6000614132602a83614a11565b915061413d8261512f565b604082019050919050565b6000614155602983614a11565b91506141608261517e565b604082019050919050565b6000614178600a83614a11565b9150614183826151cd565b602082019050919050565b600061419b600f83614a11565b91506141a6826151f6565b602082019050919050565b60006141be602083614a11565b91506141c98261521f565b602082019050919050565b60006141e1602c83614a11565b91506141ec82615248565b604082019050919050565b6000614204600a83614a11565b915061420f82615297565b602082019050919050565b6000614227601383614a11565b9150614232826152c0565b602082019050919050565b600061424a602083614a11565b9150614255826152e9565b602082019050919050565b600061426d602983614a11565b915061427882615312565b604082019050919050565b6000614290602f83614a11565b915061429b82615361565b604082019050919050565b60006142b3600f83614a11565b91506142be826153b0565b602082019050919050565b60006142d6602183614a11565b91506142e1826153d9565b604082019050919050565b60006142f9601583614a11565b915061430482615428565b602082019050919050565b600061431c601383614a11565b915061432782615451565b602082019050919050565b600061433f603183614a11565b915061434a8261547a565b604082019050919050565b6000614362602c83614a11565b915061436d826154c9565b604082019050919050565b6000614385601e83614a11565b915061439082615518565b602082019050919050565b60006143a8600e83614a11565b91506143b382615541565b602082019050919050565b60006143cb601f83614a11565b91506143d68261556a565b602082019050919050565b6143ea81614be3565b82525050565b6143f981614bed565b82525050565b600061440b8285613f96565b91506144178284613f96565b91508190509392505050565b60006020820190506144386000830184613f06565b92915050565b60006080820190506144536000830187613f06565b6144606020830186613f06565b61446d60408301856143e1565b818103606083015261447f8184613f24565b905095945050505050565b600060208201905061449f6000830184613f15565b92915050565b600060208201905081810360008301526144bf8184613f5d565b905092915050565b600060208201905081810360008301526144e081613fc7565b9050919050565b6000602082019050818103600083015261450081613fea565b9050919050565b600060208201905081810360008301526145208161400d565b9050919050565b6000602082019050818103600083015261454081614030565b9050919050565b6000602082019050818103600083015261456081614053565b9050919050565b6000602082019050818103600083015261458081614076565b9050919050565b600060208201905081810360008301526145a081614099565b9050919050565b600060208201905081810360008301526145c0816140bc565b9050919050565b600060208201905081810360008301526145e0816140df565b9050919050565b6000602082019050818103600083015261460081614102565b9050919050565b6000602082019050818103600083015261462081614125565b9050919050565b6000602082019050818103600083015261464081614148565b9050919050565b600060208201905081810360008301526146608161416b565b9050919050565b600060208201905081810360008301526146808161418e565b9050919050565b600060208201905081810360008301526146a0816141b1565b9050919050565b600060208201905081810360008301526146c0816141d4565b9050919050565b600060208201905081810360008301526146e0816141f7565b9050919050565b600060208201905081810360008301526147008161421a565b9050919050565b600060208201905081810360008301526147208161423d565b9050919050565b6000602082019050818103600083015261474081614260565b9050919050565b6000602082019050818103600083015261476081614283565b9050919050565b60006020820190508181036000830152614780816142a6565b9050919050565b600060208201905081810360008301526147a0816142c9565b9050919050565b600060208201905081810360008301526147c0816142ec565b9050919050565b600060208201905081810360008301526147e08161430f565b9050919050565b6000602082019050818103600083015261480081614332565b9050919050565b6000602082019050818103600083015261482081614355565b9050919050565b6000602082019050818103600083015261484081614378565b9050919050565b600060208201905081810360008301526148608161439b565b9050919050565b60006020820190508181036000830152614880816143be565b9050919050565b600060208201905061489c60008301846143e1565b92915050565b60006040820190506148b760008301856143e1565b6148c460208301846143e1565b9392505050565b60006080820190506148e060008301876143e1565b6148ed60208301866143f0565b6148fa60408301856143f0565b61490760608301846143f0565b95945050505050565b600060a08201905061492560008301886143f0565b61493260208301876143f0565b61493f60408301866143f0565b61494c60608301856143e1565b6149596080830184613f15565b9695505050505050565b600061496d61497e565b90506149798282614c98565b919050565b6000604051905090565b600067ffffffffffffffff8211156149a3576149a2614e58565b5b6149ac82614ea0565b9050602081019050919050565b600067ffffffffffffffff8211156149d4576149d3614e58565b5b6149dd82614ea0565b9050602081019050919050565b600081519050919050565b600081519050919050565b600082825260208201905092915050565b600082825260208201905092915050565b600081905092915050565b6000614a3882614be3565b9150614a4383614be3565b9250827fffffffffffffffffffffffffffffffffffffffffffffffffffffffffffffffff03821115614a7857614a77614d6d565b5b828201905092915050565b6000614a8e82614bed565b9150614a9983614bed565b92508260ff03821115614aaf57614aae614d6d565b5b828201905092915050565b6000614ac582614be3565b9150614ad083614be3565b925082614ae057614adf614d9c565b5b828204905092915050565b6000614af682614be3565b9150614b0183614be3565b9250817fffffffffffffffffffffffffffffffffffffffffffffffffffffffffffffffff0483118215151615614b3a57614b39614d6d565b5b828202905092915050565b6000614b5082614be3565b9150614b5b83614be3565b925082821015614b6e57614b6d614d6d565b5b828203905092915050565b6000614b8482614bc3565b9050919050565b60008115159050919050565b60007fffffffff0000000000000000000000000000000000000000000000000000000082169050919050565b600073ffffffffffffffffffffffffffffffffffffffff82169050919050565b6000819050919050565b600060ff82169050919050565b82818337600083830152505050565b60005b83811015614c27578082015181840152602081019050614c0c565b83811115614c36576000848401525b50505050565b6000614c4782614bed565b91506000821415614c5b57614c5a614d6d565b5b600182039050919050565b60006002820490506001821680614c7e57607f821691505b60208210811415614c9257614c91614dcb565b5b50919050565b614ca182614ea0565b810181811067ffffffffffffffff82111715614cc057614cbf614e58565b5b80604052505050565b6000614cd482614be3565b91507fffffffffffffffffffffffffffffffffffffffffffffffffffffffffffffffff821415614d0757614d06614d6d565b5b600182019050919050565b6000614d1d82614bed565b915060ff821415614d3157614d30614d6d565b5b600182019050919050565b6000614d4782614be3565b9150614d5283614be3565b925082614d6257614d61614d9c565b5b828206905092915050565b7f4e487b7100000000000000000000000000000000000000000000000000000000600052601160045260246000fd5b7f4e487b7100000000000000000000000000000000000000000000000000000000600052601260045260246000fd5b7f4e487b7100000000000000000000000000000000000000000000000000000000600052602260045260246000fd5b7f4e487b7100000000000000000000000000000000000000000000000000000000600052603160045260246000fd5b7f4e487b7100000000000000000000000000000000000000000000000000000000600052603260045260246000fd5b7f4e487b7100000000000000000000000000000000000000000000000000000000600052604160045260246000fd5b600080fd5b600080fd5b600080fd5b600080fd5b600080fd5b6000601f19601f8301169050919050565b7f455243373231456e756d657261626c653a206f776e657220696e646578206f7560008201527f74206f6620626f756e6473000000000000000000000000000000000000000000602082015250565b7f4552433732313a207472616e7366657220746f206e6f6e20455243373231526560008201527f63656976657220696d706c656d656e7465720000000000000000000000000000602082015250565b7f4f776e61626c653a206e6577206f776e657220697320746865207a65726f206160008201527f6464726573730000000000000000000000000000000000000000000000000000602082015250565b7f4552433732313a20746f6b656e20616c7265616479206d696e74656400000000600082015250565b7f4552433732313a207472616e7366657220746f20746865207a65726f2061646460008201527f7265737300000000000000000000000000000000000000000000000000000000602082015250565b7f4552433732313a20617070726f766520746f2063616c6c657200000000000000600082015250565b7f4d6178206c6576656c0000000000000000000000000000000000000000000000600082015250565b7f6f6e6c792061646d696e00000000000000000000000000000000000000000000600082015250565b7f4552433732313a206f70657261746f7220717565727920666f72206e6f6e657860008201527f697374656e7420746f6b656e0000000000000000000000000000000000000000602082015250565b7f4552433732313a20617070726f76652063616c6c6572206973206e6f74206f7760008201527f6e6572206e6f7220617070726f76656420666f7220616c6c0000000000000000602082015250565b7f4552433732313a2062616c616e636520717565727920666f7220746865207a6560008201527f726f206164647265737300000000000000000000000000000000000000000000602082015250565b7f4552433732313a206f776e657220717565727920666f72206e6f6e657869737460008201527f656e7420746f6b656e0000000000000000000000000000000000000000000000602082015250565b7f6e6f742065786973747300000000000000000000000000000000000000000000600082015250565b7f446966666572656e74206c6576656c0000000000000000000000000000000000600082015250565b7f4552433732313a206d696e7420746f20746865207a65726f2061646472657373600082015250565b7f4552433732313a20617070726f76656420717565727920666f72206e6f6e657860008201527f697374656e7420746f6b656e0000000000000000000000000000000000000000602082015250565b7f4f776e6572206f6e6c7900000000000000000000000000000000000000000000600082015250565b7f496e73756666696369656e7420737570706c7900000000000000000000000000600082015250565b7f4f776e61626c653a2063616c6c6572206973206e6f7420746865206f776e6572600082015250565b7f4552433732313a207472616e73666572206f6620746f6b656e2074686174206960008201527f73206e6f74206f776e0000000000000000000000000000000000000000000000602082015250565b7f4552433732314d657461646174613a2055524920717565727920666f72206e6f60008201527f6e6578697374656e7420746f6b656e0000000000000000000000000000000000602082015250565b7f446966666572656e7420676e6f6d650000000000000000000000000000000000600082015250565b7f4552433732313a20617070726f76616c20746f2063757272656e74206f776e6560008201527f7200000000000000000000000000000000000000000000000000000000000000602082015250565b7f476e6f6d6520646f6573206e6f74206578697374730000000000000000000000600082015250565b7f496e73756666696369656e7420616d6f756e7400000000000000000000000000600082015250565b7f4552433732313a207472616e736665722063616c6c6572206973206e6f74206f60008201527f776e6572206e6f7220617070726f766564000000000000000000000000000000602082015250565b7f455243373231456e756d657261626c653a20676c6f62616c20696e646578206f60008201527f7574206f6620626f756e64730000000000000000000000000000000000000000602082015250565b7f416d6f756e74206d75737420626520626967676572207468656e203020200000600082015250565b7f4e6f206d6f726520737570706c79000000000000000000000000000000000000600082015250565b7f5265656e7472616e637947756172643a207265656e7472616e742063616c6c00600082015250565b61559c81614b79565b81146155a757600080fd5b50565b6155b381614b8b565b81146155be57600080fd5b50565b6155ca81614b97565b81146155d557600080fd5b50565b6155e181614be3565b81146155ec57600080fd5b50565b6155f881614bed565b811461560357600080fd5b5056fea264697066735822122030e1eb5d175dffdb06132c3c59f9b11bd2718297bcc1c754b2d51383b794916e64736f6c63430008060033",
  "immutableReferences": {},
  "source": "pragma solidity ^0.8.0;\r\n\r\nimport \"@openzeppelin/contracts/token/ERC721/ERC721.sol\";\r\nimport \"@openzeppelin/contracts/token/ERC721/extensions/ERC721Enumerable.sol\";\r\nimport \"@openzeppelin/contracts/security/ReentrancyGuard.sol\";\r\nimport \"./IRandom.sol\";\r\nimport \"./Security.sol\";\r\nimport \"./SharedStructs.sol\";\r\n\r\n\r\ninterface IGnomesTemplates is ISharedStructs {\r\n\r\n    function getGnomeTemplateRarityAndRandom(uint rarity, uint randomNumber) external view returns (structGnome memory);\r\n\r\n    function getCollectionById(uint id) external view returns (uint[] memory);\r\n\r\n}\r\n\r\ncontract MyMiniMiners is ERC721, ERC721Enumerable, Security, ReentrancyGuard, ISharedStructs {\r\n\r\n\r\n    /*\r\n     [0] =  legendarySupplyLeft\r\n     [1] =  EpicSupplyLeft\r\n     [2] =  rareSupplyLeft\r\n     [3] =  CommonSupplyLeft\r\n    */\r\n\r\n        //todo change to this\r\n   // uint[4] private _supplyLeft = [17500, 87500, 437500, 857500];\r\n    uint[4] private _supplyLeft = [175*2, 875*2, 4375*2, 8575*2];\r\n\r\n    string private _baseURIStr;\r\n\r\n    structPlayerGnome[] private _playersGnomes;\r\n    IRandom private _randomContract;\r\n    IGnomesTemplates private _gnomesTemplatesContract;\r\n\r\n\r\n    event Mint(address indexed player, uint  indexed tokenId, uint collection, uint8 gnomeId, uint8 level, uint8 rarity);\r\n\r\n    constructor(address feesAccount, address adminAccount, address randomContract, address gnomesTemplatesContract, string memory baseUri)   ERC721(\"My Mini Miners\", \"MYMM\") ReentrancyGuard() payable {\r\n        setFeesAccount(feesAccount);\r\n        setAdminAccount(adminAccount);\r\n        setGnomesTemplateContractAddress(gnomesTemplatesContract);\r\n        setRandomContractAddress(randomContract);\r\n        setBaseUri(baseUri);\r\n        //solidity default value for uint is 0 so we start the tokenIds from 1\r\n        _playersGnomes.push();\r\n    }\r\n    //********************************* game functions *************************************//\r\n\r\n    function buyGnome(uint8 amountToBuy) external payable nonReentrant {\r\n        require(amountToBuy > 0, \"Amount must be bigger then 0  \");\r\n        require(msg.value == getGnomePrice(amountToBuy), \"Insufficient amount\");\r\n        uint currentTotalSupply = totalSupplyLeft();\r\n        require(currentTotalSupply >= amountToBuy, \"Insufficient supply\");\r\n        payable(feesAccount()).transfer(msg.value);\r\n\r\n        for (uint8 i; i < amountToBuy; i++) {\r\n            uint randomNumber = _randomContract.getRandomNumber();\r\n            uint randomPosition = randomNumber % currentTotalSupply;\r\n            uint rarityIndex = _getRarityByPosition(randomPosition);\r\n            _supplyLeft[rarityIndex] = _supplyLeft[rarityIndex] -1;\r\n            currentTotalSupply = currentTotalSupply-1;\r\n            structGnome memory gnome = _gnomesTemplatesContract.getGnomeTemplateRarityAndRandom(rarityIndex, randomNumber);\r\n            _createGnome(gnome.id, 1, gnome.rarity, gnome.collection);\r\n        }\r\n    }\r\n\r\n    function mergeGnomes(uint tokenId1, uint tokenId2) external nonReentrant {\r\n\r\n        require(_msgSender() == ownerOf(tokenId1) && _msgSender() == ownerOf(tokenId2), \"Owner only\");\r\n        require(_playersGnomes[tokenId1].exists && _playersGnomes[tokenId2].exists, \"Gnome does not exists\");\r\n        require(_playersGnomes[tokenId1].gnomeId == _playersGnomes[tokenId2].gnomeId, \"Different gnome\");\r\n        require(_playersGnomes[tokenId1].level == _playersGnomes[tokenId2].level, \"Different level\");\r\n        require(_playersGnomes[tokenId1].level < 10, \"Max level\");\r\n\r\n        uint8 newLevel = _playersGnomes[tokenId1].level + 1;\r\n\r\n        _burn(tokenId1);\r\n        _burn(tokenId2);\r\n\r\n        _createGnome(\r\n            _playersGnomes[tokenId1].gnomeId,\r\n            newLevel,\r\n            _playersGnomes[tokenId1].rarity,\r\n            _playersGnomes[tokenId1].collection\r\n        );\r\n\r\n    }\r\n\r\n    function getGnomePrice(uint8 amountToBuy) public view returns (uint) {\r\n        uint foundGnomes = _playersGnomes.length;\r\n        uint totalPrice;\r\n        uint priceJump = (10 ** 16) * 25;\r\n        uint basePrice = (10 ** 17) * 5;\r\n        for (uint8 i; i < amountToBuy; i++) {\r\n            if (foundGnomes < 10000) {\r\n                foundGnomes = foundGnomes + 1;\r\n                continue;\r\n            }\r\n            totalPrice = totalPrice + basePrice + priceJump * (foundGnomes / (10 ** 5));\r\n            foundGnomes = foundGnomes + 1;\r\n        }\r\n        return totalPrice;\r\n    }\r\n\r\n    function getGnome(uint tokenId) external view returns (uint8, uint8, uint8, uint, bool) {\r\n        require(_playersGnomes[tokenId].exists, \"not exists\");\r\n        return (_playersGnomes[tokenId].gnomeId, _playersGnomes[tokenId].level, _playersGnomes[tokenId].rarity, _playersGnomes[tokenId].collection, _playersGnomes[tokenId].exists);\r\n    }\r\n\r\n    function _createGnome(uint8 gnomeId, uint8 level, uint8 rarity, uint collection) private {\r\n        uint newTokenId = _playersGnomes.length;\r\n        _safeMint(_msgSender(), newTokenId);\r\n        structPlayerGnome memory playerGnome = structPlayerGnome({\r\n        gnomeId : gnomeId,\r\n        tokenId : newTokenId,\r\n        level : level,\r\n        rarity : rarity,\r\n        collection : collection,\r\n        exists : true\r\n        });\r\n        _playersGnomes.push(playerGnome);\r\n\r\n        emit Mint(_msgSender(), newTokenId, playerGnome.collection, playerGnome.gnomeId, playerGnome.level, playerGnome.rarity);\r\n\r\n    }\r\n\r\n    function getSupplyByIndex(uint index) external view returns (uint){\r\n        return _supplyLeft[index];\r\n    }\r\n\r\n    function _getRarityByPosition(uint position) private view returns (uint8){\r\n\r\n        uint supply;\r\n        for (uint8 i = 3; i >= 0; i--) {\r\n            supply = supply + _supplyLeft[i];\r\n            if (supply > position) {\r\n                return i;\r\n            }\r\n        }\r\n        revert(\"No more supply\");\r\n    }\r\n\r\n    function totalSupplyLeft() public view returns (uint supply){\r\n        for (uint8 i; i < _supplyLeft.length; i++) {\r\n            supply = supply + _supplyLeft[i];\r\n        }\r\n        return supply;\r\n    }\r\n\r\n\r\n    function _beforeTokenTransfer(address from, address to, uint256 tokenId) internal override(ERC721, ERC721Enumerable) {\r\n        super._beforeTokenTransfer(from, to, tokenId);\r\n    }\r\n\r\n    function supportsInterface(bytes4 interfaceId) public view override(ERC721, ERC721Enumerable) returns (bool) {\r\n        return super.supportsInterface(interfaceId);\r\n    }\r\n\r\n    function _burn(uint256 tokenId) internal override {\r\n        super._burn(tokenId);\r\n        _playersGnomes[tokenId].exists = false;\r\n    }\r\n\r\n\r\n    function _baseURI() internal view override returns (string memory) {\r\n        return _baseURIStr;\r\n    }\r\n\r\n    //********************************* management functions *************************************//\r\n\r\n\r\n    function setBaseUri(string memory uri) public onlyAdmin {\r\n        _baseURIStr = uri;\r\n    }\r\n\r\n    function setRandomContractAddress(address randomContract) public onlyAdmin {\r\n        _randomContract = IRandom(randomContract);\r\n    }\r\n\r\n    function setGnomesTemplateContractAddress(address gnomesTemplatesContract) public onlyAdmin {\r\n        _gnomesTemplatesContract = IGnomesTemplates(gnomesTemplatesContract);\r\n    }\r\n\r\n\r\n}\r\n",
  "sourcePath": "C:\\Users\\amit\\PhpstormProjects\\myminiminers\\myminiminers-contract\\src\\contracts\\MyMiniMiners.sol",
  "compiler": {
    "name": "solc",
    "version": "0.8.6+commit.11564f7e.Emscripten.clang"
  },
  "schemaVersion": "3.4.3",
  "updatedAt": "2021-12-11T12:00:22.200Z",
  "networkType": "ethereum",
  "devdoc": {
    "kind": "dev",
    "methods": {
      "approve(address,uint256)": {
        "details": "See {IERC721-approve}."
      },
      "balanceOf(address)": {
        "details": "See {IERC721-balanceOf}."
      },
      "getApproved(uint256)": {
        "details": "See {IERC721-getApproved}."
      },
      "isApprovedForAll(address,address)": {
        "details": "See {IERC721-isApprovedForAll}."
      },
      "name()": {
        "details": "See {IERC721Metadata-name}."
      },
      "owner()": {
        "details": "Returns the address of the current owner."
      },
      "ownerOf(uint256)": {
        "details": "See {IERC721-ownerOf}."
      },
      "renounceOwnership()": {
        "details": "Leaves the contract without owner. It will not be possible to call `onlyOwner` functions anymore. Can only be called by the current owner. NOTE: Renouncing ownership will leave the contract without an owner, thereby removing any functionality that is only available to the owner."
      },
      "safeTransferFrom(address,address,uint256)": {
        "details": "See {IERC721-safeTransferFrom}."
      },
      "safeTransferFrom(address,address,uint256,bytes)": {
        "details": "See {IERC721-safeTransferFrom}."
      },
      "setApprovalForAll(address,bool)": {
        "details": "See {IERC721-setApprovalForAll}."
      },
      "symbol()": {
        "details": "See {IERC721Metadata-symbol}."
      },
      "tokenByIndex(uint256)": {
        "details": "See {IERC721Enumerable-tokenByIndex}."
      },
      "tokenOfOwnerByIndex(address,uint256)": {
        "details": "See {IERC721Enumerable-tokenOfOwnerByIndex}."
      },
      "tokenURI(uint256)": {
        "details": "See {IERC721Metadata-tokenURI}."
      },
      "totalSupply()": {
        "details": "See {IERC721Enumerable-totalSupply}."
      },
      "transferFrom(address,address,uint256)": {
        "details": "See {IERC721-transferFrom}."
      },
      "transferOwnership(address)": {
        "details": "Transfers ownership of the contract to a new account (`newOwner`). Can only be called by the current owner."
      }
    },
    "version": 1
  },
  "userdoc": {
    "kind": "user",
    "methods": {},
    "version": 1
  }
}