{
  "contractName": "MyMiniMiners",
  "abi": [
    {
      "inputs": [
        {
          "internalType": "address",
          "name": "feesAccount",
          "type": "address"
        },
        {
          "internalType": "address",
          "name": "adminAccount",
          "type": "address"
        },
        {
          "internalType": "address",
          "name": "randomContract",
          "type": "address"
        },
        {
          "internalType": "address",
          "name": "gnomesTemplatesContract",
          "type": "address"
        },
        {
          "internalType": "string",
          "name": "baseUri",
          "type": "string"
        }
      ],
      "stateMutability": "payable",
      "type": "constructor",
      "payable": true
    },
    {
      "anonymous": false,
      "inputs": [
        {
          "indexed": true,
          "internalType": "address",
          "name": "owner",
          "type": "address"
        },
        {
          "indexed": true,
          "internalType": "address",
          "name": "approved",
          "type": "address"
        },
        {
          "indexed": true,
          "internalType": "uint256",
          "name": "tokenId",
          "type": "uint256"
        }
      ],
      "name": "Approval",
      "type": "event"
    },
    {
      "anonymous": false,
      "inputs": [
        {
          "indexed": true,
          "internalType": "address",
          "name": "owner",
          "type": "address"
        },
        {
          "indexed": true,
          "internalType": "address",
          "name": "operator",
          "type": "address"
        },
        {
          "indexed": false,
          "internalType": "bool",
          "name": "approved",
          "type": "bool"
        }
      ],
      "name": "ApprovalForAll",
      "type": "event"
    },
    {
      "anonymous": false,
      "inputs": [
        {
          "indexed": true,
          "internalType": "address",
          "name": "oldAccount",
          "type": "address"
        },
        {
          "indexed": true,
          "internalType": "address",
          "name": "newAccount",
          "type": "address"
        }
      ],
      "name": "FeesAccountChanged",
      "type": "event"
    },
    {
      "anonymous": false,
      "inputs": [
        {
          "indexed": true,
          "internalType": "address",
          "name": "player",
          "type": "address"
        },
        {
          "indexed": true,
          "internalType": "uint256",
          "name": "tokenId",
          "type": "uint256"
        },
        {
          "indexed": false,
          "internalType": "uint256",
          "name": "collection",
          "type": "uint256"
        },
        {
          "indexed": false,
          "internalType": "uint8",
          "name": "gnomeId",
          "type": "uint8"
        },
        {
          "indexed": false,
          "internalType": "uint8",
          "name": "level",
          "type": "uint8"
        },
        {
          "indexed": false,
          "internalType": "uint8",
          "name": "rarity",
          "type": "uint8"
        }
      ],
      "name": "Mint",
      "type": "event"
    },
    {
      "anonymous": false,
      "inputs": [
        {
          "indexed": true,
          "internalType": "address",
          "name": "previousOwner",
          "type": "address"
        },
        {
          "indexed": true,
          "internalType": "address",
          "name": "newOwner",
          "type": "address"
        }
      ],
      "name": "OwnershipTransferred",
      "type": "event"
    },
    {
      "anonymous": false,
      "inputs": [
        {
          "indexed": true,
          "internalType": "address",
          "name": "from",
          "type": "address"
        },
        {
          "indexed": true,
          "internalType": "address",
          "name": "to",
          "type": "address"
        },
        {
          "indexed": true,
          "internalType": "uint256",
          "name": "tokenId",
          "type": "uint256"
        }
      ],
      "name": "Transfer",
      "type": "event"
    },
    {
      "anonymous": false,
      "inputs": [
        {
          "indexed": true,
          "internalType": "address",
          "name": "oldAccount",
          "type": "address"
        },
        {
          "indexed": true,
          "internalType": "address",
          "name": "newAccount",
          "type": "address"
        }
      ],
      "name": "adminAccountChanged",
      "type": "event"
    },
    {
      "inputs": [],
      "name": "adminAccount",
      "outputs": [
        {
          "internalType": "address",
          "name": "",
          "type": "address"
        }
      ],
      "stateMutability": "view",
      "type": "function",
      "constant": true
    },
    {
      "inputs": [
        {
          "internalType": "address",
          "name": "to",
          "type": "address"
        },
        {
          "internalType": "uint256",
          "name": "tokenId",
          "type": "uint256"
        }
      ],
      "name": "approve",
      "outputs": [],
      "stateMutability": "nonpayable",
      "type": "function"
    },
    {
      "inputs": [
        {
          "internalType": "address",
          "name": "owner",
          "type": "address"
        }
      ],
      "name": "balanceOf",
      "outputs": [
        {
          "internalType": "uint256",
          "name": "",
          "type": "uint256"
        }
      ],
      "stateMutability": "view",
      "type": "function",
      "constant": true
    },
    {
      "inputs": [],
      "name": "feesAccount",
      "outputs": [
        {
          "internalType": "address",
          "name": "",
          "type": "address"
        }
      ],
      "stateMutability": "view",
      "type": "function",
      "constant": true
    },
    {
      "inputs": [
        {
          "internalType": "uint256",
          "name": "tokenId",
          "type": "uint256"
        }
      ],
      "name": "getApproved",
      "outputs": [
        {
          "internalType": "address",
          "name": "",
          "type": "address"
        }
      ],
      "stateMutability": "view",
      "type": "function",
      "constant": true
    },
    {
      "inputs": [
        {
          "internalType": "address",
          "name": "owner",
          "type": "address"
        },
        {
          "internalType": "address",
          "name": "operator",
          "type": "address"
        }
      ],
      "name": "isApprovedForAll",
      "outputs": [
        {
          "internalType": "bool",
          "name": "",
          "type": "bool"
        }
      ],
      "stateMutability": "view",
      "type": "function",
      "constant": true
    },
    {
      "inputs": [],
      "name": "name",
      "outputs": [
        {
          "internalType": "string",
          "name": "",
          "type": "string"
        }
      ],
      "stateMutability": "view",
      "type": "function",
      "constant": true
    },
    {
      "inputs": [],
      "name": "owner",
      "outputs": [
        {
          "internalType": "address",
          "name": "",
          "type": "address"
        }
      ],
      "stateMutability": "view",
      "type": "function",
      "constant": true
    },
    {
      "inputs": [
        {
          "internalType": "uint256",
          "name": "tokenId",
          "type": "uint256"
        }
      ],
      "name": "ownerOf",
      "outputs": [
        {
          "internalType": "address",
          "name": "",
          "type": "address"
        }
      ],
      "stateMutability": "view",
      "type": "function",
      "constant": true
    },
    {
      "inputs": [],
      "name": "renounceOwnership",
      "outputs": [],
      "stateMutability": "nonpayable",
      "type": "function"
    },
    {
      "inputs": [
        {
          "internalType": "address",
          "name": "from",
          "type": "address"
        },
        {
          "internalType": "address",
          "name": "to",
          "type": "address"
        },
        {
          "internalType": "uint256",
          "name": "tokenId",
          "type": "uint256"
        }
      ],
      "name": "safeTransferFrom",
      "outputs": [],
      "stateMutability": "nonpayable",
      "type": "function"
    },
    {
      "inputs": [
        {
          "internalType": "address",
          "name": "from",
          "type": "address"
        },
        {
          "internalType": "address",
          "name": "to",
          "type": "address"
        },
        {
          "internalType": "uint256",
          "name": "tokenId",
          "type": "uint256"
        },
        {
          "internalType": "bytes",
          "name": "_data",
          "type": "bytes"
        }
      ],
      "name": "safeTransferFrom",
      "outputs": [],
      "stateMutability": "nonpayable",
      "type": "function"
    },
    {
      "inputs": [
        {
          "internalType": "address",
          "name": "newAccount",
          "type": "address"
        }
      ],
      "name": "setAdminAccount",
      "outputs": [],
      "stateMutability": "nonpayable",
      "type": "function"
    },
    {
      "inputs": [
        {
          "internalType": "address",
          "name": "operator",
          "type": "address"
        },
        {
          "internalType": "bool",
          "name": "approved",
          "type": "bool"
        }
      ],
      "name": "setApprovalForAll",
      "outputs": [],
      "stateMutability": "nonpayable",
      "type": "function"
    },
    {
      "inputs": [
        {
          "internalType": "address",
          "name": "newAccount",
          "type": "address"
        }
      ],
      "name": "setFeesAccount",
      "outputs": [],
      "stateMutability": "nonpayable",
      "type": "function"
    },
    {
      "inputs": [],
      "name": "symbol",
      "outputs": [
        {
          "internalType": "string",
          "name": "",
          "type": "string"
        }
      ],
      "stateMutability": "view",
      "type": "function",
      "constant": true
    },
    {
      "inputs": [
        {
          "internalType": "uint256",
          "name": "index",
          "type": "uint256"
        }
      ],
      "name": "tokenByIndex",
      "outputs": [
        {
          "internalType": "uint256",
          "name": "",
          "type": "uint256"
        }
      ],
      "stateMutability": "view",
      "type": "function",
      "constant": true
    },
    {
      "inputs": [
        {
          "internalType": "address",
          "name": "owner",
          "type": "address"
        },
        {
          "internalType": "uint256",
          "name": "index",
          "type": "uint256"
        }
      ],
      "name": "tokenOfOwnerByIndex",
      "outputs": [
        {
          "internalType": "uint256",
          "name": "",
          "type": "uint256"
        }
      ],
      "stateMutability": "view",
      "type": "function",
      "constant": true
    },
    {
      "inputs": [
        {
          "internalType": "uint256",
          "name": "tokenId",
          "type": "uint256"
        }
      ],
      "name": "tokenURI",
      "outputs": [
        {
          "internalType": "string",
          "name": "",
          "type": "string"
        }
      ],
      "stateMutability": "view",
      "type": "function",
      "constant": true
    },
    {
      "inputs": [],
      "name": "totalSupply",
      "outputs": [
        {
          "internalType": "uint256",
          "name": "",
          "type": "uint256"
        }
      ],
      "stateMutability": "view",
      "type": "function",
      "constant": true
    },
    {
      "inputs": [
        {
          "internalType": "address",
          "name": "from",
          "type": "address"
        },
        {
          "internalType": "address",
          "name": "to",
          "type": "address"
        },
        {
          "internalType": "uint256",
          "name": "tokenId",
          "type": "uint256"
        }
      ],
      "name": "transferFrom",
      "outputs": [],
      "stateMutability": "nonpayable",
      "type": "function"
    },
    {
      "inputs": [
        {
          "internalType": "address",
          "name": "newOwner",
          "type": "address"
        }
      ],
      "name": "transferOwnership",
      "outputs": [],
      "stateMutability": "nonpayable",
      "type": "function"
    },
    {
      "inputs": [
        {
          "internalType": "uint8",
          "name": "amountToBuy",
          "type": "uint8"
        }
      ],
      "name": "buyGnome",
      "outputs": [],
      "stateMutability": "payable",
      "type": "function",
      "payable": true
    },
    {
      "inputs": [
        {
          "internalType": "uint256",
          "name": "tokenId1",
          "type": "uint256"
        },
        {
          "internalType": "uint256",
          "name": "tokenId2",
          "type": "uint256"
        }
      ],
      "name": "mergeGnomes",
      "outputs": [],
      "stateMutability": "nonpayable",
      "type": "function"
    },
    {
      "inputs": [
        {
          "internalType": "uint8",
          "name": "amountToBuy",
          "type": "uint8"
        }
      ],
      "name": "getGnomePrice",
      "outputs": [
        {
          "internalType": "uint256",
          "name": "",
          "type": "uint256"
        }
      ],
      "stateMutability": "view",
      "type": "function",
      "constant": true
    },
    {
      "inputs": [
        {
          "internalType": "uint256",
          "name": "tokenId",
          "type": "uint256"
        }
      ],
      "name": "getGnome",
      "outputs": [
        {
          "internalType": "uint8",
          "name": "",
          "type": "uint8"
        },
        {
          "internalType": "uint8",
          "name": "",
          "type": "uint8"
        },
        {
          "internalType": "uint8",
          "name": "",
          "type": "uint8"
        },
        {
          "internalType": "uint256",
          "name": "",
          "type": "uint256"
        },
        {
          "internalType": "bool",
          "name": "",
          "type": "bool"
        }
      ],
      "stateMutability": "view",
      "type": "function",
      "constant": true
    },
    {
      "inputs": [],
      "name": "totalSupplyLeft",
      "outputs": [
        {
          "internalType": "uint256",
          "name": "supply",
          "type": "uint256"
        }
      ],
      "stateMutability": "view",
      "type": "function",
      "constant": true
    },
    {
      "inputs": [
        {
          "internalType": "bytes4",
          "name": "interfaceId",
          "type": "bytes4"
        }
      ],
      "name": "supportsInterface",
      "outputs": [
        {
          "internalType": "bool",
          "name": "",
          "type": "bool"
        }
      ],
      "stateMutability": "view",
      "type": "function",
      "constant": true
    },
    {
      "inputs": [
        {
          "internalType": "string",
          "name": "uri",
          "type": "string"
        }
      ],
      "name": "setBaseUri",
      "outputs": [],
      "stateMutability": "nonpayable",
      "type": "function"
    },
    {
      "inputs": [
        {
          "internalType": "address",
          "name": "randomContract",
          "type": "address"
        }
      ],
      "name": "setRandomContractAddress",
      "outputs": [],
      "stateMutability": "nonpayable",
      "type": "function"
    },
    {
      "inputs": [
        {
          "internalType": "address",
          "name": "gnomesTemplatesContract",
          "type": "address"
        }
      ],
      "name": "setGnomesTemplateContractAddress",
      "outputs": [],
      "stateMutability": "nonpayable",
      "type": "function"
    }
  ],
  "bytecode": "0x6080604052604051806080016040528061445c62ffffff168152602001620155cc62ffffff1681526020016206acfc62ffffff168152602001620d159c62ffffff16815250600e90600462000056929190620008df565b50604051620061613803806200616183398181016040528101906200007c919062000a70565b6040518060400160405280600581526020017f6d6d6d74310000000000000000000000000000000000000000000000000000008152506040518060400160405280600581526020017f4d4d4d54310000000000000000000000000000000000000000000000000000008152508160009080519060200190620001009291906200092b565b508060019080519060200190620001199291906200092b565b5050506200013c62000130620001c260201b60201c565b620001ca60201b60201c565b6001600d8190555062000155856200029060201b60201c565b62000166846200044a60201b60201c565b6200017782620005d460201b60201c565b6200018883620006d760201b60201c565b6200019981620007da60201b60201c565b601360018160018154018082558091505003906000526020600020905050505050505062000d6c565b600033905090565b6000600a60009054906101000a900473ffffffffffffffffffffffffffffffffffffffff16905081600a60006101000a81548173ffffffffffffffffffffffffffffffffffffffff021916908373ffffffffffffffffffffffffffffffffffffffff1602179055508173ffffffffffffffffffffffffffffffffffffffff168173ffffffffffffffffffffffffffffffffffffffff167f8be0079c531659141344cd1fd0a4f28419497f9722a3daafe3b4186f6b6457e060405160405180910390a35050565b620002a0620001c260201b60201c565b73ffffffffffffffffffffffffffffffffffffffff16600c60009054906101000a900473ffffffffffffffffffffffffffffffffffffffff1673ffffffffffffffffffffffffffffffffffffffff16148062000345575062000307620008b560201b60201c565b73ffffffffffffffffffffffffffffffffffffffff166200032d620001c260201b60201c565b73ffffffffffffffffffffffffffffffffffffffff16145b6200034f57600080fd5b600073ffffffffffffffffffffffffffffffffffffffff168173ffffffffffffffffffffffffffffffffffffffff1614156200038a57600080fd5b8073ffffffffffffffffffffffffffffffffffffffff16600b60009054906101000a900473ffffffffffffffffffffffffffffffffffffffff1673ffffffffffffffffffffffffffffffffffffffff167f686292a774da47913df940e499f775044c8f0306ee4e4ca2462d73570abac92b60405160405180910390a380600b60006101000a81548173ffffffffffffffffffffffffffffffffffffffff021916908373ffffffffffffffffffffffffffffffffffffffff16021790555050565b6200045a620001c260201b60201c565b73ffffffffffffffffffffffffffffffffffffffff1662000480620008b560201b60201c565b73ffffffffffffffffffffffffffffffffffffffff1614620004d9576040517f08c379a0000000000000000000000000000000000000000000000000000000008152600401620004d09062000b3e565b60405180910390fd5b600073ffffffffffffffffffffffffffffffffffffffff168173ffffffffffffffffffffffffffffffffffffffff1614156200051457600080fd5b8073ffffffffffffffffffffffffffffffffffffffff16600b60009054906101000a900473ffffffffffffffffffffffffffffffffffffffff1673ffffffffffffffffffffffffffffffffffffffff167f6c653cea66fc767872566a48443cddce6845518f298111992df854d4425f13f060405160405180910390a380600c60006101000a81548173ffffffffffffffffffffffffffffffffffffffff021916908373ffffffffffffffffffffffffffffffffffffffff16021790555050565b620005e4620001c260201b60201c565b73ffffffffffffffffffffffffffffffffffffffff16600c60009054906101000a900473ffffffffffffffffffffffffffffffffffffffff1673ffffffffffffffffffffffffffffffffffffffff1614806200068957506200064b620008b560201b60201c565b73ffffffffffffffffffffffffffffffffffffffff1662000671620001c260201b60201c565b73ffffffffffffffffffffffffffffffffffffffff16145b6200069357600080fd5b80601560006101000a81548173ffffffffffffffffffffffffffffffffffffffff021916908373ffffffffffffffffffffffffffffffffffffffff16021790555050565b620006e7620001c260201b60201c565b73ffffffffffffffffffffffffffffffffffffffff16600c60009054906101000a900473ffffffffffffffffffffffffffffffffffffffff1673ffffffffffffffffffffffffffffffffffffffff1614806200078c57506200074e620008b560201b60201c565b73ffffffffffffffffffffffffffffffffffffffff1662000774620001c260201b60201c565b73ffffffffffffffffffffffffffffffffffffffff16145b6200079657600080fd5b80601460006101000a81548173ffffffffffffffffffffffffffffffffffffffff021916908373ffffffffffffffffffffffffffffffffffffffff16021790555050565b620007ea620001c260201b60201c565b73ffffffffffffffffffffffffffffffffffffffff16600c60009054906101000a900473ffffffffffffffffffffffffffffffffffffffff1673ffffffffffffffffffffffffffffffffffffffff1614806200088f575062000851620008b560201b60201c565b73ffffffffffffffffffffffffffffffffffffffff1662000877620001c260201b60201c565b73ffffffffffffffffffffffffffffffffffffffff16145b6200089957600080fd5b8060129080519060200190620008b19291906200092b565b5050565b6000600a60009054906101000a900473ffffffffffffffffffffffffffffffffffffffff16905090565b826004810192821562000918579160200282015b8281111562000917578251829062ffffff16905591602001919060010190620008f3565b5b509050620009279190620009bc565b5090565b828054620009399062000c3a565b90600052602060002090601f0160209004810192826200095d5760008555620009a9565b82601f106200097857805160ff1916838001178555620009a9565b82800160010185558215620009a9579182015b82811115620009a85782518255916020019190600101906200098b565b5b509050620009b89190620009bc565b5090565b5b80821115620009d7576000816000905550600101620009bd565b5090565b6000620009f2620009ec8462000b89565b62000b60565b90508281526020810184848401111562000a115762000a1062000d09565b5b62000a1e84828562000c04565b509392505050565b60008151905062000a378162000d52565b92915050565b600082601f83011262000a555762000a5462000d04565b5b815162000a67848260208601620009db565b91505092915050565b600080600080600060a0868803121562000a8f5762000a8e62000d13565b5b600062000a9f8882890162000a26565b955050602062000ab28882890162000a26565b945050604062000ac58882890162000a26565b935050606062000ad88882890162000a26565b925050608086015167ffffffffffffffff81111562000afc5762000afb62000d0e565b5b62000b0a8882890162000a3d565b9150509295509295909350565b600062000b2660208362000bbf565b915062000b338262000d29565b602082019050919050565b6000602082019050818103600083015262000b598162000b17565b9050919050565b600062000b6c62000b7f565b905062000b7a828262000c70565b919050565b6000604051905090565b600067ffffffffffffffff82111562000ba75762000ba662000cd5565b5b62000bb28262000d18565b9050602081019050919050565b600082825260208201905092915050565b600062000bdd8262000be4565b9050919050565b600073ffffffffffffffffffffffffffffffffffffffff82169050919050565b60005b8381101562000c2457808201518184015260208101905062000c07565b8381111562000c34576000848401525b50505050565b6000600282049050600182168062000c5357607f821691505b6020821081141562000c6a5762000c6962000ca6565b5b50919050565b62000c7b8262000d18565b810181811067ffffffffffffffff8211171562000c9d5762000c9c62000cd5565b5b80604052505050565b7f4e487b7100000000000000000000000000000000000000000000000000000000600052602260045260246000fd5b7f4e487b7100000000000000000000000000000000000000000000000000000000600052604160045260246000fd5b600080fd5b600080fd5b600080fd5b600080fd5b6000601f19601f8301169050919050565b7f4f776e61626c653a2063616c6c6572206973206e6f7420746865206f776e6572600082015250565b62000d5d8162000bd0565b811462000d6957600080fd5b50565b6153e58062000d7c6000396000f3fe6080604052600436106101d85760003560e01c806370a0823111610102578063bc7bb2e611610095578063ddb00dfc11610064578063ddb00dfc146106d7578063e8ef9f2214610700578063e985e9c514610729578063f2fde38b14610766576101d8565b8063bc7bb2e61461061d578063c26e911814610646578063c87b56dd14610671578063d7050b05146106ae576101d8565b8063a0bcfc7f116100d1578063a0bcfc7f14610586578063a0c65735146105af578063a22cb465146105cb578063b88d4fde146105f4576101d8565b806370a08231146104dc578063715018a6146105195780638da5cb5b1461053057806395d89b411461055b576101d8565b80632f745c591161017a5780634f6ccce7116101495780634f6ccce7146103fc578063625e9b5a146104395780636352211e1461046257806369f16f441461049f576101d8565b80632f745c591461032a5780633934d5ec1461036757806342842e0e146103a8578063491d1b80146103d1576101d8565b8063095ea7b3116101b6578063095ea7b31461028257806318160ddd146102ab578063235a6544146102d657806323b872dd14610301576101d8565b806301ffc9a7146101dd57806306fdde031461021a578063081812fc14610245575b600080fd5b3480156101e957600080fd5b5061020460048036038101906101ff9190613bc6565b61078f565b604051610211919061429b565b60405180910390f35b34801561022657600080fd5b5061022f6107a1565b60405161023c91906142b6565b60405180910390f35b34801561025157600080fd5b5061026c60048036038101906102679190613c96565b610833565b6040516102799190614234565b60405180910390f35b34801561028e57600080fd5b506102a960048036038101906102a49190613b86565b6108b8565b005b3480156102b757600080fd5b506102c06109d0565b6040516102cd9190614658565b60405180910390f35b3480156102e257600080fd5b506102eb6109dd565b6040516102f89190614234565b60405180910390f35b34801561030d57600080fd5b5061032860048036038101906103239190613a70565b610a07565b005b34801561033657600080fd5b50610351600480360381019061034c9190613b86565b610a67565b60405161035e9190614658565b60405180910390f35b34801561037357600080fd5b5061038e60048036038101906103899190613c96565b610b0c565b60405161039f9594939291906146e1565b60405180910390f35b3480156103b457600080fd5b506103cf60048036038101906103ca9190613a70565b610c8b565b005b3480156103dd57600080fd5b506103e6610cab565b6040516103f39190614658565b60405180910390f35b34801561040857600080fd5b50610423600480360381019061041e9190613c96565b610cf8565b6040516104309190614658565b60405180910390f35b34801561044557600080fd5b50610460600480360381019061045b9190613cf0565b610d69565b005b34801561046e57600080fd5b5061048960048036038101906104849190613c96565b6111ee565b6040516104969190614234565b60405180910390f35b3480156104ab57600080fd5b506104c660048036038101906104c19190613d30565b6112a0565b6040516104d39190614658565b60405180910390f35b3480156104e857600080fd5b5061050360048036038101906104fe9190613a03565b611344565b6040516105109190614658565b60405180910390f35b34801561052557600080fd5b5061052e6113fc565b005b34801561053c57600080fd5b50610545611484565b6040516105529190614234565b60405180910390f35b34801561056757600080fd5b506105706114ae565b60405161057d91906142b6565b60405180910390f35b34801561059257600080fd5b506105ad60048036038101906105a89190613c20565b611540565b005b6105c960048036038101906105c49190613d30565b6115ff565b005b3480156105d757600080fd5b506105f260048036038101906105ed9190613b46565b611935565b005b34801561060057600080fd5b5061061b60048036038101906106169190613ac3565b611ab6565b005b34801561062957600080fd5b50610644600480360381019061063f9190613a03565b611b18565b005b34801561065257600080fd5b5061065b611c01565b6040516106689190614234565b60405180910390f35b34801561067d57600080fd5b5061069860048036038101906106939190613c96565b611c2b565b6040516106a591906142b6565b60405180910390f35b3480156106ba57600080fd5b506106d560048036038101906106d09190613a03565b611cd2565b005b3480156106e357600080fd5b506106fe60048036038101906106f99190613a03565b611dbb565b005b34801561070c57600080fd5b5061072760048036038101906107229190613a03565b611f5a565b005b34801561073557600080fd5b50610750600480360381019061074b9190613a30565b6120d0565b60405161075d919061429b565b60405180910390f35b34801561077257600080fd5b5061078d60048036038101906107889190613a03565b612164565b005b600061079a8261225c565b9050919050565b6060600080546107b090614a61565b80601f01602080910402602001604051908101604052809291908181526020018280546107dc90614a61565b80156108295780601f106107fe57610100808354040283529160200191610829565b820191906000526020600020905b81548152906001019060200180831161080c57829003601f168201915b5050505050905090565b600061083e826122d6565b61087d576040517f08c379a000000000000000000000000000000000000000000000000000000000815260040161087490614498565b60405180910390fd5b6004600083815260200190815260200160002060009054906101000a900473ffffffffffffffffffffffffffffffffffffffff169050919050565b60006108c3826111ee565b90508073ffffffffffffffffffffffffffffffffffffffff168373ffffffffffffffffffffffffffffffffffffffff161415610934576040517f08c379a000000000000000000000000000000000000000000000000000000000815260040161092b90614578565b60405180910390fd5b8073ffffffffffffffffffffffffffffffffffffffff16610953612342565b73ffffffffffffffffffffffffffffffffffffffff16148061098257506109818161097c612342565b6120d0565b5b6109c1576040517f08c379a00000000000000000000000000000000000000000000000000000000081526004016109b8906143d8565b60405180910390fd5b6109cb838361234a565b505050565b6000600880549050905090565b6000600b60009054906101000a900473ffffffffffffffffffffffffffffffffffffffff16905090565b610a18610a12612342565b82612403565b610a57576040517f08c379a0000000000000000000000000000000000000000000000000000000008152600401610a4e906145d8565b60405180910390fd5b610a628383836124e1565b505050565b6000610a7283611344565b8210610ab3576040517f08c379a0000000000000000000000000000000000000000000000000000000008152600401610aaa906142d8565b60405180910390fd5b600660008473ffffffffffffffffffffffffffffffffffffffff1673ffffffffffffffffffffffffffffffffffffffff168152602001908152602001600020600083815260200190815260200160002054905092915050565b600080600080600060138681548110610b2857610b27614c24565b5b906000526020600020906005020160040160009054906101000a900460ff16610b86576040517f08c379a0000000000000000000000000000000000000000000000000000000008152600401610b7d90614438565b60405180910390fd5b60138681548110610b9a57610b99614c24565b5b906000526020600020906005020160000160009054906101000a900460ff1660138781548110610bcd57610bcc614c24565b5b906000526020600020906005020160020160009054906101000a900460ff1660138881548110610c0057610bff614c24565b5b906000526020600020906005020160020160019054906101000a900460ff1660138981548110610c3357610c32614c24565b5b90600052602060002090600502016003015460138a81548110610c5957610c58614c24565b5b906000526020600020906005020160040160009054906101000a900460ff169450945094509450945091939590929450565b610ca683838360405180602001604052806000815250611ab6565b505050565b6000805b60048160ff161015610cf457600e8160ff1660048110610cd257610cd1614c24565b5b015482610cdf91906147fe565b91508080610cec90614b0d565b915050610caf565b5090565b6000610d026109d0565b8210610d43576040517f08c379a0000000000000000000000000000000000000000000000000000000008152600401610d3a906145f8565b60405180910390fd5b60088281548110610d5757610d56614c24565b5b90600052602060002001549050919050565b6002600d541415610daf576040517f08c379a0000000000000000000000000000000000000000000000000000000008152600401610da690614638565b60405180910390fd5b6002600d81905550610dc0826111ee565b73ffffffffffffffffffffffffffffffffffffffff16610dde612342565b73ffffffffffffffffffffffffffffffffffffffff16148015610e3b5750610e05816111ee565b73ffffffffffffffffffffffffffffffffffffffff16610e23612342565b73ffffffffffffffffffffffffffffffffffffffff16145b610e7a576040517f08c379a0000000000000000000000000000000000000000000000000000000008152600401610e71906144b8565b60405180910390fd5b60138281548110610e8e57610e8d614c24565b5b906000526020600020906005020160040160009054906101000a900460ff168015610ee8575060138181548110610ec857610ec7614c24565b5b906000526020600020906005020160040160009054906101000a900460ff165b610f27576040517f08c379a0000000000000000000000000000000000000000000000000000000008152600401610f1e90614598565b60405180910390fd5b60138181548110610f3b57610f3a614c24565b5b906000526020600020906005020160000160009054906101000a900460ff1660ff1660138381548110610f7157610f70614c24565b5b906000526020600020906005020160000160009054906101000a900460ff1660ff1614610fd3576040517f08c379a0000000000000000000000000000000000000000000000000000000008152600401610fca90614558565b60405180910390fd5b60138181548110610fe757610fe6614c24565b5b906000526020600020906005020160020160009054906101000a900460ff1660ff166013838154811061101d5761101c614c24565b5b906000526020600020906005020160020160009054906101000a900460ff1660ff161461107f576040517f08c379a000000000000000000000000000000000000000000000000000000000815260040161107690614458565b60405180910390fd5b600a6013838154811061109557611094614c24565b5b906000526020600020906005020160020160009054906101000a900460ff1660ff16106110f7576040517f08c379a00000000000000000000000000000000000000000000000000000000081526004016110ee90614398565b60405180910390fd5b600060016013848154811061110f5761110e614c24565b5b906000526020600020906005020160020160009054906101000a900460ff166111389190614854565b90506111438361273d565b61114c8261273d565b6111e16013848154811061116357611162614c24565b5b906000526020600020906005020160000160009054906101000a900460ff16826013868154811061119757611196614c24565b5b906000526020600020906005020160020160019054906101000a900460ff16601387815481106111ca576111c9614c24565b5b906000526020600020906005020160030154612787565b506001600d819055505050565b6000806002600084815260200190815260200160002060009054906101000a900473ffffffffffffffffffffffffffffffffffffffff169050600073ffffffffffffffffffffffffffffffffffffffff168173ffffffffffffffffffffffffffffffffffffffff161415611297576040517f08c379a000000000000000000000000000000000000000000000000000000000815260040161128e90614418565b60405180910390fd5b80915050919050565b60008060138054905090506000805b8460ff168160ff161015611339576127108310156112db576001836112d491906147fe565b9250611326565b6001620186a0846112ec919061488b565b6112f691906147fe565b6706f05b59d3b2000061130991906148bc565b8261131491906147fe565b915060018361132391906147fe565b92505b808061133190614b0d565b9150506112af565b508092505050919050565b60008073ffffffffffffffffffffffffffffffffffffffff168273ffffffffffffffffffffffffffffffffffffffff1614156113b5576040517f08c379a00000000000000000000000000000000000000000000000000000000081526004016113ac906143f8565b60405180910390fd5b600360008373ffffffffffffffffffffffffffffffffffffffff1673ffffffffffffffffffffffffffffffffffffffff168152602001908152602001600020549050919050565b611404612342565b73ffffffffffffffffffffffffffffffffffffffff16611422611484565b73ffffffffffffffffffffffffffffffffffffffff1614611478576040517f08c379a000000000000000000000000000000000000000000000000000000000815260040161146f906144f8565b60405180910390fd5b6114826000612918565b565b6000600a60009054906101000a900473ffffffffffffffffffffffffffffffffffffffff16905090565b6060600180546114bd90614a61565b80601f01602080910402602001604051908101604052809291908181526020018280546114e990614a61565b80156115365780601f1061150b57610100808354040283529160200191611536565b820191906000526020600020905b81548152906001019060200180831161151957829003601f168201915b5050505050905090565b611548612342565b73ffffffffffffffffffffffffffffffffffffffff16600c60009054906101000a900473ffffffffffffffffffffffffffffffffffffffff1673ffffffffffffffffffffffffffffffffffffffff1614806115dc57506115a6611484565b73ffffffffffffffffffffffffffffffffffffffff166115c4612342565b73ffffffffffffffffffffffffffffffffffffffff16145b6115e557600080fd5b80601290805190602001906115fb92919061374b565b5050565b6002600d541415611645576040517f08c379a000000000000000000000000000000000000000000000000000000000815260040161163c90614638565b60405180910390fd5b6002600d81905550611656816112a0565b3414611697576040517f08c379a000000000000000000000000000000000000000000000000000000000815260040161168e906145b8565b60405180910390fd5b60006116a1610cab565b90508160ff168110156116e9576040517f08c379a00000000000000000000000000000000000000000000000000000000081526004016116e0906144d8565b60405180910390fd5b6116f16109dd565b73ffffffffffffffffffffffffffffffffffffffff166108fc349081150290604051600060405180830381858888f19350505050158015611736573d6000803e3d6000fd5b5060005b8260ff168160ff161015611928576000601460009054906101000a900473ffffffffffffffffffffffffffffffffffffffff1673ffffffffffffffffffffffffffffffffffffffff1663dbdff2c16040518163ffffffff1660e01b8152600401602060405180830381600087803b1580156117b457600080fd5b505af11580156117c8573d6000803e3d6000fd5b505050506040513d601f19601f820116820180604052508101906117ec9190613cc3565b9050600083826117fc9190614b37565b90506000611809826129de565b60ff169050600e816004811061182257611821614c24565b5b01600081548092919061183490614a0d565b9190505550848061184490614a0d565b9550506000601560009054906101000a900473ffffffffffffffffffffffffffffffffffffffff1673ffffffffffffffffffffffffffffffffffffffff1663d457027b83866040518363ffffffff1660e01b81526004016118a6929190614673565b60806040518083038186803b1580156118be57600080fd5b505afa1580156118d2573d6000803e3d6000fd5b505050506040513d601f19601f820116820180604052508101906118f69190613c69565b90506119118160000151600183602001518460400151612787565b50505050808061192090614b0d565b91505061173a565b50506001600d8190555050565b61193d612342565b73ffffffffffffffffffffffffffffffffffffffff168273ffffffffffffffffffffffffffffffffffffffff1614156119ab576040517f08c379a00000000000000000000000000000000000000000000000000000000081526004016119a290614378565b60405180910390fd5b80600560006119b8612342565b73ffffffffffffffffffffffffffffffffffffffff1673ffffffffffffffffffffffffffffffffffffffff16815260200190815260200160002060008473ffffffffffffffffffffffffffffffffffffffff1673ffffffffffffffffffffffffffffffffffffffff16815260200190815260200160002060006101000a81548160ff0219169083151502179055508173ffffffffffffffffffffffffffffffffffffffff16611a65612342565b73ffffffffffffffffffffffffffffffffffffffff167f17307eab39ab6107e8899845ad3d59bd9653f200f220920489ca2b5937696c3183604051611aaa919061429b565b60405180910390a35050565b611ac7611ac1612342565b83612403565b611b06576040517f08c379a0000000000000000000000000000000000000000000000000000000008152600401611afd906145d8565b60405180910390fd5b611b1284848484612a7f565b50505050565b611b20612342565b73ffffffffffffffffffffffffffffffffffffffff16600c60009054906101000a900473ffffffffffffffffffffffffffffffffffffffff1673ffffffffffffffffffffffffffffffffffffffff161480611bb45750611b7e611484565b73ffffffffffffffffffffffffffffffffffffffff16611b9c612342565b73ffffffffffffffffffffffffffffffffffffffff16145b611bbd57600080fd5b80601560006101000a81548173ffffffffffffffffffffffffffffffffffffffff021916908373ffffffffffffffffffffffffffffffffffffffff16021790555050565b6000600c60009054906101000a900473ffffffffffffffffffffffffffffffffffffffff16905090565b6060611c36826122d6565b611c75576040517f08c379a0000000000000000000000000000000000000000000000000000000008152600401611c6c90614538565b60405180910390fd5b6000611c7f612adb565b90506000815111611c9f5760405180602001604052806000815250611cca565b80611ca984612b6d565b604051602001611cba929190614210565b6040516020818303038152906040525b915050919050565b611cda612342565b73ffffffffffffffffffffffffffffffffffffffff16600c60009054906101000a900473ffffffffffffffffffffffffffffffffffffffff1673ffffffffffffffffffffffffffffffffffffffff161480611d6e5750611d38611484565b73ffffffffffffffffffffffffffffffffffffffff16611d56612342565b73ffffffffffffffffffffffffffffffffffffffff16145b611d7757600080fd5b80601460006101000a81548173ffffffffffffffffffffffffffffffffffffffff021916908373ffffffffffffffffffffffffffffffffffffffff16021790555050565b611dc3612342565b73ffffffffffffffffffffffffffffffffffffffff16600c60009054906101000a900473ffffffffffffffffffffffffffffffffffffffff1673ffffffffffffffffffffffffffffffffffffffff161480611e575750611e21611484565b73ffffffffffffffffffffffffffffffffffffffff16611e3f612342565b73ffffffffffffffffffffffffffffffffffffffff16145b611e6057600080fd5b600073ffffffffffffffffffffffffffffffffffffffff168173ffffffffffffffffffffffffffffffffffffffff161415611e9a57600080fd5b8073ffffffffffffffffffffffffffffffffffffffff16600b60009054906101000a900473ffffffffffffffffffffffffffffffffffffffff1673ffffffffffffffffffffffffffffffffffffffff167f686292a774da47913df940e499f775044c8f0306ee4e4ca2462d73570abac92b60405160405180910390a380600b60006101000a81548173ffffffffffffffffffffffffffffffffffffffff021916908373ffffffffffffffffffffffffffffffffffffffff16021790555050565b611f62612342565b73ffffffffffffffffffffffffffffffffffffffff16611f80611484565b73ffffffffffffffffffffffffffffffffffffffff1614611fd6576040517f08c379a0000000000000000000000000000000000000000000000000000000008152600401611fcd906144f8565b60405180910390fd5b600073ffffffffffffffffffffffffffffffffffffffff168173ffffffffffffffffffffffffffffffffffffffff16141561201057600080fd5b8073ffffffffffffffffffffffffffffffffffffffff16600b60009054906101000a900473ffffffffffffffffffffffffffffffffffffffff1673ffffffffffffffffffffffffffffffffffffffff167f6c653cea66fc767872566a48443cddce6845518f298111992df854d4425f13f060405160405180910390a380600c60006101000a81548173ffffffffffffffffffffffffffffffffffffffff021916908373ffffffffffffffffffffffffffffffffffffffff16021790555050565b6000600560008473ffffffffffffffffffffffffffffffffffffffff1673ffffffffffffffffffffffffffffffffffffffff16815260200190815260200160002060008373ffffffffffffffffffffffffffffffffffffffff1673ffffffffffffffffffffffffffffffffffffffff16815260200190815260200160002060009054906101000a900460ff16905092915050565b61216c612342565b73ffffffffffffffffffffffffffffffffffffffff1661218a611484565b73ffffffffffffffffffffffffffffffffffffffff16146121e0576040517f08c379a00000000000000000000000000000000000000000000000000000000081526004016121d7906144f8565b60405180910390fd5b600073ffffffffffffffffffffffffffffffffffffffff168173ffffffffffffffffffffffffffffffffffffffff161415612250576040517f08c379a000000000000000000000000000000000000000000000000000000000815260040161224790614318565b60405180910390fd5b61225981612918565b50565b60007f780e9d63000000000000000000000000000000000000000000000000000000007bffffffffffffffffffffffffffffffffffffffffffffffffffffffff1916827bffffffffffffffffffffffffffffffffffffffffffffffffffffffff191614806122cf57506122ce82612cce565b5b9050919050565b60008073ffffffffffffffffffffffffffffffffffffffff166002600084815260200190815260200160002060009054906101000a900473ffffffffffffffffffffffffffffffffffffffff1673ffffffffffffffffffffffffffffffffffffffff1614159050919050565b600033905090565b816004600083815260200190815260200160002060006101000a81548173ffffffffffffffffffffffffffffffffffffffff021916908373ffffffffffffffffffffffffffffffffffffffff160217905550808273ffffffffffffffffffffffffffffffffffffffff166123bd836111ee565b73ffffffffffffffffffffffffffffffffffffffff167f8c5be1e5ebec7d5bd14f71427d1e84f3dd0314c0f7b2291e5b200ac8c7c3b92560405160405180910390a45050565b600061240e826122d6565b61244d576040517f08c379a0000000000000000000000000000000000000000000000000000000008152600401612444906143b8565b60405180910390fd5b6000612458836111ee565b90508073ffffffffffffffffffffffffffffffffffffffff168473ffffffffffffffffffffffffffffffffffffffff1614806124c757508373ffffffffffffffffffffffffffffffffffffffff166124af84610833565b73ffffffffffffffffffffffffffffffffffffffff16145b806124d857506124d781856120d0565b5b91505092915050565b8273ffffffffffffffffffffffffffffffffffffffff16612501826111ee565b73ffffffffffffffffffffffffffffffffffffffff1614612557576040517f08c379a000000000000000000000000000000000000000000000000000000000815260040161254e90614518565b60405180910390fd5b600073ffffffffffffffffffffffffffffffffffffffff168273ffffffffffffffffffffffffffffffffffffffff1614156125c7576040517f08c379a00000000000000000000000000000000000000000000000000000000081526004016125be90614358565b60405180910390fd5b6125d2838383612db0565b6125dd60008261234a565b6001600360008573ffffffffffffffffffffffffffffffffffffffff1673ffffffffffffffffffffffffffffffffffffffff168152602001908152602001600020600082825461262d9190614916565b925050819055506001600360008473ffffffffffffffffffffffffffffffffffffffff1673ffffffffffffffffffffffffffffffffffffffff168152602001908152602001600020600082825461268491906147fe565b92505081905550816002600083815260200190815260200160002060006101000a81548173ffffffffffffffffffffffffffffffffffffffff021916908373ffffffffffffffffffffffffffffffffffffffff160217905550808273ffffffffffffffffffffffffffffffffffffffff168473ffffffffffffffffffffffffffffffffffffffff167fddf252ad1be2c89b69c2b068fc378daa952ba7f163c4a11628f55a4df523b3ef60405160405180910390a4505050565b61274681612dc0565b60006013828154811061275c5761275b614c24565b5b906000526020600020906005020160040160006101000a81548160ff02191690831515021790555050565b600060138054905090506127a261279c612342565b82612ed1565b60006040518060c001604052808760ff1681526020018381526020018660ff1681526020018560ff168152602001848152602001600115158152509050601381908060018154018082558091505060019003906000526020600020906005020160009091909190915060008201518160000160006101000a81548160ff021916908360ff1602179055506020820151816001015560408201518160020160006101000a81548160ff021916908360ff16021790555060608201518160020160016101000a81548160ff021916908360ff1602179055506080820151816003015560a08201518160040160006101000a81548160ff0219169083151502179055505050816128ad612342565b73ffffffffffffffffffffffffffffffffffffffff167f5dd0bca5487650b7d578264fd53eff9f1b69b0efb2be7d11bde164e31ee7bad08360800151846000015185604001518660600151604051612908949392919061469c565b60405180910390a3505050505050565b6000600a60009054906101000a900473ffffffffffffffffffffffffffffffffffffffff16905081600a60006101000a81548173ffffffffffffffffffffffffffffffffffffffff021916908373ffffffffffffffffffffffffffffffffffffffff1602179055508173ffffffffffffffffffffffffffffffffffffffff168173ffffffffffffffffffffffffffffffffffffffff167f8be0079c531659141344cd1fd0a4f28419497f9722a3daafe3b4186f6b6457e060405160405180910390a35050565b6000806000600390505b60008160ff1610612a3e57600e8160ff1660048110612a0a57612a09614c24565b5b015482612a1791906147fe565b915083821115612a2b578092505050612a7a565b8080612a3690614a37565b9150506129e8565b506040517f08c379a0000000000000000000000000000000000000000000000000000000008152600401612a7190614618565b60405180910390fd5b919050565b612a8a8484846124e1565b612a9684848484612eef565b612ad5576040517f08c379a0000000000000000000000000000000000000000000000000000000008152600401612acc906142f8565b60405180910390fd5b50505050565b606060128054612aea90614a61565b80601f0160208091040260200160405190810160405280929190818152602001828054612b1690614a61565b8015612b635780601f10612b3857610100808354040283529160200191612b63565b820191906000526020600020905b815481529060010190602001808311612b4657829003601f168201915b5050505050905090565b60606000821415612bb5576040518060400160405280600181526020017f30000000000000000000000000000000000000000000000000000000000000008152509050612cc9565b600082905060005b60008214612be7578080612bd090614ac4565b915050600a82612be0919061488b565b9150612bbd565b60008167ffffffffffffffff811115612c0357612c02614c53565b5b6040519080825280601f01601f191660200182016040528015612c355781602001600182028036833780820191505090505b5090505b60008514612cc257600182612c4e9190614916565b9150600a85612c5d9190614b37565b6030612c6991906147fe565b60f81b818381518110612c7f57612c7e614c24565b5b60200101907effffffffffffffffffffffffffffffffffffffffffffffffffffffffffffff1916908160001a905350600a85612cbb919061488b565b9450612c39565b8093505050505b919050565b60007f80ac58cd000000000000000000000000000000000000000000000000000000007bffffffffffffffffffffffffffffffffffffffffffffffffffffffff1916827bffffffffffffffffffffffffffffffffffffffffffffffffffffffff19161480612d9957507f5b5e139f000000000000000000000000000000000000000000000000000000007bffffffffffffffffffffffffffffffffffffffffffffffffffffffff1916827bffffffffffffffffffffffffffffffffffffffffffffffffffffffff1916145b80612da95750612da882613086565b5b9050919050565b612dbb8383836130f0565b505050565b6000612dcb826111ee565b9050612dd981600084612db0565b612de460008361234a565b6001600360008373ffffffffffffffffffffffffffffffffffffffff1673ffffffffffffffffffffffffffffffffffffffff1681526020019081526020016000206000828254612e349190614916565b925050819055506002600083815260200190815260200160002060006101000a81549073ffffffffffffffffffffffffffffffffffffffff021916905581600073ffffffffffffffffffffffffffffffffffffffff168273ffffffffffffffffffffffffffffffffffffffff167fddf252ad1be2c89b69c2b068fc378daa952ba7f163c4a11628f55a4df523b3ef60405160405180910390a45050565b612eeb828260405180602001604052806000815250613204565b5050565b6000612f108473ffffffffffffffffffffffffffffffffffffffff1661325f565b15613079578373ffffffffffffffffffffffffffffffffffffffff1663150b7a02612f39612342565b8786866040518563ffffffff1660e01b8152600401612f5b949392919061424f565b602060405180830381600087803b158015612f7557600080fd5b505af1925050508015612fa657506040513d601f19601f82011682018060405250810190612fa39190613bf3565b60015b613029573d8060008114612fd6576040519150601f19603f3d011682016040523d82523d6000602084013e612fdb565b606091505b50600081511415613021576040517f08c379a0000000000000000000000000000000000000000000000000000000008152600401613018906142f8565b60405180910390fd5b805181602001fd5b63150b7a0260e01b7bffffffffffffffffffffffffffffffffffffffffffffffffffffffff1916817bffffffffffffffffffffffffffffffffffffffffffffffffffffffff19161491505061307e565b600190505b949350505050565b60007f01ffc9a7000000000000000000000000000000000000000000000000000000007bffffffffffffffffffffffffffffffffffffffffffffffffffffffff1916827bffffffffffffffffffffffffffffffffffffffffffffffffffffffff1916149050919050565b6130fb838383613272565b600073ffffffffffffffffffffffffffffffffffffffff168373ffffffffffffffffffffffffffffffffffffffff16141561313e5761313981613277565b61317d565b8173ffffffffffffffffffffffffffffffffffffffff168373ffffffffffffffffffffffffffffffffffffffff161461317c5761317b83826132c0565b5b5b600073ffffffffffffffffffffffffffffffffffffffff168273ffffffffffffffffffffffffffffffffffffffff1614156131c0576131bb8161342d565b6131ff565b8273ffffffffffffffffffffffffffffffffffffffff168273ffffffffffffffffffffffffffffffffffffffff16146131fe576131fd82826134fe565b5b5b505050565b61320e838361357d565b61321b6000848484612eef565b61325a576040517f08c379a0000000000000000000000000000000000000000000000000000000008152600401613251906142f8565b60405180910390fd5b505050565b600080823b905060008111915050919050565b505050565b6008805490506009600083815260200190815260200160002081905550600881908060018154018082558091505060019003906000526020600020016000909190919091505550565b600060016132cd84611344565b6132d79190614916565b90506000600760008481526020019081526020016000205490508181146133bc576000600660008673ffffffffffffffffffffffffffffffffffffffff1673ffffffffffffffffffffffffffffffffffffffff168152602001908152602001600020600084815260200190815260200160002054905080600660008773ffffffffffffffffffffffffffffffffffffffff1673ffffffffffffffffffffffffffffffffffffffff168152602001908152602001600020600084815260200190815260200160002081905550816007600083815260200190815260200160002081905550505b6007600084815260200190815260200160002060009055600660008573ffffffffffffffffffffffffffffffffffffffff1673ffffffffffffffffffffffffffffffffffffffff16815260200190815260200160002060008381526020019081526020016000206000905550505050565b600060016008805490506134419190614916565b905060006009600084815260200190815260200160002054905060006008838154811061347157613470614c24565b5b90600052602060002001549050806008838154811061349357613492614c24565b5b9060005260206000200181905550816009600083815260200190815260200160002081905550600960008581526020019081526020016000206000905560088054806134e2576134e1614bf5565b5b6001900381819060005260206000200160009055905550505050565b600061350983611344565b905081600660008573ffffffffffffffffffffffffffffffffffffffff1673ffffffffffffffffffffffffffffffffffffffff168152602001908152602001600020600083815260200190815260200160002081905550806007600084815260200190815260200160002081905550505050565b600073ffffffffffffffffffffffffffffffffffffffff168273ffffffffffffffffffffffffffffffffffffffff1614156135ed576040517f08c379a00000000000000000000000000000000000000000000000000000000081526004016135e490614478565b60405180910390fd5b6135f6816122d6565b15613636576040517f08c379a000000000000000000000000000000000000000000000000000000000815260040161362d90614338565b60405180910390fd5b61364260008383612db0565b6001600360008473ffffffffffffffffffffffffffffffffffffffff1673ffffffffffffffffffffffffffffffffffffffff168152602001908152602001600020600082825461369291906147fe565b92505081905550816002600083815260200190815260200160002060006101000a81548173ffffffffffffffffffffffffffffffffffffffff021916908373ffffffffffffffffffffffffffffffffffffffff160217905550808273ffffffffffffffffffffffffffffffffffffffff16600073ffffffffffffffffffffffffffffffffffffffff167fddf252ad1be2c89b69c2b068fc378daa952ba7f163c4a11628f55a4df523b3ef60405160405180910390a45050565b82805461375790614a61565b90600052602060002090601f01602090048101928261377957600085556137c0565b82601f1061379257805160ff19168380011785556137c0565b828001600101855582156137c0579182015b828111156137bf5782518255916020019190600101906137a4565b5b5090506137cd91906137d1565b5090565b5b808211156137ea5760008160009055506001016137d2565b5090565b60006138016137fc84614759565b614734565b90508281526020810184848401111561381d5761381c614c8c565b5b6138288482856149cb565b509392505050565b600061384361383e8461478a565b614734565b90508281526020810184848401111561385f5761385e614c8c565b5b61386a8482856149cb565b509392505050565b6000813590506138818161533c565b92915050565b60008135905061389681615353565b92915050565b6000815190506138ab81615353565b92915050565b6000813590506138c08161536a565b92915050565b6000815190506138d58161536a565b92915050565b600082601f8301126138f0576138ef614c82565b5b81356139008482602086016137ee565b91505092915050565b600082601f83011261391e5761391d614c82565b5b813561392e848260208601613830565b91505092915050565b60006080828403121561394d5761394c614c87565b5b6139576080614734565b90506000613967848285016139ee565b600083015250602061397b848285016139ee565b602083015250604061398f848285016139c4565b60408301525060606139a38482850161389c565b60608301525092915050565b6000813590506139be81615381565b92915050565b6000815190506139d381615381565b92915050565b6000813590506139e881615398565b92915050565b6000815190506139fd81615398565b92915050565b600060208284031215613a1957613a18614c96565b5b6000613a2784828501613872565b91505092915050565b60008060408385031215613a4757613a46614c96565b5b6000613a5585828601613872565b9250506020613a6685828601613872565b9150509250929050565b600080600060608486031215613a8957613a88614c96565b5b6000613a9786828701613872565b9350506020613aa886828701613872565b9250506040613ab9868287016139af565b9150509250925092565b60008060008060808587031215613add57613adc614c96565b5b6000613aeb87828801613872565b9450506020613afc87828801613872565b9350506040613b0d878288016139af565b925050606085013567ffffffffffffffff811115613b2e57613b2d614c91565b5b613b3a878288016138db565b91505092959194509250565b60008060408385031215613b5d57613b5c614c96565b5b6000613b6b85828601613872565b9250506020613b7c85828601613887565b9150509250929050565b60008060408385031215613b9d57613b9c614c96565b5b6000613bab85828601613872565b9250506020613bbc858286016139af565b9150509250929050565b600060208284031215613bdc57613bdb614c96565b5b6000613bea848285016138b1565b91505092915050565b600060208284031215613c0957613c08614c96565b5b6000613c17848285016138c6565b91505092915050565b600060208284031215613c3657613c35614c96565b5b600082013567ffffffffffffffff811115613c5457613c53614c91565b5b613c6084828501613909565b91505092915050565b600060808284031215613c7f57613c7e614c96565b5b6000613c8d84828501613937565b91505092915050565b600060208284031215613cac57613cab614c96565b5b6000613cba848285016139af565b91505092915050565b600060208284031215613cd957613cd8614c96565b5b6000613ce7848285016139c4565b91505092915050565b60008060408385031215613d0757613d06614c96565b5b6000613d15858286016139af565b9250506020613d26858286016139af565b9150509250929050565b600060208284031215613d4657613d45614c96565b5b6000613d54848285016139d9565b91505092915050565b613d668161494a565b82525050565b613d758161495c565b82525050565b6000613d86826147bb565b613d9081856147d1565b9350613da08185602086016149da565b613da981614c9b565b840191505092915050565b6000613dbf826147c6565b613dc981856147e2565b9350613dd98185602086016149da565b613de281614c9b565b840191505092915050565b6000613df8826147c6565b613e0281856147f3565b9350613e128185602086016149da565b80840191505092915050565b6000613e2b602b836147e2565b9150613e3682614cac565b604082019050919050565b6000613e4e6032836147e2565b9150613e5982614cfb565b604082019050919050565b6000613e716026836147e2565b9150613e7c82614d4a565b604082019050919050565b6000613e94601c836147e2565b9150613e9f82614d99565b602082019050919050565b6000613eb76024836147e2565b9150613ec282614dc2565b604082019050919050565b6000613eda6019836147e2565b9150613ee582614e11565b602082019050919050565b6000613efd6009836147e2565b9150613f0882614e3a565b602082019050919050565b6000613f20602c836147e2565b9150613f2b82614e63565b604082019050919050565b6000613f436038836147e2565b9150613f4e82614eb2565b604082019050919050565b6000613f66602a836147e2565b9150613f7182614f01565b604082019050919050565b6000613f896029836147e2565b9150613f9482614f50565b604082019050919050565b6000613fac600a836147e2565b9150613fb782614f9f565b602082019050919050565b6000613fcf600f836147e2565b9150613fda82614fc8565b602082019050919050565b6000613ff26020836147e2565b9150613ffd82614ff1565b602082019050919050565b6000614015602c836147e2565b91506140208261501a565b604082019050919050565b6000614038600a836147e2565b915061404382615069565b602082019050919050565b600061405b6013836147e2565b915061406682615092565b602082019050919050565b600061407e6020836147e2565b9150614089826150bb565b602082019050919050565b60006140a16029836147e2565b91506140ac826150e4565b604082019050919050565b60006140c4602f836147e2565b91506140cf82615133565b604082019050919050565b60006140e7600f836147e2565b91506140f282615182565b602082019050919050565b600061410a6021836147e2565b9150614115826151ab565b604082019050919050565b600061412d6015836147e2565b9150614138826151fa565b602082019050919050565b60006141506013836147e2565b915061415b82615223565b602082019050919050565b60006141736031836147e2565b915061417e8261524c565b604082019050919050565b6000614196602c836147e2565b91506141a18261529b565b604082019050919050565b60006141b9600e836147e2565b91506141c4826152ea565b602082019050919050565b60006141dc601f836147e2565b91506141e782615313565b602082019050919050565b6141fb816149b4565b82525050565b61420a816149be565b82525050565b600061421c8285613ded565b91506142288284613ded565b91508190509392505050565b60006020820190506142496000830184613d5d565b92915050565b60006080820190506142646000830187613d5d565b6142716020830186613d5d565b61427e60408301856141f2565b81810360608301526142908184613d7b565b905095945050505050565b60006020820190506142b06000830184613d6c565b92915050565b600060208201905081810360008301526142d08184613db4565b905092915050565b600060208201905081810360008301526142f181613e1e565b9050919050565b6000602082019050818103600083015261431181613e41565b9050919050565b6000602082019050818103600083015261433181613e64565b9050919050565b6000602082019050818103600083015261435181613e87565b9050919050565b6000602082019050818103600083015261437181613eaa565b9050919050565b6000602082019050818103600083015261439181613ecd565b9050919050565b600060208201905081810360008301526143b181613ef0565b9050919050565b600060208201905081810360008301526143d181613f13565b9050919050565b600060208201905081810360008301526143f181613f36565b9050919050565b6000602082019050818103600083015261441181613f59565b9050919050565b6000602082019050818103600083015261443181613f7c565b9050919050565b6000602082019050818103600083015261445181613f9f565b9050919050565b6000602082019050818103600083015261447181613fc2565b9050919050565b6000602082019050818103600083015261449181613fe5565b9050919050565b600060208201905081810360008301526144b181614008565b9050919050565b600060208201905081810360008301526144d18161402b565b9050919050565b600060208201905081810360008301526144f18161404e565b9050919050565b6000602082019050818103600083015261451181614071565b9050919050565b6000602082019050818103600083015261453181614094565b9050919050565b60006020820190508181036000830152614551816140b7565b9050919050565b60006020820190508181036000830152614571816140da565b9050919050565b60006020820190508181036000830152614591816140fd565b9050919050565b600060208201905081810360008301526145b181614120565b9050919050565b600060208201905081810360008301526145d181614143565b9050919050565b600060208201905081810360008301526145f181614166565b9050919050565b6000602082019050818103600083015261461181614189565b9050919050565b60006020820190508181036000830152614631816141ac565b9050919050565b60006020820190508181036000830152614651816141cf565b9050919050565b600060208201905061466d60008301846141f2565b92915050565b600060408201905061468860008301856141f2565b61469560208301846141f2565b9392505050565b60006080820190506146b160008301876141f2565b6146be6020830186614201565b6146cb6040830185614201565b6146d86060830184614201565b95945050505050565b600060a0820190506146f66000830188614201565b6147036020830187614201565b6147106040830186614201565b61471d60608301856141f2565b61472a6080830184613d6c565b9695505050505050565b600061473e61474f565b905061474a8282614a93565b919050565b6000604051905090565b600067ffffffffffffffff82111561477457614773614c53565b5b61477d82614c9b565b9050602081019050919050565b600067ffffffffffffffff8211156147a5576147a4614c53565b5b6147ae82614c9b565b9050602081019050919050565b600081519050919050565b600081519050919050565b600082825260208201905092915050565b600082825260208201905092915050565b600081905092915050565b6000614809826149b4565b9150614814836149b4565b9250827fffffffffffffffffffffffffffffffffffffffffffffffffffffffffffffffff0382111561484957614848614b68565b5b828201905092915050565b600061485f826149be565b915061486a836149be565b92508260ff038211156148805761487f614b68565b5b828201905092915050565b6000614896826149b4565b91506148a1836149b4565b9250826148b1576148b0614b97565b5b828204905092915050565b60006148c7826149b4565b91506148d2836149b4565b9250817fffffffffffffffffffffffffffffffffffffffffffffffffffffffffffffffff048311821515161561490b5761490a614b68565b5b828202905092915050565b6000614921826149b4565b915061492c836149b4565b92508282101561493f5761493e614b68565b5b828203905092915050565b600061495582614994565b9050919050565b60008115159050919050565b60007fffffffff0000000000000000000000000000000000000000000000000000000082169050919050565b600073ffffffffffffffffffffffffffffffffffffffff82169050919050565b6000819050919050565b600060ff82169050919050565b82818337600083830152505050565b60005b838110156149f85780820151818401526020810190506149dd565b83811115614a07576000848401525b50505050565b6000614a18826149b4565b91506000821415614a2c57614a2b614b68565b5b600182039050919050565b6000614a42826149be565b91506000821415614a5657614a55614b68565b5b600182039050919050565b60006002820490506001821680614a7957607f821691505b60208210811415614a8d57614a8c614bc6565b5b50919050565b614a9c82614c9b565b810181811067ffffffffffffffff82111715614abb57614aba614c53565b5b80604052505050565b6000614acf826149b4565b91507fffffffffffffffffffffffffffffffffffffffffffffffffffffffffffffffff821415614b0257614b01614b68565b5b600182019050919050565b6000614b18826149be565b915060ff821415614b2c57614b2b614b68565b5b600182019050919050565b6000614b42826149b4565b9150614b4d836149b4565b925082614b5d57614b5c614b97565b5b828206905092915050565b7f4e487b7100000000000000000000000000000000000000000000000000000000600052601160045260246000fd5b7f4e487b7100000000000000000000000000000000000000000000000000000000600052601260045260246000fd5b7f4e487b7100000000000000000000000000000000000000000000000000000000600052602260045260246000fd5b7f4e487b7100000000000000000000000000000000000000000000000000000000600052603160045260246000fd5b7f4e487b7100000000000000000000000000000000000000000000000000000000600052603260045260246000fd5b7f4e487b7100000000000000000000000000000000000000000000000000000000600052604160045260246000fd5b600080fd5b600080fd5b600080fd5b600080fd5b600080fd5b6000601f19601f8301169050919050565b7f455243373231456e756d657261626c653a206f776e657220696e646578206f7560008201527f74206f6620626f756e6473000000000000000000000000000000000000000000602082015250565b7f4552433732313a207472616e7366657220746f206e6f6e20455243373231526560008201527f63656976657220696d706c656d656e7465720000000000000000000000000000602082015250565b7f4f776e61626c653a206e6577206f776e657220697320746865207a65726f206160008201527f6464726573730000000000000000000000000000000000000000000000000000602082015250565b7f4552433732313a20746f6b656e20616c7265616479206d696e74656400000000600082015250565b7f4552433732313a207472616e7366657220746f20746865207a65726f2061646460008201527f7265737300000000000000000000000000000000000000000000000000000000602082015250565b7f4552433732313a20617070726f766520746f2063616c6c657200000000000000600082015250565b7f4d6178206c6576656c0000000000000000000000000000000000000000000000600082015250565b7f4552433732313a206f70657261746f7220717565727920666f72206e6f6e657860008201527f697374656e7420746f6b656e0000000000000000000000000000000000000000602082015250565b7f4552433732313a20617070726f76652063616c6c6572206973206e6f74206f7760008201527f6e6572206e6f7220617070726f76656420666f7220616c6c0000000000000000602082015250565b7f4552433732313a2062616c616e636520717565727920666f7220746865207a6560008201527f726f206164647265737300000000000000000000000000000000000000000000602082015250565b7f4552433732313a206f776e657220717565727920666f72206e6f6e657869737460008201527f656e7420746f6b656e0000000000000000000000000000000000000000000000602082015250565b7f6e6f742065786973747300000000000000000000000000000000000000000000600082015250565b7f446966666572656e74206c6576656c0000000000000000000000000000000000600082015250565b7f4552433732313a206d696e7420746f20746865207a65726f2061646472657373600082015250565b7f4552433732313a20617070726f76656420717565727920666f72206e6f6e657860008201527f697374656e7420746f6b656e0000000000000000000000000000000000000000602082015250565b7f4f776e6572206f6e6c7900000000000000000000000000000000000000000000600082015250565b7f496e73756666696369656e7420737570706c7900000000000000000000000000600082015250565b7f4f776e61626c653a2063616c6c6572206973206e6f7420746865206f776e6572600082015250565b7f4552433732313a207472616e73666572206f6620746f6b656e2074686174206960008201527f73206e6f74206f776e0000000000000000000000000000000000000000000000602082015250565b7f4552433732314d657461646174613a2055524920717565727920666f72206e6f60008201527f6e6578697374656e7420746f6b656e0000000000000000000000000000000000602082015250565b7f446966666572656e7420676e6f6d650000000000000000000000000000000000600082015250565b7f4552433732313a20617070726f76616c20746f2063757272656e74206f776e6560008201527f7200000000000000000000000000000000000000000000000000000000000000602082015250565b7f476e6f6d6520646f6573206e6f74206578697374730000000000000000000000600082015250565b7f496e73756666696369656e7420616d6f756e7400000000000000000000000000600082015250565b7f4552433732313a207472616e736665722063616c6c6572206973206e6f74206f60008201527f776e6572206e6f7220617070726f766564000000000000000000000000000000602082015250565b7f455243373231456e756d657261626c653a20676c6f62616c20696e646578206f60008201527f7574206f6620626f756e64730000000000000000000000000000000000000000602082015250565b7f4e6f206d6f726520737570706c79000000000000000000000000000000000000600082015250565b7f5265656e7472616e637947756172643a207265656e7472616e742063616c6c00600082015250565b6153458161494a565b811461535057600080fd5b50565b61535c8161495c565b811461536757600080fd5b50565b61537381614968565b811461537e57600080fd5b50565b61538a816149b4565b811461539557600080fd5b50565b6153a1816149be565b81146153ac57600080fd5b5056fea2646970667358221220543f1471345c9ad263dafa19f283ee0721482a273cfe3e2e79ea5223a1ab853364736f6c63430008060033",
  "immutableReferences": {},
  "source": "pragma solidity ^0.8.0;\r\n\r\nimport \"@openzeppelin/contracts/token/ERC721/ERC721.sol\";\r\nimport \"@openzeppelin/contracts/token/ERC721/extensions/ERC721Enumerable.sol\";\r\nimport \"@openzeppelin/contracts/security/ReentrancyGuard.sol\";\r\nimport \"./Security.sol\";\r\nimport \"./SharedStructs.sol\";\r\n\r\n\r\n/*\r\n    Error codes\r\n    1: insufficient amount\r\n    2: insufficient supply\r\n    3: different gnome\r\n    3: different level\r\n    4: max level\r\n    5: amount it to small\r\n    6: gnome does not exists,\r\n    7: gnome cool down\r\n    8: only owner can do this action\r\n */\r\n\r\ninterface IRandom {\r\n    function getRandomNumber() external returns (uint);\r\n}\r\n\r\ninterface IGnomesTemplates is ISharedStructs {\r\n\r\n    function getGnomeTemplateRarityAndRandom(uint rarity, uint randomNumber) external view returns (structGnome memory);\r\n\r\n    function getCollectionById(uint id) external view returns (uint[] memory);\r\n\r\n}\r\n\r\ncontract MyMiniMiners is ERC721, ERC721Enumerable, Security, ReentrancyGuard, ISharedStructs {\r\n\r\n\r\n    /*\r\n     [0] =  legendarySupplyLeft\r\n     [1] =  EpicSupplyLeft\r\n     [2] =  rareSupplyLeft\r\n     [3] =  CommonSupplyLeft\r\n    */\r\n\r\n    uint[4] private _supplyLeft = [17500, 87500, 437500, 857500];\r\n\r\n    string private _baseURIStr;\r\n\r\n    structPlayerGnome[] private _playersGnomes;\r\n    IRandom private _randomContract;\r\n    IGnomesTemplates private _gnomesTemplatesContract;\r\n\r\n\r\n    event Mint(address indexed player, uint  indexed tokenId, uint collection, uint8 gnomeId, uint8 level, uint8 rarity);\r\n    //todo change to real\r\n    //ERC721(\"My Mini Miners\", \"MYMM\")\r\n    constructor(address feesAccount, address adminAccount, address randomContract, address gnomesTemplatesContract, string memory baseUri)   ERC721(\"mmmt1\", \"MMMT1\") ReentrancyGuard() payable {\r\n        setFeesAccount(feesAccount);\r\n        setAdminAccount(adminAccount);\r\n        setGnomesTemplateContractAddress(gnomesTemplatesContract);\r\n        setRandomContractAddress(randomContract);\r\n        setBaseUri(baseUri);\r\n        //solidity default value for uint is 0 so we start the tokenIds from 1\r\n        _playersGnomes.push();\r\n    }\r\n    //********************************* game functions *************************************//\r\n\r\n    function buyGnome(uint8 amountToBuy) external payable nonReentrant {\r\n        require(msg.value == getGnomePrice(amountToBuy), \"Insufficient amount\");\r\n        uint currentTotalSupply = totalSupplyLeft();\r\n        require(currentTotalSupply >= amountToBuy, \"Insufficient supply\");\r\n        payable(feesAccount()).transfer(msg.value);\r\n\r\n        for (uint8 i; i < amountToBuy; i++) {\r\n            uint randomNumber = _randomContract.getRandomNumber();\r\n            uint randomPosition = randomNumber % currentTotalSupply;\r\n            uint rarityIndex = _getRarityByPosition(randomPosition);\r\n            _supplyLeft[rarityIndex]--;\r\n            currentTotalSupply--;\r\n            structGnome memory gnome = _gnomesTemplatesContract.getGnomeTemplateRarityAndRandom(rarityIndex, randomNumber);\r\n            _createGnome(gnome.id, 1, gnome.rarity, gnome.collection);\r\n        }\r\n    }\r\n\r\n    function mergeGnomes(uint tokenId1, uint tokenId2) external nonReentrant {\r\n\r\n        require(_msgSender() == ownerOf(tokenId1) && _msgSender() == ownerOf(tokenId2), \"Owner only\");\r\n        require(_playersGnomes[tokenId1].exists && _playersGnomes[tokenId2].exists, \"Gnome does not exists\");\r\n        require(_playersGnomes[tokenId1].gnomeId == _playersGnomes[tokenId2].gnomeId, \"Different gnome\");\r\n        require(_playersGnomes[tokenId1].level == _playersGnomes[tokenId2].level, \"Different level\");\r\n        require(_playersGnomes[tokenId1].level < 10, \"Max level\");\r\n\r\n        uint8 newLevel = _playersGnomes[tokenId1].level + 1;\r\n\r\n        _burn(tokenId1);\r\n        _burn(tokenId2);\r\n\r\n        _createGnome(\r\n            _playersGnomes[tokenId1].gnomeId,\r\n            newLevel,\r\n            _playersGnomes[tokenId1].rarity,\r\n            _playersGnomes[tokenId1].collection\r\n        );\r\n\r\n    }\r\n\r\n    function getGnomePrice(uint8 amountToBuy) public view returns (uint) {\r\n        uint foundGnomes = _playersGnomes.length;\r\n        uint totalPrice;\r\n        for (uint8 i; i < amountToBuy; i++) {\r\n            if (foundGnomes < 10000) {\r\n                foundGnomes = foundGnomes + 1;\r\n                continue;\r\n            }\r\n            totalPrice = totalPrice + (10 ** 17) * 5 * (foundGnomes / (10 ** 5) + 1);\r\n            foundGnomes = foundGnomes + 1;\r\n        }\r\n        return totalPrice;\r\n    }\r\n\r\n    function getGnome(uint tokenId) external view returns (uint8, uint8, uint8, uint, bool) {\r\n        require(_playersGnomes[tokenId].exists, \"not exists\");\r\n        return (_playersGnomes[tokenId].gnomeId, _playersGnomes[tokenId].level, _playersGnomes[tokenId].rarity, _playersGnomes[tokenId].collection, _playersGnomes[tokenId].exists);\r\n    }\r\n\r\n    function _createGnome(uint8 gnomeId, uint8 level, uint8 rarity, uint collection) private {\r\n        uint newTokenId = _playersGnomes.length;\r\n        _safeMint(_msgSender(), newTokenId);\r\n        structPlayerGnome memory playerGnome = structPlayerGnome({\r\n        gnomeId : gnomeId,\r\n        tokenId : newTokenId,\r\n        level : level,\r\n        rarity : rarity,\r\n        collection : collection,\r\n        exists : true\r\n        });\r\n        _playersGnomes.push(playerGnome);\r\n\r\n        emit Mint(_msgSender(), newTokenId, playerGnome.collection, playerGnome.gnomeId, playerGnome.level, playerGnome.rarity);\r\n\r\n    }\r\n\r\n    function _getRarityByPosition(uint position) private view returns (uint8){\r\n\r\n        uint supply;\r\n        for (uint8 i = 3; i >= 0; i--) {\r\n            supply = supply + _supplyLeft[i];\r\n            if (supply > position) {\r\n                return i;\r\n            }\r\n        }\r\n        revert(\"No more supply\");\r\n    }\r\n\r\n    function totalSupplyLeft() public view returns (uint supply){\r\n        for (uint8 i; i < _supplyLeft.length; i++) {\r\n            supply = supply + _supplyLeft[i];\r\n        }\r\n        return supply;\r\n    }\r\n\r\n\r\n    function _beforeTokenTransfer(address from, address to, uint256 tokenId) internal override(ERC721, ERC721Enumerable) {\r\n        super._beforeTokenTransfer(from, to, tokenId);\r\n    }\r\n\r\n    function supportsInterface(bytes4 interfaceId) public view override(ERC721, ERC721Enumerable) returns (bool) {\r\n        return super.supportsInterface(interfaceId);\r\n    }\r\n\r\n    function _burn(uint256 tokenId) internal override {\r\n        super._burn(tokenId);\r\n        _playersGnomes[tokenId].exists = false;\r\n    }\r\n\r\n\r\n    function _baseURI() internal view override returns (string memory) {\r\n        return _baseURIStr;\r\n    }\r\n\r\n    //********************************* management functions *************************************//\r\n\r\n\r\n    function setBaseUri(string memory uri) public onlyAdmin {\r\n        _baseURIStr = uri;\r\n    }\r\n\r\n    function setRandomContractAddress(address randomContract) public onlyAdmin {\r\n        _randomContract = IRandom(randomContract);\r\n    }\r\n\r\n    function setGnomesTemplateContractAddress(address gnomesTemplatesContract) public onlyAdmin {\r\n        _gnomesTemplatesContract = IGnomesTemplates(gnomesTemplatesContract);\r\n    }\r\n\r\n\r\n}\r\n",
  "sourcePath": "C:\\Users\\amit\\PhpstormProjects\\myminiminers\\myminiminers-contract\\src\\contracts\\MyMiniMiners.sol",
  "compiler": {
    "name": "solc",
    "version": "0.8.6+commit.11564f7e.Emscripten.clang"
  },
  "schemaVersion": "3.4.3",
  "updatedAt": "2021-11-24T17:13:50.337Z",
  "networkType": "ethereum",
  "devdoc": {
    "kind": "dev",
    "methods": {
      "approve(address,uint256)": {
        "details": "See {IERC721-approve}."
      },
      "balanceOf(address)": {
        "details": "See {IERC721-balanceOf}."
      },
      "getApproved(uint256)": {
        "details": "See {IERC721-getApproved}."
      },
      "isApprovedForAll(address,address)": {
        "details": "See {IERC721-isApprovedForAll}."
      },
      "name()": {
        "details": "See {IERC721Metadata-name}."
      },
      "owner()": {
        "details": "Returns the address of the current owner."
      },
      "ownerOf(uint256)": {
        "details": "See {IERC721-ownerOf}."
      },
      "renounceOwnership()": {
        "details": "Leaves the contract without owner. It will not be possible to call `onlyOwner` functions anymore. Can only be called by the current owner. NOTE: Renouncing ownership will leave the contract without an owner, thereby removing any functionality that is only available to the owner."
      },
      "safeTransferFrom(address,address,uint256)": {
        "details": "See {IERC721-safeTransferFrom}."
      },
      "safeTransferFrom(address,address,uint256,bytes)": {
        "details": "See {IERC721-safeTransferFrom}."
      },
      "setApprovalForAll(address,bool)": {
        "details": "See {IERC721-setApprovalForAll}."
      },
      "symbol()": {
        "details": "See {IERC721Metadata-symbol}."
      },
      "tokenByIndex(uint256)": {
        "details": "See {IERC721Enumerable-tokenByIndex}."
      },
      "tokenOfOwnerByIndex(address,uint256)": {
        "details": "See {IERC721Enumerable-tokenOfOwnerByIndex}."
      },
      "tokenURI(uint256)": {
        "details": "See {IERC721Metadata-tokenURI}."
      },
      "totalSupply()": {
        "details": "See {IERC721Enumerable-totalSupply}."
      },
      "transferFrom(address,address,uint256)": {
        "details": "See {IERC721-transferFrom}."
      },
      "transferOwnership(address)": {
        "details": "Transfers ownership of the contract to a new account (`newOwner`). Can only be called by the current owner."
      }
    },
    "version": 1
  },
  "userdoc": {
    "kind": "user",
    "methods": {},
    "version": 1
  }
}