{
  "contractName": "MyMiniMiners",
  "abi": [
    {
      "inputs": [
        {
          "internalType": "address",
          "name": "feesAccount",
          "type": "address"
        },
        {
          "internalType": "address",
          "name": "adminAccount",
          "type": "address"
        },
        {
          "internalType": "address",
          "name": "randomContract",
          "type": "address"
        },
        {
          "internalType": "address",
          "name": "gnomesTemplatesContract",
          "type": "address"
        }
      ],
      "stateMutability": "payable",
      "type": "constructor"
    },
    {
      "anonymous": false,
      "inputs": [
        {
          "indexed": true,
          "internalType": "address",
          "name": "owner",
          "type": "address"
        },
        {
          "indexed": true,
          "internalType": "address",
          "name": "approved",
          "type": "address"
        },
        {
          "indexed": true,
          "internalType": "uint256",
          "name": "tokenId",
          "type": "uint256"
        }
      ],
      "name": "Approval",
      "type": "event"
    },
    {
      "anonymous": false,
      "inputs": [
        {
          "indexed": true,
          "internalType": "address",
          "name": "owner",
          "type": "address"
        },
        {
          "indexed": true,
          "internalType": "address",
          "name": "operator",
          "type": "address"
        },
        {
          "indexed": false,
          "internalType": "bool",
          "name": "approved",
          "type": "bool"
        }
      ],
      "name": "ApprovalForAll",
      "type": "event"
    },
    {
      "anonymous": false,
      "inputs": [
        {
          "indexed": true,
          "internalType": "address",
          "name": "player",
          "type": "address"
        },
        {
          "indexed": false,
          "internalType": "uint256",
          "name": "collection",
          "type": "uint256"
        },
        {
          "indexed": true,
          "internalType": "uint256",
          "name": "oldTokenId",
          "type": "uint256"
        },
        {
          "indexed": true,
          "internalType": "uint256",
          "name": "newTokenId",
          "type": "uint256"
        }
      ],
      "name": "CollectionChange",
      "type": "event"
    },
    {
      "anonymous": false,
      "inputs": [
        {
          "indexed": true,
          "internalType": "address",
          "name": "oldAccount",
          "type": "address"
        },
        {
          "indexed": true,
          "internalType": "address",
          "name": "newAccount",
          "type": "address"
        }
      ],
      "name": "FeesAccountChanged",
      "type": "event"
    },
    {
      "anonymous": false,
      "inputs": [
        {
          "indexed": true,
          "internalType": "address",
          "name": "player",
          "type": "address"
        },
        {
          "indexed": true,
          "internalType": "uint256",
          "name": "tokenId",
          "type": "uint256"
        },
        {
          "indexed": false,
          "internalType": "uint256",
          "name": "collection",
          "type": "uint256"
        },
        {
          "indexed": false,
          "internalType": "uint8",
          "name": "gnomeId",
          "type": "uint8"
        },
        {
          "indexed": false,
          "internalType": "uint8",
          "name": "level",
          "type": "uint8"
        },
        {
          "indexed": false,
          "internalType": "uint8",
          "name": "rarity",
          "type": "uint8"
        },
        {
          "indexed": false,
          "internalType": "uint256",
          "name": "power",
          "type": "uint256"
        }
      ],
      "name": "Mint",
      "type": "event"
    },
    {
      "anonymous": false,
      "inputs": [
        {
          "indexed": true,
          "internalType": "address",
          "name": "previousOwner",
          "type": "address"
        },
        {
          "indexed": true,
          "internalType": "address",
          "name": "newOwner",
          "type": "address"
        }
      ],
      "name": "OwnershipTransferred",
      "type": "event"
    },
    {
      "anonymous": false,
      "inputs": [
        {
          "indexed": true,
          "internalType": "address",
          "name": "player",
          "type": "address"
        },
        {
          "indexed": false,
          "internalType": "uint256",
          "name": "collection",
          "type": "uint256"
        },
        {
          "indexed": false,
          "internalType": "uint256",
          "name": "collectionPower",
          "type": "uint256"
        },
        {
          "indexed": false,
          "internalType": "uint256",
          "name": "playerPower",
          "type": "uint256"
        }
      ],
      "name": "PowerChange",
      "type": "event"
    },
    {
      "anonymous": false,
      "inputs": [
        {
          "indexed": true,
          "internalType": "address",
          "name": "from",
          "type": "address"
        },
        {
          "indexed": true,
          "internalType": "address",
          "name": "to",
          "type": "address"
        },
        {
          "indexed": true,
          "internalType": "uint256",
          "name": "tokenId",
          "type": "uint256"
        }
      ],
      "name": "Transfer",
      "type": "event"
    },
    {
      "anonymous": false,
      "inputs": [
        {
          "indexed": true,
          "internalType": "address",
          "name": "oldAccount",
          "type": "address"
        },
        {
          "indexed": true,
          "internalType": "address",
          "name": "newAccount",
          "type": "address"
        }
      ],
      "name": "adminAccountChanged",
      "type": "event"
    },
    {
      "inputs": [],
      "name": "adminAccount",
      "outputs": [
        {
          "internalType": "address",
          "name": "",
          "type": "address"
        }
      ],
      "stateMutability": "view",
      "type": "function"
    },
    {
      "inputs": [
        {
          "internalType": "address",
          "name": "to",
          "type": "address"
        },
        {
          "internalType": "uint256",
          "name": "tokenId",
          "type": "uint256"
        }
      ],
      "name": "approve",
      "outputs": [],
      "stateMutability": "nonpayable",
      "type": "function"
    },
    {
      "inputs": [
        {
          "internalType": "address",
          "name": "owner",
          "type": "address"
        }
      ],
      "name": "balanceOf",
      "outputs": [
        {
          "internalType": "uint256",
          "name": "",
          "type": "uint256"
        }
      ],
      "stateMutability": "view",
      "type": "function"
    },
    {
      "inputs": [],
      "name": "feesAccount",
      "outputs": [
        {
          "internalType": "address",
          "name": "",
          "type": "address"
        }
      ],
      "stateMutability": "view",
      "type": "function"
    },
    {
      "inputs": [
        {
          "internalType": "uint256",
          "name": "tokenId",
          "type": "uint256"
        }
      ],
      "name": "getApproved",
      "outputs": [
        {
          "internalType": "address",
          "name": "",
          "type": "address"
        }
      ],
      "stateMutability": "view",
      "type": "function"
    },
    {
      "inputs": [
        {
          "internalType": "address",
          "name": "owner",
          "type": "address"
        },
        {
          "internalType": "address",
          "name": "operator",
          "type": "address"
        }
      ],
      "name": "isApprovedForAll",
      "outputs": [
        {
          "internalType": "bool",
          "name": "",
          "type": "bool"
        }
      ],
      "stateMutability": "view",
      "type": "function"
    },
    {
      "inputs": [],
      "name": "name",
      "outputs": [
        {
          "internalType": "string",
          "name": "",
          "type": "string"
        }
      ],
      "stateMutability": "view",
      "type": "function"
    },
    {
      "inputs": [],
      "name": "owner",
      "outputs": [
        {
          "internalType": "address",
          "name": "",
          "type": "address"
        }
      ],
      "stateMutability": "view",
      "type": "function"
    },
    {
      "inputs": [
        {
          "internalType": "uint256",
          "name": "tokenId",
          "type": "uint256"
        }
      ],
      "name": "ownerOf",
      "outputs": [
        {
          "internalType": "address",
          "name": "",
          "type": "address"
        }
      ],
      "stateMutability": "view",
      "type": "function"
    },
    {
      "inputs": [],
      "name": "renounceOwnership",
      "outputs": [],
      "stateMutability": "nonpayable",
      "type": "function"
    },
    {
      "inputs": [
        {
          "internalType": "address",
          "name": "from",
          "type": "address"
        },
        {
          "internalType": "address",
          "name": "to",
          "type": "address"
        },
        {
          "internalType": "uint256",
          "name": "tokenId",
          "type": "uint256"
        }
      ],
      "name": "safeTransferFrom",
      "outputs": [],
      "stateMutability": "nonpayable",
      "type": "function"
    },
    {
      "inputs": [
        {
          "internalType": "address",
          "name": "from",
          "type": "address"
        },
        {
          "internalType": "address",
          "name": "to",
          "type": "address"
        },
        {
          "internalType": "uint256",
          "name": "tokenId",
          "type": "uint256"
        },
        {
          "internalType": "bytes",
          "name": "_data",
          "type": "bytes"
        }
      ],
      "name": "safeTransferFrom",
      "outputs": [],
      "stateMutability": "nonpayable",
      "type": "function"
    },
    {
      "inputs": [
        {
          "internalType": "address",
          "name": "newAccount",
          "type": "address"
        }
      ],
      "name": "setAdminAccount",
      "outputs": [],
      "stateMutability": "nonpayable",
      "type": "function"
    },
    {
      "inputs": [
        {
          "internalType": "address",
          "name": "operator",
          "type": "address"
        },
        {
          "internalType": "bool",
          "name": "approved",
          "type": "bool"
        }
      ],
      "name": "setApprovalForAll",
      "outputs": [],
      "stateMutability": "nonpayable",
      "type": "function"
    },
    {
      "inputs": [
        {
          "internalType": "address",
          "name": "newAccount",
          "type": "address"
        }
      ],
      "name": "setFeesAccount",
      "outputs": [],
      "stateMutability": "nonpayable",
      "type": "function"
    },
    {
      "inputs": [
        {
          "internalType": "bytes4",
          "name": "interfaceId",
          "type": "bytes4"
        }
      ],
      "name": "supportsInterface",
      "outputs": [
        {
          "internalType": "bool",
          "name": "",
          "type": "bool"
        }
      ],
      "stateMutability": "view",
      "type": "function"
    },
    {
      "inputs": [],
      "name": "symbol",
      "outputs": [
        {
          "internalType": "string",
          "name": "",
          "type": "string"
        }
      ],
      "stateMutability": "view",
      "type": "function"
    },
    {
      "inputs": [
        {
          "internalType": "uint256",
          "name": "tokenId",
          "type": "uint256"
        }
      ],
      "name": "tokenURI",
      "outputs": [
        {
          "internalType": "string",
          "name": "",
          "type": "string"
        }
      ],
      "stateMutability": "view",
      "type": "function"
    },
    {
      "inputs": [
        {
          "internalType": "address",
          "name": "from",
          "type": "address"
        },
        {
          "internalType": "address",
          "name": "to",
          "type": "address"
        },
        {
          "internalType": "uint256",
          "name": "tokenId",
          "type": "uint256"
        }
      ],
      "name": "transferFrom",
      "outputs": [],
      "stateMutability": "nonpayable",
      "type": "function"
    },
    {
      "inputs": [
        {
          "internalType": "address",
          "name": "newOwner",
          "type": "address"
        }
      ],
      "name": "transferOwnership",
      "outputs": [],
      "stateMutability": "nonpayable",
      "type": "function"
    },
    {
      "stateMutability": "payable",
      "type": "receive"
    },
    {
      "inputs": [
        {
          "internalType": "uint8",
          "name": "amountToBuy",
          "type": "uint8"
        }
      ],
      "name": "buyGnome",
      "outputs": [],
      "stateMutability": "payable",
      "type": "function"
    },
    {
      "inputs": [
        {
          "internalType": "uint256",
          "name": "tokenId1",
          "type": "uint256"
        },
        {
          "internalType": "uint256",
          "name": "tokenId2",
          "type": "uint256"
        }
      ],
      "name": "mergeGnomes",
      "outputs": [],
      "stateMutability": "nonpayable",
      "type": "function"
    },
    {
      "inputs": [
        {
          "internalType": "uint256",
          "name": "tokenId",
          "type": "uint256"
        }
      ],
      "name": "addGnomeToCollection",
      "outputs": [],
      "stateMutability": "nonpayable",
      "type": "function"
    },
    {
      "inputs": [],
      "name": "getGnomePrice",
      "outputs": [
        {
          "internalType": "uint256",
          "name": "",
          "type": "uint256"
        }
      ],
      "stateMutability": "view",
      "type": "function"
    },
    {
      "inputs": [
        {
          "internalType": "address",
          "name": "player",
          "type": "address"
        }
      ],
      "name": "getPlayerPower",
      "outputs": [
        {
          "internalType": "uint256",
          "name": "",
          "type": "uint256"
        }
      ],
      "stateMutability": "view",
      "type": "function"
    },
    {
      "inputs": [
        {
          "internalType": "address",
          "name": "player",
          "type": "address"
        },
        {
          "internalType": "uint256",
          "name": "collection",
          "type": "uint256"
        },
        {
          "internalType": "uint256",
          "name": "gnomeId",
          "type": "uint256"
        }
      ],
      "name": "getPlayerCollection",
      "outputs": [
        {
          "internalType": "uint256",
          "name": "",
          "type": "uint256"
        }
      ],
      "stateMutability": "view",
      "type": "function"
    },
    {
      "inputs": [
        {
          "internalType": "uint256",
          "name": "tokenId",
          "type": "uint256"
        }
      ],
      "name": "getGnome",
      "outputs": [
        {
          "internalType": "uint8",
          "name": "",
          "type": "uint8"
        },
        {
          "internalType": "uint8",
          "name": "",
          "type": "uint8"
        },
        {
          "internalType": "uint8",
          "name": "",
          "type": "uint8"
        },
        {
          "internalType": "uint256",
          "name": "",
          "type": "uint256"
        },
        {
          "internalType": "uint256",
          "name": "",
          "type": "uint256"
        },
        {
          "internalType": "uint256",
          "name": "",
          "type": "uint256"
        },
        {
          "internalType": "bool",
          "name": "",
          "type": "bool"
        }
      ],
      "stateMutability": "view",
      "type": "function"
    },
    {
      "inputs": [],
      "name": "getTotalPower",
      "outputs": [
        {
          "internalType": "uint256",
          "name": "",
          "type": "uint256"
        }
      ],
      "stateMutability": "view",
      "type": "function"
    },
    {
      "inputs": [],
      "name": "totalSupply",
      "outputs": [
        {
          "internalType": "uint256",
          "name": "supply",
          "type": "uint256"
        }
      ],
      "stateMutability": "view",
      "type": "function"
    },
    {
      "inputs": [
        {
          "internalType": "uint256",
          "name": "price",
          "type": "uint256"
        }
      ],
      "name": "setGnomePrice",
      "outputs": [],
      "stateMutability": "nonpayable",
      "type": "function"
    },
    {
      "inputs": [
        {
          "internalType": "uint256",
          "name": "blocks",
          "type": "uint256"
        }
      ],
      "name": "setNumberOfBlocksToWaitBetweenTransfer",
      "outputs": [],
      "stateMutability": "nonpayable",
      "type": "function"
    },
    {
      "inputs": [
        {
          "internalType": "string",
          "name": "uri",
          "type": "string"
        }
      ],
      "name": "setBaseUri",
      "outputs": [],
      "stateMutability": "nonpayable",
      "type": "function"
    },
    {
      "inputs": [
        {
          "internalType": "address",
          "name": "randomContract",
          "type": "address"
        }
      ],
      "name": "setRandomContractAddress",
      "outputs": [],
      "stateMutability": "nonpayable",
      "type": "function"
    },
    {
      "inputs": [
        {
          "internalType": "address",
          "name": "rewardsContract",
          "type": "address"
        }
      ],
      "name": "setRewardsContractAddress",
      "outputs": [],
      "stateMutability": "nonpayable",
      "type": "function"
    },
    {
      "inputs": [
        {
          "internalType": "address",
          "name": "gnomesTemplatesContract",
          "type": "address"
        }
      ],
      "name": "setGnomesTemplateContractAddress",
      "outputs": [],
      "stateMutability": "nonpayable",
      "type": "function"
    }
  ],
  "bytecode": "0x6080604052670de0b6b3a7640000600a55611388600b5560405180608001604052806201900062ffffff1681526020016201900062ffffff1681526020016201900562ffffff1681526020016201900062ffffff16815250600c90600462000069929190620007d3565b5061afc860115560405162006a0238038062006a02833981810160405281019062000095919062000943565b6040518060400160405280600e81526020017f4d79204d696e69204d696e6572730000000000000000000000000000000000008152506040518060400160405280600481526020017f4d594d4d000000000000000000000000000000000000000000000000000000008152508160009080519060200190620001199291906200087c565b508060019080519060200190620001329291906200087c565b5050506200015562000149620001c960201b60201c565b620001d160201b60201c565b60016009819055506200016e846200029760201b60201c565b6200017f836200045160201b60201c565b6200019081620005a360201b60201c565b620001a182620006a660201b60201c565b6014600181600181540180825580915050039060005260206000209050505050505062000a6d565b600033905090565b6000600660009054906101000a900473ffffffffffffffffffffffffffffffffffffffff16905081600660006101000a81548173ffffffffffffffffffffffffffffffffffffffff021916908373ffffffffffffffffffffffffffffffffffffffff1602179055508173ffffffffffffffffffffffffffffffffffffffff168173ffffffffffffffffffffffffffffffffffffffff167f8be0079c531659141344cd1fd0a4f28419497f9722a3daafe3b4186f6b6457e060405160405180910390a35050565b620002a7620001c960201b60201c565b73ffffffffffffffffffffffffffffffffffffffff16600860009054906101000a900473ffffffffffffffffffffffffffffffffffffffff1673ffffffffffffffffffffffffffffffffffffffff1614806200034c57506200030e620007a960201b60201c565b73ffffffffffffffffffffffffffffffffffffffff1662000334620001c960201b60201c565b73ffffffffffffffffffffffffffffffffffffffff16145b6200035657600080fd5b600073ffffffffffffffffffffffffffffffffffffffff168173ffffffffffffffffffffffffffffffffffffffff1614156200039157600080fd5b8073ffffffffffffffffffffffffffffffffffffffff16600760009054906101000a900473ffffffffffffffffffffffffffffffffffffffff1673ffffffffffffffffffffffffffffffffffffffff167f686292a774da47913df940e499f775044c8f0306ee4e4ca2462d73570abac92b60405160405180910390a380600760006101000a81548173ffffffffffffffffffffffffffffffffffffffff021916908373ffffffffffffffffffffffffffffffffffffffff16021790555050565b62000461620001c960201b60201c565b73ffffffffffffffffffffffffffffffffffffffff1662000487620007a960201b60201c565b73ffffffffffffffffffffffffffffffffffffffff1614620004a857600080fd5b600073ffffffffffffffffffffffffffffffffffffffff168173ffffffffffffffffffffffffffffffffffffffff161415620004e357600080fd5b8073ffffffffffffffffffffffffffffffffffffffff16600760009054906101000a900473ffffffffffffffffffffffffffffffffffffffff1673ffffffffffffffffffffffffffffffffffffffff167f6c653cea66fc767872566a48443cddce6845518f298111992df854d4425f13f060405160405180910390a380600860006101000a81548173ffffffffffffffffffffffffffffffffffffffff021916908373ffffffffffffffffffffffffffffffffffffffff16021790555050565b620005b3620001c960201b60201c565b73ffffffffffffffffffffffffffffffffffffffff16600860009054906101000a900473ffffffffffffffffffffffffffffffffffffffff1673ffffffffffffffffffffffffffffffffffffffff1614806200065857506200061a620007a960201b60201c565b73ffffffffffffffffffffffffffffffffffffffff1662000640620001c960201b60201c565b73ffffffffffffffffffffffffffffffffffffffff16145b6200066257600080fd5b80601660006101000a81548173ffffffffffffffffffffffffffffffffffffffff021916908373ffffffffffffffffffffffffffffffffffffffff16021790555050565b620006b6620001c960201b60201c565b73ffffffffffffffffffffffffffffffffffffffff16600860009054906101000a900473ffffffffffffffffffffffffffffffffffffffff1673ffffffffffffffffffffffffffffffffffffffff1614806200075b57506200071d620007a960201b60201c565b73ffffffffffffffffffffffffffffffffffffffff1662000743620001c960201b60201c565b73ffffffffffffffffffffffffffffffffffffffff16145b6200076557600080fd5b80601560006101000a81548173ffffffffffffffffffffffffffffffffffffffff021916908373ffffffffffffffffffffffffffffffffffffffff16021790555050565b6000600660009054906101000a900473ffffffffffffffffffffffffffffffffffffffff16905090565b826004600701600890048101928215620008695791602002820160005b838211156200083557835183826101000a81548163ffffffff021916908362ffffff1602179055509260200192600401602081600301049283019260010302620007f0565b8015620008675782816101000a81549063ffffffff021916905560040160208160030104928301926001030262000835565b505b5090506200087891906200090d565b5090565b8280546200088a90620009e9565b90600052602060002090601f016020900481019282620008ae5760008555620008fa565b82601f10620008c957805160ff1916838001178555620008fa565b82800160010185558215620008fa579182015b82811115620008f9578251825591602001919060010190620008dc565b5b5090506200090991906200090d565b5090565b5b80821115620009285760008160009055506001016200090e565b5090565b6000815190506200093d8162000a53565b92915050565b6000806000806080858703121562000960576200095f62000a4e565b5b600062000970878288016200092c565b945050602062000983878288016200092c565b935050604062000996878288016200092c565b9250506060620009a9878288016200092c565b91505092959194509250565b6000620009c282620009c9565b9050919050565b600073ffffffffffffffffffffffffffffffffffffffff82169050919050565b6000600282049050600182168062000a0257607f821691505b6020821081141562000a195762000a1862000a1f565b5b50919050565b7f4e487b7100000000000000000000000000000000000000000000000000000000600052602260045260246000fd5b600080fd5b62000a5e81620009b5565b811462000a6a57600080fd5b50565b615f858062000a7d6000396000f3fe6080604052600436106102085760003560e01c80637e92c87211610118578063b88d4fde116100a0578063d7050b051161006f578063d7050b05146107e2578063ddb00dfc1461080b578063e8ef9f2214610834578063e985e9c51461085d578063f2fde38b1461089a57610278565b8063b88d4fde14610728578063bc7bb2e614610751578063c26e91181461077a578063c87b56dd146107a557610278565b806399c8bfb5116100e757806399c8bfb514610668578063a0bcfc7f14610691578063a0c65735146106ba578063a22cb465146106d6578063b6bf4305146106ff57610278565b80637e92c872146105c05780638da5cb5b146105e957806395d89b411461061457806395fa1d1c1461063f57610278565b806337f675a21161019b578063625e9b5a1161016a578063625e9b5a146104c95780636352211e146104f257806370a082311461052f578063715018a61461056c578063783b59b91461058357610278565b806337f675a2146103f55780633934d5ec1461043257806342842e0e1461047557806353976a261461049e57610278565b80630b62fd93116101d75780630b62fd931461034b57806318160ddd14610376578063235a6544146103a157806323b872dd146103cc57610278565b806301ffc9a71461027d57806306fdde03146102ba578063081812fc146102e5578063095ea7b31461032257610278565b3661027857601360009054906101000a900473ffffffffffffffffffffffffffffffffffffffff1673ffffffffffffffffffffffffffffffffffffffff166108fc349081150290604051600060405180830381858888f19350505050158015610275573d6000803e3d6000fd5b50005b600080fd5b34801561028957600080fd5b506102a4600480360381019061029f9190614953565b6108c3565b6040516102b19190614f87565b60405180910390f35b3480156102c657600080fd5b506102cf6109a5565b6040516102dc9190614fa2565b60405180910390f35b3480156102f157600080fd5b5061030c60048036038101906103079190614a27565b610a37565b6040516103199190614f20565b60405180910390f35b34801561032e57600080fd5b5061034960048036038101906103449190614877565b610abc565b005b34801561035757600080fd5b50610360610bd4565b60405161036d9190615284565b60405180910390f35b34801561038257600080fd5b5061038b610bde565b6040516103989190615284565b60405180910390f35b3480156103ad57600080fd5b506103b6610c4b565b6040516103c39190614f20565b60405180910390f35b3480156103d857600080fd5b506103f360048036038101906103ee9190614761565b610c75565b005b34801561040157600080fd5b5061041c600480360381019061041791906148b7565b610cd5565b6040516104299190615284565b60405180910390f35b34801561043e57600080fd5b5061045960048036038101906104549190614a27565b610d42565b60405161046c9796959493929190615396565b60405180910390f35b34801561048157600080fd5b5061049c60048036038101906104979190614761565b610ee0565b005b3480156104aa57600080fd5b506104b3610f00565b6040516104c09190615284565b60405180910390f35b3480156104d557600080fd5b506104f060048036038101906104eb9190614a81565b610f0a565b005b3480156104fe57600080fd5b5061051960048036038101906105149190614a27565b61142b565b6040516105269190614f20565b60405180910390f35b34801561053b57600080fd5b50610556600480360381019061055191906146f4565b6114dd565b6040516105639190615284565b60405180910390f35b34801561057857600080fd5b50610581611595565b005b34801561058f57600080fd5b506105aa60048036038101906105a591906146f4565b6115e7565b6040516105b79190615284565b60405180910390f35b3480156105cc57600080fd5b506105e760048036038101906105e291906146f4565b611630565b005b3480156105f557600080fd5b506105fe611719565b60405161060b9190614f20565b60405180910390f35b34801561062057600080fd5b50610629611743565b6040516106369190614fa2565b60405180910390f35b34801561064b57600080fd5b5061066660048036038101906106619190614a27565b6117d5565b005b34801561067457600080fd5b5061068f600480360381019061068a9190614a27565b611b70565b005b34801561069d57600080fd5b506106b860048036038101906106b391906149ad565b611c2d565b005b6106d460048036038101906106cf9190614aee565b611ce8565b005b3480156106e257600080fd5b506106fd60048036038101906106f89190614837565b6120b7565b005b34801561070b57600080fd5b5061072660048036038101906107219190614a27565b612238565b005b34801561073457600080fd5b5061074f600480360381019061074a91906147b4565b612331565b005b34801561075d57600080fd5b50610778600480360381019061077391906146f4565b612393565b005b34801561078657600080fd5b5061078f61247c565b60405161079c9190614f20565b60405180910390f35b3480156107b157600080fd5b506107cc60048036038101906107c79190614a27565b6124a6565b6040516107d99190614fa2565b60405180910390f35b3480156107ee57600080fd5b50610809600480360381019061080491906146f4565b61254d565b005b34801561081757600080fd5b50610832600480360381019061082d91906146f4565b612636565b005b34801561084057600080fd5b5061085b600480360381019061085691906146f4565b6127d5565b005b34801561086957600080fd5b50610884600480360381019061087f9190614721565b612915565b6040516108919190614f87565b60405180910390f35b3480156108a657600080fd5b506108c160048036038101906108bc91906146f4565b6129a9565b005b60007f80ac58cd000000000000000000000000000000000000000000000000000000007bffffffffffffffffffffffffffffffffffffffffffffffffffffffff1916827bffffffffffffffffffffffffffffffffffffffffffffffffffffffff1916148061098e57507f5b5e139f000000000000000000000000000000000000000000000000000000007bffffffffffffffffffffffffffffffffffffffffffffffffffffffff1916827bffffffffffffffffffffffffffffffffffffffffffffffffffffffff1916145b8061099e575061099d82612a35565b5b9050919050565b6060600080546109b490615777565b80601f01602080910402602001604051908101604052809291908181526020018280546109e090615777565b8015610a2d5780601f10610a0257610100808354040283529160200191610a2d565b820191906000526020600020905b815481529060010190602001808311610a1057829003601f168201915b5050505050905090565b6000610a4282612a9f565b610a81576040517f08c379a0000000000000000000000000000000000000000000000000000000008152600401610a7890615144565b60405180910390fd5b6004600083815260200190815260200160002060009054906101000a900473ffffffffffffffffffffffffffffffffffffffff169050919050565b6000610ac78261142b565b90508073ffffffffffffffffffffffffffffffffffffffff168373ffffffffffffffffffffffffffffffffffffffff161415610b38576040517f08c379a0000000000000000000000000000000000000000000000000000000008152600401610b2f906151c4565b60405180910390fd5b8073ffffffffffffffffffffffffffffffffffffffff16610b57612b0b565b73ffffffffffffffffffffffffffffffffffffffff161480610b865750610b8581610b80612b0b565b612915565b5b610bc5576040517f08c379a0000000000000000000000000000000000000000000000000000000008152600401610bbc906150c4565b60405180910390fd5b610bcf8383612b13565b505050565b6000600a54905090565b6000805b60048160ff161015610c4757600c8160ff1660048110610c0557610c0461590b565b5b600891828204019190066004029054906101000a900463ffffffff1663ffffffff1682610c3291906154ca565b91508080610c3f90615823565b915050610be2565b5090565b6000600760009054906101000a900473ffffffffffffffffffffffffffffffffffffffff16905090565b610c86610c80612b0b565b82612bcc565b610cc5576040517f08c379a0000000000000000000000000000000000000000000000000000000008152600401610cbc906151e4565b60405180910390fd5b610cd0838383612caa565b505050565b6000600d60008573ffffffffffffffffffffffffffffffffffffffff1673ffffffffffffffffffffffffffffffffffffffff168152602001908152602001600020600084815260200190815260200160002060008381526020019081526020016000205490509392505050565b600080600080600080600060148881548110610d6157610d6061590b565b5b906000526020600020906008020160070160009054906101000a900460ff16610d8957600080fd5b60148881548110610d9d57610d9c61590b565b5b906000526020600020906008020160000160009054906101000a900460ff1660148981548110610dd057610dcf61590b565b5b906000526020600020906008020160020160009054906101000a900460ff1660148a81548110610e0357610e0261590b565b5b906000526020600020906008020160040160009054906101000a900460ff1660148b81548110610e3657610e3561590b565b5b90600052602060002090600802016005015460148c81548110610e5c57610e5b61590b565b5b90600052602060002090600802016006015460148d81548110610e8257610e8161590b565b5b90600052602060002090600802016003015460148e81548110610ea857610ea761590b565b5b906000526020600020906008020160070160009054906101000a900460ff169650965096509650965096509650919395979092949650565b610efb83838360405180602001604052806000815250612331565b505050565b6000601054905090565b60026009541415610f1a57600080fd5b6002600981905550610f2b8261142b565b73ffffffffffffffffffffffffffffffffffffffff16610f49612b0b565b73ffffffffffffffffffffffffffffffffffffffff16148015610fa65750610f708161142b565b73ffffffffffffffffffffffffffffffffffffffff16610f8e612b0b565b73ffffffffffffffffffffffffffffffffffffffff16145b610fe5576040517f08c379a0000000000000000000000000000000000000000000000000000000008152600401610fdc90615264565b60405180910390fd5b60148281548110610ff957610ff861590b565b5b906000526020600020906008020160070160009054906101000a900460ff1680156110535750601481815481106110335761103261590b565b5b906000526020600020906008020160070160009054906101000a900460ff165b611092576040517f08c379a000000000000000000000000000000000000000000000000000000000815260040161108990615244565b60405180910390fd5b601481815481106110a6576110a561590b565b5b906000526020600020906008020160000160009054906101000a900460ff1660ff16601483815481106110dc576110db61590b565b5b906000526020600020906008020160000160009054906101000a900460ff1660ff161461113e576040517f08c379a000000000000000000000000000000000000000000000000000000000815260040161113590615024565b60405180910390fd5b601481815481106111525761115161590b565b5b906000526020600020906008020160020160009054906101000a900460ff1660ff16601483815481106111885761118761590b565b5b906000526020600020906008020160020160009054906101000a900460ff1660ff16146111ea576040517f08c379a00000000000000000000000000000000000000000000000000000000081526004016111e190614fc4565b60405180910390fd5b600a60148381548110611200576111ff61590b565b5b906000526020600020906008020160020160009054906101000a900460ff1660ff1610611262576040517f08c379a000000000000000000000000000000000000000000000000000000000815260040161125990615224565b60405180910390fd5b600060016014848154811061127a5761127961590b565b5b906000526020600020906008020160020160009054906101000a900460ff166112a3919061555a565b90506112ae83612d01565b6112b782612d01565b61141e601484815481106112ce576112cd61590b565b5b906000526020600020906008020160000160009054906101000a900460ff1682601486815481106113025761130161590b565b5b906000526020600020906008020160040160009054906101000a900460ff16601487815481106113355761133461590b565b5b906000526020600020906008020160050154601660009054906101000a900473ffffffffffffffffffffffffffffffffffffffff1673ffffffffffffffffffffffffffffffffffffffff1663c5da00d060148a815481106113995761139861590b565b5b906000526020600020906008020160060154886040518363ffffffff1660e01b81526004016113c99291906152ff565b60206040518083038186803b1580156113e157600080fd5b505afa1580156113f5573d6000803e3d6000fd5b505050506040513d601f19601f820116820180604052508101906114199190614a54565b612d5c565b5060016009819055505050565b6000806002600084815260200190815260200160002060009054906101000a900473ffffffffffffffffffffffffffffffffffffffff169050600073ffffffffffffffffffffffffffffffffffffffff168173ffffffffffffffffffffffffffffffffffffffff1614156114d4576040517f08c379a00000000000000000000000000000000000000000000000000000000081526004016114cb90615104565b60405180910390fd5b80915050919050565b60008073ffffffffffffffffffffffffffffffffffffffff168273ffffffffffffffffffffffffffffffffffffffff16141561154e576040517f08c379a0000000000000000000000000000000000000000000000000000000008152600401611545906150e4565b60405180910390fd5b600360008373ffffffffffffffffffffffffffffffffffffffff1673ffffffffffffffffffffffffffffffffffffffff168152602001908152602001600020549050919050565b61159d612b0b565b73ffffffffffffffffffffffffffffffffffffffff166115bb611719565b73ffffffffffffffffffffffffffffffffffffffff16146115db57600080fd5b6115e56000612fcb565b565b6000600f60008373ffffffffffffffffffffffffffffffffffffffff1673ffffffffffffffffffffffffffffffffffffffff168152602001908152602001600020549050919050565b611638612b0b565b73ffffffffffffffffffffffffffffffffffffffff16600860009054906101000a900473ffffffffffffffffffffffffffffffffffffffff1673ffffffffffffffffffffffffffffffffffffffff1614806116cc5750611696611719565b73ffffffffffffffffffffffffffffffffffffffff166116b4612b0b565b73ffffffffffffffffffffffffffffffffffffffff16145b6116d557600080fd5b80601360006101000a81548173ffffffffffffffffffffffffffffffffffffffff021916908373ffffffffffffffffffffffffffffffffffffffff16021790555050565b6000600660009054906101000a900473ffffffffffffffffffffffffffffffffffffffff16905090565b60606001805461175290615777565b80601f016020809104026020016040519081016040528092919081815260200182805461177e90615777565b80156117cb5780601f106117a0576101008083540402835291602001916117cb565b820191906000526020600020905b8154815290600101906020018083116117ae57829003601f168201915b5050505050905090565b6117dd612b0b565b73ffffffffffffffffffffffffffffffffffffffff166117fc8261142b565b73ffffffffffffffffffffffffffffffffffffffff1614611852576040517f08c379a000000000000000000000000000000000000000000000000000000000815260040161184990615264565b60405180910390fd5b601481815481106118665761186561590b565b5b906000526020600020906008020160070160009054906101000a900460ff166118c4576040517f08c379a00000000000000000000000000000000000000000000000000000000081526004016118bb90615244565b60405180910390fd5b43601482815481106118d9576118d861590b565b5b906000526020600020906008020160030154111561192c576040517f08c379a000000000000000000000000000000000000000000000000000000000815260040161192390615084565b60405180910390fd5b6000600d600061193a612b0b565b73ffffffffffffffffffffffffffffffffffffffff1673ffffffffffffffffffffffffffffffffffffffff16815260200190815260200160002060006014848154811061198a5761198961590b565b5b90600052602060002090600802016005015481526020019081526020016000206000601484815481106119c0576119bf61590b565b5b906000526020600020906008020160000160009054906101000a900460ff1660ff16815260200190815260200160002054905081600d6000611a00612b0b565b73ffffffffffffffffffffffffffffffffffffffff1673ffffffffffffffffffffffffffffffffffffffff168152602001908152602001600020600060148581548110611a5057611a4f61590b565b5b9060005260206000209060080201600501548152602001908152602001600020600060148581548110611a8657611a8561590b565b5b906000526020600020906008020160000160009054906101000a900460ff1660ff16815260200190815260200160002081905550611af060148381548110611ad157611ad061590b565b5b906000526020600020906008020160050154611aeb612b0b565b613091565b8181611afa612b0b565b73ffffffffffffffffffffffffffffffffffffffff167f3927bc05ceffc80c149d391bc00bc00297128b93758e7b604f353c35b436964460148681548110611b4557611b4461590b565b5b906000526020600020906008020160050154604051611b649190615284565b60405180910390a45050565b611b78612b0b565b73ffffffffffffffffffffffffffffffffffffffff16600860009054906101000a900473ffffffffffffffffffffffffffffffffffffffff1673ffffffffffffffffffffffffffffffffffffffff161480611c0c5750611bd6611719565b73ffffffffffffffffffffffffffffffffffffffff16611bf4612b0b565b73ffffffffffffffffffffffffffffffffffffffff16145b611c1557600080fd5b6107088111611c2357600080fd5b8060118190555050565b611c35612b0b565b73ffffffffffffffffffffffffffffffffffffffff16600860009054906101000a900473ffffffffffffffffffffffffffffffffffffffff1673ffffffffffffffffffffffffffffffffffffffff161480611cc95750611c93611719565b73ffffffffffffffffffffffffffffffffffffffff16611cb1612b0b565b73ffffffffffffffffffffffffffffffffffffffff16145b611cd257600080fd5b818160129190611ce392919061438f565b505050565b60026009541415611cf857600080fd5b60026009819055508060ff16600a54611d1191906155c2565b3414611d52576040517f08c379a0000000000000000000000000000000000000000000000000000000008152600401611d4990615204565b60405180910390fd5b6000611d5c610bde565b90508160ff16811015611da4576040517f08c379a0000000000000000000000000000000000000000000000000000000008152600401611d9b906151a4565b60405180910390fd5b6000612710600b5434611db791906155c2565b611dc19190615591565b9050611dcb610c4b565b73ffffffffffffffffffffffffffffffffffffffff166108fc829081150290604051600060405180830381858888f19350505050158015611e10573d6000803e3d6000fd5b50601360009054906101000a900473ffffffffffffffffffffffffffffffffffffffff1673ffffffffffffffffffffffffffffffffffffffff166108fc8234611e59919061561c565b9081150290604051600060405180830381858888f19350505050158015611e84573d6000803e3d6000fd5b5060005b8360ff168160ff1610156120a9576000601560009054906101000a900473ffffffffffffffffffffffffffffffffffffffff1673ffffffffffffffffffffffffffffffffffffffff1663dbdff2c16040518163ffffffff1660e01b8152600401602060405180830381600087803b158015611f0257600080fd5b505af1158015611f16573d6000803e3d6000fd5b505050506040513d601f19601f82011682018060405250810190611f3a9190614a54565b905060008482611f4a919061584d565b90506000611f57826135ad565b60ff169050600c8160048110611f7057611f6f61590b565b5b6008918282040191900660040281819054906101000a900463ffffffff1680929190611f9b90615723565b91906101000a81548163ffffffff021916908363ffffffff16021790555050611fc38161366d565b6000601660009054906101000a900473ffffffffffffffffffffffffffffffffffffffff1673ffffffffffffffffffffffffffffffffffffffff1663d457027b83866040518363ffffffff1660e01b815260040161202292919061529f565b60a06040518083038186803b15801561203a57600080fd5b505afa15801561204e573d6000803e3d6000fd5b505050506040513d601f19601f8201168201806040525081019061207291906149fa565b905061209281600001516001836020015184604001518560600151612d5c565b5050505080806120a190615823565b915050611e88565b505050600160098190555050565b6120bf612b0b565b73ffffffffffffffffffffffffffffffffffffffff168273ffffffffffffffffffffffffffffffffffffffff16141561212d576040517f08c379a000000000000000000000000000000000000000000000000000000000815260040161212490615064565b60405180910390fd5b806005600061213a612b0b565b73ffffffffffffffffffffffffffffffffffffffff1673ffffffffffffffffffffffffffffffffffffffff16815260200190815260200160002060008473ffffffffffffffffffffffffffffffffffffffff1673ffffffffffffffffffffffffffffffffffffffff16815260200190815260200160002060006101000a81548160ff0219169083151502179055508173ffffffffffffffffffffffffffffffffffffffff166121e7612b0b565b73ffffffffffffffffffffffffffffffffffffffff167f17307eab39ab6107e8899845ad3d59bd9653f200f220920489ca2b5937696c318360405161222c9190614f87565b60405180910390a35050565b612240612b0b565b73ffffffffffffffffffffffffffffffffffffffff16600860009054906101000a900473ffffffffffffffffffffffffffffffffffffffff1673ffffffffffffffffffffffffffffffffffffffff1614806122d4575061229e611719565b73ffffffffffffffffffffffffffffffffffffffff166122bc612b0b565b73ffffffffffffffffffffffffffffffffffffffff16145b6122dd57600080fd5b6706f05b59d3b200008111612327576040517f08c379a000000000000000000000000000000000000000000000000000000000815260040161231e90615204565b60405180910390fd5b80600a8190555050565b61234261233c612b0b565b83612bcc565b612381576040517f08c379a0000000000000000000000000000000000000000000000000000000008152600401612378906151e4565b60405180910390fd5b61238d848484846137a8565b50505050565b61239b612b0b565b73ffffffffffffffffffffffffffffffffffffffff16600860009054906101000a900473ffffffffffffffffffffffffffffffffffffffff1673ffffffffffffffffffffffffffffffffffffffff16148061242f57506123f9611719565b73ffffffffffffffffffffffffffffffffffffffff16612417612b0b565b73ffffffffffffffffffffffffffffffffffffffff16145b61243857600080fd5b80601660006101000a81548173ffffffffffffffffffffffffffffffffffffffff021916908373ffffffffffffffffffffffffffffffffffffffff16021790555050565b6000600860009054906101000a900473ffffffffffffffffffffffffffffffffffffffff16905090565b60606124b182612a9f565b6124f0576040517f08c379a00000000000000000000000000000000000000000000000000000000081526004016124e790615184565b60405180910390fd5b60006124fa613804565b9050600081511161251a5760405180602001604052806000815250612545565b8061252484613896565b604051602001612535929190614efc565b6040516020818303038152906040525b915050919050565b612555612b0b565b73ffffffffffffffffffffffffffffffffffffffff16600860009054906101000a900473ffffffffffffffffffffffffffffffffffffffff1673ffffffffffffffffffffffffffffffffffffffff1614806125e957506125b3611719565b73ffffffffffffffffffffffffffffffffffffffff166125d1612b0b565b73ffffffffffffffffffffffffffffffffffffffff16145b6125f257600080fd5b80601560006101000a81548173ffffffffffffffffffffffffffffffffffffffff021916908373ffffffffffffffffffffffffffffffffffffffff16021790555050565b61263e612b0b565b73ffffffffffffffffffffffffffffffffffffffff16600860009054906101000a900473ffffffffffffffffffffffffffffffffffffffff1673ffffffffffffffffffffffffffffffffffffffff1614806126d2575061269c611719565b73ffffffffffffffffffffffffffffffffffffffff166126ba612b0b565b73ffffffffffffffffffffffffffffffffffffffff16145b6126db57600080fd5b600073ffffffffffffffffffffffffffffffffffffffff168173ffffffffffffffffffffffffffffffffffffffff16141561271557600080fd5b8073ffffffffffffffffffffffffffffffffffffffff16600760009054906101000a900473ffffffffffffffffffffffffffffffffffffffff1673ffffffffffffffffffffffffffffffffffffffff167f686292a774da47913df940e499f775044c8f0306ee4e4ca2462d73570abac92b60405160405180910390a380600760006101000a81548173ffffffffffffffffffffffffffffffffffffffff021916908373ffffffffffffffffffffffffffffffffffffffff16021790555050565b6127dd612b0b565b73ffffffffffffffffffffffffffffffffffffffff166127fb611719565b73ffffffffffffffffffffffffffffffffffffffff161461281b57600080fd5b600073ffffffffffffffffffffffffffffffffffffffff168173ffffffffffffffffffffffffffffffffffffffff16141561285557600080fd5b8073ffffffffffffffffffffffffffffffffffffffff16600760009054906101000a900473ffffffffffffffffffffffffffffffffffffffff1673ffffffffffffffffffffffffffffffffffffffff167f6c653cea66fc767872566a48443cddce6845518f298111992df854d4425f13f060405160405180910390a380600860006101000a81548173ffffffffffffffffffffffffffffffffffffffff021916908373ffffffffffffffffffffffffffffffffffffffff16021790555050565b6000600560008473ffffffffffffffffffffffffffffffffffffffff1673ffffffffffffffffffffffffffffffffffffffff16815260200190815260200160002060008373ffffffffffffffffffffffffffffffffffffffff1673ffffffffffffffffffffffffffffffffffffffff16815260200190815260200160002060009054906101000a900460ff16905092915050565b6129b1612b0b565b73ffffffffffffffffffffffffffffffffffffffff166129cf611719565b73ffffffffffffffffffffffffffffffffffffffff16146129ef57600080fd5b600073ffffffffffffffffffffffffffffffffffffffff168173ffffffffffffffffffffffffffffffffffffffff161415612a2957600080fd5b612a3281612fcb565b50565b60007f01ffc9a7000000000000000000000000000000000000000000000000000000007bffffffffffffffffffffffffffffffffffffffffffffffffffffffff1916827bffffffffffffffffffffffffffffffffffffffffffffffffffffffff1916149050919050565b60008073ffffffffffffffffffffffffffffffffffffffff166002600084815260200190815260200160002060009054906101000a900473ffffffffffffffffffffffffffffffffffffffff1673ffffffffffffffffffffffffffffffffffffffff1614159050919050565b600033905090565b816004600083815260200190815260200160002060006101000a81548173ffffffffffffffffffffffffffffffffffffffff021916908373ffffffffffffffffffffffffffffffffffffffff160217905550808273ffffffffffffffffffffffffffffffffffffffff16612b868361142b565b73ffffffffffffffffffffffffffffffffffffffff167f8c5be1e5ebec7d5bd14f71427d1e84f3dd0314c0f7b2291e5b200ac8c7c3b92560405160405180910390a45050565b6000612bd782612a9f565b612c16576040517f08c379a0000000000000000000000000000000000000000000000000000000008152600401612c0d906150a4565b60405180910390fd5b6000612c218361142b565b90508073ffffffffffffffffffffffffffffffffffffffff168473ffffffffffffffffffffffffffffffffffffffff161480612c9057508373ffffffffffffffffffffffffffffffffffffffff16612c7884610a37565b73ffffffffffffffffffffffffffffffffffffffff16145b80612ca15750612ca08185612915565b5b91505092915050565b612cb481846139f7565b612cbf838383613c2c565b600060148281548110612cd557612cd461590b565b5b9060005260206000209060080201905060115443612cf391906154ca565b816003018190555050505050565b612d1281612d0d612b0b565b6139f7565b612d1b81613e88565b600060148281548110612d3157612d3061590b565b5b906000526020600020906008020160070160006101000a81548160ff02191690831515021790555050565b60006014805490509050612d77612d71612b0b565b82613f99565b60006040518061010001604052808860ff1681526020018381526020018760ff168152602001600081526020018660ff168152602001858152602001848152602001600115158152509050601481908060018154018082558091505060019003906000526020600020906008020160009091909190915060008201518160000160006101000a81548160ff021916908360ff1602179055506020820151816001015560408201518160020160006101000a81548160ff021916908360ff1602179055506060820151816003015560808201518160040160006101000a81548160ff021916908360ff16021790555060a0820151816005015560c0820151816006015560e08201518160070160006101000a81548160ff02191690831515021790555050508560ff166014600d6000612ead612b0b565b73ffffffffffffffffffffffffffffffffffffffff1673ffffffffffffffffffffffffffffffffffffffff168152602001908152602001600020600087815260200190815260200160002060008a60ff1681526020019081526020016000205481548110612f1e57612f1d61590b565b5b906000526020600020906008020160020160009054906101000a900460ff1660ff161015612f5057612f4f826117d5565b5b81612f59612b0b565b73ffffffffffffffffffffffffffffffffffffffff167fdab5404dc57e13ee9bfdd66bbae089e371a7fede6fcbd0350bf5ece4f3b8ad798360a001518460000151856040015186608001518760c00151604051612fba959493929190615328565b60405180910390a350505050505050565b6000600660009054906101000a900473ffffffffffffffffffffffffffffffffffffffff16905081600660006101000a81548173ffffffffffffffffffffffffffffffffffffffff021916908373ffffffffffffffffffffffffffffffffffffffff1602179055508173ffffffffffffffffffffffffffffffffffffffff168173ffffffffffffffffffffffffffffffffffffffff167f8be0079c531659141344cd1fd0a4f28419497f9722a3daafe3b4186f6b6457e060405160405180910390a35050565b6000601660009054906101000a900473ffffffffffffffffffffffffffffffffffffffff1673ffffffffffffffffffffffffffffffffffffffff1663e547cb85846040518263ffffffff1660e01b81526004016130ee9190615284565b60006040518083038186803b15801561310657600080fd5b505afa15801561311a573d6000803e3d6000fd5b505050506040513d6000823e3d601f19601f82011682018060405250810190613143919061490a565b90506000815190506000806000805b848160ff1610156132e5576000600d60008973ffffffffffffffffffffffffffffffffffffffff1673ffffffffffffffffffffffffffffffffffffffff16815260200190815260200160002060008a81526020019081526020016000206000888460ff16815181106131c7576131c661590b565b5b60200260200101518152602001908152602001600020549050601481815481106131f4576131f361590b565b5b906000526020600020906008020160070160009054906101000a900460ff16156132d1576014818154811061322c5761322b61590b565b5b9060005260206000209060080201600601548461324991906154ca565b9350600183613258919061555a565b92506014818154811061326e5761326d61590b565b5b906000526020600020906008020160020160009054906101000a900460ff1660ff168560ff1610156132d057601481815481106132ae576132ad61590b565b5b906000526020600020906008020160020160009054906101000a900460ff1694505b5b5080806132dd90615823565b915050613152565b508060ff168414156133b057601660009054906101000a900473ffffffffffffffffffffffffffffffffffffffff1673ffffffffffffffffffffffffffffffffffffffff16631efb0a75846040518263ffffffff1660e01b815260040161334c919061537b565b60206040518083038186803b15801561336457600080fd5b505afa158015613378573d6000803e3d6000fd5b505050506040513d601f19601f8201168201806040525081019061339c9190614ac1565b63ffffffff16826133ad91906155c2565b91505b6000600e60008873ffffffffffffffffffffffffffffffffffffffff1673ffffffffffffffffffffffffffffffffffffffff168152602001908152602001600020600089815260200190815260200160002054905082600e60008973ffffffffffffffffffffffffffffffffffffffff1673ffffffffffffffffffffffffffffffffffffffff16815260200190815260200160002060008a8152602001908152602001600020819055508281600f60008a73ffffffffffffffffffffffffffffffffffffffff1673ffffffffffffffffffffffffffffffffffffffff168152602001908152602001600020546134a6919061561c565b6134b091906154ca565b600f60008973ffffffffffffffffffffffffffffffffffffffff1673ffffffffffffffffffffffffffffffffffffffff168152602001908152602001600020819055508281601054613502919061561c565b61350c91906154ca565b6010819055508673ffffffffffffffffffffffffffffffffffffffff167f607cde3b1bf58b4b03bb55bc168666d2ba1e13b8d02869fede74efb08d66af418985600f60008c73ffffffffffffffffffffffffffffffffffffffff1673ffffffffffffffffffffffffffffffffffffffff1681526020019081526020016000205460405161359b939291906152c8565b60405180910390a25050505050505050565b6000806000600390505b60008160ff161061362c57600c8160ff16600481106135d9576135d861590b565b5b600891828204019190066004029054906101000a900463ffffffff1663ffffffff168261360691906154ca565b9150838210613619578092505050613668565b80806136249061574d565b9150506135b7565b506040517f08c379a000000000000000000000000000000000000000000000000000000000815260040161365f906151a4565b60405180910390fd5b919050565b60008114156136d5576004600c60016004811061368d5761368c61590b565b5b600891828204019190066004028282829054906101000a900463ffffffff166136b69190615520565b92506101000a81548163ffffffff021916908363ffffffff1602179055505b600181141561373d576006600c6002600481106136f5576136f461590b565b5b600891828204019190066004028282829054906101000a900463ffffffff1661371e9190615520565b92506101000a81548163ffffffff021916908363ffffffff1602179055505b60028114156137a5576002600c60036004811061375d5761375c61590b565b5b600891828204019190066004028282829054906101000a900463ffffffff166137869190615520565b92506101000a81548163ffffffff021916908363ffffffff1602179055505b50565b6137b3848484612caa565b6137bf84848484613fb7565b6137fe576040517f08c379a00000000000000000000000000000000000000000000000000000000081526004016137f590614fe4565b60405180910390fd5b50505050565b60606012805461381390615777565b80601f016020809104026020016040519081016040528092919081815260200182805461383f90615777565b801561388c5780601f106138615761010080835404028352916020019161388c565b820191906000526020600020905b81548152906001019060200180831161386f57829003601f168201915b5050505050905090565b606060008214156138de576040518060400160405280600181526020017f300000000000000000000000000000000000000000000000000000000000000081525090506139f2565b600082905060005b600082146139105780806138f9906157da565b915050600a826139099190615591565b91506138e6565b60008167ffffffffffffffff81111561392c5761392b61593a565b5b6040519080825280601f01601f19166020018201604052801561395e5781602001600182028036833780820191505090505b5090505b600085146139eb57600182613977919061561c565b9150600a85613986919061584d565b603061399291906154ca565b60f81b8183815181106139a8576139a761590b565b5b60200101907effffffffffffffffffffffffffffffffffffffffffffffffffffffffffffff1916908160001a905350600a856139e49190615591565b9450613962565b8093505050505b919050565b81600d60008373ffffffffffffffffffffffffffffffffffffffff1673ffffffffffffffffffffffffffffffffffffffff168152602001908152602001600020600060148581548110613a4d57613a4c61590b565b5b9060005260206000209060080201600501548152602001908152602001600020600060148581548110613a8357613a8261590b565b5b906000526020600020906008020160000160009054906101000a900460ff1660ff168152602001908152602001600020541415613c28576000600d60008373ffffffffffffffffffffffffffffffffffffffff1673ffffffffffffffffffffffffffffffffffffffff168152602001908152602001600020600060148581548110613b1157613b1061590b565b5b9060005260206000209060080201600501548152602001908152602001600020600060148581548110613b4757613b4661590b565b5b906000526020600020906008020160000160009054906101000a900460ff1660ff16815260200190815260200160002081905550613baa60148381548110613b9257613b9161590b565b5b90600052602060002090600802016005015482613091565b600082613bb5612b0b565b73ffffffffffffffffffffffffffffffffffffffff167f3927bc05ceffc80c149d391bc00bc00297128b93758e7b604f353c35b436964460148681548110613c0057613bff61590b565b5b906000526020600020906008020160050154604051613c1f9190615284565b60405180910390a45b5050565b8273ffffffffffffffffffffffffffffffffffffffff16613c4c8261142b565b73ffffffffffffffffffffffffffffffffffffffff1614613ca2576040517f08c379a0000000000000000000000000000000000000000000000000000000008152600401613c9990615164565b60405180910390fd5b600073ffffffffffffffffffffffffffffffffffffffff168273ffffffffffffffffffffffffffffffffffffffff161415613d12576040517f08c379a0000000000000000000000000000000000000000000000000000000008152600401613d0990615044565b60405180910390fd5b613d1d83838361414e565b613d28600082612b13565b6001600360008573ffffffffffffffffffffffffffffffffffffffff1673ffffffffffffffffffffffffffffffffffffffff1681526020019081526020016000206000828254613d78919061561c565b925050819055506001600360008473ffffffffffffffffffffffffffffffffffffffff1673ffffffffffffffffffffffffffffffffffffffff1681526020019081526020016000206000828254613dcf91906154ca565b92505081905550816002600083815260200190815260200160002060006101000a81548173ffffffffffffffffffffffffffffffffffffffff021916908373ffffffffffffffffffffffffffffffffffffffff160217905550808273ffffffffffffffffffffffffffffffffffffffff168473ffffffffffffffffffffffffffffffffffffffff167fddf252ad1be2c89b69c2b068fc378daa952ba7f163c4a11628f55a4df523b3ef60405160405180910390a4505050565b6000613e938261142b565b9050613ea18160008461414e565b613eac600083612b13565b6001600360008373ffffffffffffffffffffffffffffffffffffffff1673ffffffffffffffffffffffffffffffffffffffff1681526020019081526020016000206000828254613efc919061561c565b925050819055506002600083815260200190815260200160002060006101000a81549073ffffffffffffffffffffffffffffffffffffffff021916905581600073ffffffffffffffffffffffffffffffffffffffff168273ffffffffffffffffffffffffffffffffffffffff167fddf252ad1be2c89b69c2b068fc378daa952ba7f163c4a11628f55a4df523b3ef60405160405180910390a45050565b613fb3828260405180602001604052806000815250614153565b5050565b6000613fd88473ffffffffffffffffffffffffffffffffffffffff166141ae565b15614141578373ffffffffffffffffffffffffffffffffffffffff1663150b7a02614001612b0b565b8786866040518563ffffffff1660e01b81526004016140239493929190614f3b565b602060405180830381600087803b15801561403d57600080fd5b505af192505050801561406e57506040513d601f19601f8201168201806040525081019061406b9190614980565b60015b6140f1573d806000811461409e576040519150601f19603f3d011682016040523d82523d6000602084013e6140a3565b606091505b506000815114156140e9576040517f08c379a00000000000000000000000000000000000000000000000000000000081526004016140e090614fe4565b60405180910390fd5b805181602001fd5b63150b7a0260e01b7bffffffffffffffffffffffffffffffffffffffffffffffffffffffff1916817bffffffffffffffffffffffffffffffffffffffffffffffffffffffff191614915050614146565b600190505b949350505050565b505050565b61415d83836141c1565b61416a6000848484613fb7565b6141a9576040517f08c379a00000000000000000000000000000000000000000000000000000000081526004016141a090614fe4565b60405180910390fd5b505050565b600080823b905060008111915050919050565b600073ffffffffffffffffffffffffffffffffffffffff168273ffffffffffffffffffffffffffffffffffffffff161415614231576040517f08c379a000000000000000000000000000000000000000000000000000000000815260040161422890615124565b60405180910390fd5b61423a81612a9f565b1561427a576040517f08c379a000000000000000000000000000000000000000000000000000000000815260040161427190615004565b60405180910390fd5b6142866000838361414e565b6001600360008473ffffffffffffffffffffffffffffffffffffffff1673ffffffffffffffffffffffffffffffffffffffff16815260200190815260200160002060008282546142d691906154ca565b92505081905550816002600083815260200190815260200160002060006101000a81548173ffffffffffffffffffffffffffffffffffffffff021916908373ffffffffffffffffffffffffffffffffffffffff160217905550808273ffffffffffffffffffffffffffffffffffffffff16600073ffffffffffffffffffffffffffffffffffffffff167fddf252ad1be2c89b69c2b068fc378daa952ba7f163c4a11628f55a4df523b3ef60405160405180910390a45050565b82805461439b90615777565b90600052602060002090601f0160209004810192826143bd5760008555614404565b82601f106143d657803560ff1916838001178555614404565b82800160010185558215614404579182015b828111156144035782358255916020019190600101906143e8565b5b5090506144119190614415565b5090565b5b8082111561442e576000816000905550600101614416565b5090565b60006144456144408461542a565b615405565b9050808382526020820190508285602086028201111561446857614467615978565b5b60005b85811015614498578161447e88826146a0565b84526020840193506020830192505060018101905061446b565b5050509392505050565b60006144b56144b084615456565b615405565b9050828152602081018484840111156144d1576144d061597d565b5b6144dc8482856156e1565b509392505050565b6000813590506144f381615ec5565b92915050565b600082601f83011261450e5761450d61596e565b5b815161451e848260208601614432565b91505092915050565b60008135905061453681615edc565b92915050565b60008151905061454b81615edc565b92915050565b60008135905061456081615ef3565b92915050565b60008151905061457581615ef3565b92915050565b600082601f8301126145905761458f61596e565b5b81356145a08482602086016144a2565b91505092915050565b60008083601f8401126145bf576145be61596e565b5b8235905067ffffffffffffffff8111156145dc576145db615969565b5b6020830191508360018202830111156145f8576145f7615978565b5b9250929050565b600060a0828403121561461557614614615973565b5b61461f60a0615405565b9050600061462f848285016146df565b6000830152506020614643848285016146df565b6020830152506040614657848285016146a0565b604083015250606061466b848285016146a0565b606083015250608061467f8482850161453c565b60808301525092915050565b60008135905061469a81615f0a565b92915050565b6000815190506146af81615f0a565b92915050565b6000815190506146c481615f21565b92915050565b6000813590506146d981615f38565b92915050565b6000815190506146ee81615f38565b92915050565b60006020828403121561470a57614709615987565b5b6000614718848285016144e4565b91505092915050565b6000806040838503121561473857614737615987565b5b6000614746858286016144e4565b9250506020614757858286016144e4565b9150509250929050565b60008060006060848603121561477a57614779615987565b5b6000614788868287016144e4565b9350506020614799868287016144e4565b92505060406147aa8682870161468b565b9150509250925092565b600080600080608085870312156147ce576147cd615987565b5b60006147dc878288016144e4565b94505060206147ed878288016144e4565b93505060406147fe8782880161468b565b925050606085013567ffffffffffffffff81111561481f5761481e615982565b5b61482b8782880161457b565b91505092959194509250565b6000806040838503121561484e5761484d615987565b5b600061485c858286016144e4565b925050602061486d85828601614527565b9150509250929050565b6000806040838503121561488e5761488d615987565b5b600061489c858286016144e4565b92505060206148ad8582860161468b565b9150509250929050565b6000806000606084860312156148d0576148cf615987565b5b60006148de868287016144e4565b93505060206148ef8682870161468b565b92505060406149008682870161468b565b9150509250925092565b6000602082840312156149205761491f615987565b5b600082015167ffffffffffffffff81111561493e5761493d615982565b5b61494a848285016144f9565b91505092915050565b60006020828403121561496957614968615987565b5b600061497784828501614551565b91505092915050565b60006020828403121561499657614995615987565b5b60006149a484828501614566565b91505092915050565b600080602083850312156149c4576149c3615987565b5b600083013567ffffffffffffffff8111156149e2576149e1615982565b5b6149ee858286016145a9565b92509250509250929050565b600060a08284031215614a1057614a0f615987565b5b6000614a1e848285016145ff565b91505092915050565b600060208284031215614a3d57614a3c615987565b5b6000614a4b8482850161468b565b91505092915050565b600060208284031215614a6a57614a69615987565b5b6000614a78848285016146a0565b91505092915050565b60008060408385031215614a9857614a97615987565b5b6000614aa68582860161468b565b9250506020614ab78582860161468b565b9150509250929050565b600060208284031215614ad757614ad6615987565b5b6000614ae5848285016146b5565b91505092915050565b600060208284031215614b0457614b03615987565b5b6000614b12848285016146ca565b91505092915050565b614b2481615650565b82525050565b614b3381615662565b82525050565b6000614b4482615487565b614b4e818561549d565b9350614b5e8185602086016156f0565b614b678161598c565b840191505092915050565b6000614b7d82615492565b614b8781856154ae565b9350614b978185602086016156f0565b614ba08161598c565b840191505092915050565b6000614bb682615492565b614bc081856154bf565b9350614bd08185602086016156f0565b80840191505092915050565b6000614be96001836154ae565b9150614bf48261599d565b602082019050919050565b6000614c0c6032836154ae565b9150614c17826159c6565b604082019050919050565b6000614c2f601c836154ae565b9150614c3a82615a15565b602082019050919050565b6000614c526001836154ae565b9150614c5d82615a3e565b602082019050919050565b6000614c756024836154ae565b9150614c8082615a67565b604082019050919050565b6000614c986019836154ae565b9150614ca382615ab6565b602082019050919050565b6000614cbb6001836154ae565b9150614cc682615adf565b602082019050919050565b6000614cde602c836154ae565b9150614ce982615b08565b604082019050919050565b6000614d016038836154ae565b9150614d0c82615b57565b604082019050919050565b6000614d24602a836154ae565b9150614d2f82615ba6565b604082019050919050565b6000614d476029836154ae565b9150614d5282615bf5565b604082019050919050565b6000614d6a6020836154ae565b9150614d7582615c44565b602082019050919050565b6000614d8d602c836154ae565b9150614d9882615c6d565b604082019050919050565b6000614db06029836154ae565b9150614dbb82615cbc565b604082019050919050565b6000614dd3602f836154ae565b9150614dde82615d0b565b604082019050919050565b6000614df66001836154ae565b9150614e0182615d5a565b602082019050919050565b6000614e196021836154ae565b9150614e2482615d83565b604082019050919050565b6000614e3c6031836154ae565b9150614e4782615dd2565b604082019050919050565b6000614e5f6001836154ae565b9150614e6a82615e21565b602082019050919050565b6000614e826001836154ae565b9150614e8d82615e4a565b602082019050919050565b6000614ea56001836154ae565b9150614eb082615e73565b602082019050919050565b6000614ec86001836154ae565b9150614ed382615e9c565b602082019050919050565b614ee7816156ba565b82525050565b614ef6816156d4565b82525050565b6000614f088285614bab565b9150614f148284614bab565b91508190509392505050565b6000602082019050614f356000830184614b1b565b92915050565b6000608082019050614f506000830187614b1b565b614f5d6020830186614b1b565b614f6a6040830185614ede565b8181036060830152614f7c8184614b39565b905095945050505050565b6000602082019050614f9c6000830184614b2a565b92915050565b60006020820190508181036000830152614fbc8184614b72565b905092915050565b60006020820190508181036000830152614fdd81614bdc565b9050919050565b60006020820190508181036000830152614ffd81614bff565b9050919050565b6000602082019050818103600083015261501d81614c22565b9050919050565b6000602082019050818103600083015261503d81614c45565b9050919050565b6000602082019050818103600083015261505d81614c68565b9050919050565b6000602082019050818103600083015261507d81614c8b565b9050919050565b6000602082019050818103600083015261509d81614cae565b9050919050565b600060208201905081810360008301526150bd81614cd1565b9050919050565b600060208201905081810360008301526150dd81614cf4565b9050919050565b600060208201905081810360008301526150fd81614d17565b9050919050565b6000602082019050818103600083015261511d81614d3a565b9050919050565b6000602082019050818103600083015261513d81614d5d565b9050919050565b6000602082019050818103600083015261515d81614d80565b9050919050565b6000602082019050818103600083015261517d81614da3565b9050919050565b6000602082019050818103600083015261519d81614dc6565b9050919050565b600060208201905081810360008301526151bd81614de9565b9050919050565b600060208201905081810360008301526151dd81614e0c565b9050919050565b600060208201905081810360008301526151fd81614e2f565b9050919050565b6000602082019050818103600083015261521d81614e52565b9050919050565b6000602082019050818103600083015261523d81614e75565b9050919050565b6000602082019050818103600083015261525d81614e98565b9050919050565b6000602082019050818103600083015261527d81614ebb565b9050919050565b60006020820190506152996000830184614ede565b92915050565b60006040820190506152b46000830185614ede565b6152c16020830184614ede565b9392505050565b60006060820190506152dd6000830186614ede565b6152ea6020830185614ede565b6152f76040830184614ede565b949350505050565b60006040820190506153146000830185614ede565b6153216020830184614eed565b9392505050565b600060a08201905061533d6000830188614ede565b61534a6020830187614eed565b6153576040830186614eed565b6153646060830185614eed565b6153716080830184614ede565b9695505050505050565b60006020820190506153906000830184614eed565b92915050565b600060e0820190506153ab600083018a614eed565b6153b86020830189614eed565b6153c56040830188614eed565b6153d26060830187614ede565b6153df6080830186614ede565b6153ec60a0830185614ede565b6153f960c0830184614b2a565b98975050505050505050565b600061540f615420565b905061541b82826157a9565b919050565b6000604051905090565b600067ffffffffffffffff8211156154455761544461593a565b5b602082029050602081019050919050565b600067ffffffffffffffff8211156154715761547061593a565b5b61547a8261598c565b9050602081019050919050565b600081519050919050565b600081519050919050565b600082825260208201905092915050565b600082825260208201905092915050565b600081905092915050565b60006154d5826156ba565b91506154e0836156ba565b9250827fffffffffffffffffffffffffffffffffffffffffffffffffffffffffffffffff038211156155155761551461587e565b5b828201905092915050565b600061552b826156c4565b9150615536836156c4565b92508263ffffffff0382111561554f5761554e61587e565b5b828201905092915050565b6000615565826156d4565b9150615570836156d4565b92508260ff038211156155865761558561587e565b5b828201905092915050565b600061559c826156ba565b91506155a7836156ba565b9250826155b7576155b66158ad565b5b828204905092915050565b60006155cd826156ba565b91506155d8836156ba565b9250817fffffffffffffffffffffffffffffffffffffffffffffffffffffffffffffffff04831182151516156156115761561061587e565b5b828202905092915050565b6000615627826156ba565b9150615632836156ba565b9250828210156156455761564461587e565b5b828203905092915050565b600061565b8261569a565b9050919050565b60008115159050919050565b60007fffffffff0000000000000000000000000000000000000000000000000000000082169050919050565b600073ffffffffffffffffffffffffffffffffffffffff82169050919050565b6000819050919050565b600063ffffffff82169050919050565b600060ff82169050919050565b82818337600083830152505050565b60005b8381101561570e5780820151818401526020810190506156f3565b8381111561571d576000848401525b50505050565b600061572e826156c4565b915060008214156157425761574161587e565b5b600182039050919050565b6000615758826156d4565b9150600082141561576c5761576b61587e565b5b600182039050919050565b6000600282049050600182168061578f57607f821691505b602082108114156157a3576157a26158dc565b5b50919050565b6157b28261598c565b810181811067ffffffffffffffff821117156157d1576157d061593a565b5b80604052505050565b60006157e5826156ba565b91507fffffffffffffffffffffffffffffffffffffffffffffffffffffffffffffffff8214156158185761581761587e565b5b600182019050919050565b600061582e826156d4565b915060ff8214156158425761584161587e565b5b600182019050919050565b6000615858826156ba565b9150615863836156ba565b925082615873576158726158ad565b5b828206905092915050565b7f4e487b7100000000000000000000000000000000000000000000000000000000600052601160045260246000fd5b7f4e487b7100000000000000000000000000000000000000000000000000000000600052601260045260246000fd5b7f4e487b7100000000000000000000000000000000000000000000000000000000600052602260045260246000fd5b7f4e487b7100000000000000000000000000000000000000000000000000000000600052603260045260246000fd5b7f4e487b7100000000000000000000000000000000000000000000000000000000600052604160045260246000fd5b600080fd5b600080fd5b600080fd5b600080fd5b600080fd5b600080fd5b600080fd5b6000601f19601f8301169050919050565b7f3400000000000000000000000000000000000000000000000000000000000000600082015250565b7f4552433732313a207472616e7366657220746f206e6f6e20455243373231526560008201527f63656976657220696d706c656d656e7465720000000000000000000000000000602082015250565b7f4552433732313a20746f6b656e20616c7265616479206d696e74656400000000600082015250565b7f3300000000000000000000000000000000000000000000000000000000000000600082015250565b7f4552433732313a207472616e7366657220746f20746865207a65726f2061646460008201527f7265737300000000000000000000000000000000000000000000000000000000602082015250565b7f4552433732313a20617070726f766520746f2063616c6c657200000000000000600082015250565b7f3700000000000000000000000000000000000000000000000000000000000000600082015250565b7f4552433732313a206f70657261746f7220717565727920666f72206e6f6e657860008201527f697374656e7420746f6b656e0000000000000000000000000000000000000000602082015250565b7f4552433732313a20617070726f76652063616c6c6572206973206e6f74206f7760008201527f6e6572206e6f7220617070726f76656420666f7220616c6c0000000000000000602082015250565b7f4552433732313a2062616c616e636520717565727920666f7220746865207a6560008201527f726f206164647265737300000000000000000000000000000000000000000000602082015250565b7f4552433732313a206f776e657220717565727920666f72206e6f6e657869737460008201527f656e7420746f6b656e0000000000000000000000000000000000000000000000602082015250565b7f4552433732313a206d696e7420746f20746865207a65726f2061646472657373600082015250565b7f4552433732313a20617070726f76656420717565727920666f72206e6f6e657860008201527f697374656e7420746f6b656e0000000000000000000000000000000000000000602082015250565b7f4552433732313a207472616e73666572206f6620746f6b656e2074686174206960008201527f73206e6f74206f776e0000000000000000000000000000000000000000000000602082015250565b7f4552433732314d657461646174613a2055524920717565727920666f72206e6f60008201527f6e6578697374656e7420746f6b656e0000000000000000000000000000000000602082015250565b7f3200000000000000000000000000000000000000000000000000000000000000600082015250565b7f4552433732313a20617070726f76616c20746f2063757272656e74206f776e6560008201527f7200000000000000000000000000000000000000000000000000000000000000602082015250565b7f4552433732313a207472616e736665722063616c6c6572206973206e6f74206f60008201527f776e6572206e6f7220617070726f766564000000000000000000000000000000602082015250565b7f3100000000000000000000000000000000000000000000000000000000000000600082015250565b7f3500000000000000000000000000000000000000000000000000000000000000600082015250565b7f3600000000000000000000000000000000000000000000000000000000000000600082015250565b7f3800000000000000000000000000000000000000000000000000000000000000600082015250565b615ece81615650565b8114615ed957600080fd5b50565b615ee581615662565b8114615ef057600080fd5b50565b615efc8161566e565b8114615f0757600080fd5b50565b615f13816156ba565b8114615f1e57600080fd5b50565b615f2a816156c4565b8114615f3557600080fd5b50565b615f41816156d4565b8114615f4c57600080fd5b5056fea264697066735822122092180b4626c8c3facd1d3a9d34385b3ab2c5f024ba0e0651a417d5dd1841510464736f6c63430008060033",
  "immutableReferences": {},
  "source": "pragma solidity ^0.8.0;\r\n\r\nimport \"@openzeppelin/contracts/token/ERC721/ERC721.sol\";\r\nimport \"@openzeppelin/contracts/security/ReentrancyGuard.sol\";\r\nimport \"./Security.sol\";\r\nimport \"./SharedStructs.sol\";\r\n\r\n\r\n/*\r\n    Error codes\r\n    1: insufficient amount\r\n    2: insufficient supply\r\n    3: different gnome\r\n    3: different level\r\n    4: max level\r\n    5: amount it to small\r\n    6: gnome does not exists,\r\n    7: gnome cool down\r\n    8: only owner can do this action\r\n */\r\n\r\ninterface IRandom {\r\n    function getRandomNumber() external returns (uint);\r\n}\r\n\r\ninterface IGnomesTemplates is ISharedStructs {\r\n\r\n    function getGnomeTemplateRarityAndRandom(uint rarity, uint randomNumber) external view returns (structGnome memory);\r\n\r\n    function getCollectionPowerMultiple(uint8 level) external pure returns (uint32);\r\n\r\n    function getCollectionById(uint id) external view returns (uint[] memory);\r\n\r\n    function getGnomePowerByLevel(uint power, uint8 level) external view returns (uint);\r\n}\r\n\r\ncontract MyMiniMiners is ERC721, Security, ReentrancyGuard, ISharedStructs {\r\n\r\n\r\n    uint private _gnomePrice = 1 ether;\r\n    uint private _feesAccountCat = 5000; //100=1%;\r\n\r\n\r\n    /*\r\n     [0] =  legendarySupplyLeft\r\n     [1] =  EpicSupplyLeft\r\n     [2] =  rareSupplyLeft\r\n     [3] =  CommonSupplyLeft\r\n    */\r\n\r\n    uint32[4] private _supplyLeft = [102400, 102400, 102405, 102400];\r\n\r\n    /*\r\n        player => collection id => gnome id => token id\r\n    */\r\n    mapping(address => mapping(uint => mapping(uint => uint))) private _playerCollections;\r\n    /*\r\n        player => collection id => collection power\r\n    */\r\n    mapping(address => mapping(uint => uint)) private _playerCollectionsPower;\r\n    /*\r\n        player => power\r\n    */\r\n    mapping(address => uint) private _playerTotalPower;\r\n\r\n    uint private _allPlayersPower;\r\n\r\n    /* avg block time is 2 sec so on avg its will take 25 cool down 1 hour more then the daily claim*/\r\n    uint private _numberOfBlocksToWaitBetweenTransfer = 30 * 60 * 25;\r\n\r\n    string private _baseURIStr;\r\n\r\n    address private _rewardsContract;\r\n    structPlayerGnome[] private _playersGnomes;\r\n    IRandom private _randomContract;\r\n    IGnomesTemplates private _gnomesTemplatesContract;\r\n\r\n    event PowerChange(address indexed player, uint collection, uint collectionPower, uint playerPower);\r\n    event CollectionChange(address indexed player, uint collection, uint indexed oldTokenId, uint indexed newTokenId);\r\n    event Mint(address indexed player, uint  indexed tokenId, uint collection, uint8 gnomeId, uint8 level, uint8 rarity, uint power);\r\n\r\n    constructor(address feesAccount, address adminAccount, address randomContract, address gnomesTemplatesContract)   ERC721(\"My Mini Miners\", \"MYMM\") ReentrancyGuard() payable {\r\n        setFeesAccount(feesAccount);\r\n        setAdminAccount(adminAccount);\r\n        setGnomesTemplateContractAddress(gnomesTemplatesContract);\r\n        setRandomContractAddress(randomContract);\r\n        //solidity default value for uint is 0 so we start the tokenIds from 1\r\n        _playersGnomes.push();\r\n    }\r\n    //********************************* game functions *************************************//\r\n\r\n    function buyGnome(uint8 amountToBuy) external payable nonReentrant {\r\n        require(msg.value == _gnomePrice * amountToBuy, \"1\");\r\n        uint currentTotalSupply = totalSupply();\r\n        require(currentTotalSupply >= amountToBuy, \"2\");\r\n\r\n        uint feesAccountCat = (msg.value * _feesAccountCat / (10 ** 4));\r\n        payable(feesAccount()).transfer(feesAccountCat);\r\n        payable(_rewardsContract).transfer(msg.value - feesAccountCat);\r\n\r\n        for (uint8 i; i < amountToBuy; i++) {\r\n            uint randomNumber = _randomContract.getRandomNumber();\r\n            uint randomPosition = randomNumber % currentTotalSupply;\r\n            uint rarityIndex = _getRarityByPosition(randomPosition);\r\n            _supplyLeft[rarityIndex]--;\r\n            _increaseSupplyByIndex(rarityIndex);\r\n            structGnome memory gnome = _gnomesTemplatesContract.getGnomeTemplateRarityAndRandom(rarityIndex, randomNumber);\r\n            _createGnome(gnome.id, 1, gnome.rarity, gnome.collection, gnome.power);\r\n        }\r\n    }\r\n\r\n    function mergeGnomes(uint tokenId1, uint tokenId2) external nonReentrant {\r\n\r\n        require(_msgSender() == ownerOf(tokenId1) && _msgSender() == ownerOf(tokenId2), \"8\");\r\n        require(_playersGnomes[tokenId1].exists && _playersGnomes[tokenId2].exists, \"6\");\r\n        require(_playersGnomes[tokenId1].gnomeId == _playersGnomes[tokenId2].gnomeId, \"3\");\r\n        require(_playersGnomes[tokenId1].level == _playersGnomes[tokenId2].level, \"4\");\r\n        require(_playersGnomes[tokenId1].level < 10, \"5\");\r\n\r\n        uint8 newLevel = _playersGnomes[tokenId1].level + 1;\r\n\r\n        _burn(tokenId1);\r\n        _burn(tokenId2);\r\n\r\n        _createGnome(\r\n            _playersGnomes[tokenId1].gnomeId,\r\n            newLevel,\r\n            _playersGnomes[tokenId1].rarity,\r\n            _playersGnomes[tokenId1].collection,\r\n            _gnomesTemplatesContract.getGnomePowerByLevel(_playersGnomes[tokenId1].power, newLevel)\r\n        );\r\n\r\n\r\n    }\r\n\r\n    function addGnomeToCollection(uint tokenId) public {\r\n        require(ownerOf(tokenId) == _msgSender(), \"8\");\r\n        require(_playersGnomes[tokenId].exists, \"6\");\r\n        require(_playersGnomes[tokenId].canBeUsedFromBlock <= block.number, \"7\");\r\n\r\n        uint oldTokenId = _playerCollections[_msgSender()][_playersGnomes[tokenId].collection][_playersGnomes[tokenId].gnomeId];\r\n        _playerCollections[_msgSender()][_playersGnomes[tokenId].collection][_playersGnomes[tokenId].gnomeId] = tokenId;\r\n        _changePlayerPowerAfterChangeInCollection(_playersGnomes[tokenId].collection, _msgSender());\r\n        emit CollectionChange(_msgSender(), _playersGnomes[tokenId].collection, oldTokenId, tokenId);\r\n    }\r\n\r\n    function getGnomePrice() external view returns (uint) {\r\n        return _gnomePrice;\r\n    }\r\n\r\n    function getPlayerPower(address player) external view returns (uint) {\r\n        return _playerTotalPower[player];\r\n    }\r\n    //\r\n    //    function getPlayerCollectionPower(address player, uint collection) external view returns (uint) {\r\n    //        return _playerCollectionsPower[player][collection];\r\n    //    }\r\n\r\n    function getPlayerCollection(address player, uint collection, uint gnomeId) external view returns (uint) {\r\n        return _playerCollections[player][collection][gnomeId];\r\n    }\r\n\r\n    function getGnome(uint tokenId) external view returns (uint8, uint8, uint8, uint, uint, uint, bool) {\r\n        require(_playersGnomes[tokenId].exists);\r\n        return (_playersGnomes[tokenId].gnomeId, _playersGnomes[tokenId].level, _playersGnomes[tokenId].rarity, _playersGnomes[tokenId].collection, _playersGnomes[tokenId].power, _playersGnomes[tokenId].canBeUsedFromBlock, _playersGnomes[tokenId].exists);\r\n    }\r\n\r\n    function getTotalPower() external view returns (uint){\r\n        return _allPlayersPower;\r\n\r\n    }\r\n\r\n    function _createGnome(uint8 gnomeId, uint8 level, uint8 rarity, uint collection, uint256 power) private {\r\n        uint newTokenId = _playersGnomes.length;\r\n        _safeMint(_msgSender(), newTokenId);\r\n        structPlayerGnome memory playerGnome = structPlayerGnome({\r\n        gnomeId : gnomeId,\r\n        tokenId : newTokenId,\r\n        canBeUsedFromBlock : 0,\r\n        level : level,\r\n        rarity : rarity,\r\n        collection : collection,\r\n        power : power,\r\n        exists : true\r\n        });\r\n        _playersGnomes.push(playerGnome);\r\n        if (_playersGnomes[_playerCollections[_msgSender()][collection][gnomeId]].level < level) {\r\n            addGnomeToCollection(newTokenId);\r\n        }\r\n        emit Mint(_msgSender(), newTokenId, playerGnome.collection, playerGnome.gnomeId, playerGnome.level, playerGnome.rarity, playerGnome.power);\r\n    }\r\n\r\n    function _increaseSupplyByIndex(uint supplyIndex) private {\r\n        if (supplyIndex == 0) {\r\n            _supplyLeft[1] += 4;\r\n        }\r\n        if (supplyIndex == 1) {\r\n            _supplyLeft[2] += 6;\r\n        }\r\n        if (supplyIndex == 2) {\r\n            _supplyLeft[3] += 2;\r\n        }\r\n    }\r\n\r\n    function _getRarityByPosition(uint position) private view returns (uint8){\r\n\r\n        uint supply;\r\n        //length 3 = _supplyLeft.length -1\r\n        for (uint8 i = 3; i >= 0; i--) {\r\n            supply = supply + _supplyLeft[i];\r\n            if (supply >= position) {\r\n                return i;\r\n            }\r\n        }\r\n        revert(\"2\");\r\n    }\r\n\r\n    function totalSupply() public view returns (uint supply){\r\n        for (uint8 i; i <  _supplyLeft.length; i++) {\r\n            supply = supply + _supplyLeft[i];\r\n        }\r\n        return supply;\r\n    }\r\n\r\n    function _transfer(address from, address to, uint tokenId) internal override {\r\n        _removeGnomeFromCollection(tokenId, from);\r\n        ERC721._transfer(from, to, tokenId);\r\n        structPlayerGnome storage playerGnome = _playersGnomes[tokenId];\r\n        playerGnome.canBeUsedFromBlock = block.number + _numberOfBlocksToWaitBetweenTransfer;\r\n\r\n    }\r\n\r\n    function _burn(uint256 tokenId) internal override {\r\n        _removeGnomeFromCollection(tokenId, _msgSender());\r\n        ERC721._burn(tokenId);\r\n        _playersGnomes[tokenId].exists = false;\r\n    }\r\n\r\n    function _removeGnomeFromCollection(uint tokenId, address player) private {\r\n\r\n        if (_playerCollections[player][_playersGnomes[tokenId].collection][_playersGnomes[tokenId].gnomeId] == tokenId) {\r\n            _playerCollections[player][_playersGnomes[tokenId].collection][_playersGnomes[tokenId].gnomeId] = 0;\r\n            _changePlayerPowerAfterChangeInCollection(_playersGnomes[tokenId].collection, player);\r\n            emit CollectionChange(_msgSender(), _playersGnomes[tokenId].collection, tokenId, 0);\r\n        }\r\n    }\r\n\r\n    function _changePlayerPowerAfterChangeInCollection(uint gnomeCollection, address player) private {\r\n        uint[] memory collection = _gnomesTemplatesContract.getCollectionById(gnomeCollection);\r\n        uint collectionLength = collection.length;\r\n        uint8 lowestGnomeLevel;\r\n        uint newPower;\r\n        uint8 totalGnomesInCollection;\r\n        for (uint8 i; i < collectionLength; i++) {\r\n            uint collectionGnomeTokenId = _playerCollections[player][gnomeCollection][collection[i]];\r\n            if (_playersGnomes[collectionGnomeTokenId].exists) {\r\n                newPower += _playersGnomes[collectionGnomeTokenId].power;\r\n                totalGnomesInCollection += 1;\r\n                if (lowestGnomeLevel < _playersGnomes[collectionGnomeTokenId].level) {\r\n                    lowestGnomeLevel = _playersGnomes[collectionGnomeTokenId].level;\r\n                }\r\n            }\r\n        }\r\n        if (collectionLength == totalGnomesInCollection) {\r\n            newPower = newPower * _gnomesTemplatesContract.getCollectionPowerMultiple(lowestGnomeLevel);\r\n        }\r\n\r\n        uint oldPower = _playerCollectionsPower[player][gnomeCollection];\r\n        _playerCollectionsPower[player][gnomeCollection] = newPower;\r\n        _playerTotalPower[player] = _playerTotalPower[player] - oldPower + newPower;\r\n        _allPlayersPower = _allPlayersPower - oldPower + newPower;\r\n\r\n        emit PowerChange(player, gnomeCollection, newPower, _playerTotalPower[player]);\r\n    }\r\n\r\n    function _baseURI() internal view override returns (string memory) {\r\n        return _baseURIStr;\r\n    }\r\n\r\n    /*\r\n        getting paid from other contracts\r\n    */\r\n    receive() external payable {\r\n        payable(_rewardsContract).transfer(msg.value);\r\n    }\r\n    //********************************* management functions *************************************//\r\n\r\n    function setGnomePrice(uint price) external onlyAdmin {\r\n        require(price > 1 ether / 2, \"1\");\r\n        _gnomePrice = price;\r\n    }\r\n\r\n    function setNumberOfBlocksToWaitBetweenTransfer(uint blocks) external onlyAdmin {\r\n        require(blocks > 30 * 60);\r\n        _numberOfBlocksToWaitBetweenTransfer = blocks;\r\n    }\r\n\r\n    function setBaseUri(string calldata uri) external onlyAdmin {\r\n        _baseURIStr = uri;\r\n    }\r\n\r\n    function setRandomContractAddress(address randomContract) public onlyAdmin {\r\n        _randomContract = IRandom(randomContract);\r\n    }\r\n\r\n    function setRewardsContractAddress(address rewardsContract) public onlyAdmin {\r\n        _rewardsContract = rewardsContract;\r\n    }\r\n\r\n    function setGnomesTemplateContractAddress(address gnomesTemplatesContract) public onlyAdmin {\r\n        _gnomesTemplatesContract = IGnomesTemplates(gnomesTemplatesContract);\r\n    }\r\n\r\n\r\n}\r\n",
  "sourcePath": "C:\\Users\\amit\\PhpstormProjects\\myminiminers\\myminiminers-contract\\src\\contracts\\MyMiniMiners.sol",
  "compiler": {
    "name": "solc",
    "version": "0.8.6+commit.11564f7e.Emscripten.clang"
  },
  "schemaVersion": "3.4.3",
  "updatedAt": "2021-09-15T04:53:33.400Z",
  "devdoc": {
    "kind": "dev",
    "methods": {
      "approve(address,uint256)": {
        "details": "See {IERC721-approve}."
      },
      "balanceOf(address)": {
        "details": "See {IERC721-balanceOf}."
      },
      "getApproved(uint256)": {
        "details": "See {IERC721-getApproved}."
      },
      "isApprovedForAll(address,address)": {
        "details": "See {IERC721-isApprovedForAll}."
      },
      "name()": {
        "details": "See {IERC721Metadata-name}."
      },
      "owner()": {
        "details": "Returns the address of the current owner."
      },
      "ownerOf(uint256)": {
        "details": "See {IERC721-ownerOf}."
      },
      "renounceOwnership()": {
        "details": "Leaves the contract without owner. It will not be possible to call `onlyOwner` functions anymore. Can only be called by the current owner. NOTE: Renouncing ownership will leave the contract without an owner, thereby removing any functionality that is only available to the owner."
      },
      "safeTransferFrom(address,address,uint256)": {
        "details": "See {IERC721-safeTransferFrom}."
      },
      "safeTransferFrom(address,address,uint256,bytes)": {
        "details": "See {IERC721-safeTransferFrom}."
      },
      "setApprovalForAll(address,bool)": {
        "details": "See {IERC721-setApprovalForAll}."
      },
      "supportsInterface(bytes4)": {
        "details": "See {IERC165-supportsInterface}."
      },
      "symbol()": {
        "details": "See {IERC721Metadata-symbol}."
      },
      "tokenURI(uint256)": {
        "details": "See {IERC721Metadata-tokenURI}."
      },
      "transferFrom(address,address,uint256)": {
        "details": "See {IERC721-transferFrom}."
      },
      "transferOwnership(address)": {
        "details": "Transfers ownership of the contract to a new account (`newOwner`). Can only be called by the current owner."
      }
    },
    "version": 1
  },
  "userdoc": {
    "kind": "user",
    "methods": {},
    "version": 1
  }
}