{
  "contractName": "Random",
  "abi": [
    {
      "inputs": [
        {
          "internalType": "uint256",
          "name": "seed",
          "type": "uint256"
        }
      ],
      "stateMutability": "nonpayable",
      "type": "constructor"
    },
    {
      "anonymous": false,
      "inputs": [
        {
          "indexed": true,
          "internalType": "address",
          "name": "previousOwner",
          "type": "address"
        },
        {
          "indexed": true,
          "internalType": "address",
          "name": "newOwner",
          "type": "address"
        }
      ],
      "name": "OwnershipTransferred",
      "type": "event"
    },
    {
      "inputs": [],
      "name": "owner",
      "outputs": [
        {
          "internalType": "address",
          "name": "",
          "type": "address"
        }
      ],
      "stateMutability": "view",
      "type": "function",
      "constant": true
    },
    {
      "inputs": [],
      "name": "renounceOwnership",
      "outputs": [],
      "stateMutability": "nonpayable",
      "type": "function"
    },
    {
      "inputs": [
        {
          "internalType": "address",
          "name": "newOwner",
          "type": "address"
        }
      ],
      "name": "transferOwnership",
      "outputs": [],
      "stateMutability": "nonpayable",
      "type": "function"
    },
    {
      "inputs": [
        {
          "internalType": "uint256",
          "name": "_newSeed",
          "type": "uint256"
        }
      ],
      "name": "setSeed",
      "outputs": [],
      "stateMutability": "nonpayable",
      "type": "function"
    },
    {
      "inputs": [
        {
          "internalType": "uint256",
          "name": "moreRandom",
          "type": "uint256"
        }
      ],
      "name": "getRandomNumber",
      "outputs": [
        {
          "internalType": "uint256",
          "name": "",
          "type": "uint256"
        }
      ],
      "stateMutability": "nonpayable",
      "type": "function"
    }
  ],
  "bytecode": "0x608060405234801561001057600080fd5b5060405161048d38038061048d83398101604081905261002f91610100565b6100383361004d565b8015610047576100478161009d565b50610119565b600080546001600160a01b038381166001600160a01b0319831681178455604051919092169283917f8be0079c531659141344cd1fd0a4f28419497f9722a3daafe3b4186f6b6457e09190a35050565b6000546001600160a01b031633146100fb5760405162461bcd60e51b815260206004820181905260248201527f4f776e61626c653a2063616c6c6572206973206e6f7420746865206f776e6572604482015260640160405180910390fd5b600155565b60006020828403121561011257600080fd5b5051919050565b610365806101286000396000f3fe608060405234801561001057600080fd5b50600436106100575760003560e01c8063715018a61461005c5780638da5cb5b14610066578063b37217a414610086578063c32a50f9146100a7578063f2fde38b146100ba575b600080fd5b6100646100cd565b005b6000546040516001600160a01b0390911681526020015b60405180910390f35b61009961009436600461028c565b61010c565b60405190815260200161007d565b6100646100b536600461028c565b610172565b6100646100c83660046102a5565b6101a1565b6000546001600160a01b031633146101005760405162461bcd60e51b81526004016100f7906102d5565b60405180910390fd5b61010a600061023c565b565b60008061011a60014361030a565b60015460408051924060208401526bffffffffffffffffffffffff193260601b169083015260548201526074810184905260940160408051601f19818403018152919052805160209091012060018190559392505050565b6000546001600160a01b0316331461019c5760405162461bcd60e51b81526004016100f7906102d5565b600155565b6000546001600160a01b031633146101cb5760405162461bcd60e51b81526004016100f7906102d5565b6001600160a01b0381166102305760405162461bcd60e51b815260206004820152602660248201527f4f776e61626c653a206e6577206f776e657220697320746865207a65726f206160448201526564647265737360d01b60648201526084016100f7565b6102398161023c565b50565b600080546001600160a01b038381166001600160a01b0319831681178455604051919092169283917f8be0079c531659141344cd1fd0a4f28419497f9722a3daafe3b4186f6b6457e09190a35050565b60006020828403121561029e57600080fd5b5035919050565b6000602082840312156102b757600080fd5b81356001600160a01b03811681146102ce57600080fd5b9392505050565b6020808252818101527f4f776e61626c653a2063616c6c6572206973206e6f7420746865206f776e6572604082015260600190565b60008282101561032a57634e487b7160e01b600052601160045260246000fd5b50039056fea2646970667358221220d4620779e868d57b98de5bb483732e85ff3b4f5c6779d1fb50c37a4642c99b6c64736f6c634300080a0033",
  "immutableReferences": {},
  "source": "pragma solidity ^0.8.6;\r\n\r\nimport \"@openzeppelin/contracts/access/Ownable.sol\";\r\n\r\n\r\ncontract Random is Ownable {\r\n    uint256 private _seed;\r\n\r\n    constructor(uint seed)    {\r\n        if (seed > 0) {\r\n            setSeed(seed);\r\n        }\r\n    }\r\n\r\n    function setSeed(uint256 _newSeed) public onlyOwner {\r\n        _seed = _newSeed;\r\n    }\r\n\r\n    function getRandomNumber(uint moreRandom) external returns (uint256) {\r\n        uint256 randomNumber = uint256(keccak256(abi.encodePacked(blockhash(block.number - 1), tx.origin, _seed, moreRandom)));\r\n        _seed = randomNumber;\r\n        return randomNumber;\r\n    }\r\n\r\n\r\n}\r\n",
  "sourcePath": "C:\\Users\\amit\\PhpstormProjects\\myminiminers-contracts-upgradable\\contracts\\Random.sol",
  "compiler": {
    "name": "solc",
    "version": "0.8.10+commit.fc410830.Emscripten.clang"
  },
  "schemaVersion": "3.4.3",
  "updatedAt": "2022-04-04T12:25:07.198Z",
  "networkType": "ethereum",
  "devdoc": {
    "kind": "dev",
    "methods": {
      "owner()": {
        "details": "Returns the address of the current owner."
      },
      "renounceOwnership()": {
        "details": "Leaves the contract without owner. It will not be possible to call `onlyOwner` functions anymore. Can only be called by the current owner. NOTE: Renouncing ownership will leave the contract without an owner, thereby removing any functionality that is only available to the owner."
      },
      "transferOwnership(address)": {
        "details": "Transfers ownership of the contract to a new account (`newOwner`). Can only be called by the current owner."
      }
    },
    "version": 1
  },
  "userdoc": {
    "kind": "user",
    "methods": {},
    "version": 1
  }
}