{
  "contractName": "Rewards",
  "abi": [
    {
      "inputs": [
        {
          "internalType": "address",
          "name": "adminAccount",
          "type": "address"
        },
        {
          "internalType": "address",
          "name": "myMiniMinersContract",
          "type": "address"
        }
      ],
      "stateMutability": "payable",
      "type": "constructor",
      "payable": true
    },
    {
      "anonymous": false,
      "inputs": [
        {
          "indexed": true,
          "internalType": "address",
          "name": "account",
          "type": "address"
        },
        {
          "indexed": false,
          "internalType": "uint256",
          "name": "amount",
          "type": "uint256"
        }
      ],
      "name": "Claim",
      "type": "event"
    },
    {
      "anonymous": false,
      "inputs": [
        {
          "indexed": true,
          "internalType": "address",
          "name": "oldAccount",
          "type": "address"
        },
        {
          "indexed": true,
          "internalType": "address",
          "name": "newAccount",
          "type": "address"
        }
      ],
      "name": "FeesAccountChanged",
      "type": "event"
    },
    {
      "anonymous": false,
      "inputs": [
        {
          "indexed": true,
          "internalType": "address",
          "name": "previousOwner",
          "type": "address"
        },
        {
          "indexed": true,
          "internalType": "address",
          "name": "newOwner",
          "type": "address"
        }
      ],
      "name": "OwnershipTransferred",
      "type": "event"
    },
    {
      "anonymous": false,
      "inputs": [
        {
          "indexed": true,
          "internalType": "address",
          "name": "oldAccount",
          "type": "address"
        },
        {
          "indexed": true,
          "internalType": "address",
          "name": "newAccount",
          "type": "address"
        }
      ],
      "name": "adminAccountChanged",
      "type": "event"
    },
    {
      "inputs": [],
      "name": "adminAccount",
      "outputs": [
        {
          "internalType": "address",
          "name": "",
          "type": "address"
        }
      ],
      "stateMutability": "view",
      "type": "function",
      "constant": true
    },
    {
      "inputs": [],
      "name": "feesAccount",
      "outputs": [
        {
          "internalType": "address",
          "name": "",
          "type": "address"
        }
      ],
      "stateMutability": "view",
      "type": "function",
      "constant": true
    },
    {
      "inputs": [],
      "name": "owner",
      "outputs": [
        {
          "internalType": "address",
          "name": "",
          "type": "address"
        }
      ],
      "stateMutability": "view",
      "type": "function",
      "constant": true
    },
    {
      "inputs": [],
      "name": "renounceOwnership",
      "outputs": [],
      "stateMutability": "nonpayable",
      "type": "function"
    },
    {
      "inputs": [
        {
          "internalType": "address",
          "name": "newAccount",
          "type": "address"
        }
      ],
      "name": "setAdminAccount",
      "outputs": [],
      "stateMutability": "nonpayable",
      "type": "function"
    },
    {
      "inputs": [
        {
          "internalType": "address",
          "name": "newAccount",
          "type": "address"
        }
      ],
      "name": "setFeesAccount",
      "outputs": [],
      "stateMutability": "nonpayable",
      "type": "function"
    },
    {
      "inputs": [
        {
          "internalType": "address",
          "name": "newOwner",
          "type": "address"
        }
      ],
      "name": "transferOwnership",
      "outputs": [],
      "stateMutability": "nonpayable",
      "type": "function"
    },
    {
      "stateMutability": "payable",
      "type": "receive",
      "payable": true
    },
    {
      "inputs": [
        {
          "internalType": "uint256",
          "name": "blocks",
          "type": "uint256"
        }
      ],
      "name": "setNumberOfBlocksToWaitBetweenClaims",
      "outputs": [],
      "stateMutability": "nonpayable",
      "type": "function"
    },
    {
      "inputs": [],
      "name": "claim",
      "outputs": [],
      "stateMutability": "nonpayable",
      "type": "function"
    },
    {
      "inputs": [
        {
          "internalType": "address",
          "name": "player",
          "type": "address"
        }
      ],
      "name": "getPlayerAvailableClaim",
      "outputs": [
        {
          "internalType": "uint256",
          "name": "",
          "type": "uint256"
        }
      ],
      "stateMutability": "view",
      "type": "function",
      "constant": true
    }
  ],
  "bytecode": "0x608060405261afc8600455604051620012bb380380620012bb83398181016040528101906200002f91906200030f565b6200004f62000043620000b160201b60201c565b620000b960201b60201c565b600160038190555062000068826200017d60201b60201c565b80600660006101000a81548173ffffffffffffffffffffffffffffffffffffffff021916908373ffffffffffffffffffffffffffffffffffffffff1602179055505050620003a9565b600033905090565b60008060009054906101000a900473ffffffffffffffffffffffffffffffffffffffff169050816000806101000a81548173ffffffffffffffffffffffffffffffffffffffff021916908373ffffffffffffffffffffffffffffffffffffffff1602179055508173ffffffffffffffffffffffffffffffffffffffff168173ffffffffffffffffffffffffffffffffffffffff167f8be0079c531659141344cd1fd0a4f28419497f9722a3daafe3b4186f6b6457e060405160405180910390a35050565b6200018d620000b160201b60201c565b73ffffffffffffffffffffffffffffffffffffffff16620001b3620002cf60201b60201c565b73ffffffffffffffffffffffffffffffffffffffff1614620001d457600080fd5b600073ffffffffffffffffffffffffffffffffffffffff168173ffffffffffffffffffffffffffffffffffffffff1614156200020f57600080fd5b8073ffffffffffffffffffffffffffffffffffffffff16600160009054906101000a900473ffffffffffffffffffffffffffffffffffffffff1673ffffffffffffffffffffffffffffffffffffffff167f6c653cea66fc767872566a48443cddce6845518f298111992df854d4425f13f060405160405180910390a380600260006101000a81548173ffffffffffffffffffffffffffffffffffffffff021916908373ffffffffffffffffffffffffffffffffffffffff16021790555050565b60008060009054906101000a900473ffffffffffffffffffffffffffffffffffffffff16905090565b60008151905062000309816200038f565b92915050565b600080604083850312156200032957620003286200038a565b5b60006200033985828601620002f8565b92505060206200034c85828601620002f8565b9150509250929050565b600062000363826200036a565b9050919050565b600073ffffffffffffffffffffffffffffffffffffffff82169050919050565b600080fd5b6200039a8162000356565b8114620003a657600080fd5b50565b610f0280620003b96000396000f3fe6080604052600436106100955760003560e01c8063c26e911811610059578063c26e91181461014e578063ddb00dfc14610179578063e8ef9f22146101a2578063f2fde38b146101cb578063fd6d1f75146101f45761009c565b8063235a6544146100a15780634e71d92d146100cc578063715018a6146100e35780638da5cb5b146100fa578063c00ef7e8146101255761009c565b3661009c57005b600080fd5b3480156100ad57600080fd5b506100b6610231565b6040516100c39190610ce8565b60405180910390f35b3480156100d857600080fd5b506100e161025b565b005b3480156100ef57600080fd5b506100f86104ab565b005b34801561010657600080fd5b5061010f6104fd565b60405161011c9190610ce8565b60405180910390f35b34801561013157600080fd5b5061014c60048036038101906101479190610c70565b610526565b005b34801561015a57600080fd5b506101636105e3565b6040516101709190610ce8565b60405180910390f35b34801561018557600080fd5b506101a0600480360381019061019b9190610c43565b61060d565b005b3480156101ae57600080fd5b506101c960048036038101906101c49190610c43565b6107ac565b005b3480156101d757600080fd5b506101f260048036038101906101ed9190610c43565b6108ec565b005b34801561020057600080fd5b5061021b60048036038101906102169190610c43565b610978565b6040516102289190610d03565b60405180910390f35b6000600160009054906101000a900473ffffffffffffffffffffffffffffffffffffffff16905090565b6002600354141561026b57600080fd5b60026003819055506000471161028057600080fd5b6000600660009054906101000a900473ffffffffffffffffffffffffffffffffffffffff1673ffffffffffffffffffffffffffffffffffffffff1663783b59b96102c8610b38565b6040518263ffffffff1660e01b81526004016102e49190610ce8565b60206040518083038186803b1580156102fc57600080fd5b505afa158015610310573d6000803e3d6000fd5b505050506040513d601f19601f820116820180604052508101906103349190610c9d565b1161033e57600080fd5b436004546005600061034e610b38565b73ffffffffffffffffffffffffffffffffffffffff1673ffffffffffffffffffffffffffffffffffffffff168152602001908152602001600020546103939190610d1e565b111561039e57600080fd5b60006103b06103ab610b38565b610978565b90506103ba610b38565b73ffffffffffffffffffffffffffffffffffffffff166108fc829081150290604051600060405180830381858888f193505050501580156103ff573d6000803e3d6000fd5b50436005600061040d610b38565b73ffffffffffffffffffffffffffffffffffffffff1673ffffffffffffffffffffffffffffffffffffffff16815260200190815260200160002081905550610453610b38565b73ffffffffffffffffffffffffffffffffffffffff167f47cee97cb7acd717b3c0aa1435d004cd5b3c8c57d70dbceb4e4458bbd60e39d4826040516104989190610d03565b60405180910390a2506001600381905550565b6104b3610b38565b73ffffffffffffffffffffffffffffffffffffffff166104d16104fd565b73ffffffffffffffffffffffffffffffffffffffff16146104f157600080fd5b6104fb6000610b40565b565b60008060009054906101000a900473ffffffffffffffffffffffffffffffffffffffff16905090565b61052e610b38565b73ffffffffffffffffffffffffffffffffffffffff16600260009054906101000a900473ffffffffffffffffffffffffffffffffffffffff1673ffffffffffffffffffffffffffffffffffffffff1614806105c2575061058c6104fd565b73ffffffffffffffffffffffffffffffffffffffff166105aa610b38565b73ffffffffffffffffffffffffffffffffffffffff16145b6105cb57600080fd5b61070881116105d957600080fd5b8060048190555050565b6000600260009054906101000a900473ffffffffffffffffffffffffffffffffffffffff16905090565b610615610b38565b73ffffffffffffffffffffffffffffffffffffffff16600260009054906101000a900473ffffffffffffffffffffffffffffffffffffffff1673ffffffffffffffffffffffffffffffffffffffff1614806106a957506106736104fd565b73ffffffffffffffffffffffffffffffffffffffff16610691610b38565b73ffffffffffffffffffffffffffffffffffffffff16145b6106b257600080fd5b600073ffffffffffffffffffffffffffffffffffffffff168173ffffffffffffffffffffffffffffffffffffffff1614156106ec57600080fd5b8073ffffffffffffffffffffffffffffffffffffffff16600160009054906101000a900473ffffffffffffffffffffffffffffffffffffffff1673ffffffffffffffffffffffffffffffffffffffff167f686292a774da47913df940e499f775044c8f0306ee4e4ca2462d73570abac92b60405160405180910390a380600160006101000a81548173ffffffffffffffffffffffffffffffffffffffff021916908373ffffffffffffffffffffffffffffffffffffffff16021790555050565b6107b4610b38565b73ffffffffffffffffffffffffffffffffffffffff166107d26104fd565b73ffffffffffffffffffffffffffffffffffffffff16146107f257600080fd5b600073ffffffffffffffffffffffffffffffffffffffff168173ffffffffffffffffffffffffffffffffffffffff16141561082c57600080fd5b8073ffffffffffffffffffffffffffffffffffffffff16600160009054906101000a900473ffffffffffffffffffffffffffffffffffffffff1673ffffffffffffffffffffffffffffffffffffffff167f6c653cea66fc767872566a48443cddce6845518f298111992df854d4425f13f060405160405180910390a380600260006101000a81548173ffffffffffffffffffffffffffffffffffffffff021916908373ffffffffffffffffffffffffffffffffffffffff16021790555050565b6108f4610b38565b73ffffffffffffffffffffffffffffffffffffffff166109126104fd565b73ffffffffffffffffffffffffffffffffffffffff161461093257600080fd5b600073ffffffffffffffffffffffffffffffffffffffff168173ffffffffffffffffffffffffffffffffffffffff16141561096c57600080fd5b61097581610b40565b50565b60008047141561098b5760009050610b33565b6000600660009054906101000a900473ffffffffffffffffffffffffffffffffffffffff1673ffffffffffffffffffffffffffffffffffffffff166353976a266040518163ffffffff1660e01b815260040160206040518083038186803b1580156109f557600080fd5b505afa158015610a09573d6000803e3d6000fd5b505050506040513d601f19601f82011682018060405250810190610a2d9190610c9d565b90506000811415610a42576000915050610b33565b6000600660009054906101000a900473ffffffffffffffffffffffffffffffffffffffff1673ffffffffffffffffffffffffffffffffffffffff1663783b59b9856040518263ffffffff1660e01b8152600401610a9f9190610ce8565b60206040518083038186803b158015610ab757600080fd5b505afa158015610acb573d6000803e3d6000fd5b505050506040513d601f19601f82011682018060405250810190610aef9190610c9d565b9050670de0b6b3a764000082610b059190610da5565b47670de0b6b3a764000083610b1a9190610da5565b610b249190610da5565b610b2e9190610d74565b925050505b919050565b600033905090565b60008060009054906101000a900473ffffffffffffffffffffffffffffffffffffffff169050816000806101000a81548173ffffffffffffffffffffffffffffffffffffffff021916908373ffffffffffffffffffffffffffffffffffffffff1602179055508173ffffffffffffffffffffffffffffffffffffffff168173ffffffffffffffffffffffffffffffffffffffff167f8be0079c531659141344cd1fd0a4f28419497f9722a3daafe3b4186f6b6457e060405160405180910390a35050565b600081359050610c1381610e9e565b92915050565b600081359050610c2881610eb5565b92915050565b600081519050610c3d81610eb5565b92915050565b600060208284031215610c5957610c58610e99565b5b6000610c6784828501610c04565b91505092915050565b600060208284031215610c8657610c85610e99565b5b6000610c9484828501610c19565b91505092915050565b600060208284031215610cb357610cb2610e99565b5b6000610cc184828501610c2e565b91505092915050565b610cd381610dff565b82525050565b610ce281610e31565b82525050565b6000602082019050610cfd6000830184610cca565b92915050565b6000602082019050610d186000830184610cd9565b92915050565b6000610d2982610e31565b9150610d3483610e31565b9250827fffffffffffffffffffffffffffffffffffffffffffffffffffffffffffffffff03821115610d6957610d68610e3b565b5b828201905092915050565b6000610d7f82610e31565b9150610d8a83610e31565b925082610d9a57610d99610e6a565b5b828204905092915050565b6000610db082610e31565b9150610dbb83610e31565b9250817fffffffffffffffffffffffffffffffffffffffffffffffffffffffffffffffff0483118215151615610df457610df3610e3b565b5b828202905092915050565b6000610e0a82610e11565b9050919050565b600073ffffffffffffffffffffffffffffffffffffffff82169050919050565b6000819050919050565b7f4e487b7100000000000000000000000000000000000000000000000000000000600052601160045260246000fd5b7f4e487b7100000000000000000000000000000000000000000000000000000000600052601260045260246000fd5b600080fd5b610ea781610dff565b8114610eb257600080fd5b50565b610ebe81610e31565b8114610ec957600080fd5b5056fea264697066735822122041ad2cf5bcd72f34431f607e4c6b4972ff0d3ca4d9f321fbff3f908669de068664736f6c63430008060033",
  "immutableReferences": {},
  "source": "// SPDX-License-Identifier: MIT\r\npragma solidity ^0.8.0;\r\n\r\nimport \"@openzeppelin/contracts/security/ReentrancyGuard.sol\";\r\nimport \"./Security.sol\";\r\n\r\ninterface IMyMiniMiners {\r\n\r\n    function getPlayerPower(address player) external view returns (uint);\r\n\r\n    function getTotalPower() external view returns (uint);\r\n\r\n}\r\n\r\ncontract Rewards is Security, ReentrancyGuard {\r\n\r\n    uint private _numberOfBlocksToWaitBetweenClaims = 30 * 60 * 25;\r\n\r\n    mapping(address => uint) private _playerLastBlockClaim;\r\n\r\n    IMyMiniMiners private _myMiniMinersContract;\r\n\r\n    event Claim(address indexed account, uint amount);\r\n\r\n    constructor(address adminAccount, address myMiniMinersContract)   ReentrancyGuard() payable {\r\n        setAdminAccount(adminAccount);\r\n        _myMiniMinersContract = IMyMiniMiners(myMiniMinersContract);\r\n    }\r\n\r\n    function setNumberOfBlocksToWaitBetweenClaims(uint blocks) external onlyAdmin {\r\n        require(blocks > 30 * 60);\r\n        _numberOfBlocksToWaitBetweenClaims = blocks;\r\n    }\r\n\r\n    function claim() external nonReentrant {\r\n        require(address(this).balance > 0);\r\n        require(_myMiniMinersContract.getPlayerPower(_msgSender()) > 0);\r\n        require(_playerLastBlockClaim[_msgSender()] + _numberOfBlocksToWaitBetweenClaims <= block.number);\r\n        uint reward = getPlayerAvailableClaim(_msgSender());\r\n        payable(_msgSender()).transfer(reward);\r\n        _playerLastBlockClaim[_msgSender()] = block.number;\r\n        emit Claim(_msgSender(), reward);\r\n    }\r\n\r\n    function getPlayerAvailableClaim(address player) public view returns (uint) {\r\n        if (address(this).balance == 0) {\r\n            return 0;\r\n        }\r\n        uint totalPower = _myMiniMinersContract.getTotalPower();\r\n        if (totalPower == 0) {\r\n            return 0;\r\n        }\r\n        uint playerPower = _myMiniMinersContract.getPlayerPower(player);\r\n        return (playerPower * 1 ether) * (address(this).balance) / (totalPower * 1 ether);\r\n\r\n    }\r\n    /*\r\n        getting paid from other contracts\r\n    */\r\n    receive() external payable {\r\n\r\n    }\r\n\r\n}",
  "sourcePath": "C:\\Users\\amit\\PhpstormProjects\\myminiminers\\myminiminers-contract\\src\\contracts\\Rewards.sol",
  "compiler": {
    "name": "solc",
    "version": "0.8.6+commit.11564f7e.Emscripten.clang"
  },
  "schemaVersion": "3.4.3",
  "updatedAt": "2021-09-13T10:38:12.380Z",
  "networkType": "ethereum",
  "devdoc": {
    "kind": "dev",
    "methods": {
      "owner()": {
        "details": "Returns the address of the current owner."
      },
      "renounceOwnership()": {
        "details": "Leaves the contract without owner. It will not be possible to call `onlyOwner` functions anymore. Can only be called by the current owner. NOTE: Renouncing ownership will leave the contract without an owner, thereby removing any functionality that is only available to the owner."
      },
      "transferOwnership(address)": {
        "details": "Transfers ownership of the contract to a new account (`newOwner`). Can only be called by the current owner."
      }
    },
    "version": 1
  },
  "userdoc": {
    "kind": "user",
    "methods": {},
    "version": 1
  }
}