{
  "contractName": "GameActions",
  "abi": [
    {
      "inputs": [
        {
          "internalType": "address",
          "name": "feesAccount",
          "type": "address"
        },
        {
          "internalType": "address payable",
          "name": "gameServiceAccount",
          "type": "address"
        },
        {
          "internalType": "address",
          "name": "myMiniMinersAddress",
          "type": "address"
        }
      ],
      "stateMutability": "nonpayable",
      "type": "constructor"
    },
    {
      "anonymous": false,
      "inputs": [
        {
          "indexed": true,
          "internalType": "address",
          "name": "account",
          "type": "address"
        },
        {
          "indexed": false,
          "internalType": "uint256",
          "name": "amount",
          "type": "uint256"
        },
        {
          "indexed": false,
          "internalType": "string",
          "name": "itemId",
          "type": "string"
        }
      ],
      "name": "Buy",
      "type": "event"
    },
    {
      "anonymous": false,
      "inputs": [
        {
          "indexed": true,
          "internalType": "address",
          "name": "from",
          "type": "address"
        },
        {
          "indexed": false,
          "internalType": "string",
          "name": "id",
          "type": "string"
        },
        {
          "indexed": false,
          "internalType": "uint256",
          "name": "cost",
          "type": "uint256"
        }
      ],
      "name": "BuyGameBundle",
      "type": "event"
    },
    {
      "anonymous": false,
      "inputs": [
        {
          "indexed": true,
          "internalType": "address",
          "name": "from",
          "type": "address"
        },
        {
          "indexed": false,
          "internalType": "string",
          "name": "id",
          "type": "string"
        },
        {
          "indexed": false,
          "internalType": "uint256",
          "name": "totalSupply",
          "type": "uint256"
        }
      ],
      "name": "ChangeBundleTotalSupply",
      "type": "event"
    },
    {
      "anonymous": false,
      "inputs": [
        {
          "indexed": true,
          "internalType": "address",
          "name": "oldAccount",
          "type": "address"
        },
        {
          "indexed": true,
          "internalType": "address",
          "name": "newAccount",
          "type": "address"
        }
      ],
      "name": "FeesAccountChanged",
      "type": "event"
    },
    {
      "anonymous": false,
      "inputs": [
        {
          "indexed": true,
          "internalType": "address payable",
          "name": "oldAccount",
          "type": "address"
        },
        {
          "indexed": true,
          "internalType": "address payable",
          "name": "newAccount",
          "type": "address"
        }
      ],
      "name": "GameServiceAccountChanged",
      "type": "event"
    },
    {
      "anonymous": false,
      "inputs": [
        {
          "indexed": true,
          "internalType": "address",
          "name": "from",
          "type": "address"
        },
        {
          "indexed": false,
          "internalType": "string",
          "name": "id",
          "type": "string"
        },
        {
          "indexed": false,
          "internalType": "uint256",
          "name": "cost",
          "type": "uint256"
        },
        {
          "indexed": false,
          "internalType": "uint256",
          "name": "totalSupply",
          "type": "uint256"
        },
        {
          "indexed": false,
          "internalType": "string",
          "name": "bundleName",
          "type": "string"
        }
      ],
      "name": "NewGameBundle",
      "type": "event"
    },
    {
      "anonymous": false,
      "inputs": [
        {
          "indexed": true,
          "internalType": "address",
          "name": "previousOwner",
          "type": "address"
        },
        {
          "indexed": true,
          "internalType": "address",
          "name": "newOwner",
          "type": "address"
        }
      ],
      "name": "OwnershipTransferred",
      "type": "event"
    },
    {
      "anonymous": false,
      "inputs": [
        {
          "indexed": true,
          "internalType": "address",
          "name": "account",
          "type": "address"
        },
        {
          "indexed": false,
          "internalType": "string",
          "name": "itemId",
          "type": "string"
        }
      ],
      "name": "Remove",
      "type": "event"
    },
    {
      "anonymous": false,
      "inputs": [
        {
          "indexed": true,
          "internalType": "address",
          "name": "account",
          "type": "address"
        },
        {
          "indexed": false,
          "internalType": "uint256",
          "name": "amount",
          "type": "uint256"
        },
        {
          "indexed": false,
          "internalType": "string",
          "name": "itemId",
          "type": "string"
        }
      ],
      "name": "Sell",
      "type": "event"
    },
    {
      "inputs": [],
      "name": "getFeesAccount",
      "outputs": [
        {
          "internalType": "address",
          "name": "",
          "type": "address"
        }
      ],
      "stateMutability": "view",
      "type": "function",
      "constant": true
    },
    {
      "inputs": [],
      "name": "getGameServiceAccount",
      "outputs": [
        {
          "internalType": "address",
          "name": "",
          "type": "address"
        }
      ],
      "stateMutability": "view",
      "type": "function",
      "constant": true
    },
    {
      "inputs": [],
      "name": "getOwner",
      "outputs": [
        {
          "internalType": "address",
          "name": "",
          "type": "address"
        }
      ],
      "stateMutability": "view",
      "type": "function",
      "constant": true
    },
    {
      "inputs": [
        {
          "internalType": "address",
          "name": "feesAccount",
          "type": "address"
        }
      ],
      "name": "setFeesAccount",
      "outputs": [],
      "stateMutability": "nonpayable",
      "type": "function"
    },
    {
      "inputs": [
        {
          "internalType": "address payable",
          "name": "gameServiceAccount",
          "type": "address"
        }
      ],
      "name": "setGameServiceAccount",
      "outputs": [],
      "stateMutability": "nonpayable",
      "type": "function"
    },
    {
      "inputs": [
        {
          "internalType": "uint256",
          "name": "page",
          "type": "uint256"
        }
      ],
      "name": "getGameBundleIds",
      "outputs": [
        {
          "internalType": "string[]",
          "name": "",
          "type": "string[]"
        }
      ],
      "stateMutability": "view",
      "type": "function",
      "constant": true
    },
    {
      "inputs": [
        {
          "internalType": "string",
          "name": "id",
          "type": "string"
        }
      ],
      "name": "getGameBundle",
      "outputs": [
        {
          "components": [
            {
              "internalType": "string",
              "name": "id",
              "type": "string"
            },
            {
              "internalType": "string",
              "name": "bundleName",
              "type": "string"
            },
            {
              "internalType": "uint256",
              "name": "cost",
              "type": "uint256"
            },
            {
              "internalType": "uint256",
              "name": "totalSupply",
              "type": "uint256"
            },
            {
              "internalType": "bool",
              "name": "exists",
              "type": "bool"
            }
          ],
          "internalType": "struct GameActions.structGameBundles",
          "name": "",
          "type": "tuple"
        }
      ],
      "stateMutability": "view",
      "type": "function",
      "constant": true
    },
    {
      "inputs": [
        {
          "internalType": "string",
          "name": "id",
          "type": "string"
        }
      ],
      "name": "buyGameBundle",
      "outputs": [],
      "stateMutability": "nonpayable",
      "type": "function"
    },
    {
      "inputs": [
        {
          "internalType": "string",
          "name": "id",
          "type": "string"
        },
        {
          "internalType": "uint256",
          "name": "cost",
          "type": "uint256"
        },
        {
          "internalType": "uint256",
          "name": "totalSupply",
          "type": "uint256"
        },
        {
          "internalType": "string",
          "name": "bundleName",
          "type": "string"
        }
      ],
      "name": "addGameBundle",
      "outputs": [],
      "stateMutability": "nonpayable",
      "type": "function"
    },
    {
      "inputs": [
        {
          "internalType": "string",
          "name": "id",
          "type": "string"
        },
        {
          "internalType": "uint256",
          "name": "supply",
          "type": "uint256"
        }
      ],
      "name": "changeGameBundleSupply",
      "outputs": [],
      "stateMutability": "nonpayable",
      "type": "function"
    },
    {
      "inputs": [
        {
          "internalType": "string",
          "name": "itemId",
          "type": "string"
        }
      ],
      "name": "getItem",
      "outputs": [
        {
          "components": [
            {
              "internalType": "string",
              "name": "id",
              "type": "string"
            },
            {
              "internalType": "address",
              "name": "owner",
              "type": "address"
            },
            {
              "internalType": "uint256",
              "name": "cost",
              "type": "uint256"
            },
            {
              "internalType": "bool",
              "name": "exists",
              "type": "bool"
            }
          ],
          "internalType": "struct GameActions.structItem",
          "name": "",
          "type": "tuple"
        }
      ],
      "stateMutability": "view",
      "type": "function",
      "constant": true
    },
    {
      "inputs": [
        {
          "internalType": "address",
          "name": "account",
          "type": "address"
        },
        {
          "internalType": "string",
          "name": "itemId",
          "type": "string"
        },
        {
          "internalType": "uint256",
          "name": "amount",
          "type": "uint256"
        }
      ],
      "name": "sell",
      "outputs": [],
      "stateMutability": "nonpayable",
      "type": "function"
    },
    {
      "inputs": [
        {
          "internalType": "string",
          "name": "itemId",
          "type": "string"
        }
      ],
      "name": "buy",
      "outputs": [],
      "stateMutability": "nonpayable",
      "type": "function"
    },
    {
      "inputs": [
        {
          "internalType": "string",
          "name": "itemId",
          "type": "string"
        }
      ],
      "name": "removeFromMarket",
      "outputs": [],
      "stateMutability": "nonpayable",
      "type": "function"
    }
  ],
  "bytecode": "0x60806040523480156200001157600080fd5b506040516200458d3803806200458d833981810160405281019062000037919062000537565b6000620000496200015b60201b60201c565b9050806000806101000a81548173ffffffffffffffffffffffffffffffffffffffff021916908373ffffffffffffffffffffffffffffffffffffffff1602179055508073ffffffffffffffffffffffffffffffffffffffff16600073ffffffffffffffffffffffffffffffffffffffff167f8be0079c531659141344cd1fd0a4f28419497f9722a3daafe3b4186f6b6457e060405160405180910390a350600160038190555062000100836200016360201b60201c565b62000111826200033660201b60201c565b80600760006101000a81548173ffffffffffffffffffffffffffffffffffffffff021916908373ffffffffffffffffffffffffffffffffffffffff160217905550505050620007c7565b600033905090565b620001736200015b60201b60201c565b73ffffffffffffffffffffffffffffffffffffffff1660008054906101000a900473ffffffffffffffffffffffffffffffffffffffff1673ffffffffffffffffffffffffffffffffffffffff161462000203576040517f08c379a0000000000000000000000000000000000000000000000000000000008152600401620001fa9062000608565b60405180910390fd5b600073ffffffffffffffffffffffffffffffffffffffff168173ffffffffffffffffffffffffffffffffffffffff16141562000276576040517f08c379a00000000000000000000000000000000000000000000000000000000081526004016200026d906200064c565b60405180910390fd5b8073ffffffffffffffffffffffffffffffffffffffff16600260009054906101000a900473ffffffffffffffffffffffffffffffffffffffff1673ffffffffffffffffffffffffffffffffffffffff167f686292a774da47913df940e499f775044c8f0306ee4e4ca2462d73570abac92b60405160405180910390a380600260006101000a81548173ffffffffffffffffffffffffffffffffffffffff021916908373ffffffffffffffffffffffffffffffffffffffff16021790555050565b620003466200015b60201b60201c565b73ffffffffffffffffffffffffffffffffffffffff1660008054906101000a900473ffffffffffffffffffffffffffffffffffffffff1673ffffffffffffffffffffffffffffffffffffffff1614620003d6576040517f08c379a0000000000000000000000000000000000000000000000000000000008152600401620003cd9062000608565b60405180910390fd5b600073ffffffffffffffffffffffffffffffffffffffff168173ffffffffffffffffffffffffffffffffffffffff16141562000449576040517f08c379a000000000000000000000000000000000000000000000000000000000815260040162000440906200062a565b60405180910390fd5b8073ffffffffffffffffffffffffffffffffffffffff16600160009054906101000a900473ffffffffffffffffffffffffffffffffffffffff1673ffffffffffffffffffffffffffffffffffffffff167f0d23d4c09e0a5356b3e26c22afcaa9628df15d486c6c841ce415c3387b6c912060405160405180910390a380600160006101000a81548173ffffffffffffffffffffffffffffffffffffffff021916908373ffffffffffffffffffffffffffffffffffffffff16021790555050565b6000815190506200051a8162000793565b92915050565b6000815190506200053181620007ad565b92915050565b600080600060608486031215620005535762000552620006c7565b5b6000620005638682870162000509565b9350506020620005768682870162000520565b9250506040620005898682870162000509565b9150509250925092565b6000620005a26017836200066e565b9150620005af82620006cc565b602082019050919050565b6000620005c96031836200066e565b9150620005d682620006f5565b604082019050919050565b6000620005f0602a836200066e565b9150620005fd8262000744565b604082019050919050565b60006020820190508181036000830152620006238162000593565b9050919050565b600060208201905081810360008301526200064581620005ba565b9050919050565b600060208201905081810360008301526200066781620005e1565b9050919050565b600082825260208201905092915050565b60006200068c82620006a7565b9050919050565b6000620006a082620006a7565b9050919050565b600073ffffffffffffffffffffffffffffffffffffffff82169050919050565b600080fd5b7f63616c6c6572206973206e6f7420746865206f776e6572000000000000000000600082015250565b7f63616e74207365742067616d65536572766963654163636f756e742066726f6d60008201527f20746865207a65726f2061646472657373000000000000000000000000000000602082015250565b7f63616e742073657420666565734163636f756e742066726f6d20746865207a6560008201527f726f206164647265737300000000000000000000000000000000000000000000602082015250565b6200079e816200067f565b8114620007aa57600080fd5b50565b620007b88162000693565b8114620007c457600080fd5b50565b613db680620007d76000396000f3fe608060405234801561001057600080fd5b50600436106100ea5760003560e01c80634da0bac11161008c578063a4ee14fd11610066578063a4ee14fd14610235578063aa5bf6fa14610251578063b6010fcd1461026d578063ddb00dfc1461029d576100ea565b80634da0bac1146101cb5780635d43cfea146101e7578063893d20e814610217576100ea565b80633290defe116100c85780633290defe146101475780633617b1b5146101635780634379dde514610193578063492cc769146101af576100ea565b80630129444c146100ef578063025fb6621461010b5780632f70b02d14610129575b600080fd5b61010960048036038101906101049190612a26565b6102b9565b005b61011361047e565b60405161012091906131de565b60405180910390f35b6101316104a8565b60405161013e91906131de565b60405180910390f35b610161600480360381019061015c9190612a53565b6104d2565b005b61017d60048036038101906101789190612c91565b6109f7565b60405161018a9190613230565b60405180910390f35b6101ad60048036038101906101a89190612ba1565b610b85565b005b6101c960048036038101906101c49190612af4565b610fab565b005b6101e560048036038101906101e09190612af4565b611499565b005b61020160048036038101906101fc9190612af4565b611878565b60405161020e919061351f565b60405180910390f35b61021f611a06565b60405161022c91906131de565b60405180910390f35b61024f600480360381019061024a9190612b41565b611a2f565b005b61026b60048036038101906102669190612af4565b611d8e565b005b61028760048036038101906102829190612c48565b6121fa565b6040516102949190613541565b60405180910390f35b6102b760048036038101906102b291906129f9565b61233f565b005b6102c1612504565b73ffffffffffffffffffffffffffffffffffffffff1660008054906101000a900473ffffffffffffffffffffffffffffffffffffffff1673ffffffffffffffffffffffffffffffffffffffff161461034e576040517f08c379a0000000000000000000000000000000000000000000000000000000008152600401610345906133df565b60405180910390fd5b600073ffffffffffffffffffffffffffffffffffffffff168173ffffffffffffffffffffffffffffffffffffffff1614156103be576040517f08c379a00000000000000000000000000000000000000000000000000000000081526004016103b59061341f565b60405180910390fd5b8073ffffffffffffffffffffffffffffffffffffffff16600160009054906101000a900473ffffffffffffffffffffffffffffffffffffffff1673ffffffffffffffffffffffffffffffffffffffff167f0d23d4c09e0a5356b3e26c22afcaa9628df15d486c6c841ce415c3387b6c912060405160405180910390a380600160006101000a81548173ffffffffffffffffffffffffffffffffffffffff021916908373ffffffffffffffffffffffffffffffffffffffff16021790555050565b6000600260009054906101000a900473ffffffffffffffffffffffffffffffffffffffff16905090565b6000600160009054906101000a900473ffffffffffffffffffffffffffffffffffffffff16905090565b6104da612504565b73ffffffffffffffffffffffffffffffffffffffff16600160009054906101000a900473ffffffffffffffffffffffffffffffffffffffff1673ffffffffffffffffffffffffffffffffffffffff1614610569576040517f08c379a00000000000000000000000000000000000000000000000000000000081526004016105609061347f565b60405180910390fd5b600073ffffffffffffffffffffffffffffffffffffffff168473ffffffffffffffffffffffffffffffffffffffff1614156105d9576040517f08c379a00000000000000000000000000000000000000000000000000000000081526004016105d09061343f565b60405180910390fd5b61062683838080601f016020809104026020016040519081016040528093929190818152602001838380828437600081840152601f19601f8201169050808301925050505050505061250c565b600483836040516106389291906131ae565b908152602001604051809103902060030160009054906101000a900460ff1615806106d157508373ffffffffffffffffffffffffffffffffffffffff16600484846040516106879291906131ae565b908152602001604051809103902060010160009054906101000a900473ffffffffffffffffffffffffffffffffffffffff1673ffffffffffffffffffffffffffffffffffffffff16145b610710576040517f08c379a00000000000000000000000000000000000000000000000000000000081526004016107079061331f565b60405180910390fd5b6000600484846040516107249291906131ae565b908152602001604051809103902060405180608001604052908160008201805461074d9061380d565b80601f01602080910402602001604051908101604052809291908181526020018280546107799061380d565b80156107c65780601f1061079b576101008083540402835291602001916107c6565b820191906000526020600020905b8154815290600101906020018083116107a957829003601f168201915b505050505081526020016001820160009054906101000a900473ffffffffffffffffffffffffffffffffffffffff1673ffffffffffffffffffffffffffffffffffffffff1673ffffffffffffffffffffffffffffffffffffffff168152602001600282015481526020016003820160009054906101000a900460ff161515151581525050905084816020019073ffffffffffffffffffffffffffffffffffffffff16908173ffffffffffffffffffffffffffffffffffffffff16815250508181604001818152505083838080601f016020809104026020016040519081016040528093929190818152602001838380828437600081840152601f19601f820116905080830192505050505050508160000181905250600181606001901515908115158152505080600485856040516108ff9291906131ae565b908152602001604051809103902060008201518160000190805190602001906109299291906127b6565b5060208201518160010160006101000a81548173ffffffffffffffffffffffffffffffffffffffff021916908373ffffffffffffffffffffffffffffffffffffffff1602179055506040820151816002015560608201518160030160006101000a81548160ff0219169083151502179055509050508473ffffffffffffffffffffffffffffffffffffffff167f36f984b711576ff7433a74ae26a08e51361f657821348858203402a622e247158386866040516109e893929190613563565b60405180910390a25050505050565b6060600080601467ffffffffffffffff811115610a1757610a16613975565b5b604051908082528060200260200182016040528015610a4a57816020015b6060815260200190600190039081610a355790505b509050600060058054905090506000601486610a6691906136e3565b90505b60148087610a7791906136e3565b610a81919061365c565b81108015610a8e57508181105b15610b795760058181548110610aa757610aa6613946565b5b906000526020600020018054610abc9061380d565b80601f0160208091040260200160405190810160405280929190818152602001828054610ae89061380d565b8015610b355780601f10610b0a57610100808354040283529160200191610b35565b820191906000526020600020905b815481529060010190602001808311610b1857829003601f168201915b5050505050838581518110610b4d57610b4c613946565b5b60200260200101819052508380610b6390613870565b9450508080610b7190613870565b915050610a69565b50819350505050919050565b610b8d612504565b73ffffffffffffffffffffffffffffffffffffffff16600260009054906101000a900473ffffffffffffffffffffffffffffffffffffffff1673ffffffffffffffffffffffffffffffffffffffff1614610c1c576040517f08c379a0000000000000000000000000000000000000000000000000000000008152600401610c13906134ff565b60405180910390fd5b600060068787604051610c309291906131ae565b90815260200160405180910390206040518060a0016040529081600082018054610c599061380d565b80601f0160208091040260200160405190810160405280929190818152602001828054610c859061380d565b8015610cd25780601f10610ca757610100808354040283529160200191610cd2565b820191906000526020600020905b815481529060010190602001808311610cb557829003601f168201915b50505050508152602001600182018054610ceb9061380d565b80601f0160208091040260200160405190810160405280929190818152602001828054610d179061380d565b8015610d645780601f10610d3957610100808354040283529160200191610d64565b820191906000526020600020905b815481529060010190602001808311610d4757829003601f168201915b5050505050815260200160028201548152602001600382015481526020016004820160009054906101000a900460ff1615151515815250509050600015158160800151151514610de9576040517f08c379a0000000000000000000000000000000000000000000000000000000008152600401610de0906134bf565b60405180910390fd5b610df161283c565b83838080601f016020809104026020016040519081016040528093929190818152602001838380828437600081840152601f19601f8201169050808301925050505050505081602001819052508581604001818152505084816060018181525050600181608001901515908115158152505087878080601f016020809104026020016040519081016040528093929190818152602001838380828437600081840152601f19601f8201169050808301925050505050505081600001819052508060068989604051610ec39291906131ae565b90815260200160405180910390206000820151816000019080519060200190610eed9291906127b6565b506020820151816001019080519060200190610f0a9291906127b6565b50604082015181600201556060820151816003015560808201518160040160006101000a81548160ff021916908315150217905550905050610f4a612504565b73ffffffffffffffffffffffffffffffffffffffff167f6d67dd9fc4e46a4f6fec5d381dfaab6fc88e6651194b0686b363de10facf24de898989898989604051610f99969594939291906132a8565b60405180910390a25050505050505050565b60026003541415610ff1576040517f08c379a0000000000000000000000000000000000000000000000000000000008152600401610fe8906134df565b60405180910390fd5b6002600381905550600073ffffffffffffffffffffffffffffffffffffffff16611019612504565b73ffffffffffffffffffffffffffffffffffffffff161415611070576040517f08c379a00000000000000000000000000000000000000000000000000000000081526004016110679061333f565b60405180910390fd5b6000600483836040516110849291906131ae565b90815260200160405180910390206040518060800160405290816000820180546110ad9061380d565b80601f01602080910402602001604051908101604052809291908181526020018280546110d99061380d565b80156111265780601f106110fb57610100808354040283529160200191611126565b820191906000526020600020905b81548152906001019060200180831161110957829003601f168201915b505050505081526020016001820160009054906101000a900473ffffffffffffffffffffffffffffffffffffffff1673ffffffffffffffffffffffffffffffffffffffff1673ffffffffffffffffffffffffffffffffffffffff168152602001600282015481526020016003820160009054906101000a900460ff161515151581525050905080606001516111f0576040517f08c379a00000000000000000000000000000000000000000000000000000000081526004016111e7906133ff565b60405180910390fd5b6000816040015111611237576040517f08c379a000000000000000000000000000000000000000000000000000000000815260040161122e9061337f565b60405180910390fd5b600081604001519050600061127661124d612504565b600260009054906101000a900473ffffffffffffffffffffffffffffffffffffffff1684612559565b9050600760009054906101000a900473ffffffffffffffffffffffffffffffffffffffff1673ffffffffffffffffffffffffffffffffffffffff166323b872dd6112be612504565b8560200151846040518463ffffffff1660e01b81526004016112e2939291906131f9565b602060405180830381600087803b1580156112fc57600080fd5b505af1158015611310573d6000803e3d6000fd5b505050506040513d601f19601f820116820180604052508101906113349190612ac7565b5061133d612504565b836020019073ffffffffffffffffffffffffffffffffffffffff16908173ffffffffffffffffffffffffffffffffffffffff1681525050600083604001818152505082600486866040516113929291906131ae565b908152602001604051809103902060008201518160000190805190602001906113bc9291906127b6565b5060208201518160010160006101000a81548173ffffffffffffffffffffffffffffffffffffffff021916908373ffffffffffffffffffffffffffffffffffffffff1602179055506040820151816002015560608201518160030160006101000a81548160ff021916908315150217905550905050611439612504565b73ffffffffffffffffffffffffffffffffffffffff167f941c339d10f0bdfe6b8397db899d6aabe371407c2ef12e4a311a9cb9a145fb5183878760405161148293929190613563565b60405180910390a250505060016003819055505050565b600260035414156114df576040517f08c379a00000000000000000000000000000000000000000000000000000000081526004016114d6906134df565b60405180910390fd5b6002600381905550600073ffffffffffffffffffffffffffffffffffffffff16611507612504565b73ffffffffffffffffffffffffffffffffffffffff16141561155e576040517f08c379a00000000000000000000000000000000000000000000000000000000081526004016115559061333f565b60405180910390fd5b6000600483836040516115729291906131ae565b908152602001604051809103902060405180608001604052908160008201805461159b9061380d565b80601f01602080910402602001604051908101604052809291908181526020018280546115c79061380d565b80156116145780601f106115e957610100808354040283529160200191611614565b820191906000526020600020905b8154815290600101906020018083116115f757829003601f168201915b505050505081526020016001820160009054906101000a900473ffffffffffffffffffffffffffffffffffffffff1673ffffffffffffffffffffffffffffffffffffffff1673ffffffffffffffffffffffffffffffffffffffff168152602001600282015481526020016003820160009054906101000a900460ff161515151581525050905080606001516116de576040517f08c379a00000000000000000000000000000000000000000000000000000000081526004016116d5906133ff565b60405180910390fd5b6116e6612504565b73ffffffffffffffffffffffffffffffffffffffff16816020015173ffffffffffffffffffffffffffffffffffffffff1614611757576040517f08c379a000000000000000000000000000000000000000000000000000000000815260040161174e9061335f565b60405180910390fd5b600081604001818152505080600484846040516117759291906131ae565b9081526020016040518091039020600082015181600001908051906020019061179f9291906127b6565b5060208201518160010160006101000a81548173ffffffffffffffffffffffffffffffffffffffff021916908373ffffffffffffffffffffffffffffffffffffffff1602179055506040820151816002015560608201518160030160006101000a81548160ff02191690831515021790555090505061181c612504565b73ffffffffffffffffffffffffffffffffffffffff167fafb58637702ac59f4ec776bf00731c6db5de2befbf39779a2c5be4922201bb0e8484604051611863929190613252565b60405180910390a25060016003819055505050565b61188061283c565b600683836040516118929291906131ae565b90815260200160405180910390206040518060a00160405290816000820180546118bb9061380d565b80601f01602080910402602001604051908101604052809291908181526020018280546118e79061380d565b80156119345780601f1061190957610100808354040283529160200191611934565b820191906000526020600020905b81548152906001019060200180831161191757829003601f168201915b5050505050815260200160018201805461194d9061380d565b80601f01602080910402602001604051908101604052809291908181526020018280546119799061380d565b80156119c65780601f1061199b576101008083540402835291602001916119c6565b820191906000526020600020905b8154815290600101906020018083116119a957829003601f168201915b5050505050815260200160028201548152602001600382015481526020016004820160009054906101000a900460ff161515151581525050905092915050565b60008060009054906101000a900473ffffffffffffffffffffffffffffffffffffffff16905090565b611a37612504565b73ffffffffffffffffffffffffffffffffffffffff16600260009054906101000a900473ffffffffffffffffffffffffffffffffffffffff1673ffffffffffffffffffffffffffffffffffffffff1614611ac6576040517f08c379a0000000000000000000000000000000000000000000000000000000008152600401611abd906134ff565b60405180910390fd5b600060068484604051611ada9291906131ae565b90815260200160405180910390206040518060a0016040529081600082018054611b039061380d565b80601f0160208091040260200160405190810160405280929190818152602001828054611b2f9061380d565b8015611b7c5780601f10611b5157610100808354040283529160200191611b7c565b820191906000526020600020905b815481529060010190602001808311611b5f57829003601f168201915b50505050508152602001600182018054611b959061380d565b80601f0160208091040260200160405190810160405280929190818152602001828054611bc19061380d565b8015611c0e5780601f10611be357610100808354040283529160200191611c0e565b820191906000526020600020905b815481529060010190602001808311611bf157829003601f168201915b5050505050815260200160028201548152602001600382015481526020016004820160009054906101000a900460ff1615151515815250509050600115158160800151151514611c93576040517f08c379a0000000000000000000000000000000000000000000000000000000008152600401611c8a906133bf565b60405180910390fd5b818160600181815250508060068585604051611cb09291906131ae565b90815260200160405180910390206000820151816000019080519060200190611cda9291906127b6565b506020820151816001019080519060200190611cf79291906127b6565b50604082015181600201556060820151816003015560808201518160040160006101000a81548160ff021916908315150217905550905050611d37612504565b73ffffffffffffffffffffffffffffffffffffffff167f387f752d7a1f8db996b891968c9409f22976ecb0b96ef574aaa44e94ebb98708858585604051611d8093929190613276565b60405180910390a250505050565b60026003541415611dd4576040517f08c379a0000000000000000000000000000000000000000000000000000000008152600401611dcb906134df565b60405180910390fd5b6002600381905550600060068383604051611df09291906131ae565b90815260200160405180910390206040518060a0016040529081600082018054611e199061380d565b80601f0160208091040260200160405190810160405280929190818152602001828054611e459061380d565b8015611e925780601f10611e6757610100808354040283529160200191611e92565b820191906000526020600020905b815481529060010190602001808311611e7557829003601f168201915b50505050508152602001600182018054611eab9061380d565b80601f0160208091040260200160405190810160405280929190818152602001828054611ed79061380d565b8015611f245780601f10611ef957610100808354040283529160200191611f24565b820191906000526020600020905b815481529060010190602001808311611f0757829003601f168201915b5050505050815260200160028201548152602001600382015481526020016004820160009054906101000a900460ff1615151515815250509050600115158160800151151514611fa9576040517f08c379a0000000000000000000000000000000000000000000000000000000008152600401611fa0906133bf565b60405180910390fd5b6000816060015111611ff0576040517f08c379a0000000000000000000000000000000000000000000000000000000008152600401611fe79061339f565b60405180910390fd5b6000816040015111156120dd57600760009054906101000a900473ffffffffffffffffffffffffffffffffffffffff1673ffffffffffffffffffffffffffffffffffffffff166323b872dd612043612504565b600260009054906101000a900473ffffffffffffffffffffffffffffffffffffffff1684604001516040518463ffffffff1660e01b8152600401612089939291906131f9565b602060405180830381600087803b1580156120a357600080fd5b505af11580156120b7573d6000803e3d6000fd5b505050506040513d601f19601f820116820180604052508101906120db9190612ac7565b505b6120f5600182606001516126d990919063ffffffff16565b81606001818152505080600684846040516121119291906131ae565b9081526020016040518091039020600082015181600001908051906020019061213b9291906127b6565b5060208201518160010190805190602001906121589291906127b6565b50604082015181600201556060820151816003015560808201518160040160006101000a81548160ff021916908315150217905550905050612198612504565b73ffffffffffffffffffffffffffffffffffffffff167fb243e3d8fbe58dd6cac42fd7bc3e55191c0aa0ac887360c6d7c56fad84917a8c848484604001516040516121e593929190613276565b60405180910390a25060016003819055505050565b61220261286d565b60048260405161221291906131c7565b908152602001604051809103902060405180608001604052908160008201805461223b9061380d565b80601f01602080910402602001604051908101604052809291908181526020018280546122679061380d565b80156122b45780601f10612289576101008083540402835291602001916122b4565b820191906000526020600020905b81548152906001019060200180831161229757829003601f168201915b505050505081526020016001820160009054906101000a900473ffffffffffffffffffffffffffffffffffffffff1673ffffffffffffffffffffffffffffffffffffffff1673ffffffffffffffffffffffffffffffffffffffff168152602001600282015481526020016003820160009054906101000a900460ff1615151515815250509050919050565b612347612504565b73ffffffffffffffffffffffffffffffffffffffff1660008054906101000a900473ffffffffffffffffffffffffffffffffffffffff1673ffffffffffffffffffffffffffffffffffffffff16146123d4576040517f08c379a00000000000000000000000000000000000000000000000000000000081526004016123cb906133df565b60405180910390fd5b600073ffffffffffffffffffffffffffffffffffffffff168173ffffffffffffffffffffffffffffffffffffffff161415612444576040517f08c379a000000000000000000000000000000000000000000000000000000000815260040161243b9061349f565b60405180910390fd5b8073ffffffffffffffffffffffffffffffffffffffff16600260009054906101000a900473ffffffffffffffffffffffffffffffffffffffff1673ffffffffffffffffffffffffffffffffffffffff167f686292a774da47913df940e499f775044c8f0306ee4e4ca2462d73570abac92b60405160405180910390a380600260006101000a81548173ffffffffffffffffffffffffffffffffffffffff021916908373ffffffffffffffffffffffffffffffffffffffff16021790555050565b600033905090565b6000819050601e815111612555576040517f08c379a000000000000000000000000000000000000000000000000000000000815260040161254c906132ff565b60405180910390fd5b5050565b60008061260583600760009054906101000a900473ffffffffffffffffffffffffffffffffffffffff1673ffffffffffffffffffffffffffffffffffffffff16639a17d8c16040518163ffffffff1660e01b815260040160206040518083038186803b1580156125c857600080fd5b505afa1580156125dc573d6000803e3d6000fd5b505050506040513d601f19601f820116820180604052508101906126009190612cbe565b6126ef565b905061261a81846126d990919063ffffffff16565b9250600760009054906101000a900473ffffffffffffffffffffffffffffffffffffffff1673ffffffffffffffffffffffffffffffffffffffff166323b872dd8686846040518463ffffffff1660e01b815260040161267b939291906131f9565b602060405180830381600087803b15801561269557600080fd5b505af11580156126a9573d6000803e3d6000fd5b505050506040513d601f19601f820116820180604052508101906126cd9190612ac7565b50829150509392505050565b600081836126e7919061373d565b905092915050565b60008261271b61271061270d6127108761278a90919063ffffffff16565b6127a090919063ffffffff16565b1461275b576040517f08c379a00000000000000000000000000000000000000000000000000000000081526004016127529061345f565b60405180910390fd5b61278261271061277484866127a090919063ffffffff16565b61278a90919063ffffffff16565b905092915050565b6000818361279891906136b2565b905092915050565b600081836127ae91906136e3565b905092915050565b8280546127c29061380d565b90600052602060002090601f0160209004810192826127e4576000855561282b565b82601f106127fd57805160ff191683800117855561282b565b8280016001018555821561282b579182015b8281111561282a57825182559160200191906001019061280f565b5b50905061283891906128ad565b5090565b6040518060a00160405280606081526020016060815260200160008152602001600081526020016000151581525090565b604051806080016040528060608152602001600073ffffffffffffffffffffffffffffffffffffffff168152602001600081526020016000151581525090565b5b808211156128c65760008160009055506001016128ae565b5090565b60006128dd6128d8846135ba565b613595565b9050828152602081018484840111156128f9576128f86139b3565b5b6129048482856137cb565b509392505050565b60008135905061291b81613d24565b92915050565b60008135905061293081613d3b565b92915050565b60008151905061294581613d52565b92915050565b60008083601f840112612961576129606139a9565b5b8235905067ffffffffffffffff81111561297e5761297d6139a4565b5b60208301915083600182028301111561299a576129996139ae565b5b9250929050565b600082601f8301126129b6576129b56139a9565b5b81356129c68482602086016128ca565b91505092915050565b6000813590506129de81613d69565b92915050565b6000815190506129f381613d69565b92915050565b600060208284031215612a0f57612a0e6139bd565b5b6000612a1d8482850161290c565b91505092915050565b600060208284031215612a3c57612a3b6139bd565b5b6000612a4a84828501612921565b91505092915050565b60008060008060608587031215612a6d57612a6c6139bd565b5b6000612a7b8782880161290c565b945050602085013567ffffffffffffffff811115612a9c57612a9b6139b8565b5b612aa88782880161294b565b93509350506040612abb878288016129cf565b91505092959194509250565b600060208284031215612add57612adc6139bd565b5b6000612aeb84828501612936565b91505092915050565b60008060208385031215612b0b57612b0a6139bd565b5b600083013567ffffffffffffffff811115612b2957612b286139b8565b5b612b358582860161294b565b92509250509250929050565b600080600060408486031215612b5a57612b596139bd565b5b600084013567ffffffffffffffff811115612b7857612b776139b8565b5b612b848682870161294b565b93509350506020612b97868287016129cf565b9150509250925092565b60008060008060008060808789031215612bbe57612bbd6139bd565b5b600087013567ffffffffffffffff811115612bdc57612bdb6139b8565b5b612be889828a0161294b565b96509650506020612bfb89828a016129cf565b9450506040612c0c89828a016129cf565b935050606087013567ffffffffffffffff811115612c2d57612c2c6139b8565b5b612c3989828a0161294b565b92509250509295509295509295565b600060208284031215612c5e57612c5d6139bd565b5b600082013567ffffffffffffffff811115612c7c57612c7b6139b8565b5b612c88848285016129a1565b91505092915050565b600060208284031215612ca757612ca66139bd565b5b6000612cb5848285016129cf565b91505092915050565b600060208284031215612cd457612cd36139bd565b5b6000612ce2848285016129e4565b91505092915050565b6000612cf78383612df3565b905092915050565b612d0881613771565b82525050565b612d1781613771565b82525050565b6000612d28826135fb565b612d32818561361e565b935083602082028501612d44856135eb565b8060005b85811015612d805784840389528151612d618582612ceb565b9450612d6c83613611565b925060208a01995050600181019050612d48565b50829750879550505050505092915050565b612d9b81613795565b82525050565b6000612dad8385613640565b9350612dba8385846137cb565b612dc3836139c2565b840190509392505050565b6000612dda8385613651565b9350612de78385846137cb565b82840190509392505050565b6000612dfe82613606565b612e08818561362f565b9350612e188185602086016137da565b612e21816139c2565b840191505092915050565b6000612e3782613606565b612e418185613651565b9350612e518185602086016137da565b80840191505092915050565b6000612e6a602283613640565b9150612e75826139d3565b604082019050919050565b6000612e8d602b83613640565b9150612e9882613a22565b604082019050919050565b6000612eb0601c83613640565b9150612ebb82613a71565b602082019050919050565b6000612ed3601c83613640565b9150612ede82613a9a565b602082019050919050565b6000612ef6601883613640565b9150612f0182613ac3565b602082019050919050565b6000612f19601483613640565b9150612f2482613aec565b602082019050919050565b6000612f3c601683613640565b9150612f4782613b15565b602082019050919050565b6000612f5f601783613640565b9150612f6a82613b3e565b602082019050919050565b6000612f82601483613640565b9150612f8d82613b67565b602082019050919050565b6000612fa5603183613640565b9150612fb082613b90565b604082019050919050565b6000612fc8601f83613640565b9150612fd382613bdf565b602082019050919050565b6000612feb601283613640565b9150612ff682613c08565b602082019050919050565b600061300e601d83613640565b915061301982613c31565b602082019050919050565b6000613031602a83613640565b915061303c82613c5a565b604082019050919050565b6000613054601a83613640565b915061305f82613ca9565b602082019050919050565b6000613077601f83613640565b915061308282613cd2565b602082019050919050565b600061309a601d83613640565b91506130a582613cfb565b602082019050919050565b600060a08301600083015184820360008601526130cd8282612df3565b915050602083015184820360208601526130e78282612df3565b91505060408301516130fc6040860182613190565b50606083015161310f6060860182613190565b5060808301516131226080860182612d92565b508091505092915050565b6000608083016000830151848203600086015261314a8282612df3565b915050602083015161315f6020860182612cff565b5060408301516131726040860182613190565b5060608301516131856060860182612d92565b508091505092915050565b613199816137c1565b82525050565b6131a8816137c1565b82525050565b60006131bb828486612dce565b91508190509392505050565b60006131d38284612e2c565b915081905092915050565b60006020820190506131f36000830184612d0e565b92915050565b600060608201905061320e6000830186612d0e565b61321b6020830185612d0e565b613228604083018461319f565b949350505050565b6000602082019050818103600083015261324a8184612d1d565b905092915050565b6000602082019050818103600083015261326d818486612da1565b90509392505050565b60006040820190508181036000830152613291818587612da1565b90506132a0602083018461319f565b949350505050565b600060808201905081810360008301526132c381888a612da1565b90506132d2602083018761319f565b6132df604083018661319f565b81810360608301526132f2818486612da1565b9050979650505050505050565b6000602082019050818103600083015261331881612e5d565b9050919050565b6000602082019050818103600083015261333881612e80565b9050919050565b6000602082019050818103600083015261335881612ea3565b9050919050565b6000602082019050818103600083015261337881612ec6565b9050919050565b6000602082019050818103600083015261339881612ee9565b9050919050565b600060208201905081810360008301526133b881612f0c565b9050919050565b600060208201905081810360008301526133d881612f2f565b9050919050565b600060208201905081810360008301526133f881612f52565b9050919050565b6000602082019050818103600083015261341881612f75565b9050919050565b6000602082019050818103600083015261343881612f98565b9050919050565b6000602082019050818103600083015261345881612fbb565b9050919050565b6000602082019050818103600083015261347881612fde565b9050919050565b6000602082019050818103600083015261349881613001565b9050919050565b600060208201905081810360008301526134b881613024565b9050919050565b600060208201905081810360008301526134d881613047565b9050919050565b600060208201905081810360008301526134f88161306a565b9050919050565b600060208201905081810360008301526135188161308d565b9050919050565b6000602082019050818103600083015261353981846130b0565b905092915050565b6000602082019050818103600083015261355b818461312d565b905092915050565b6000604082019050613578600083018661319f565b818103602083015261358b818486612da1565b9050949350505050565b600061359f6135b0565b90506135ab828261383f565b919050565b6000604051905090565b600067ffffffffffffffff8211156135d5576135d4613975565b5b6135de826139c2565b9050602081019050919050565b6000819050602082019050919050565b600081519050919050565b600081519050919050565b6000602082019050919050565b600082825260208201905092915050565b600082825260208201905092915050565b600082825260208201905092915050565b600081905092915050565b6000613667826137c1565b9150613672836137c1565b9250827fffffffffffffffffffffffffffffffffffffffffffffffffffffffffffffffff038211156136a7576136a66138b9565b5b828201905092915050565b60006136bd826137c1565b91506136c8836137c1565b9250826136d8576136d76138e8565b5b828204905092915050565b60006136ee826137c1565b91506136f9836137c1565b9250817fffffffffffffffffffffffffffffffffffffffffffffffffffffffffffffffff0483118215151615613732576137316138b9565b5b828202905092915050565b6000613748826137c1565b9150613753836137c1565b925082821015613766576137656138b9565b5b828203905092915050565b600061377c826137a1565b9050919050565b600061378e826137a1565b9050919050565b60008115159050919050565b600073ffffffffffffffffffffffffffffffffffffffff82169050919050565b6000819050919050565b82818337600083830152505050565b60005b838110156137f85780820151818401526020810190506137dd565b83811115613807576000848401525b50505050565b6000600282049050600182168061382557607f821691505b6020821081141561383957613838613917565b5b50919050565b613848826139c2565b810181811067ffffffffffffffff8211171561386757613866613975565b5b80604052505050565b600061387b826137c1565b91507fffffffffffffffffffffffffffffffffffffffffffffffffffffffffffffffff8214156138ae576138ad6138b9565b5b600182019050919050565b7f4e487b7100000000000000000000000000000000000000000000000000000000600052601160045260246000fd5b7f4e487b7100000000000000000000000000000000000000000000000000000000600052601260045260246000fd5b7f4e487b7100000000000000000000000000000000000000000000000000000000600052602260045260246000fd5b7f4e487b7100000000000000000000000000000000000000000000000000000000600052603260045260246000fd5b7f4e487b7100000000000000000000000000000000000000000000000000000000600052604160045260246000fd5b600080fd5b600080fd5b600080fd5b600080fd5b600080fd5b600080fd5b6000601f19601f8301169050919050565b7f6170705472616e73616374696f6e4964206973206e6f7420612076616c69642060008201527f6964000000000000000000000000000000000000000000000000000000000000602082015250565b7f6974656d206e6565647320746f206265206f776e65642062792074686520736160008201527f6d65206163636f756e7420000000000000000000000000000000000000000000602082015250565b7f73656e6465722066726f6d20746865207a65726f206164647265737300000000600082015250565b7f73656e64657220646f6573206e6f74206f776e20746865206974656d00000000600082015250565b7f746865206974656d206973206e6f7420666f722073616c650000000000000000600082015250565b7f62756e646c65206f7574206f6620737570706c79000000000000000000000000600082015250565b7f62756e646c6520646f6573206e6f742065786973747300000000000000000000600082015250565b7f63616c6c6572206973206e6f7420746865206f776e6572000000000000000000600082015250565b7f6974656d20646f6573206e6f7420657869737473000000000000000000000000600082015250565b7f63616e74207365742067616d65536572766963654163636f756e742066726f6d60008201527f20746865207a65726f2061646472657373000000000000000000000000000000602082015250565b7f45524332303a2073656c6c20746f20746865207a65726f206164647265737300600082015250565b7f616d6f756e7420697320746f20736d616c6c0000000000000000000000000000600082015250565b7f63616c6c6572206973206e6f74207468652067616d6553657276696365000000600082015250565b7f63616e742073657420666565734163636f756e742066726f6d20746865207a6560008201527f726f206164647265737300000000000000000000000000000000000000000000602082015250565b7f62756e646c6520697320616c6c20726561647920657869737473000000000000600082015250565b7f5265656e7472616e637947756172643a207265656e7472616e742063616c6c00600082015250565b7f63616c6c6572206973206e6f742074686520666565734163636f756e74000000600082015250565b613d2d81613771565b8114613d3857600080fd5b50565b613d4481613783565b8114613d4f57600080fd5b50565b613d5b81613795565b8114613d6657600080fd5b50565b613d72816137c1565b8114613d7d57600080fd5b5056fea2646970667358221220b1e255b362011dfb37977e900735501d4a4167785a2e8fbb887cb77005ddf41164736f6c63430008060033",
  "immutableReferences": {},
  "source": "// SPDX-License-Identifier: MIT\r\n\r\npragma solidity ^0.8.0;\r\n\r\n\r\nimport \"./Security.sol\";\r\nimport \"@openzeppelin/contracts/utils/Context.sol\";\r\nimport \"@openzeppelin/contracts/utils/math/SafeMath.sol\";\r\nimport \"@openzeppelin/contracts/security/ReentrancyGuard.sol\";\r\nimport \"./StringHelper.sol\";\r\n\r\ninterface IMyMiniMiners {\r\n    function transferFrom(address sender, address recipient, uint256 amount) external returns (bool);\r\n    function getTransferFee() external view returns (uint256);\r\n\r\n}\r\n\r\ncontract GameActions is Security, ReentrancyGuard {\r\n    using SafeMath for uint256;\r\n\r\n    struct structItem {\r\n        string id;\r\n        address owner;\r\n        uint256 cost;\r\n        bool exists;\r\n    }\r\n\r\n    struct structGameBundles {\r\n        string id;\r\n        string bundleName;\r\n        uint256 cost;\r\n        uint256 totalSupply;\r\n        bool exists;\r\n    }\r\n\r\n    mapping(string => structItem) items;\r\n    string[] _gameBundlesRef;\r\n    mapping(string => structGameBundles) _gameBundles;\r\n    IMyMiniMiners myMiniMiners;\r\n\r\n\r\n    event Buy(address indexed account, uint256 amount, string itemId);\r\n    event Sell(address indexed account, uint256 amount, string itemId);\r\n    event Remove(address indexed account, string itemId);\r\n    event ChangeBundleTotalSupply(address indexed from, string id, uint256 totalSupply);\r\n    event BuyGameBundle(address indexed from, string id, uint256 cost);\r\n    event NewGameBundle(address indexed from, string id, uint256 cost, uint256 totalSupply, string bundleName);\r\n\r\n    constructor(address feesAccount, address payable gameServiceAccount, address myMiniMinersAddress){\r\n        setFeesAccount(feesAccount);\r\n        setGameServiceAccount(gameServiceAccount);\r\n        myMiniMiners = IMyMiniMiners(myMiniMinersAddress);\r\n    }\r\n\r\n    function getGameBundleIds(uint256 page) public view returns (string[] memory){\r\n        uint256 j = 0;\r\n        string[] memory refs = new string[](20);\r\n        uint256 _gameBundlesRefLength = _gameBundlesRef.length;\r\n        for (uint256 i = page * 20; i < page * 20 + 20 && i < _gameBundlesRefLength; i++) {\r\n            refs[j] = _gameBundlesRef[i];\r\n            j++;\r\n        }\r\n        return refs;\r\n    }\r\n\r\n    function getGameBundle(string calldata id) public view returns (structGameBundles memory){\r\n        return _gameBundles[id];\r\n    }\r\n\r\n    function buyGameBundle(string calldata id) external nonReentrant {\r\n        structGameBundles  memory currentItem = _gameBundles[id];\r\n        require(currentItem.exists == true, \"bundle does not exists\");\r\n        require(currentItem.totalSupply > 0, \"bundle out of supply\");\r\n        if (currentItem.cost > 0) {\r\n            myMiniMiners.transferFrom(_msgSender(), _feesAccount, currentItem.cost);\r\n        }\r\n        currentItem.totalSupply = currentItem.totalSupply.sub(1);\r\n        _gameBundles[id] = currentItem;\r\n        emit BuyGameBundle(_msgSender(), id, currentItem.cost);\r\n    }\r\n\r\n    function addGameBundle(string calldata id, uint256 cost, uint256 totalSupply, string calldata bundleName) external onlyFeesAccount {\r\n        structGameBundles memory currentItem = _gameBundles[id];\r\n        require(currentItem.exists == false, \"bundle is all ready exists\");\r\n\r\n        structGameBundles memory newBundle;\r\n        newBundle.bundleName = bundleName;\r\n        newBundle.cost = cost;\r\n        newBundle.totalSupply = totalSupply;\r\n        newBundle.exists = true;\r\n        newBundle.id = id;\r\n        _gameBundles[id] = newBundle;\r\n        emit  NewGameBundle(_msgSender(), id, cost, totalSupply, bundleName);\r\n    }\r\n\r\n    function changeGameBundleSupply(string calldata id, uint256 supply) external onlyFeesAccount {\r\n        structGameBundles memory currentItem = _gameBundles[id];\r\n        require(currentItem.exists == true, \"bundle does not exists\");\r\n        currentItem.totalSupply = supply;\r\n        _gameBundles[id] = currentItem;\r\n        emit ChangeBundleTotalSupply(_msgSender(), id, supply);\r\n    }\r\n\r\n    function getItem(string memory itemId) public view returns (structItem memory){\r\n        return items[itemId];\r\n    }\r\n\r\n    function _takeFee(address sender, address recipient, uint256 amount) private returns (uint256){\r\n\r\n        uint256 fee = _calculateFee(amount, myMiniMiners.getTransferFee());\r\n        amount = amount.sub(fee);\r\n        myMiniMiners.transferFrom(sender, recipient, fee);\r\n        return amount;\r\n\r\n    }\r\n\r\n    function _calculateFee(uint256 amount, uint256 fee) private pure returns (uint256){\r\n        require(amount.div(10 ** 4).mul(10 ** 4) == amount, \"amount is to small\");\r\n        return amount.mul(fee).div(10 ** 4);\r\n    }\r\n\r\n    function sell(address account, string calldata itemId, uint256 amount) external onlyGameService {\r\n        require(account != address(0), \"ERC20: sell to the zero address\");\r\n        StringHelper.validateAppTransactionId(itemId);\r\n        require( !items[itemId].exists || items[itemId].owner == account, 'item needs to be owned by the same account ');\r\n\r\n        structItem memory currentItem = items[itemId];\r\n\r\n        currentItem.owner = account;\r\n        currentItem.cost = amount;\r\n        currentItem.id = itemId;\r\n        currentItem.exists = true;\r\n\r\n        items[itemId] = currentItem;\r\n\r\n        emit  Sell(account, amount, itemId);\r\n    }\r\n\r\n    function buy(string calldata itemId) external nonReentrant {\r\n        require(_msgSender() != address(0), \"sender from the zero address\");\r\n        structItem memory currentItem = items[itemId];\r\n        require(currentItem.exists, \"item does not exists\");\r\n        require(currentItem.cost > 0, \"the item is not for sale\");\r\n\r\n        uint256 cost = currentItem.cost;\r\n        uint256 costAfterFee = _takeFee(_msgSender(), _feesAccount, cost);\r\n        myMiniMiners.transferFrom(_msgSender(), currentItem.owner, costAfterFee);\r\n        currentItem.owner = _msgSender();\r\n        currentItem.cost = 0;\r\n        items[itemId] = currentItem;\r\n\r\n        emit Buy(_msgSender(), cost, itemId);\r\n    }\r\n\r\n    function removeFromMarket(string calldata itemId) external nonReentrant {\r\n        require(_msgSender() != address(0), \"sender from the zero address\");\r\n        structItem memory currentItem = items[itemId];\r\n        require(currentItem.exists, \"item does not exists\");\r\n        require(currentItem.owner == _msgSender(), \"sender does not own the item\");\r\n        currentItem.cost = 0;\r\n        items[itemId] = currentItem;\r\n        emit Remove(_msgSender(), itemId);\r\n    }\r\n\r\n\r\n    //********************Game actions methods end************************//\r\n\r\n\r\n}\r\n",
  "sourcePath": "C:/Users/amit/PhpstormProjects/crypto-game-contract/src/contracts/GameActions.sol",
  "compiler": {
    "name": "solc",
    "version": "0.8.6+commit.11564f7e.Emscripten.clang"
  },
  "schemaVersion": "3.4.1",
  "updatedAt": "2021-07-05T15:00:26.225Z",
  "networkType": "ethereum",
  "devdoc": {
    "kind": "dev",
    "methods": {},
    "version": 1
  },
  "userdoc": {
    "kind": "user",
    "methods": {},
    "version": 1
  }
}