{
  "contractName": "MyMiniMiners",
  "abi": [
    {
      "inputs": [
        {
          "internalType": "address",
          "name": "feesAccount",
          "type": "address"
        },
        {
          "internalType": "address payable",
          "name": "gameServiceAccount",
          "type": "address"
        }
      ],
      "stateMutability": "payable",
      "type": "constructor",
      "payable": true
    },
    {
      "anonymous": false,
      "inputs": [
        {
          "indexed": true,
          "internalType": "address",
          "name": "owner",
          "type": "address"
        },
        {
          "indexed": true,
          "internalType": "address",
          "name": "spender",
          "type": "address"
        },
        {
          "indexed": false,
          "internalType": "uint256",
          "name": "value",
          "type": "uint256"
        }
      ],
      "name": "Approval",
      "type": "event"
    },
    {
      "anonymous": false,
      "inputs": [
        {
          "indexed": true,
          "internalType": "address",
          "name": "oldAccount",
          "type": "address"
        },
        {
          "indexed": true,
          "internalType": "address",
          "name": "newAccount",
          "type": "address"
        }
      ],
      "name": "FeesAccountChanged",
      "type": "event"
    },
    {
      "anonymous": false,
      "inputs": [
        {
          "indexed": true,
          "internalType": "address payable",
          "name": "oldAccount",
          "type": "address"
        },
        {
          "indexed": true,
          "internalType": "address payable",
          "name": "newAccount",
          "type": "address"
        }
      ],
      "name": "GameServiceAccountChanged",
      "type": "event"
    },
    {
      "anonymous": false,
      "inputs": [
        {
          "indexed": true,
          "internalType": "address",
          "name": "from",
          "type": "address"
        },
        {
          "indexed": true,
          "internalType": "address",
          "name": "to",
          "type": "address"
        },
        {
          "indexed": false,
          "internalType": "uint256",
          "name": "value",
          "type": "uint256"
        },
        {
          "indexed": false,
          "internalType": "string",
          "name": "appTransactionId",
          "type": "string"
        }
      ],
      "name": "Mint",
      "type": "event"
    },
    {
      "anonymous": false,
      "inputs": [
        {
          "indexed": true,
          "internalType": "address",
          "name": "previousOwner",
          "type": "address"
        },
        {
          "indexed": true,
          "internalType": "address",
          "name": "newOwner",
          "type": "address"
        }
      ],
      "name": "OwnershipTransferred",
      "type": "event"
    },
    {
      "anonymous": false,
      "inputs": [
        {
          "indexed": true,
          "internalType": "address",
          "name": "from",
          "type": "address"
        },
        {
          "indexed": false,
          "internalType": "uint256",
          "name": "value",
          "type": "uint256"
        },
        {
          "indexed": false,
          "internalType": "string",
          "name": "appTransactionId",
          "type": "string"
        }
      ],
      "name": "PayForAppTransaction",
      "type": "event"
    },
    {
      "anonymous": false,
      "inputs": [
        {
          "indexed": true,
          "internalType": "address",
          "name": "from",
          "type": "address"
        },
        {
          "indexed": true,
          "internalType": "address",
          "name": "to",
          "type": "address"
        },
        {
          "indexed": false,
          "internalType": "uint256",
          "name": "value",
          "type": "uint256"
        }
      ],
      "name": "Transfer",
      "type": "event"
    },
    {
      "inputs": [
        {
          "internalType": "address",
          "name": "owner",
          "type": "address"
        },
        {
          "internalType": "address",
          "name": "spender",
          "type": "address"
        }
      ],
      "name": "allowance",
      "outputs": [
        {
          "internalType": "uint256",
          "name": "",
          "type": "uint256"
        }
      ],
      "stateMutability": "view",
      "type": "function",
      "constant": true
    },
    {
      "inputs": [
        {
          "internalType": "address",
          "name": "spender",
          "type": "address"
        },
        {
          "internalType": "uint256",
          "name": "amount",
          "type": "uint256"
        }
      ],
      "name": "approve",
      "outputs": [
        {
          "internalType": "bool",
          "name": "",
          "type": "bool"
        }
      ],
      "stateMutability": "nonpayable",
      "type": "function"
    },
    {
      "inputs": [
        {
          "internalType": "address",
          "name": "account",
          "type": "address"
        }
      ],
      "name": "balanceOf",
      "outputs": [
        {
          "internalType": "uint256",
          "name": "",
          "type": "uint256"
        }
      ],
      "stateMutability": "view",
      "type": "function",
      "constant": true
    },
    {
      "inputs": [
        {
          "internalType": "address",
          "name": "spender",
          "type": "address"
        },
        {
          "internalType": "uint256",
          "name": "subtractedValue",
          "type": "uint256"
        }
      ],
      "name": "decreaseAllowance",
      "outputs": [
        {
          "internalType": "bool",
          "name": "",
          "type": "bool"
        }
      ],
      "stateMutability": "nonpayable",
      "type": "function"
    },
    {
      "inputs": [],
      "name": "getFeesAccount",
      "outputs": [
        {
          "internalType": "address",
          "name": "",
          "type": "address"
        }
      ],
      "stateMutability": "view",
      "type": "function",
      "constant": true
    },
    {
      "inputs": [],
      "name": "getGameServiceAccount",
      "outputs": [
        {
          "internalType": "address",
          "name": "",
          "type": "address"
        }
      ],
      "stateMutability": "view",
      "type": "function",
      "constant": true
    },
    {
      "inputs": [],
      "name": "getOwner",
      "outputs": [
        {
          "internalType": "address",
          "name": "",
          "type": "address"
        }
      ],
      "stateMutability": "view",
      "type": "function",
      "constant": true
    },
    {
      "inputs": [
        {
          "internalType": "address",
          "name": "spender",
          "type": "address"
        },
        {
          "internalType": "uint256",
          "name": "addedValue",
          "type": "uint256"
        }
      ],
      "name": "increaseAllowance",
      "outputs": [
        {
          "internalType": "bool",
          "name": "",
          "type": "bool"
        }
      ],
      "stateMutability": "nonpayable",
      "type": "function"
    },
    {
      "inputs": [],
      "name": "name",
      "outputs": [
        {
          "internalType": "string",
          "name": "",
          "type": "string"
        }
      ],
      "stateMutability": "view",
      "type": "function",
      "constant": true
    },
    {
      "inputs": [
        {
          "internalType": "address",
          "name": "feesAccount",
          "type": "address"
        }
      ],
      "name": "setFeesAccount",
      "outputs": [],
      "stateMutability": "nonpayable",
      "type": "function"
    },
    {
      "inputs": [
        {
          "internalType": "address payable",
          "name": "gameServiceAccount",
          "type": "address"
        }
      ],
      "name": "setGameServiceAccount",
      "outputs": [],
      "stateMutability": "nonpayable",
      "type": "function"
    },
    {
      "inputs": [],
      "name": "symbol",
      "outputs": [
        {
          "internalType": "string",
          "name": "",
          "type": "string"
        }
      ],
      "stateMutability": "view",
      "type": "function",
      "constant": true
    },
    {
      "inputs": [],
      "name": "totalSupply",
      "outputs": [
        {
          "internalType": "uint256",
          "name": "",
          "type": "uint256"
        }
      ],
      "stateMutability": "view",
      "type": "function",
      "constant": true
    },
    {
      "inputs": [
        {
          "internalType": "address",
          "name": "recipient",
          "type": "address"
        },
        {
          "internalType": "uint256",
          "name": "amount",
          "type": "uint256"
        }
      ],
      "name": "transfer",
      "outputs": [
        {
          "internalType": "bool",
          "name": "",
          "type": "bool"
        }
      ],
      "stateMutability": "nonpayable",
      "type": "function"
    },
    {
      "inputs": [
        {
          "internalType": "address",
          "name": "sender",
          "type": "address"
        },
        {
          "internalType": "address",
          "name": "recipient",
          "type": "address"
        },
        {
          "internalType": "uint256",
          "name": "amount",
          "type": "uint256"
        }
      ],
      "name": "transferFrom",
      "outputs": [
        {
          "internalType": "bool",
          "name": "",
          "type": "bool"
        }
      ],
      "stateMutability": "nonpayable",
      "type": "function"
    },
    {
      "inputs": [],
      "name": "decimals",
      "outputs": [
        {
          "internalType": "uint8",
          "name": "",
          "type": "uint8"
        }
      ],
      "stateMutability": "pure",
      "type": "function",
      "constant": true
    },
    {
      "inputs": [],
      "name": "getMaxSupply",
      "outputs": [
        {
          "internalType": "uint256",
          "name": "",
          "type": "uint256"
        }
      ],
      "stateMutability": "view",
      "type": "function",
      "constant": true
    },
    {
      "inputs": [],
      "name": "getSupplyLeft",
      "outputs": [
        {
          "internalType": "uint256",
          "name": "",
          "type": "uint256"
        }
      ],
      "stateMutability": "view",
      "type": "function",
      "constant": true
    },
    {
      "inputs": [],
      "name": "getUnclaimedTokens",
      "outputs": [
        {
          "internalType": "uint256",
          "name": "",
          "type": "uint256"
        }
      ],
      "stateMutability": "view",
      "type": "function",
      "constant": true
    },
    {
      "inputs": [],
      "name": "getCoinMineRate",
      "outputs": [
        {
          "internalType": "uint256",
          "name": "",
          "type": "uint256"
        }
      ],
      "stateMutability": "view",
      "type": "function",
      "constant": true
    },
    {
      "inputs": [],
      "name": "getTransferFee",
      "outputs": [
        {
          "internalType": "uint256",
          "name": "",
          "type": "uint256"
        }
      ],
      "stateMutability": "view",
      "type": "function",
      "constant": true
    },
    {
      "inputs": [],
      "name": "getGasFee",
      "outputs": [
        {
          "internalType": "uint256",
          "name": "",
          "type": "uint256"
        }
      ],
      "stateMutability": "view",
      "type": "function",
      "constant": true
    },
    {
      "inputs": [
        {
          "internalType": "uint256",
          "name": "transferFee",
          "type": "uint256"
        }
      ],
      "name": "setTransferFee",
      "outputs": [],
      "stateMutability": "nonpayable",
      "type": "function"
    },
    {
      "inputs": [
        {
          "internalType": "uint256",
          "name": "coinRate",
          "type": "uint256"
        }
      ],
      "name": "setCoinRate",
      "outputs": [],
      "stateMutability": "nonpayable",
      "type": "function"
    },
    {
      "inputs": [
        {
          "internalType": "uint256",
          "name": "gasFee",
          "type": "uint256"
        }
      ],
      "name": "setGasFee",
      "outputs": [],
      "stateMutability": "nonpayable",
      "type": "function"
    },
    {
      "inputs": [
        {
          "internalType": "string",
          "name": "appTransactionId",
          "type": "string"
        }
      ],
      "name": "payForAppTransaction",
      "outputs": [],
      "stateMutability": "payable",
      "type": "function",
      "payable": true
    },
    {
      "inputs": [
        {
          "internalType": "address",
          "name": "account",
          "type": "address"
        },
        {
          "internalType": "uint256",
          "name": "amount",
          "type": "uint256"
        },
        {
          "internalType": "string",
          "name": "appTransactionId",
          "type": "string"
        }
      ],
      "name": "mint",
      "outputs": [],
      "stateMutability": "nonpayable",
      "type": "function"
    },
    {
      "inputs": [
        {
          "internalType": "uint256",
          "name": "amount",
          "type": "uint256"
        }
      ],
      "name": "burn",
      "outputs": [],
      "stateMutability": "nonpayable",
      "type": "function"
    }
  ],
  "bytecode": "0x60806040526103e860095566038d7ea4c68000600a55600a600b55670f43fc2c04ee0000600c556040516200454f3803806200454f83398181016040528101906200004b919062000ad9565b6040518060400160405280600e81526020017f4d79204d696e69204d696e6572730000000000000000000000000000000000008152506040518060400160405280600481526020017f4d594d4d000000000000000000000000000000000000000000000000000000008152508160039080519060200190620000cf929190620009fb565b508060049080519060200190620000e8929190620009fb565b5050506000620000fd6200023460201b60201c565b905080600560006101000a81548173ffffffffffffffffffffffffffffffffffffffff021916908373ffffffffffffffffffffffffffffffffffffffff1602179055508073ffffffffffffffffffffffffffffffffffffffff16600073ffffffffffffffffffffffffffffffffffffffff167f8be0079c531659141344cd1fd0a4f28419497f9722a3daafe3b4186f6b6457e060405160405180910390a3506001600881905550620001b5826200023c60201b60201c565b620001c6816200041160201b60201c565b42600e81905550600c54600d819055506200022c600760009054906101000a900473ffffffffffffffffffffffffffffffffffffffff1667016345785d8a00006040518060600160405280603081526020016200451f60309139620005e660201b60201c565b50506200121a565b600033905090565b6200024c6200023460201b60201c565b73ffffffffffffffffffffffffffffffffffffffff16600560009054906101000a900473ffffffffffffffffffffffffffffffffffffffff1673ffffffffffffffffffffffffffffffffffffffff1614620002de576040517f08c379a0000000000000000000000000000000000000000000000000000000008152600401620002d59062000ce9565b60405180910390fd5b600073ffffffffffffffffffffffffffffffffffffffff168173ffffffffffffffffffffffffffffffffffffffff16141562000351576040517f08c379a0000000000000000000000000000000000000000000000000000000008152600401620003489062000d2d565b60405180910390fd5b8073ffffffffffffffffffffffffffffffffffffffff16600760009054906101000a900473ffffffffffffffffffffffffffffffffffffffff1673ffffffffffffffffffffffffffffffffffffffff167f686292a774da47913df940e499f775044c8f0306ee4e4ca2462d73570abac92b60405160405180910390a380600760006101000a81548173ffffffffffffffffffffffffffffffffffffffff021916908373ffffffffffffffffffffffffffffffffffffffff16021790555050565b620004216200023460201b60201c565b73ffffffffffffffffffffffffffffffffffffffff16600560009054906101000a900473ffffffffffffffffffffffffffffffffffffffff1673ffffffffffffffffffffffffffffffffffffffff1614620004b3576040517f08c379a0000000000000000000000000000000000000000000000000000000008152600401620004aa9062000ce9565b60405180910390fd5b600073ffffffffffffffffffffffffffffffffffffffff168173ffffffffffffffffffffffffffffffffffffffff16141562000526576040517f08c379a00000000000000000000000000000000000000000000000000000000081526004016200051d9062000d0b565b60405180910390fd5b8073ffffffffffffffffffffffffffffffffffffffff16600660009054906101000a900473ffffffffffffffffffffffffffffffffffffffff1673ffffffffffffffffffffffffffffffffffffffff167f0d23d4c09e0a5356b3e26c22afcaa9628df15d486c6c841ce415c3387b6c912060405160405180910390a380600660006101000a81548173ffffffffffffffffffffffffffffffffffffffff021916908373ffffffffffffffffffffffffffffffffffffffff16021790555050565b81600d5410156200062e576040517f08c379a0000000000000000000000000000000000000000000000000000000008152600401620006259062000ca5565b60405180910390fd5b62000644816200074060201b620016c61760201c565b81620006556200079060201b60201c565b101562000699576040517f08c379a0000000000000000000000000000000000000000000000000000000008152600401620006909062000cc7565b60405180910390fd5b620006b083836200086160201b620017131760201c565b620006cc82600d54620009c660201b620018671790919060201c565b600d819055508273ffffffffffffffffffffffffffffffffffffffff163073ffffffffffffffffffffffffffffffffffffffff167f0a379200ca4d32ac7f1351005f51ef6d49dae15616e15e868f304fc5469e6d0a84846040516200073392919062000d8e565b60405180910390a3505050565b6000819050601e8151116200078c576040517f08c379a0000000000000000000000000000000000000000000000000000000008152600401620007839062000c83565b60405180910390fd5b5050565b60008067016345785d8a0000620007f0633b9aca00620007dc600b54620007c8600e5442620009c660201b620018671790919060201c565b620009de60201b6200187d1790919060201c565b620009de60201b6200187d1790919060201c565b620007fc919062000dde565b905060006200081e600d54600c54620009c660201b620018671790919060201c565b905060006200083c8284620009c660201b620018671790919060201c565b9050600d548111156200085757600d5493505050506200085e565b8093505050505b90565b600073ffffffffffffffffffffffffffffffffffffffff168273ffffffffffffffffffffffffffffffffffffffff161415620008d4576040517f08c379a0000000000000000000000000000000000000000000000000000000008152600401620008cb9062000d4f565b60405180910390fd5b620008e860008383620009f660201b60201c565b8060026000828254620008fc919062000dde565b92505081905550806000808473ffffffffffffffffffffffffffffffffffffffff1673ffffffffffffffffffffffffffffffffffffffff168152602001908152602001600020600082825462000953919062000dde565b925050819055508173ffffffffffffffffffffffffffffffffffffffff16600073ffffffffffffffffffffffffffffffffffffffff167fddf252ad1be2c89b69c2b068fc378daa952ba7f163c4a11628f55a4df523b3ef83604051620009ba919062000d71565b60405180910390a35050565b60008183620009d6919062000e9c565b905092915050565b60008183620009ee919062000e3b565b905092915050565b505050565b82805462000a099062000f5f565b90600052602060002090601f01602090048101928262000a2d576000855562000a79565b82601f1062000a4857805160ff191683800117855562000a79565b8280016001018555821562000a79579182015b8281111562000a7857825182559160200191906001019062000a5b565b5b50905062000a88919062000a8c565b5090565b5b8082111562000aa757600081600090555060010162000a8d565b5090565b60008151905062000abc81620011e6565b92915050565b60008151905062000ad38162001200565b92915050565b6000806040838503121562000af35762000af262000ff3565b5b600062000b038582860162000aab565b925050602062000b168582860162000ac2565b9150509250929050565b600062000b2d8262000dc2565b62000b39818562000dcd565b935062000b4b81856020860162000f29565b62000b568162000ff8565b840191505092915050565b600062000b7060228362000dcd565b915062000b7d8262001009565b604082019050919050565b600062000b97602c8362000dcd565b915062000ba48262001058565b604082019050919050565b600062000bbe60348362000dcd565b915062000bcb82620010a7565b604082019050919050565b600062000be560178362000dcd565b915062000bf282620010f6565b602082019050919050565b600062000c0c60318362000dcd565b915062000c19826200111f565b604082019050919050565b600062000c33602a8362000dcd565b915062000c40826200116e565b604082019050919050565b600062000c5a601f8362000dcd565b915062000c6782620011bd565b602082019050919050565b62000c7d8162000f1f565b82525050565b6000602082019050818103600083015262000c9e8162000b61565b9050919050565b6000602082019050818103600083015262000cc08162000b88565b9050919050565b6000602082019050818103600083015262000ce28162000baf565b9050919050565b6000602082019050818103600083015262000d048162000bd6565b9050919050565b6000602082019050818103600083015262000d268162000bfd565b9050919050565b6000602082019050818103600083015262000d488162000c24565b9050919050565b6000602082019050818103600083015262000d6a8162000c4b565b9050919050565b600060208201905062000d88600083018462000c72565b92915050565b600060408201905062000da5600083018562000c72565b818103602083015262000db9818462000b20565b90509392505050565b600081519050919050565b600082825260208201905092915050565b600062000deb8262000f1f565b915062000df88362000f1f565b9250827fffffffffffffffffffffffffffffffffffffffffffffffffffffffffffffffff0382111562000e305762000e2f62000f95565b5b828201905092915050565b600062000e488262000f1f565b915062000e558362000f1f565b9250817fffffffffffffffffffffffffffffffffffffffffffffffffffffffffffffffff048311821515161562000e915762000e9062000f95565b5b828202905092915050565b600062000ea98262000f1f565b915062000eb68362000f1f565b92508282101562000ecc5762000ecb62000f95565b5b828203905092915050565b600062000ee48262000eff565b9050919050565b600062000ef88262000eff565b9050919050565b600073ffffffffffffffffffffffffffffffffffffffff82169050919050565b6000819050919050565b60005b8381101562000f4957808201518184015260208101905062000f2c565b8381111562000f59576000848401525b50505050565b6000600282049050600182168062000f7857607f821691505b6020821081141562000f8f5762000f8e62000fc4565b5b50919050565b7f4e487b7100000000000000000000000000000000000000000000000000000000600052601160045260246000fd5b7f4e487b7100000000000000000000000000000000000000000000000000000000600052602260045260246000fd5b600080fd5b6000601f19601f8301169050919050565b7f6170705472616e73616374696f6e4964206973206e6f7420612076616c69642060008201527f6964000000000000000000000000000000000000000000000000000000000000602082015250565b7f616d6f756e742069732062696767657220207468656e2074686520746f74616c60008201527f20737570706c79206c6566740000000000000000000000000000000000000000602082015250565b7f616d6f756e742020697320626967676572207468656e20746865206c6971756960008201527f64697479206c6566742c20747279206c61746572000000000000000000000000602082015250565b7f63616c6c6572206973206e6f7420746865206f776e6572000000000000000000600082015250565b7f63616e74207365742067616d65536572766963654163636f756e742066726f6d60008201527f20746865207a65726f2061646472657373000000000000000000000000000000602082015250565b7f63616e742073657420666565734163636f756e742066726f6d20746865207a6560008201527f726f206164647265737300000000000000000000000000000000000000000000602082015250565b7f45524332303a206d696e7420746f20746865207a65726f206164647265737300600082015250565b620011f18162000ed7565b8114620011fd57600080fd5b50565b6200120b8162000eeb565b81146200121757600080fd5b50565b6132f5806200122a6000396000f3fe6080604052600436106101b75760003560e01c806370a08231116100ec578063a457c2d71161008a578063d3fc986411610064578063d3fc986414610617578063dd62ed3e14610640578063ddb00dfc1461067d578063f82ca1c8146106a6576101b7565b8063a457c2d714610572578063a9059cbb146105af578063b14a73cb146105ec576101b7565b806389a7d1c2116100c657806389a7d1c2146104c85780638f02bb5b146104f357806395d89b411461051c5780639a17d8c114610547576101b7565b806370a0823114610435578063868b711314610472578063893d20e81461049d576101b7565b80632f70b02d1161015957806342966c681161013357806342966c681461039c5780634c0f38c2146103c55780635f96a531146103f0578063678edca31461040c576101b7565b80632f70b02d14610309578063313ce56714610334578063395093511461035f576101b7565b8063095ea7b311610195578063095ea7b31461023b57806318160ddd1461027857806323b872dd146102a35780632b5a7634146102e0576101b7565b80630129444c146101bc578063025fb662146101e557806306fdde0314610210575b600080fd5b3480156101c857600080fd5b506101e360048036038101906101de91906120a9565b6106d1565b005b3480156101f157600080fd5b506101fa610898565b604051610207919061265e565b60405180910390f35b34801561021c57600080fd5b506102256108c2565b6040516102329190612694565b60405180910390f35b34801561024757600080fd5b50610262600480360381019061025d9190612169565b610954565b60405161026f9190612679565b60405180910390f35b34801561028457600080fd5b5061028d610972565b60405161029a9190612996565b60405180910390f35b3480156102af57600080fd5b506102ca60048036038101906102c59190612116565b61097c565b6040516102d79190612679565b60405180910390f35b3480156102ec57600080fd5b506103076004803603810190610302919061226a565b610a7d565b005b34801561031557600080fd5b5061031e610b6f565b60405161032b919061265e565b60405180910390f35b34801561034057600080fd5b50610349610b99565b6040516103569190612a13565b60405180910390f35b34801561036b57600080fd5b5061038660048036038101906103819190612169565b610ba2565b6040516103939190612679565b60405180910390f35b3480156103a857600080fd5b506103c360048036038101906103be919061226a565b610c4e565b005b3480156103d157600080fd5b506103da610d14565b6040516103e79190612996565b60405180910390f35b61040a6004803603810190610405919061221d565b610d1e565b005b34801561041857600080fd5b50610433600480360381019061042e919061226a565b610ecc565b005b34801561044157600080fd5b5061045c6004803603810190610457919061207c565b610fb2565b6040516104699190612996565b60405180910390f35b34801561047e57600080fd5b50610487610ffa565b6040516104949190612996565b60405180910390f35b3480156104a957600080fd5b506104b2611004565b6040516104bf919061265e565b60405180910390f35b3480156104d457600080fd5b506104dd61102e565b6040516104ea9190612996565b60405180910390f35b3480156104ff57600080fd5b5061051a6004803603810190610515919061226a565b611038565b005b34801561052857600080fd5b5061053161112a565b60405161053e9190612694565b60405180910390f35b34801561055357600080fd5b5061055c6111bc565b6040516105699190612996565b60405180910390f35b34801561057e57600080fd5b5061059960048036038101906105949190612169565b6111c6565b6040516105a69190612679565b60405180910390f35b3480156105bb57600080fd5b506105d660048036038101906105d19190612169565b6112ba565b6040516105e39190612679565b60405180910390f35b3480156105f857600080fd5b506106016112d8565b60405161060e9190612996565b60405180910390f35b34801561062357600080fd5b5061063e600480360381019061063991906121a9565b6112e2565b005b34801561064c57600080fd5b50610667600480360381019061066291906120d6565b6113ce565b6040516106749190612996565b60405180910390f35b34801561068957600080fd5b506106a4600480360381019061069f919061207c565b611455565b005b3480156106b257600080fd5b506106bb61161c565b6040516106c89190612996565b60405180910390f35b6106d9611893565b73ffffffffffffffffffffffffffffffffffffffff16600560009054906101000a900473ffffffffffffffffffffffffffffffffffffffff1673ffffffffffffffffffffffffffffffffffffffff1614610768576040517f08c379a000000000000000000000000000000000000000000000000000000000815260040161075f90612816565b60405180910390fd5b600073ffffffffffffffffffffffffffffffffffffffff168173ffffffffffffffffffffffffffffffffffffffff1614156107d8576040517f08c379a00000000000000000000000000000000000000000000000000000000081526004016107cf90612836565b60405180910390fd5b8073ffffffffffffffffffffffffffffffffffffffff16600660009054906101000a900473ffffffffffffffffffffffffffffffffffffffff1673ffffffffffffffffffffffffffffffffffffffff167f0d23d4c09e0a5356b3e26c22afcaa9628df15d486c6c841ce415c3387b6c912060405160405180910390a380600660006101000a81548173ffffffffffffffffffffffffffffffffffffffff021916908373ffffffffffffffffffffffffffffffffffffffff16021790555050565b6000600760009054906101000a900473ffffffffffffffffffffffffffffffffffffffff16905090565b6060600380546108d190612bd7565b80601f01602080910402602001604051908101604052809291908181526020018280546108fd90612bd7565b801561094a5780601f1061091f5761010080835404028352916020019161094a565b820191906000526020600020905b81548152906001019060200180831161092d57829003601f168201915b5050505050905090565b6000610968610961611893565b848461189b565b6001905092915050565b6000600254905090565b6000610989848484611a66565b6000600160008673ffffffffffffffffffffffffffffffffffffffff1673ffffffffffffffffffffffffffffffffffffffff16815260200190815260200160002060006109d4611893565b73ffffffffffffffffffffffffffffffffffffffff1673ffffffffffffffffffffffffffffffffffffffff16815260200190815260200160002054905082811015610a54576040517f08c379a0000000000000000000000000000000000000000000000000000000008152600401610a4b906127f6565b60405180910390fd5b610a7185610a60611893565b8584610a6c9190612afa565b61189b565b60019150509392505050565b610a85611893565b73ffffffffffffffffffffffffffffffffffffffff16600760009054906101000a900473ffffffffffffffffffffffffffffffffffffffff1673ffffffffffffffffffffffffffffffffffffffff1614610b14576040517f08c379a0000000000000000000000000000000000000000000000000000000008152600401610b0b90612976565b60405180910390fd5b60008110158015610b265750600a8111155b610b65576040517f08c379a0000000000000000000000000000000000000000000000000000000008152600401610b5c90612896565b60405180910390fd5b80600b8190555050565b6000600660009054906101000a900473ffffffffffffffffffffffffffffffffffffffff16905090565b60006009905090565b6000610c44610baf611893565b848460016000610bbd611893565b73ffffffffffffffffffffffffffffffffffffffff1673ffffffffffffffffffffffffffffffffffffffff16815260200190815260200160002060008873ffffffffffffffffffffffffffffffffffffffff1673ffffffffffffffffffffffffffffffffffffffff16815260200190815260200160002054610c3f9190612a4a565b61189b565b6001905092915050565b610c56611893565b73ffffffffffffffffffffffffffffffffffffffff16600760009054906101000a900473ffffffffffffffffffffffffffffffffffffffff1673ffffffffffffffffffffffffffffffffffffffff1614610ce5576040517f08c379a0000000000000000000000000000000000000000000000000000000008152600401610cdc90612976565b60405180910390fd5b610d11600760009054906101000a900473ffffffffffffffffffffffffffffffffffffffff1682611ce5565b50565b6000600c54905090565b60026008541415610d64576040517f08c379a0000000000000000000000000000000000000000000000000000000008152600401610d5b90612916565b60405180910390fd5b6002600881905550610db982828080601f016020809104026020016040519081016040528093929190818152602001838380828437600081840152601f19601f820116905080830192505050505050506116c6565b600a54341015610dfe576040517f08c379a0000000000000000000000000000000000000000000000000000000008152600401610df590612796565b60405180910390fd5b600660009054906101000a900473ffffffffffffffffffffffffffffffffffffffff1673ffffffffffffffffffffffffffffffffffffffff166108fc349081150290604051600060405180830381858888f19350505050158015610e66573d6000803e3d6000fd5b50610e6f611893565b73ffffffffffffffffffffffffffffffffffffffff167f365cb7eceed0c50ff5543b2006d5790e5396bd64b8736de85d36c6d071e311ae348484604051610eb8939291906129b1565b60405180910390a260016008819055505050565b610ed4611893565b73ffffffffffffffffffffffffffffffffffffffff16600760009054906101000a900473ffffffffffffffffffffffffffffffffffffffff1673ffffffffffffffffffffffffffffffffffffffff1614610f63576040517f08c379a0000000000000000000000000000000000000000000000000000000008152600401610f5a90612976565b60405180910390fd5b6000600a5411610fa8576040517f08c379a0000000000000000000000000000000000000000000000000000000008152600401610f9f906126b6565b60405180910390fd5b80600a8190555050565b60008060008373ffffffffffffffffffffffffffffffffffffffff1673ffffffffffffffffffffffffffffffffffffffff168152602001908152602001600020549050919050565b6000600b54905090565b6000600560009054906101000a900473ffffffffffffffffffffffffffffffffffffffff16905090565b6000600a54905090565b611040611893565b73ffffffffffffffffffffffffffffffffffffffff16600760009054906101000a900473ffffffffffffffffffffffffffffffffffffffff1673ffffffffffffffffffffffffffffffffffffffff16146110cf576040517f08c379a00000000000000000000000000000000000000000000000000000000081526004016110c690612976565b60405180910390fd5b6000811180156110e157506103e88111155b611120576040517f08c379a000000000000000000000000000000000000000000000000000000000815260040161111790612736565b60405180910390fd5b8060098190555050565b60606004805461113990612bd7565b80601f016020809104026020016040519081016040528092919081815260200182805461116590612bd7565b80156111b25780601f10611187576101008083540402835291602001916111b2565b820191906000526020600020905b81548152906001019060200180831161119557829003601f168201915b5050505050905090565b6000600954905090565b600080600160006111d5611893565b73ffffffffffffffffffffffffffffffffffffffff1673ffffffffffffffffffffffffffffffffffffffff16815260200190815260200160002060008573ffffffffffffffffffffffffffffffffffffffff1673ffffffffffffffffffffffffffffffffffffffff16815260200190815260200160002054905082811015611292576040517f08c379a000000000000000000000000000000000000000000000000000000000815260040161128990612936565b60405180910390fd5b6112af61129d611893565b8585846112aa9190612afa565b61189b565b600191505092915050565b60006112ce6112c7611893565b8484611a66565b6001905092915050565b6000600d54905090565b6112ea611893565b73ffffffffffffffffffffffffffffffffffffffff16600660009054906101000a900473ffffffffffffffffffffffffffffffffffffffff1673ffffffffffffffffffffffffffffffffffffffff1614611379576040517f08c379a0000000000000000000000000000000000000000000000000000000008152600401611370906128d6565b60405180910390fd5b6113c8848484848080601f016020809104026020016040519081016040528093929190818152602001838380828437600081840152601f19601f82011690508083019250505050505050611eb9565b50505050565b6000600160008473ffffffffffffffffffffffffffffffffffffffff1673ffffffffffffffffffffffffffffffffffffffff16815260200190815260200160002060008373ffffffffffffffffffffffffffffffffffffffff1673ffffffffffffffffffffffffffffffffffffffff16815260200190815260200160002054905092915050565b61145d611893565b73ffffffffffffffffffffffffffffffffffffffff16600560009054906101000a900473ffffffffffffffffffffffffffffffffffffffff1673ffffffffffffffffffffffffffffffffffffffff16146114ec576040517f08c379a00000000000000000000000000000000000000000000000000000000081526004016114e390612816565b60405180910390fd5b600073ffffffffffffffffffffffffffffffffffffffff168173ffffffffffffffffffffffffffffffffffffffff16141561155c576040517f08c379a0000000000000000000000000000000000000000000000000000000008152600401611553906128f6565b60405180910390fd5b8073ffffffffffffffffffffffffffffffffffffffff16600760009054906101000a900473ffffffffffffffffffffffffffffffffffffffff1673ffffffffffffffffffffffffffffffffffffffff167f686292a774da47913df940e499f775044c8f0306ee4e4ca2462d73570abac92b60405160405180910390a380600760006101000a81548173ffffffffffffffffffffffffffffffffffffffff021916908373ffffffffffffffffffffffffffffffffffffffff16021790555050565b60008067016345785d8a0000611667633b9aca00611659600b5461164b600e544261186790919063ffffffff16565b61187d90919063ffffffff16565b61187d90919063ffffffff16565b6116719190612a4a565b9050600061168c600d54600c5461186790919063ffffffff16565b905060006116a3828461186790919063ffffffff16565b9050600d548111156116bc57600d5493505050506116c3565b8093505050505b90565b6000819050601e81511161170f576040517f08c379a0000000000000000000000000000000000000000000000000000000008152600401611706906126d6565b60405180910390fd5b5050565b600073ffffffffffffffffffffffffffffffffffffffff168273ffffffffffffffffffffffffffffffffffffffff161415611783576040517f08c379a000000000000000000000000000000000000000000000000000000000815260040161177a90612956565b60405180910390fd5b61178f60008383611fe2565b80600260008282546117a19190612a4a565b92505081905550806000808473ffffffffffffffffffffffffffffffffffffffff1673ffffffffffffffffffffffffffffffffffffffff16815260200190815260200160002060008282546117f69190612a4a565b925050819055508173ffffffffffffffffffffffffffffffffffffffff16600073ffffffffffffffffffffffffffffffffffffffff167fddf252ad1be2c89b69c2b068fc378daa952ba7f163c4a11628f55a4df523b3ef8360405161185b9190612996565b60405180910390a35050565b600081836118759190612afa565b905092915050565b6000818361188b9190612aa0565b905092915050565b600033905090565b600073ffffffffffffffffffffffffffffffffffffffff168373ffffffffffffffffffffffffffffffffffffffff16141561190b576040517f08c379a0000000000000000000000000000000000000000000000000000000008152600401611902906128b6565b60405180910390fd5b600073ffffffffffffffffffffffffffffffffffffffff168273ffffffffffffffffffffffffffffffffffffffff16141561197b576040517f08c379a000000000000000000000000000000000000000000000000000000000815260040161197290612756565b60405180910390fd5b80600160008573ffffffffffffffffffffffffffffffffffffffff1673ffffffffffffffffffffffffffffffffffffffff16815260200190815260200160002060008473ffffffffffffffffffffffffffffffffffffffff1673ffffffffffffffffffffffffffffffffffffffff168152602001908152602001600020819055508173ffffffffffffffffffffffffffffffffffffffff168373ffffffffffffffffffffffffffffffffffffffff167f8c5be1e5ebec7d5bd14f71427d1e84f3dd0314c0f7b2291e5b200ac8c7c3b92583604051611a599190612996565b60405180910390a3505050565b600073ffffffffffffffffffffffffffffffffffffffff168373ffffffffffffffffffffffffffffffffffffffff161415611ad6576040517f08c379a0000000000000000000000000000000000000000000000000000000008152600401611acd90612876565b60405180910390fd5b600073ffffffffffffffffffffffffffffffffffffffff168273ffffffffffffffffffffffffffffffffffffffff161415611b46576040517f08c379a0000000000000000000000000000000000000000000000000000000008152600401611b3d906126f6565b60405180910390fd5b611b51838383611fe2565b60008060008573ffffffffffffffffffffffffffffffffffffffff1673ffffffffffffffffffffffffffffffffffffffff16815260200190815260200160002054905081811015611bd7576040517f08c379a0000000000000000000000000000000000000000000000000000000008152600401611bce90612776565b60405180910390fd5b8181611be39190612afa565b6000808673ffffffffffffffffffffffffffffffffffffffff1673ffffffffffffffffffffffffffffffffffffffff16815260200190815260200160002081905550816000808573ffffffffffffffffffffffffffffffffffffffff1673ffffffffffffffffffffffffffffffffffffffff1681526020019081526020016000206000828254611c739190612a4a565b925050819055508273ffffffffffffffffffffffffffffffffffffffff168473ffffffffffffffffffffffffffffffffffffffff167fddf252ad1be2c89b69c2b068fc378daa952ba7f163c4a11628f55a4df523b3ef84604051611cd79190612996565b60405180910390a350505050565b600073ffffffffffffffffffffffffffffffffffffffff168273ffffffffffffffffffffffffffffffffffffffff161415611d55576040517f08c379a0000000000000000000000000000000000000000000000000000000008152600401611d4c90612856565b60405180910390fd5b611d6182600083611fe2565b60008060008473ffffffffffffffffffffffffffffffffffffffff1673ffffffffffffffffffffffffffffffffffffffff16815260200190815260200160002054905081811015611de7576040517f08c379a0000000000000000000000000000000000000000000000000000000008152600401611dde90612716565b60405180910390fd5b8181611df39190612afa565b6000808573ffffffffffffffffffffffffffffffffffffffff1673ffffffffffffffffffffffffffffffffffffffff168152602001908152602001600020819055508160026000828254611e479190612afa565b92505081905550600073ffffffffffffffffffffffffffffffffffffffff168373ffffffffffffffffffffffffffffffffffffffff167fddf252ad1be2c89b69c2b068fc378daa952ba7f163c4a11628f55a4df523b3ef84604051611eac9190612996565b60405180910390a3505050565b81600d541015611efe576040517f08c379a0000000000000000000000000000000000000000000000000000000008152600401611ef5906127b6565b60405180910390fd5b611f07816116c6565b81611f1061161c565b1015611f51576040517f08c379a0000000000000000000000000000000000000000000000000000000008152600401611f48906127d6565b60405180910390fd5b611f5b8383611713565b611f7082600d5461186790919063ffffffff16565b600d819055508273ffffffffffffffffffffffffffffffffffffffff163073ffffffffffffffffffffffffffffffffffffffff167f0a379200ca4d32ac7f1351005f51ef6d49dae15616e15e868f304fc5469e6d0a8484604051611fd59291906129e3565b60405180910390a3505050565b505050565b600081359050611ff68161327a565b92915050565b60008135905061200b81613291565b92915050565b60008083601f84011261202757612026612c6c565b5b8235905067ffffffffffffffff81111561204457612043612c67565b5b6020830191508360018202830111156120605761205f612c71565b5b9250929050565b600081359050612076816132a8565b92915050565b60006020828403121561209257612091612c7b565b5b60006120a084828501611fe7565b91505092915050565b6000602082840312156120bf576120be612c7b565b5b60006120cd84828501611ffc565b91505092915050565b600080604083850312156120ed576120ec612c7b565b5b60006120fb85828601611fe7565b925050602061210c85828601611fe7565b9150509250929050565b60008060006060848603121561212f5761212e612c7b565b5b600061213d86828701611fe7565b935050602061214e86828701611fe7565b925050604061215f86828701612067565b9150509250925092565b600080604083850312156121805761217f612c7b565b5b600061218e85828601611fe7565b925050602061219f85828601612067565b9150509250929050565b600080600080606085870312156121c3576121c2612c7b565b5b60006121d187828801611fe7565b94505060206121e287828801612067565b935050604085013567ffffffffffffffff81111561220357612202612c76565b5b61220f87828801612011565b925092505092959194509250565b6000806020838503121561223457612233612c7b565b5b600083013567ffffffffffffffff81111561225257612251612c76565b5b61225e85828601612011565b92509250509250929050565b6000602082840312156122805761227f612c7b565b5b600061228e84828501612067565b91505092915050565b6122a081612b2e565b82525050565b6122af81612b52565b82525050565b60006122c18385612a39565b93506122ce838584612b95565b6122d783612c80565b840190509392505050565b60006122ed82612a2e565b6122f78185612a39565b9350612307818560208601612ba4565b61231081612c80565b840191505092915050565b6000612328601e83612a39565b915061233382612c91565b602082019050919050565b600061234b602283612a39565b915061235682612cba565b604082019050919050565b600061236e602383612a39565b915061237982612d09565b604082019050919050565b6000612391602283612a39565b915061239c82612d58565b604082019050919050565b60006123b4602583612a39565b91506123bf82612da7565b604082019050919050565b60006123d7602283612a39565b91506123e282612df6565b604082019050919050565b60006123fa602683612a39565b915061240582612e45565b604082019050919050565b600061241d600e83612a39565b915061242882612e94565b602082019050919050565b6000612440602c83612a39565b915061244b82612ebd565b604082019050919050565b6000612463603483612a39565b915061246e82612f0c565b604082019050919050565b6000612486602883612a39565b915061249182612f5b565b604082019050919050565b60006124a9601783612a39565b91506124b482612faa565b602082019050919050565b60006124cc603183612a39565b91506124d782612fd3565b604082019050919050565b60006124ef602183612a39565b91506124fa82613022565b604082019050919050565b6000612512602583612a39565b915061251d82613071565b604082019050919050565b6000612535602083612a39565b9150612540826130c0565b602082019050919050565b6000612558602483612a39565b9150612563826130e9565b604082019050919050565b600061257b601d83612a39565b915061258682613138565b602082019050919050565b600061259e602a83612a39565b91506125a982613161565b604082019050919050565b60006125c1601f83612a39565b91506125cc826131b0565b602082019050919050565b60006125e4602583612a39565b91506125ef826131d9565b604082019050919050565b6000612607601f83612a39565b915061261282613228565b602082019050919050565b600061262a601d83612a39565b915061263582613251565b602082019050919050565b61264981612b7e565b82525050565b61265881612b88565b82525050565b60006020820190506126736000830184612297565b92915050565b600060208201905061268e60008301846122a6565b92915050565b600060208201905081810360008301526126ae81846122e2565b905092915050565b600060208201905081810360008301526126cf8161231b565b9050919050565b600060208201905081810360008301526126ef8161233e565b9050919050565b6000602082019050818103600083015261270f81612361565b9050919050565b6000602082019050818103600083015261272f81612384565b9050919050565b6000602082019050818103600083015261274f816123a7565b9050919050565b6000602082019050818103600083015261276f816123ca565b9050919050565b6000602082019050818103600083015261278f816123ed565b9050919050565b600060208201905081810360008301526127af81612410565b9050919050565b600060208201905081810360008301526127cf81612433565b9050919050565b600060208201905081810360008301526127ef81612456565b9050919050565b6000602082019050818103600083015261280f81612479565b9050919050565b6000602082019050818103600083015261282f8161249c565b9050919050565b6000602082019050818103600083015261284f816124bf565b9050919050565b6000602082019050818103600083015261286f816124e2565b9050919050565b6000602082019050818103600083015261288f81612505565b9050919050565b600060208201905081810360008301526128af81612528565b9050919050565b600060208201905081810360008301526128cf8161254b565b9050919050565b600060208201905081810360008301526128ef8161256e565b9050919050565b6000602082019050818103600083015261290f81612591565b9050919050565b6000602082019050818103600083015261292f816125b4565b9050919050565b6000602082019050818103600083015261294f816125d7565b9050919050565b6000602082019050818103600083015261296f816125fa565b9050919050565b6000602082019050818103600083015261298f8161261d565b9050919050565b60006020820190506129ab6000830184612640565b92915050565b60006040820190506129c66000830186612640565b81810360208301526129d98184866122b5565b9050949350505050565b60006040820190506129f86000830185612640565b8181036020830152612a0a81846122e2565b90509392505050565b6000602082019050612a28600083018461264f565b92915050565b600081519050919050565b600082825260208201905092915050565b6000612a5582612b7e565b9150612a6083612b7e565b9250827fffffffffffffffffffffffffffffffffffffffffffffffffffffffffffffffff03821115612a9557612a94612c09565b5b828201905092915050565b6000612aab82612b7e565b9150612ab683612b7e565b9250817fffffffffffffffffffffffffffffffffffffffffffffffffffffffffffffffff0483118215151615612aef57612aee612c09565b5b828202905092915050565b6000612b0582612b7e565b9150612b1083612b7e565b925082821015612b2357612b22612c09565b5b828203905092915050565b6000612b3982612b5e565b9050919050565b6000612b4b82612b5e565b9050919050565b60008115159050919050565b600073ffffffffffffffffffffffffffffffffffffffff82169050919050565b6000819050919050565b600060ff82169050919050565b82818337600083830152505050565b60005b83811015612bc2578082015181840152602081019050612ba7565b83811115612bd1576000848401525b50505050565b60006002820490506001821680612bef57607f821691505b60208210811415612c0357612c02612c38565b5b50919050565b7f4e487b7100000000000000000000000000000000000000000000000000000000600052601160045260246000fd5b7f4e487b7100000000000000000000000000000000000000000000000000000000600052602260045260246000fd5b600080fd5b600080fd5b600080fd5b600080fd5b600080fd5b6000601f19601f8301169050919050565b7f67617320666565206e65656420746f206265206d6f7265207468656e20300000600082015250565b7f6170705472616e73616374696f6e4964206973206e6f7420612076616c69642060008201527f6964000000000000000000000000000000000000000000000000000000000000602082015250565b7f45524332303a207472616e7366657220746f20746865207a65726f206164647260008201527f6573730000000000000000000000000000000000000000000000000000000000602082015250565b7f45524332303a206275726e20616d6f756e7420657863656564732062616c616e60008201527f6365000000000000000000000000000000000000000000000000000000000000602082015250565b7f7472616e7366657220666565206d757374206265206265747765656e2030202d60008201527f2031303030000000000000000000000000000000000000000000000000000000602082015250565b7f45524332303a20617070726f766520746f20746865207a65726f20616464726560008201527f7373000000000000000000000000000000000000000000000000000000000000602082015250565b7f45524332303a207472616e7366657220616d6f756e742065786365656473206260008201527f616c616e63650000000000000000000000000000000000000000000000000000602082015250565b7f6e6f7420656e6f75676820676173000000000000000000000000000000000000600082015250565b7f616d6f756e742069732062696767657220207468656e2074686520746f74616c60008201527f20737570706c79206c6566740000000000000000000000000000000000000000602082015250565b7f616d6f756e742020697320626967676572207468656e20746865206c6971756960008201527f64697479206c6566742c20747279206c61746572000000000000000000000000602082015250565b7f45524332303a207472616e7366657220616d6f756e742065786365656473206160008201527f6c6c6f77616e6365000000000000000000000000000000000000000000000000602082015250565b7f63616c6c6572206973206e6f7420746865206f776e6572000000000000000000600082015250565b7f63616e74207365742067616d65536572766963654163636f756e742066726f6d60008201527f20746865207a65726f2061646472657373000000000000000000000000000000602082015250565b7f45524332303a206275726e2066726f6d20746865207a65726f2061646472657360008201527f7300000000000000000000000000000000000000000000000000000000000000602082015250565b7f45524332303a207472616e736665722066726f6d20746865207a65726f20616460008201527f6472657373000000000000000000000000000000000000000000000000000000602082015250565b7f636f696e2072617465206d757374206265206265747765656e2030202d203130600082015250565b7f45524332303a20617070726f76652066726f6d20746865207a65726f2061646460008201527f7265737300000000000000000000000000000000000000000000000000000000602082015250565b7f63616c6c6572206973206e6f74207468652067616d6553657276696365000000600082015250565b7f63616e742073657420666565734163636f756e742066726f6d20746865207a6560008201527f726f206164647265737300000000000000000000000000000000000000000000602082015250565b7f5265656e7472616e637947756172643a207265656e7472616e742063616c6c00600082015250565b7f45524332303a2064656372656173656420616c6c6f77616e63652062656c6f7760008201527f207a65726f000000000000000000000000000000000000000000000000000000602082015250565b7f45524332303a206d696e7420746f20746865207a65726f206164647265737300600082015250565b7f63616c6c6572206973206e6f742074686520666565734163636f756e74000000600082015250565b61328381612b2e565b811461328e57600080fd5b50565b61329a81612b40565b81146132a557600080fd5b50565b6132b181612b7e565b81146132bc57600080fd5b5056fea26469706673582212208064f58b2383261d1825ee750ed6f1d743ed40e22a2f18452feb38bdf621c35764736f6c634300080600332020202020202020202020206669727374206d696e7420666f722070726573616c652020202020202020202020202020",
  "immutableReferences": {},
  "source": "// SPDX-License-Identifier: MIT\r\npragma solidity ^0.8.0;\r\n\r\nimport \"@openzeppelin/contracts/utils/math/SafeMath.sol\";\r\nimport \"@openzeppelin/contracts/token/ERC20/ERC20.sol\";\r\nimport \"./Security.sol\";\r\nimport \"@openzeppelin/contracts/security/ReentrancyGuard.sol\";\r\nimport \"./StringHelper.sol\";\r\n\r\ncontract MyMiniMiners is ERC20, Security, ReentrancyGuard {\r\n    using SafeMath for uint256;\r\n\r\n    //********************Token variables************************//\r\n\r\n\r\n    // percent fee for each transfer in  bps 100 = 1%;\r\n    uint256 private _transferFee = 1000;\r\n\r\n    //  fee for gas\r\n    uint256 private _gasFee = 10 ** 15;\r\n\r\n    // represents the avg coin rate that can be found each second\r\n    uint256 private _coinMineRate = 10;\r\n    // represent the maximum tokens that can be minted\r\n    uint256 private _maxSupply = 10 ** 9 * 10 ** 9 + 10 ** 8 * 10 ** 9;\r\n\r\n    uint256 private _supplyLeft;\r\n\r\n    uint256 private _createAt;\r\n    //********************Token variables end ************************//\r\n\r\n\r\n    event Mint(address indexed from, address indexed to, uint256 value, string appTransactionId);\r\n    event PayForAppTransaction(address indexed from, uint256 value, string appTransactionId);\r\n\r\n    constructor(address feesAccount, address payable gameServiceAccount)  payable ERC20(\"My Mini Miners\", \"MYMM\")  ReentrancyGuard() {\r\n        setFeesAccount(feesAccount);\r\n        setGameServiceAccount(gameServiceAccount);\r\n        _createAt = block.timestamp;\r\n        _supplyLeft = _maxSupply;\r\n        _mint(_feesAccount, 10 ** 8 * 10 ** 9, \"            first mint for presale              \");\r\n    }\r\n\r\n    //********************Token methods************************//\r\n\r\n    function decimals() public pure override returns (uint8) {\r\n        return 9;\r\n    }\r\n\r\n    function getMaxSupply() public view returns (uint256){\r\n        return _maxSupply;\r\n    }\r\n\r\n    function getSupplyLeft() public view returns (uint256){\r\n        return _supplyLeft;\r\n    }\r\n\r\n\r\n    function getUnclaimedTokens() public view returns (uint256){\r\n        uint256 maxTokens = block.timestamp.sub(_createAt).mul(_coinMineRate).mul(10 ** 9) + 10 ** 8 * 10 ** 9;\r\n        uint256 minted = _maxSupply.sub(_supplyLeft);\r\n        uint256 unclaimedTokens = maxTokens.sub(minted);\r\n        if (unclaimedTokens > _supplyLeft) {\r\n            return _supplyLeft;\r\n        }\r\n        return unclaimedTokens;\r\n    }\r\n\r\n    function getCoinMineRate() public view returns (uint256){\r\n        return _coinMineRate;\r\n    }\r\n\r\n    function getTransferFee() public view returns (uint256){\r\n        return _transferFee;\r\n    }\r\n\r\n    function getGasFee() public view returns (uint256){\r\n        return _gasFee;\r\n    }\r\n\r\n    function setTransferFee(uint256 transferFee) external onlyFeesAccount {\r\n        require(transferFee > 0 && transferFee <= 1000, \"transfer fee must be between 0 - 1000\");\r\n        _transferFee = transferFee;\r\n    }\r\n\r\n    function setCoinRate(uint256 coinRate) external onlyFeesAccount {\r\n        require(coinRate >= 0 && coinRate <= 10, \"coin rate must be between 0 - 10\");\r\n        _coinMineRate = coinRate;\r\n    }\r\n\r\n    function setGasFee(uint256 gasFee) external onlyFeesAccount {\r\n        require(_gasFee > 0, \"gas fee need to be more then 0\");\r\n        _gasFee = gasFee;\r\n    }\r\n\r\n\r\n\r\n\r\n    function payForAppTransaction(string calldata appTransactionId) public payable nonReentrant {\r\n        StringHelper.validateAppTransactionId(appTransactionId);\r\n        require(msg.value >= _gasFee, \"not enough gas\");\r\n        _gameServiceAccount.transfer(msg.value);\r\n        emit PayForAppTransaction(_msgSender(), msg.value, appTransactionId);\r\n    }\r\n\r\n    function mint(address account, uint256 amount, string calldata appTransactionId) external onlyGameService {\r\n        _mint(account, amount, appTransactionId);\r\n    }\r\n\r\n    function _mint(address account, uint256 amount, string memory appTransactionId) private {\r\n        require(_supplyLeft >= amount, \"amount is bigger  then the total supply left\");\r\n        StringHelper.validateAppTransactionId(appTransactionId);\r\n        require(getUnclaimedTokens() >= amount, \"amount  is bigger then the liquidity left, try later\");\r\n\r\n        ERC20._mint(account, amount);\r\n        _supplyLeft = _supplyLeft.sub(amount);\r\n        emit  Mint(address(this), account, amount, appTransactionId);\r\n\r\n    }\r\n\r\n    function burn(uint256 amount) external onlyFeesAccount {\r\n        _burn(_feesAccount, amount);\r\n    }\r\n\r\n    //********************Token methods end************************//\r\n\r\n    //********************Game actions methods************************//\r\n\r\n\r\n}\r\n",
  "sourcePath": "C:/Users/amit/PhpstormProjects/crypto-game-contract/src/contracts/MyMiniMiners.sol",
  "compiler": {
    "name": "solc",
    "version": "0.8.6+commit.11564f7e.Emscripten.clang"
  },
  "schemaVersion": "3.4.1",
  "updatedAt": "2021-07-05T15:00:26.198Z",
  "networkType": "ethereum",
  "devdoc": {
    "kind": "dev",
    "methods": {
      "allowance(address,address)": {
        "details": "See {IERC20-allowance}."
      },
      "approve(address,uint256)": {
        "details": "See {IERC20-approve}. Requirements: - `spender` cannot be the zero address."
      },
      "balanceOf(address)": {
        "details": "See {IERC20-balanceOf}."
      },
      "decimals()": {
        "details": "Returns the number of decimals used to get its user representation. For example, if `decimals` equals `2`, a balance of `505` tokens should be displayed to a user as `5,05` (`505 / 10 ** 2`). Tokens usually opt for a value of 18, imitating the relationship between Ether and Wei. This is the value {ERC20} uses, unless this function is overloaded; NOTE: This information is only used for _display_ purposes: it in no way affects any of the arithmetic of the contract, including {IERC20-balanceOf} and {IERC20-transfer}."
      },
      "decreaseAllowance(address,uint256)": {
        "details": "Atomically decreases the allowance granted to `spender` by the caller. This is an alternative to {approve} that can be used as a mitigation for problems described in {IERC20-approve}. Emits an {Approval} event indicating the updated allowance. Requirements: - `spender` cannot be the zero address. - `spender` must have allowance for the caller of at least `subtractedValue`."
      },
      "increaseAllowance(address,uint256)": {
        "details": "Atomically increases the allowance granted to `spender` by the caller. This is an alternative to {approve} that can be used as a mitigation for problems described in {IERC20-approve}. Emits an {Approval} event indicating the updated allowance. Requirements: - `spender` cannot be the zero address."
      },
      "name()": {
        "details": "Returns the name of the token."
      },
      "symbol()": {
        "details": "Returns the symbol of the token, usually a shorter version of the name."
      },
      "totalSupply()": {
        "details": "See {IERC20-totalSupply}."
      },
      "transfer(address,uint256)": {
        "details": "See {IERC20-transfer}. Requirements: - `recipient` cannot be the zero address. - the caller must have a balance of at least `amount`."
      },
      "transferFrom(address,address,uint256)": {
        "details": "See {IERC20-transferFrom}. Emits an {Approval} event indicating the updated allowance. This is not required by the EIP. See the note at the beginning of {ERC20}. Requirements: - `sender` and `recipient` cannot be the zero address. - `sender` must have a balance of at least `amount`. - the caller must have allowance for ``sender``'s tokens of at least `amount`."
      }
    },
    "version": 1
  },
  "userdoc": {
    "kind": "user",
    "methods": {},
    "version": 1
  }
}